:1000000000000120750300005D030000C10A00002C
:1000100061030000630300006503000000000000AE
:100020000000000000000000000000006703000066
:1000300069030000000000006B0300006D03000076
:10004000691A00006F030000791A00006F030000B6
:100050006F0300006F030000E51700006F0300004E
:100060006F0300006F0300006F0300006F030000C8
:100070006F0300006F0300006F0300006F030000B8
:100080006F030000C50500006F0300006F03000050
:10009000610600006F0300006F0300006F030000A3
:1000A0006F0300006F0300006F0300006F03000088
:1000B0006F0300006F03000000000000000000005C
:1000C0006F0300006F0300006F0300006F03000068
:1000D0006F0300006F0300006F03000000000000CA
:1000E0000000000000000000000000000000000010
:1000F0000000000000000000000000000000000000
:1001000000000000000000000000000000000000EF
:1001100000000000000000000000000000000000DF
:1001200000000000000000000000000000000000CF
:1001300000000000000000000000000000000000BF
:1001400000000000000000000000000000000000AF
:10015000000000000000000000000000000000009F
:10016000000000000000000000000000000000008F
:10017000000000000000000000000000000000007F
:10018000000000000000000000000000000000006F
:10019000000000000000000000000000000000005F
:1001A000000000000000000000000000000000004F
:1001B000000000000000000000000000000000003F
:1001C000000000000000000000000000000000002F
:1001D000000000000000000000000000000000001F
:1001E000000000000000000000000000000000000F
:1001F00000000000000000000000000000000000FF
:10020000354936480A1A02D0072291438D463449AF
:1002100034480A1A06D00722914381F30988022242
:1002200082F3148830483149314A00F044F83148AB
:100230003149324A00F03FF831483249324A00F041
:100240003AF832483249334A00F035F832483349F7
:10025000334A00F030F833483349344A00F02BF881
:1002600033483449344A00F026F8344834490022EF
:1002700000F02CF833483449002200F027F83348C6
:100280003349091A082902DB002202604160314A21
:1002900090471F481F49884205D00268043003B4C4
:1002A000904703BCF7E700208646EC46002000217B
:1002B000294A9047FEE7884207D0521A05D00378B2
:1002C00001300B700131013AF9D17047884202D0F8
:1002D00002700130FAE770470000012000E00020C2
:1002E0000000012000000120243200000000002056
:1002F00018000020D4030000D4030000362C0000B6
:10030000243200000000002000000020602C0000CB
:10031000602C0000602C0000602C0000602C0000AD
:10032000602C0000602C0000602C000024320000D3
:100330003C320000180000201800002018000020A7
:100340000003002000030020000300200003002021
:10035000002300209D030000C5260000FEE7FEE705
:10036000FEE7FEE7FEE7FEE7FEE7FEE7FEE7FEE765
:10037000704700BF1048804710484FF0070188437E
:1003800085460F4880470F48016841F470010160BD
:10039000BFF34F8FBFF36F8FFFF732BF0A480B4990
:1003A0000B4A884207D0521A05D0037801300B70EF
:1003B0000131013AF9D170477103000000000120BA
:1003C000F527000088ED00E0602C00000000002010
:0403D0000000002009
:1003D40002494FF4F37000F0ADBB00BFC12C000024
:1003E400032810B5044603D90849472000F0A2FBAE
:1003F400074B1C5D1F2C01D9FFF7EAFF01234FF0C7
:10040400A042A340C2F8083510BD00BF602C000014
:10041400BD2C000008B50020FFF7E2FF0120FFF724
:10042400DFFF0220FFF7DCFF0320BDE80840FFF7F1
:10043400D7BFC20710B504460CD54FF0A043032222
:10044400C3F84427C3F84827C3F84C27C3F85027F8
:10045400FFF7E0FFA3070AD54FF0A0430C22C3F82F
:100464003427C3F83827C3F83C27C3F8402710BD06
:1004740082B001238DF807309DF80730114B1860C6
:10048400596044F2010188429A6012D044F2020198
:10049400884206D1DA60DA6812889A61DA685268AA
:1004A400DA6172B69DF80730002BFBD162B602B058
:1004B40070471A611A6992685A611A6912689A61D6
:1004C4001A69ECE71800002000B583B0029000918F
:1004D400019244F2010071466A4600F003F803B049
:1004E40000BD000072B6034B1B68DB0700D500BEDD
:1004F400FFF7BEBFF0ED00E0094A5378917801336D
:10050400DBB2994208BF0023117899421FBF0370E0
:100514005078182303FB002014BF043000207047D8
:100524003800002037B5044600200D4600F0A6FA36
:100534000DF10700FFF7E0FF90B10570094B9DF83E
:10054400072044605A700024002000F0A7FA24B960
:10055400054B4FF48012C3F80021204603B030BD90
:100564000424F1E73800002000E100E0024B4FF4DE
:100574003C6043F001031847F02C000038B50C4BE5
:100584000C4C4FF40032C3F8802001254FF4803323
:10059400C4F84833C4F808336560FFF7E7FF064B37
:1005A400A56000241C60FFF7E1FF044B1C7038BDFC
:1005B40000E100E00010014054010020450100204A
:1005C400F8B51F4B1F491B680025C1F84051C1F8FD
:1005D4004451C1F84851C1F84C51C1F80051C1F817
:1005E40004514BB3D1F8044517490968641A24F03F
:1005F4007F442F461A68A24209D8A41A15441A7CCB
:10060400DE691AB11F74D3E905209047AEB90F4AC9
:100614000F4B11781B788B4205D10133DBB2022BCF
:1006240008BF0023137012780A4B43F822500A4B78
:100634004FF48012C3F80021F8BD3346DAE700BF57
:1006440058010020001001405401002051010020F5
:10065400500100204801002000E100E02DE9F04FA6
:10066400A14AA24913780978A14D994285B03CD09A
:100674000133DBB2022B08BF002313709D491278AB
:100684009D4B0F6853F822003B1823F07F43002250
:100694000B602B6816461446944613B942B12B607E
:1006A40006E0196881420ED902B12B60091A19605B
:1006B40001272B68DFF848A201934FF00008BEB968
:1006C400DFF844B266E0401A0C44D968C3F800C0AD
:1006D400D3F81CE031B13A1922F07F42C3E9012179
:1006E400DE611E4601227346D7E700263746E0E75F
:1006F4003446F6697F4A63681268DFF810C2A0685E
:10070400991A21F07F41614500F2A68001442160DD
:10071400012222742A680023C4E90133E361002A18
:1007240040F0A3802C60CAE75A1C9BF80210D2B296
:1007340091428BF8002004BF00228BF8002018227D
:1007440002FB03B31A799C68022A1CD0032A12D034
:10075400012A1FD1207CE8B9D3E90312A2605A69A7
:10076400E2609A69654BA2611B78002B0CBF0B46B3
:1007740003466360BEE700222B681146002B67D155
:1007840042B12B6006E029680A468946002A5AD1FC
:10079400002323749BF800309BF801209A42C3D1B4
:1007A4002B68B8F1000F04D1019A9A4201D1002FAD
:1007B40043D0002B73D0D3F800A0514D4D4BD5F846
:1007C40004751C68DFF848813E1B98F8003026F059
:1007D4007F4603369BB94FF48033C5F84433C5F8DC
:1007E4000433484B4FF400324FF00109C3F8802121
:1007F4001A60C5F80090FFF7B9FE88F80090B2457A
:100804002CBF5444A41924F07F44C5F84045D5F8BE
:100814000435DB1B23F07F43E41B033324F07F44C4
:10082400A3420AD9D5F80435C5F84035FFF79EFE32
:10083400344B4FF40032C3F80021304B00221A70BD
:1008440005B0BDE8F08F94422CD09146D2699DE763
:1008540019740122DB6991E7D31A23F07F438342A1
:1008640034BFC31A0023236052E7216813689942F6
:1008740013D8591A1160E26154E7091AD8691A4663
:1008840038B1034618688842F7D3401A18601846EE
:1008940013462160E061DC6111E71346F2E7FFF7DC
:1008A4006DFECAE74C4511D1CB692B6073B9DFF8F3
:1008B40044E00120CDE90212CAF80800CEF8003065
:1008C4000E4B1870FFF752FEDDE902121368D2696D
:1008D400C9F81C2012B11068034413602B689942B4
:1008E40018BF4FF0010853E75001002051010020C8
:1008F4005801002054010020480100204401002038
:100904000010014000E100E038000020FEFF7F00FD
:100914004501002008B5FFF731FE104B00200B22E3
:1009240018809A700E4B18600E4B18700E4B18708E
:100934000E4B4FF48012C021C3F8802183F81413A6
:100944001A6002F18042A2F56F22C2F8080583F80A
:100954001113074BD2F804251A6008BD3800002093
:1009640058010020500100205101002000E100E066
:1009740054010020074B9B784BB132B128B1036876
:10098400187C20B959745A617047072070470820B1
:10099400704700BF380000202DE9F3411C4EB378A6
:1009A40004460D4617468BB380B304292CD94369FA
:1009B40063B3437C0020012B0CBF88464FF0000832
:1009C40000F05CF80DF10700FFF796FDD0B10123AC
:1009D4000370104B4460D3F80435C0E90487C0E9C0
:1009E40002359DF8073073700024002000F056F89B
:1009F40024B9094B4FF48012C3F80021204602B0F9
:100A0400BDE8F0810424F0E70724F7E70824F5E7BC
:100A1400380000200010014000E100E0064A92780E
:100A24003AB130B1426922B1002202740221FFF7C7
:100A340079BD0820704700BF3800002072B6024A12
:100A440013680133136070475C010020034A136884
:100A5400013B136003B962B6704700BF5C0100201C
:100A6400EFF30583C3F308032BB9EFF31480C043FA
:100A740000F00100704701207047000008B5FFF73F
:100A8400EFFF012803D00449432000F053F8BDE8E8
:100A94000840FFF7D3BF00BFF62C000008B5FFF7EE
:100AA400DFFF012803D00449512000F043F8BDE8DA
:100AB4000840FFF7CBBF00BFF62C00001EF0040F68
:100AC4001CBFEFF309800AE0EFF308800549064AEA
:100AD400884201D8904202D88D464FF00000034B63
:100AE400184700000000012000E00020190B00005E
:100AF400BFF34F8F0549064BCA6802F4E062134303
:100B0400CB60BFF34F8F00BFFDE700BF00ED00E0F7
:100B14000400FA0508B5054B9A6ADB6A044B1B68A6
:100B2400DB0700D500BEFFF7E3FF08BD00ED00E0E2
:100B3400F0ED00E007B5ADF8000001916A46002130
:100B440044F20200FFF7CEFC03B05DF804FB50E86A
:100B5400002F0B4640E8003C9CF0000FF7D11046F4
:100B64007047026813685268934291BFD01A806834
:100B74000130801888BFC01A7047000038B50C4691
:100B8400054618B904497720FFF7D4FFAB68A342A0
:100B94008CBF601C002038BD662D00002DE9F84391
:100BA40003681D685C68A54284BF836801331746E7
:100BB400884694BF641B5C1BC2684168BC420646FD
:100BC40005FB02110CD37A43404601F0A6FFB3683B
:100BD4003D449D4288BF002533681D60BDE8F8830D
:100BE40004FB02F94A46404601F097FFF268716837
:100BF4003C1B624308EB090001F08FFF33681C6063
:100C0400ECE7000070B50E461446054620B90F49BE
:100C140040F2D510FFF78EFF26B90C494FF4EB7064
:100C2400FFF788FF84B10020FFF728FF2846FFF76D
:100C340098FF844228BF0446224628463146FFF7DF
:100C4400ADFF0020FFF72AFF204670BD662D00008F
:100C540010B5044620B9094940F2EF10FFF76AFFC6
:100C64000020FFF70BFF20680C22002101F07EFF1B
:100C74000020BDE81040FFF711BF00BF662D000043
:100C840010B5044620B9084940F2FD10FFF752FFA1
:100C94000020FFF7F3FE2046FFF763FF0446002021
:100CA400FFF7FCFE204610BD662D000010B504467B
:100CB40020B9064940F20A20FFF73CFF2368186870
:100CC4005B68C31A5842584110BD00BF662D00002E
:100CD40038B5044620B9054940F21220FFF72AFF2F
:100CE4002046A568FFF7CCFF281A38BD662D000002
:100CF4002DE9F047044616468946FFF7E9FF2368C5
:100D0400A2685D6802F101088246A8EB05075868ED
:100D1400E2686368B74202FB003017D37243494666
:100D240001F0FBFE2268A168536833448B4296BFEE
:100D340053680026F61856602046FFF712FF236812
:100D44009A68824238BF9860BDE8F08757433A46B4
:100D5400494601F0E2FE3544E2686068A5EB080507
:100D640009EB07016A4301F0D8FE2768B2457D60AC
:100D7400E2D279682046FFF701FF3860DCE7000023
:100D840070B50E461446054620B913494FF4B470A5
:100D9400FFF7D0FE26B9104940F26910FFF7CAFEEA
:100DA40084B10020FFF76AFE2B7C6BB9AB689C42D0
:100DB40028BF1C46284622463146FFF799FF0020EB
:100DC400FFF76CFE204670BD2846FFF781FF844282
:100DD40028BF0446EEE700BF662D000043691B6888
:100DE400DB6803B1184770470123037070470000A4
:100DF40010B5044618B908499220FFF79BFE2368F2
:100E0400012B03D004499320FFF794FEBFF35F8FB7
:100E14000023236010BD00BFCF2D000010B4074C89
:100E24000378E35C23B104305DF8044B01F016BB96
:100E34000C305DF8044B01F03FB800BF8001002086
:100E440010B4074C0378E35C23B104305DF8044B21
:100E540001F080BB0C305DF8044B01F0A9B800BF71
:100E64008001002070B50578012D06460C4604D09B
:100E740069B249B3022D25D070BD4B69027A1B6853
:100E840041685B681868FFF77BFF337A834205D9B2
:100E940003212046BDE87040FFF7A0BF2946204645
:100EA400FFF79CFF63691B689B6820465A7A596860
:100EB400FFF7C6FF0028DFD010499B20BDE8704033
:100EC400FFF738BE2946E4E763691B685A689D68E2
:100ED40056682046FFF782FF2A7A29683046FFF7D2
:100EE40091FE0028C8D0C2B229682046FFF796FFB9
:100EF4000028C1D00149B220E0E700BF3F2E000026
:100F040010B5044618B907498520FFF713FE0121DF
:100F14002046FFF71CFEBFF35F8FB0FA80F0400954
:100F240010BD00BFCF2D00000378044AD35C13B179
:100F3400043001F003BB0C3001F02EB88001002016
:100F440003681A7812B11B6903B11847704700008F
:100F54002DE9704304464FF4FA784FF400404FF003
:100F64000009E0FB0189164600234FF47A724046DB
:100F7400494601F06BFD0428054604D8012333706B
:100F84000020BDE87083074A00212046FFF7F2FCE9
:100F94000028F6D1324629462068BDE87043FFF7A1
:100FA400FBBC00BFED0D000043691B682DE9F04751
:100FB400064618780F46144618BBFF2A28BFFF249C
:100FC400DFF84C902546274406F10C0A337819F8CB
:100FD4000330A7EB050883B1301D01F051FB00B1CC
:100FE40015B9601BBDE8F087012241463046FFF782
:100FF40027FF0028F5D1013DE8E7504601F070F8DD
:10100400EDE75B68BDE8F0471868FFF7FBBD00BF7C
:1010140080010020F0B50E4689B01546044608B19B
:1010240001B11AB94149BF20FFF784FD63691B6808
:10103400002B78D12B783BB16B680BB1AB681BB933
:101044003A49C920FFF776FD31462022684601F06F
:1010540064FD2B780494991E4A424A41002B8DF872
:101064001D206946324A204608BF002200F0B2FA29
:101074000646002832D163691D606B6843B1586825
:10108400FFF7E6FD63691B685B681868FFF7E0FD1E
:10109400656915F1080F03D126497220FFF74AFD4F
:1010A4000023AB60BFF35F8F67693A1D1D4603D110
:1010B40020497220FFF73EFD7D60BFF35F8F6369B7
:1010C40003221A73009A013204BF01221A73019A8F
:1010D400013206D11A7B22F001021A73304609B09C
:1010E400F0BD1B681B78022B09D163691B689B68E0
:1010F40020465A7A5968FFF7A3FE0646EEE723789E
:101104000D4AD35C53B10D4940F25A20FFF712FD4A
:1011140063691B681B78002BE7D1DFE704F10C003F
:1011240000F0E6FFF4E78526D8E700BF3F2E000075
:10113400690E0000CF2D000080010020062E000063
:101144002DE9F04F884685B015469B46044620B9E4
:1011540054494FF4A670FFF7EDFC60690368002B57
:1011640000F09580027B910740F19380002D5FD0C1
:1011740008F06042B2F1005F03D01B78022B00F04C
:101184008A800430FFF7BCFE002800F0868000232C
:101194008DF80C300E9B5A1C0ED003AA1946A06978
:1011A400FFF7D6FE064638B160690430FFF720FE2B
:1011B400304605B0BDE8F08FDFF8E8902E4663694D
:1011C4001A681378002B37D1FF2E374628BFFF2724
:1011D400FAB241462046FFF721FE18B1494669207C
:1011E400FFF7A8FCB6EB070AB84405D06069FFF71F
:1011F400A7FE9DF80C30EBB1BBF1000F03D03D44CA
:10120400AE1BCBF800609DF80C3033B90E9B013354
:1012140003D0A3691868FFF701FC60690430FFF785
:10122400E7FDBAF1000F03D09DF80C30002B36D146
:101234000026BDE75646C2E75368D2F808A05B68AB
:101244000193324641461846FFF79AFD0746204669
:10125400FFF76AFE0028C5D1019B9AF80820DAF846
:1012640000101846FFF7CEFC024628B90190494603
:101274007820FFF75FFC019ADAF80010D2B220461A
:10128400FFF7CCFD0028ADD049467A20A8E7802698
:101294008EE708268CE710268AE7112688E70D26B4
:1012A40086E700BF3F2E00002DE9F74F0C9F8A46CA
:1012B40016469846044620B9374940F2A310FFF772
:1012C40039FC60690368002B5DD0037BDA075CD5C9
:1012D400002E3DD00830FFF713FE002857D000231E
:1012E4008DF804307B1C35D1354651462A462046BC
:1012F400FFF75AFEB5EB0009834682440ED09DF8F1
:1013040004306069002B3AD003681B7833B123782A
:10131400224AD35C73B3201D01F0BAF9B8F1000F6F
:1013240003D05E44761BC8F800609DF804302BB9E6
:10133400013703D0E3691868FFF770FB6069083070
:10134400FFF756FDB9F1000F02D09DF8043003BB3E
:1013540000250BE001AA3946E069FFF7F9FD0546CF
:101364000028C1D060690830FFF742FD284603B069
:10137400BDE8F08F04F10C0000F0D0FECEE7FFF7DB
:10138400DFFD4D46B1E78025F0E70825EEE711259E
:10139400ECE70D25EAE700BF3F2E000080010020A6
:1013A40073B50E46044620B92C494FF4FD70FFF77F
:1013B400C1FB60690368002B49D0027B920748D5C2
:1013C4001B781BB90025284602B070BD0430FFF716
:1013D40097FD00283FD000238DF80430731C0BD0F8
:1013E40001AA3146A069FFF7B3FD054620B1606943
:1013F4000430FFF7FDFCE6E763691B685B68586827
:10140400FFF754FC054640B96069FFF799FD9DF864
:101414000430002BF0D0002504E02046FFF784FDC3
:101424000028F1D19DF804302BB9013603D0A3690B
:101434001868FFF7F3FA60690430FFF7D9FC002D50
:10144400C0D19DF80430002BBCD00D25BBE780250E
:10145400B9E70825B7E71125B5E700BF3F2E00001F
:1014640038B5074C051E04F1080318BF1C46236851
:101474002BB11A6822605B6828469847F7E738BDA5
:101484006801002020B9054B01225A70FFF7E8BF1C
:10149400012802D1014A9070F8E7704760010020EA
:1014A40038B5094C23786BB908486360A36023619D
:1014B400E36000F0CBF8054600F0DCF8012323706C
:1014C400284638BD8525FBE760010020891400000B
:1014D40038B51A4C237805461BB91949E920FFF79A
:1014E40029FBA37803F0FF00ABB115B16B680120B1
:1014F40098470020FFF7C2FAE36800200133E36055
:10150400FFF7CCFAE368C3B90D4940F20510BDE812
:101514003840FFF70FBBFFF7B1FA25B12269134634
:101524003BB92A602561E368002BE5D100F0C4F8DB
:10153400E2E79D42F7D01B68F2E738BD6001002066
:10154400AA2E000010B5074C23784BB9064B00288F
:1015540008BF184600F01CFA08B90123237010BD17
:101564008520FCE774010020142F00001FB50378C8
:101574008DF800304368019383688DF80830C368A0
:101584000393054A054B684653F8213052F821105D
:10159400984705B05DF804FB780100207C01002029
:1015A4001FB503788DF800304368019383688DF884
:1015B4000830C3680393054A054B684653F8213045
:1015C40052F82110984705B05DF804FB780100201B
:1015D4007C010020F0B5184B077891F81DE043F822
:1015E4002720164B16460A6943F82720144B03F8A4
:1015F40007E00C4684460FCC89B06D460FC594E8CD
:101604000F0085E80F000497BEF1000F0AD0002EEA
:101614000C4A694608BF32460CF1040000F01AFE79
:1016240009B0F0BD002E084A694608BF32460CF1E5
:101634000C0000F045FBF3E77C010020780100205A
:101644008001002071150000A515000010B50446A6
:1016540018B90649A020FFF76DFA054B187918B997
:1016640001221C609A8010BD8520FCE7152F000024
:101674008401002008B50C4B1B791BB90B49B92018
:10168400FFF758FA0A4B1A68D2075FBFC02283F8E3
:10169400002301221A604FF080420123C2F818355A
:1016A400044A137008BD00BF84010020152F0000F8
:1016B40000E100E08C010020144B1B7937B51BB905
:1016C4001349E620FFF736FA124B00221A601B6812
:1016D4000193019B4FF080430222C3F804230E4A76
:1016E400D06840F08073D3600C4B1C6844F0010157
:1016F40019605D685968491BB1F50A5FFAD31C602B
:10170400074BD06001221A6003B030BD8401002071
:10171400152F000004010040F0ED00E0001000E08F
:1017240008000040154B07B51A687AB100221A6008
:101734001B680093009B4FF080430122C3F80823E9
:101744000F4B587910B95A711B6898470D4B1A689A
:1017540082B100221A601B680193019B4FF0804301
:101764000222C3F80823064B1B68012003B05DF86E
:1017740004EB184703B05DF804FB00BF0001004010
:10178400840100200401004000F1804000F5C040C5
:10179400002382B0036003680193019B02B0704789
:1017A40002494FF4F370FFF7C5B900BFC12C000024
:1017B4001F2838B504460D4601D9FFF7F1FFA000F4
:1017C40000F1A040D0F8002722F44032C0F80027EE
:1017D400D0F8003743EA0543C0F8003738BD0000AD
:1017E4002DE9F04F87B000245D4D03944FF48072CF
:1017F400012102F1804303F5C04390B21B68012B21
:1018040006D1D5F804330B4202D0FFF7BDFF0C43D9
:101814000432B2F5907F4FEA4101EAD1514B1B6883
:10182400012B0AD14FF4BE70FFF7AEFF4FF0A04377
:1018340044F00044D3F81035039314F0FF0F1AD08A
:10184400494F01260025344210D0AB0003F18043F8
:1018540003F5C043D3F81005D3F8101557F8253015
:1018640023B1C1F30141C0F3042098470135082D89
:101874004FEA4606E7D1002C6ADA00224FF0FF3324
:10188400CDE90423384FDFF8E48000252E464FF0DD
:10189400A04A18F9014B631C4FD0E4B2012224F092
:1018A400C00B04F0070302FA03F34FEADB0006AAB5
:1018B400111811F8042C1A423FD007EB0B02A409AB
:1018C40092F9302057F82290B9F1000F0AD1032C75
:1018D40033D10DF1100E1EF800C04CEA030C0EF8C3
:1018E40000C001E0032CF4D0BBF11F0F05D9CDE9F2
:1018F4000031FFF755FFDDE900310BF5E07011F819
:101904000C1C5AF820001942C0F3014005D00228EB
:1019140013D1032C0BD1214604E003280DD1032C51
:1019240005D102215846FFF743FF0135EDB2B9F165
:10193400000F02D021465846C8470136042EA8D1CC
:1019440035B14FF0A043039AD3F81035934202D136
:1019540007B0BDE8F08F0393049B059393E700BFA2
:10196400006000407C61004090010020E001002004
:1019740000F1804382B01A68002A14BF01200020BD
:1019840004D000221A601B680193019B02B07047C7
:1019940010B5044618B90E497020FFF7CBF80D4B6B
:1019A4001A789AB922784FF0804102F00102C1F806
:1019B4007825094A1168C9075FBFC02182F800135E
:1019C4000121116001221A70002010BD8520FCE75E
:1019D4007D2F0000F401002000E100E04FF080437F
:1019E40070B5D3F8045369070ED54FF48470FFF72C
:1019F400BFFF48B1184C226822B918494FF48A70C5
:101A0400FFF798F823689847AA060FD54FF48A7011
:101A1400FFF7AEFF50B1124C226822B90F4940F2D1
:101A24001D10FFF787F82368002098476B0611D52F
:101A34004FF48C70FFF79CFF60B1094C226822B907
:101A440006494FF49270FFF775F823680120BDE84A
:101A54007040184770BD00BFEC0100207D2F0000CE
:101A6400F001002008B5FFF7B9FFBDE80840FFF713
:101A740059BE000010B5054C22681AB9044951201A
:101A8400FFF758F82368BDE810401847F801002014
:101A9400E52F000038B50D4628B90C497720FFF72B
:101AA40049F8002038BD0A4B9842FAD10020FEF7CD
:101AB400E5FF084B1C7914B901221D601A7100203E
:101AC400FEF7ECFF002CECD01120EBE7E52F000033
:101AD40000200040F80100200023435082B0435806
:101AE4000193019B02B070470A4610B54FF48E7102
:101AF400FFF7F2FF136A9168C95C136A013313623A
:101B0400C0F81C1510BD024608B54FF49271006868
:101B1400FFF7E2FF4FF484711068FFF7DDFF1368ED
:101B240001221A6008BD8B690A4610B54FF484710E
:101B340023B9FFF7D1FFD0F8183510BDFFF7CCFF5C
:101B4400536AD168D0F81805C854536A01335362F4
:101B5400F3E7000002494FF4F370FEF7EBBF00BF58
:101B6400C12C00001FB501238DF80030044BCDE9D2
:101B74000110D3E900126846904705B05DF804FBF4
:101B84000002002030B54C4AD2F8043313F4007F2D
:101B940085B015464FD0D2F82431002B4BD04FF4EA
:101BA40092711046FFF798FF4FF40173C2F808339F
:101BB400424B93F8291009B9012151603E49022290
:101BC4008DF80020D1F88024C1F8802403929A690A
:101BD4000292DA6801920022C3E906226846D3E938
:101BE400001290473448D0F81C315BB133490A6A7B
:101BF4004B699A420A464BD291F82830002B47D1C0
:101C0400FFF772FF2C4AD2F8443193B14FF4A2711A
:101C14001046FFF761FF294B93F8291009B1012100
:101C240011609A692AB100229A61586AD968FFF74B
:101C340099FF05B030BDD5F804335B07D2D5D5F88C
:101C44000831002BCED01D4C1B482146FFF76BFFFB
:101C5400636AA2699A422346C4D1E269E1684AB13F
:101C64002369E3600023606AA261E3616362FFF7B2
:101C740079FFB7E794F829200AB901226A600E4A6D
:101C84004FF40170C2F8080300229A61586AEEE723
:101C94004FF48E710848FFF71FFF51690029B1D036
:101CA4000023029191688DF80030019153616846D8
:101CB400D2E900139847A5E7002000400002002065
:101CC4002DE9F84F064692460C4619B97349AA20E5
:101CD400FEF730FF724B35792C2202FB0532984611
:101CE40092F82A20002A40F0D5806E493068FFF728
:101CF400D1FE0746002840F0CF80D4F80090B9F117
:101D0400FF3F18D0B9F11F0F01D9FFF723FF4FF0A0
:101D1400A043012202FA09F2C3F80825D4F800B05E
:101D2400BBF11F0F994601D9FFF714FF0BF5E07BB8
:101D3400032349F82B30D4F80490B9F1FF3F0BD0BA
:101D4400B9F11F0F01D9FFF705FF09F5E0794FF04D
:101D5400A043002243F829203368A269217DC3F8F7
:101D64002425627D0A43C3F86C25D4E900020129C5
:101D7400C3F81425C3F80C0535D1D4F80890B9F18B
:101D8400FF3F0BD0B9F11F0F01D9FFF7E3FE09F5AF
:101D9400E0794FF0A043002243F82920D4F80C90B6
:101DA400B9F1FF3F18D0B9F11F0F01D9FFF7D2FEE7
:101DB4004FF0A043012202FA09F2C3F80825D4F82F
:101DC4000CB0BBF11F0F994601D9FFF7C3FE0BF509
:101DD400E07B032349F82B30D4E902213368C3F8AC
:101DE4000815C3F810252C236B4308EB0302C2F833
:101DF40004A0226948F80320BAF1000F37D04FF449
:101E04008E713068247FFFF767FE4FF4A27130684B
:101E1400FFF762FE3368244AC3F804234FEA1339F8
:101E2400072C4FFA89FA03D920496B20FEF782FE6A
:101E3400BAF1000FACBF0AF160431D4B4FEA4414E2
:101E4400B8BF09F00F09E4B2AABF03F5614303F870
:101E5400094083F8004333681B0B5AB2012103F095
:101E64001F0301FA03F35209124941F8223033687F
:101E74000422C3F800252C2303FB05830022C3E9B5
:101E8400062283F829205A61012283F82A20384641
:101E9400BDE8F88F0827FAE71127F8E74F3000006C
:101EA40000020020891B000080000200B630000000
:101EB40014ED00E000E100E02DE9F84F344D07791E
:101EC4002C2303FB0753804693F82A30012B8A46C0
:101ED400934604D02F4940F21510FEF72BFEBAF1B9
:101EE400000F04D12B494FF48B70FEF723FEBBF196
:101EF400000F04D1274940F21710FEF71BFE98F893
:101F040004302C2404FB03535E69002E3ED107FBEE
:101F140004594FF48E71C9F82060D8F80000C9F84C
:101F240014B0C9F808A089F82860FFF7D5FDD8F8DF
:101F34000000012383604946FFF7D6FDD9F8043039
:101F44004C4693B9D8F800A0226A63699A4212D326
:101F5400D8F80030D3F81C21002AFBD00122DA6023
:101F64002C2303FB075500236B613046BDE8F88F33
:101F740094F8283043B9DAF81C31002BF8D04946DC
:101F84005046FFF7B1FDDFE70F26E9E71126ECE73E
:101F9400000200204F3000000379044A2C2101FB89
:101FA40003235869003018BF012070470002002045
:101FB4002DE9F843484E05792C2303FB05630746B6
:101FC40093F82A30012B8846144604D0434940F242
:101FD4006910FEF7AFFDB8F1000F04D13F494FF48B
:101FE400B570FEF7A7FD24B93C4940F26B10FEF72B
:101FF400A1FD2C2303FB0563596821B13B684FF411
:102004000172C3F808232C2303FB05639A6952B1B8
:10201400DA69002A3FD021B13B684FF40172C3F85A
:102024000423112434E09C61C3F80C805A62DA6101
:102034002C2303FB056393F829301BB912B93846E6
:10204400FFF761FD4FF02C0909FB05683868D8F8E3
:102054000430002B35D14FF4A271FFF73DFDC1468A
:102064003868D0F82431D0F80821D0F84441BAB9FE
:102074000CB9002BF4D02C2202FB05650022AA61C6
:102084002BBB34BB95F829103B680122B9B11A6007
:102094002046BDE8F883C3F81080DC610122C7E75D
:1020A400002BE8D1002CE6D14946FFF73CFDD8F8D7
:1020B4002430D8F818209A42D2D82346DBE75A6055
:1020C400E6E74FF40173C0F804330024E0E7032487
:1020D400DEE70F24DCE700BF000200204F300000E1
:1020E4000368D3F80801003018BF012070470000CE
:1020F40070B50279084C2C2505FB0242064692F87D
:1021040029303BB9FFF7FFFC337905FB0343012278
:1021140083F8292070BD00BF0002002003684FF43B
:102124000172C3F8082301225A6070470023435008
:1021340082B043580193019B02B0704702494FF4A7
:10214400F370FEF7F7BC00BFC12C00001FB50123DC
:102154008DF80030044BCDE90110D3E90012684634
:10216400904705B05DF804FB2C0200207FB5374A88
:10217400D2F82461002E48D010464FF49271FFF734
:10218400D5FF02238DF80030D2F88034C2F88034B1
:102194000393D2F83C3502932D4BDA680192002266
:1021A400C3E906226846D3E900129047274AD2F8C9
:1021B40044317BB14FF4A2711046FFF7B7FF244BB3
:1021C400996939B10021C3E90611D968D2F83C05EF
:1021D400FFF7BCFF1D4AD2F82031A3B14FF4907130
:1021E4001046FFF7A3FF1A4B596961B1D2F84C1599
:1021F4000291002299688DF8002001915A61684685
:10220400D3E90012904704B070BDD2F81031002B0E
:10221400CCD04FF488711046FFF788FF0C4BD2F8EE
:102224003C0599698842C1D1DC69D96864B1D2F8A6
:10223400005225F02005C2F800521A699C61DA6048
:10224400DE61FFF783FFB1E79C61FAE700200040FD
:102254002C0200202DE9F84F054692460C4619B988
:102264007749CD20FEF766FC764B2E79242202FBBB
:102274000632984692F82020002A40F0DD80724908
:102284002868FFF707FC0746002840F0D780D4F8F9
:102294000090B9F1FF3F18D0B9F11F0F01D9FFF732
:1022A4004DFF4FF0A043012202FA09F2C3F80825BA
:1022B400D4F800B0BBF11F0F994601D9FFF73EFFD8
:1022C4000BF5E07B032349F82B30D4F80490B9F1E3
:1022D400FF3F0BD0B9F11F0F01D9FFF72FFF09F50D
:1022E400E0794FF0A043002243F829202B68A2692B
:1022F400217DC3F82425627D0A43C3F86C25D4E903
:1023040000200129C3F80C25C3F8140535D1D4F8ED
:102314000890B9F1FF3F0BD0B9F11F0F01D9FFF7B6
:102324000DFF09F5E0794FF0A043002243F829207E
:10233400D4F80C90B9F1FF3F18D0B9F11F0F01D9AF
:10234400FFF7FCFE4FF0A043012202FA09F2C3F8A2
:102354000825D4F80CB0BBF11F0F994601D9FFF73B
:10236400EDFE0BF5E07B032349F82B30D4E9022181
:102374002B68C3F80815C3F810252423734308EB0E
:102384000302C2F804A0226948F80320BAF1000F3E
:1023940041D04FF488712868247FFFF7C7FE4FF4BB
:1023A40090712868FFF7C2FE4FF492712868FFF716
:1023B400BDFE4FF4A2712868FFF7B8FE2B68234ACC
:1023C400C3F804234FEA1339072C4FFA89FA03D9C7
:1023D4001F496B20FEF7AEFBBAF1000FACBF0AF148
:1023E40060431C4B4FEA4414B8BF09F00F09E4B230
:1023F400AABF03F5614303F8094083F800432B683F
:102404001B0B5AB2012103F01F0301FA03F3520913
:10241400114941F822302B680822C3F800252423EF
:1024240003FB06830022C3E906225A61012283F8D2
:1024340020203846BDE8F88F0827FAE71127F8E787
:10244400E53000002C02002071210000100302007E
:10245400B630000014ED00E000E100E02DE9F8439F
:10246400344D0779242303FB0753064693F82030A1
:10247400012B8846914604D02F494FF49270FEF701
:1024840059FBB8F1000F04D12B4940F22510FEF797
:1024940051FBB9F1000F04D127494FF49370FEF7B3
:1024A40049FB337913B9B9F1FF0F04D9224940F23A
:1024B4002710FEF73FFB08F06043B3F1005F34D10F
:1024C4003379242404FB03535A6982BB04FB075465
:1024D4004FF490713068C4F81490C4F80880FFF782
:1024E40025FE4FF4AC713068FFF720FE3368616954
:1024F400A068C3F84405C3F84815012199606168D0
:1025040061B9D3F82011D3F8582151B9002AF8D071
:102514000F22242303FB075500236B611046BDE8FB
:10252400F883002A18BF0F22F3E71022F6E71122DE
:10253400F4E700BF2C020020E53000000379044AD0
:10254400242101FB03235869003018BF0120704780
:102554002C0200202DE9F041474E0479242303FB8B
:102564000463054693F82030012B8846174604D0AF
:1025740042494FF4B770FEF7DDFAB8F1000F04D109
:102584003E4940F26F10FEF7D5FA27B93B494FF4A4
:10259400B870FEF7CFFA2B790BB9FF2F04D937495E
:1025A40040F27110FEF7C6FA08F06043B3F1005F21
:1025B4005FD1242303FB0463596821B12B684FF4D2
:1025C4000472C3F80823242303FB04639A6952B1F9
:1025D400DA69002A3BD021B12B684FF40472C3F8A6
:1025E4000423112031E09F61C3F80C80DA614FF4B9
:1025F40088712868FFF79AFD4FF4A2712868FFF7E5
:1026040095FD2B68C3F83485C3F8387522BB0122C5
:102614001A602979242202FB016252681ABBD3F89A
:102624001041D3F84421D3F82401144302D10028E3
:10263400F5D02246242303FB01660023984218BFE9
:1026440003209A42B36118BF0F20BDE8F081C3F89C
:102654001080DF610122CAE7D3F8002242F0200291
:10266400C3F80022D5E74FF40472C3F80423002012
:10267400EBE71020E9E700BF2C020020E530000062
:102684000368D3F81001003018BF01207047000020
:10269400027908490368242000FB0212D2692AB196
:1026A400D3F8002222F02002C3F8002201225A604B
:1026B400704700BF2C02002020BF40BF20BF7047DE
:1026C4007FB5FEF7EDFE18B1274A6A21FDF7FCFE3F
:1026D4000020FEF737FF18B1234A6C21FDF7F4FE02
:1026E4000020FEF7F5FEFEF715F918B11E4A702119
:1026F400FDF7EAFE0320FDF79CFE1C4A1C491D4819
:10270400FEF788FC18B1184A7621FDF7DDFE1A4859
:1027140000F05FFA4FF0FF3300930246002316499E
:102724001448FEF70DFD18B10F4A7F21FDF7CCFECA
:10273400104D4FF47A760096002301220DF10F011B
:102744002846FEF7B1FD04460028F4D10090034664
:102754000DF10F0101222846FEF7F2FC214628461E
:10276400FEF71EFEE7E700BF70310000E031000015
:1027740050310000FC310000000000200C4B1B789D
:10278400062B10D10B4B1B681A070CD10A4B186887
:1027940000F0F003302B08D000F0E000A0F140037B
:1027A400584258417047002070470120704700BFCD
:1027B400E00F00F0E40F00F0E80F00F0094B1B7885
:1027C400062B0CD1084B1B681A0708D1074B186855
:1027D40000F0F000A0F13003584258417047002047
:1027E400704700BFE00F00F0E40F00F0E80F00F0C6
:1027F40008B5FFF7C3FF28B17D4B7E4A1B68C3F3BE
:1028040004231360FFF7DAFF10B17B4B7B4A1A6095
:10281400FFF7B4FF28B17A4B7A4A1B68C3F34233FB
:102824001360FFF7CBFF20B1774AD36823F080739E
:10283400D360FFF7A3FF40B14FF080430022C3F8F9
:102844000C21C3F81021C3F83825FFF7B7FF10B1E6
:102854006E4B03221A60FFF7B1FF40B16C4B0522A7
:102864001A6001229A6700229A603F225A60694BDB
:102874001B78062B50D1684B1B6819074CD1674B4A
:102884001B6803F0F003502B46D14FF08052644B89
:10289400D2F80414C3F82015D2F80814C3F8241588
:1028A400D2F80C14C3F82815D2F81014C3F82C1558
:1028B400D2F81414C3F83015D2F81814C3F8341528
:1028C400D2F81C14C3F84015D2F82014C3F84415E8
:1028D400D2F82414C3F84815D2F82814C3F84C15B8
:1028E400D2F82C14C3F85015D2F83014C3F8541588
:1028F400D2F83414C3F86015D2F83814C3F8641548
:10290400D2F83C14C3F86815D2F84014C3F86C1517
:10291400D2F84424C3F87025FFF730FF28B1414BA7
:10292400414A1B6803F04F031360FFF727FF48B1C8
:102934004FF08043D3F80024D20744BF6FF0010264
:10294400C3F80024394B1B68062B08D1384B1B688D
:10295400062B01BF374A136843F480631360364A79
:10296400D2F8883043F47003C2F88830BFF34F8F35
:10297400BFF36F8F4FF01023D3F80022002A03DB3C
:10298400D3F80432002B2FDA2C4B0122C3F8042590
:10299400D3F80024002AFBD04FF010221521C2F8EE
:1029A4000012D3F80024002AFBD04FF01023152284
:1029B400C3F80422214B1A46D3F800140029FBD093
:1029C4000021C3F80415D2F80034002BFBD0BFF368
:1029D4004F8F19491A4BCA6802F4E0621343CB6063
:1029E400BFF34F8F00BFFDE7164B174A1A6008BDAF
:1029F400240300104035014074C007400DF0ADBA07
:102A0400440200103C050040F0ED00E0A005004049
:102A140010560040E00F00F0E40F00F0E80F00F063
:102A240000C0004058020010E40E004030010010C5
:102A3400340100103C17004000ED00E000E00140CC
:102A44000400FA05140000200090D00353EA020C9D
:102A540061D02DE9F04BB3FA83F51E0007BFB2FA3B
:102A640082F502FA05F403FA05F41646C5F12005C9
:102A74001EBF22FA05F73C43203556EA044C4FEAC0
:102A8400144418BF0134A3464FF00009C8469042CD
:102A940071EB030C39D3094207BFB0FA80F700FA8F
:102AA40007F6B1FA81F701FA07F6C7F120071EBF4E
:102AB40020FA07FC46EA0C062037B6FBFBFC7F1B1A
:102AC400103F07F01F04C4F120060CFA04F42CFA9A
:102AD40006F644BF34460026202FA4BF2646002411
:102AE40054EA060C08BF012418EB040849EB060954
:102AF400A4FB027CC01B06FB02CC04FB03CC71EBE1
:102B04000C01904271EB030CC5D20B4602464946B8
:102B14004046BDE8F08BB2FBF3F2844640EA010381
:102B240013F0030F18D18446202A0BD32DE9F007A4
:102B3400B1E8F807A0E8F807A2F12002202AF7D2AA
:102B4400BDE8F007042A07D351F8043B40F8043BDE
:102B5400A2F10402042AF7D2002A05D011F8013B9D
:102B640000F8013B013AF9D1604670478446002AD7
:102B74002DD010F0030F04D000F8011B013A26D029
:102B8400F7E7C9B241EA012141EA0141202A12D3FF
:102B9400A2F120022DE9F0030B460C460D460E4629
:102BA4000F4688468946A0E8FA03203AFBD2BDE8DE
:102BB400F00320320BD0042A05D340F8041B043A56
:102BC40005D0042AF9D200F8011B013AFBD1604672
:102BD400704700F1010110F0030F11D010F8012B20
:102BE400002A23D010F0030F0AD010F8012B002A7A
:102BF4001CD010F0030F03D010F8012B002A15D0BD
:102C04002DE970004FF001324FF0803350F8044B3F
:102C1400A4EB020525EA04051D4000D1F6E7A0F166
:102C2400040070BC10F8012B002AFBD1A0EB0100BA
:022C34007047E7
:102C3800A402002080020020200000000100000003
:102C48000100000074020020520200202000000051
:082C5800010000000100000072
:102C6000433A5C55736572735C48534B494D5C4401
:102C700065736B746F705C6E52463553444B3135DF
:102C80003330353961633334355C6E5246355F53CA
:102C9000444B5F31352E332E305F35396163333429
:102CA000355C636F6D706F6E656E74735C626F61BF
:102CB0007264735C626F617264732E63001112132D
:102CC000142E2E2F2E2E2F2E2E2F2E2E2F2E2E2F39
:102CD0002E2E2F6D6F64756C65732F6E7266782F54
:102CE00068616C2F6E72665F6770696F2E68000096
:102CF0000338FDD87047433A5C55736572735C487E
:102D0000534B494D5C4465736B746F705C6E5246F7
:102D10003553444B31353330353961633334355CA9
:102D20006E5246355F53444B5F31352E332E305F44
:102D3000353961633334355C636F6D706F6E656E0A
:102D400074735C6C69627261726965735C757469D5
:102D50006C5C6170705F7574696C5F706C617466D7
:102D60006F726D2E6300433A5C55736572735C48F5
:102D7000534B494D5C4465736B746F705C6E524687
:102D80003553444B31353330353961633334355C39
:102D90006E5246355F53444B5F31352E332E305FD4
:102DA000353961633334355C636F6D706F6E656E9A
:102DB00074735C6C69627261726965735C7175656C
:102DC00075655C6E72665F71756575652E63002E44
:102DD0002E2F2E2E2F2E2E2F2E2E2F2E2E2F2E2E0E
:102DE0002F636F6D706F6E656E74732F6C69627296
:102DF00061726965732F6D757465782F6E72665F89
:102E00006D74782E68002E2E2F2E2E2F2E2E2F2E04
:102E10002E2F2E2E2F2E2E2F696E746567726174E1
:102E2000696F6E2F6E7266782F6C65676163792F9C
:102E30006E72665F6472765F756172742E680043AD
:102E40003A5C55736572735C48534B494D5C4465FD
:102E5000736B746F705C6E52463553444B3135332F
:102E600030353961633334355C6E5246355F5344D7
:102E70004B5F31352E332E305F3539616333343556
:102E80005C636F6D706F6E656E74735C6C6962729B
:102E900061726965735C73657269616C5C6E7266A0
:102EA0005F73657269616C2E6300433A5C557365AC
:102EB00072735C48534B494D5C4465736B746F701F
:102EC0005C6E52463553444B31353330353961638E
:102ED0003334355C6E5246355F53444B5F31352E8B
:102EE000332E305F353961633334355C696E746518
:102EF00067726174696F6E5C6E7266785C6C656730
:102F00006163795C6E72665F6472765F636C6F6337
:102F10006B2E630000433A5C55736572735C4853D3
:102F20004B494D5C4465736B746F705C6E524635F3
:102F300053444B31353330353961633334355C6E4E
:102F40005246355F53444B5F31352E332E305F355B
:102F50003961633334355C6D6F64756C65735C6EB9
:102F60007266785C647269766572735C7372635CB6
:102F70006E7266785F636C6F636B2E6300433A5CBE
:102F800055736572735C48534B494D5C4465736B74
:102F9000746F705C6E52463553444B313533303567
:102FA0003961633334355C6E5246355F53444B5F51
:102FB00031352E332E305F353961633334355C6DF6
:102FC0006F64756C65735C6E7266785C647269764A
:102FD0006572735C7372635C6E7266785F706F7734
:102FE00065722E6300433A5C55736572735C485397
:102FF0004B494D5C4465736B746F705C6E52463523
:1030000053444B31353330353961633334355C6E7D
:103010005246355F53444B5F31352E332E305F358A
:103020003961633334355C6D6F64756C65735C6EE8
:103030007266785C647269766572735C7372635CE5
:103040007072735C6E7266785F7072732E63004389
:103050003A5C55736572735C48534B494D5C4465EB
:10306000736B746F705C6E52463553444B3135331D
:1030700030353961633334355C6E5246355F5344C5
:103080004B5F31352E332E305F3539616333343544
:103090005C6D6F64756C65735C6E7266785C64728F
:1030A00069766572735C7372635C6E7266785F7565
:1030B0006172742E63002E2E2F2E2E2F2E2E2F2E69
:1030C0002E2F2E2E2F2E2E2F696E7465677261742F
:1030D000696F6E2F6E7266782F6E7266785F676C9E
:1030E00075652E6800433A5C55736572735C48538E
:1030F0004B494D5C4465736B746F705C6E52463522
:1031000053444B31353330353961633334355C6E7C
:103110005246355F53444B5F31352E332E305F3589
:103120003961633334355C6D6F64756C65735C6EE7
:103130007266785C647269766572735C7372635CE4
:103140006E7266785F75617274652E6300000000B0
:103150000600000008000000070000000500000055
:10316000000000000100000000E0D70106000000A0
:10317000433A5C55736572735C48534B494D5C44EC
:1031800065736B746F705C6E52463553444B3135CA
:103190003330353961633334355C6E5246355F53B5
:1031A000444B5F31352E332E305F35396163333414
:1031B000355C6578616D706C65735C7065726970A3
:1031C000686572616C5C73657269616C5C6D616984
:1031D0006E2E630051020020500200200101000009
:1031E00001000000F4310000D431000000000000B4
:1031F000BD2600004C2C0000382C00000000000010
:1032000000200040000000000020004000000000FE
:10321000B0020020203200001C320000C00200205A
:04322000E0020020A8
:1032240048656C6C6F206E72665F73657269616C61
:08323400210A0D000090D003F7
:040000030000037581
:00000001FF
