:020000021000EC
:1090000000600020759301005D9301005F930100F3
:10901000619301006393010065930100000000006B
:109020000000000000000000000000006793010045
:1090300069930100000000006B9301006D93010033
:109040008DB301006F93010015B801006F9301000B
:109050006F9301000000000091B601006F930100C2
:109060006F9301006F9301006F9301006F930100F4
:109070006F9301006F9301006F9301006F930100E4
:109080006F93010059A101006F9301006F930100DC
:10909000F5A101006F93010055D301006F9301000A
:1090A0006F9301006F9301000000000000000000BA
:1090B0006F9301006F9301000000000000000000AA
:1090C00000000000000000000000000000000000A0
:1090D0000000000000000000000000000000000090
:1090E0000000000000000000000000000000000080
:1090F0000000000000000000000000000000000070
:10910000000000000000000000000000000000005F
:10911000000000000000000000000000000000004F
:10912000000000000000000000000000000000003F
:10913000000000000000000000000000000000002F
:10914000000000000000000000000000000000001F
:10915000000000000000000000000000000000000F
:1091600000000000000000000000000000000000FF
:1091700000000000000000000000000000000000EF
:1091800000000000000000000000000000000000DF
:1091900000000000000000000000000000000000CF
:1091A00000000000000000000000000000000000BF
:1091B00000000000000000000000000000000000AF
:1091C000000000000000000000000000000000009F
:1091D000000000000000000000000000000000008F
:1091E000000000000000000000000000000000007F
:1091F000000000000000000000000000000000006F
:10920000354936480A1A02D0072291438D4634491F
:1092100034480A1A06D00722914381F309880222B2
:1092200082F3148830483149314A00F044F831481B
:109230003149324A00F03FF831483249324A00F0B1
:109240003AF832483249334A00F035F83248334967
:10925000334A00F030F833483349344A00F02BF8F1
:1092600033483449344A00F026F83448344900225F
:1092700000F02CF833483449002200F027F8334836
:109280003349091A082902DB002202604160314A91
:1092900090471F481F49884205D00268043003B434
:1092A000904703BCF7E700208646EC4600200021EB
:1092B000294A9047FEE7884207D0521A05D0037822
:1092C00001300B700131013AF9D17047884202D068
:1092D00002700130FAE7704700600020005800205B
:1092E0000060002000600020ECE40100181C002059
:1092F000681C0020C0930100C0930100BAD7010090
:10930000ECE40100181C0020181C002090D801007B
:1093100090D8010090D8010090D8010090D80100A9
:1093200090D8010090D8010090D80100ECE4010031
:109330003CE50100681C0020681C0020681C00201F
:10934000D8250020D8250020D8250020D8250020A9
:10935000D82D00208B930100D1C20100FEE7FEE76B
:10936000FEE7FEE7FEE7FEE7FEE7FEE7FEE7FEE7D5
:10937000704700BF0C4880470C484FF007018843F6
:1093800085460B488047FFF73BBF0A480A490B4A0E
:10939000884207D0521A05D0037801300B70013192
:1093A000013AF9D17047000071930100006000207C
:1093B00045AE010090D80100181C0020181C0020A8
:1093C000F0B595B01C46164608460D4601F043FC24
:1093D0001A9B0D93CDE9086400242346082205A9B1
:1093E00028460A948DF82C400C9401F051FC079B00
:1093F0000293069B03939DF814308DF8114003F0FF
:109400000302012A1DD1BDF81440059EC3F3C20317
:10941000C4F383148DF81030A20008230EA9284647
:1094200001F036FCC6F3952608AB0093224602AB4A
:109430000EA9304600F0D6FB284601F010FC15B00E
:10944000F0BD022AF8D1BDF81640C3F3C203A40947
:109450008DF810300827082C264628BF08263B46E2
:1094600032460EA9284601F013FCA41B08AB02AA41
:1094700031460EA8374400F019FC002CEBD1DBE795
:10948000014B01221A707047A91C00207047000090
:1094900070B50E4D06460FCD88B06C460FC495E8EA
:1094A0000F00002E84E80F004FF00603084A094819
:1094B000009308BF0022694601F002FF08B100F0E6
:1094C0009DFD054B1E7008B070BD00BF90D8010017
:1094D00081940100181C0020681C002007B5044B73
:1094E0000093044A4023FFF76BFF03B05DF804FBD1
:1094F000F9940100691C002038B50D4B0D4D00207A
:1095000018700D4804782D5DD2B21C4665B1043048
:1095100002F0A8FD08B100F071FD084B1A7812B1F5
:109520002378002BFBD038BD0C3002F0A1FBF1E713
:10953000A91C0020D0230020181C0020681C00203B
:1095400008B50848084A0378D35C3BB1043002F000
:1095500025FD0020BDE80840FFF79ABF0C3002F05F
:1095600023FBF6E7181C0020D02300200120FFF782
:109570008FBF000008B5FFF7F9FF0421034800F092
:109580009FFA034B01225A7108BD00BF80D8010029
:109590002C1C0020037813F0040216D003F0030300
:1095A000012B03D0022B09D0012070470A680088E4
:1095B0000232C0F3831002440A60F5E70B68428868
:1095C000023303EB92130B60EEE710467047000086
:1095D0002DE9F04F87B000230446851C0DF10700EC
:1095E0000F4690468DF8073000F0F8FF45480668B2
:1095F0003E60D0E90132134401339B1B824600F2E6
:109600001C4600F5836900F21447AB421BD30022CD
:10961000B8F1000F70D0052363F3070264F38912D9
:10962000DAF80010DAF808309DF807000B40033331
:109630000D444AF82320CAF8005000F0F3FF01203F
:1096400007B0BDE8F08F0121304601F048F84846E8
:1096500001F05BF8384601F058F8DAF80400DAF85F
:1096600008B0029000EA0B0003300AEB800002A968
:10967000FFF790FF029B50BB0BEA03020AEB82024A
:1096800003F1020CD2680392013303EA0B0B0AEBDD
:109690008B0B02F00302012ACDF808C0DBF80C1096
:1096A00022D0022A16D08346384601F031F810B194
:1096B000029BCAF804305946304601F010F8DAE946
:1096C00001231344DAF8002001339B1A9DE70BEACB
:1096D0000300C9E7BDF80E309B0903334FEA114B75
:1096E0000CEB93030293DFE7BDF80C30C3F3831355
:1096F0004FEA114B6344F5E7062363F3070264F373
:109700009F528DE77C1D00200B4B0C48FF2210B5AB
:109710009A600022C3F81824C3E90022C3F8142475
:1097200083F8202401F050FA044610B9044801F0EF
:10973000DDFA204610BD00BF7C1D00200CD80100C2
:10974000D0D8010030B50A4C71B10A4A0A49121B3F
:10975000D20800239A4201D1002030BD31F82350B5
:10976000854202D00133F5E7034654F83300F4E7AD
:1097700020D8010080D80100181C0020094B0139B5
:1097800003EBC000032909D8DFE801F00A02040650
:109790000420704700797047407970470020704777
:1097A0000220704720D80100034BD3E90030C31AD0
:1097B00058425841704700BF7C1D00202DE9F043FE
:1097C00087B0FFF7F1FF0646002840F0FB807E4D92
:1097D000C5F81804BFF34F8F6868AC68029020404A
:1097E000033005EB800002A9FFF7D4FE029B18B1FD
:1097F000D5F81824002A5FD004EA0302991C01332B
:1098000005EB8202234005EB8303D268DB680493F7
:1098100002F00303022B0392029162D1BDF80E30D5
:109820006A484FEA9318B8F1500FC14628BF4FF06D
:10983000500969F38F1309F10801ADF80E3001F0FA
:10984000DBF90746002800F0A88001F004FA03A91C
:1098500000230822384601F011FA029924EA010691
:109860000136B600B14535D95FFA89F97EB3F6B253
:10987000A9EB0609214003315FFA89F4B146544E41
:1098800005EB810108234A46384601F0F7F936B165
:1098900009F1080322463146384601F0EFF9029BF0
:1098A00008F1030803EB98030293D5F81834002B52
:1098B0004BD1D5F810445BE02A689A4204D86A601C
:1098C000304607B0BDE8F08304EA030088E740496A
:1098D0003446D7E72140033108234A4605EB81018E
:1098E000DAE7012B59D1BDF80C303848C3F38311A6
:1098F000062928BF062161F3891302318900ADF8DA
:109900000C3001F079F90746002846D001F0A3F9A0
:109910000023082203A9384601F0B0F90026BDF85B
:109920000C20C2F38312B300964203F10803BCD2A9
:1099300002994A1C21400331029205EB8101042265
:10994000384601F09BF90136E9E7384601F087F91E
:10995000FFF72AFF80F00100C6B2B1E7E3685B7948
:1099600023B1236839461B6820469847E3681C6882
:10997000002CF3D1384601F072F90DF107008DF893
:10998000074000F02BFED5F818340BB9029B6B6032
:109990009DF8070000F046FEDAE7D5F8104454B908
:1099A0000C4B0D480D49C01AC008000440F00200DD
:1099B00000F06EF8CCE7236820469B689847E36880
:1099C0001C68ECE700267BE77C1D00200CD801001A
:1099D000881D002020D8010048D80100DCD80100F3
:1099E0002DE9F74F284C80460F46924601A90122E7
:1099F00018469B46D4F80890FFF7EAFD80B3019D16
:109A00000026A91C5E4506EB010233D100211F4848
:109A100000F03AFE80F310006A1C02EA090204EB2F
:109A20008202000405EA0903033340EA1840D060CB
:109A300014F8232068F3C50204F8232034F8232007
:109A400066F3891224F8232054F8232067F39F2219
:109A500044F8232002F0F80242F0010204F8232027
:109A600094F820341BB1FFF7A9FE0028FBD103B006
:109A7000BDE8F08F09EA020204EB82025AF82630B0
:109A8000D3600136BEE700BF7C1D00209821002076
:109A900000231A46FFF7A4BF07B50123019201AACC
:109AA000FFF79EFF03B05DF804FB07B5CDE9002387
:109AB00002236A46FFF794FF03B05DF804FB000041
:109AC00030B50F49D1F81024002314463CB9C468BE
:109AD000237152B9C1F810042260184630BDE46801
:109AE00025799D4206D02468F0E7D268116821608C
:109AF0001060F2E701330A2BE7D14FF0FF33ECE7B8
:109B00007C1D0020094A38B50123D2F8104482F8A0
:109B100020341D4604B938BDE3685D7123682046D2
:109B20005B689847E3681C68F4E700BF7C1D002071
:109B3000037A052B10B50C460FD0437A23B1084A9F
:109B40000849204600F047FE0749204600F043FE42
:109B50002046BDE8104000F033BE002AF8D0F3E7FD
:109B600027D901002CD901004CD90100C38873B555
:109B700004460D4633B1144A00921449144A28464B
:109B800000F029FE217A05291CD0637A4BB1A08808
:109B9000FFF7F4FD0F4B104953F82020284600F042
:109BA0001AFE227A0D4BA08853F822600021FFF79D
:109BB000C9FD0B4903463246284602B0BDE8704055
:109BC00000F009BE02B070BD27D9010037D90100ED
:109BD0002FD90100F4D801002CD901005CD9010073
:109BE0004FD901002DE9F04385B01F460C9D00239D
:109BF00006460C46904695F80C902B73294638463D
:109C0000FFF7B4FFB8F1060F09D8DFE808F0041237
:109C1000181F283340003146284600F0DCFD0022A2
:109C200029463846FFF784FF85F80C9005B0BDE85B
:109C3000F08322683146284600F0CDFDEFE7D4E9F5
:109C400000233146284600F0C6FDE8E7A3680093EC
:109C50003146D4E90023284600F0BDFDDFE7E36884
:109C60000193A36800933146D4E90023284600F00D
:109C7000B2FDD4E723690293E3680193A3680093DC
:109C80003146D4E90023284600F0A5FDC7E7636903
:109C9000039323690293E3680193A3680093314619
:109CA000D4E90023284600F096FDB8E708292DE9FD
:109CB000F84F80460E4617461C463AD8002593F8C2
:109CC0000C901D7319461046FFF750FFDFF884A073
:109CD000DFF884B0AE422ED918F805205946204648
:109CE00000F079FD0135082DF4D11849DFF86CB08A
:109CF000204600F070FD4FF0000A564520D918F8B4
:109D00000A507E2D03D8284603F0C6FC00B92E2544
:109D10002A465946204600F05EFD0AF1010ABAF1D2
:109D2000080FEAD1012221463846FFF701FF84F8E7
:109D30000C90BDE8F88F5146204600F04CFDD1E76D
:109D40000349204600F047FDE7E700BF22D90100A4
:109D500020D901001ED9010018D9010024D9010021
:109D60002DE9F04F394E87B04FF00009384B1B7882
:109D70005FFA89F5AB4202D807B0BDE8F08F354BEA
:109D8000D3F800A01AF835000124D6E9001EA0F18E
:109D90002002C0F1200304FA02F224FA03F3134371
:109DA00004FA00FC009301EA0C030293009B0EEA04
:109DB00003030393DDE9022313430AEBC50B41D0F0
:109DC000009B21EA0C012EEA0303C6E9001301F00F
:109DD00055FC1AF835502049A5F12002C5F12003A1
:109DE00004FA02F224FA03F31343D1E900C2AC40AF
:109DF000134004EA0C0105930024C3B2CDE90034FA
:109E0000009A0491C5F12003A5F1200122FA03F381
:109E100002FA01F848EA03081346AB401F46DDE9A1
:109E20000434444508BFBB420CD1DBF804304BB1CD
:109E30009BF801104A1E51425141081A41424141CA
:109E40002846984709F1010990E700BF68220020E1
:109E50003822002070220020602200202DE9F041ED
:109E60008046204800F0AAFBD0BB0125A8F12004C1
:109E7000C8F1200325FA03F305FA04F41C431A4B36
:109E8000D3E9001205FA08F501EA050602EA04071B
:109E900056EA07001E461DD1404601F0EFFB134B6A
:109EA000D3E9001288B129432243C3E90012D6E95D
:109EB00000231C430E4B0B4819681543C6E9005498
:109EC0000022BDE8F04100F033BB21EA050122EA9F
:109ED0000402EAE721EA050522EA0404C3E9005482
:109EE000BDE8F0814022002068220020602200208E
:109EF0003C220020042A2DE9F34105460C46164673
:109F00003AD901F0D7FAD8B11C4B1D491D601D4B41
:109F1000DFF884801C701C4B00221E600023C1E906
:109F200000231A49C1E90023013CE4B200260327BB
:109F3000FF2C0CD1164A1748002100F0E7FA03E085
:109F400001F080FA0028DFD002B0BDE8F08123B232
:109F500005EBC30201A992788DF8052015F83300AE
:109F60008DF8066042468DF8047001F0ADFA013CB0
:109F7000E4B20028DCD0E7E70720E5E77022002004
:109F800060220020382200203C220020682200208D
:109F9000619D0100BCD901005D9E010070B5084DB6
:109FA000084E00242B789C4201D3002070BD3368FA
:109FB000012113F8340001F0FBFA0134F2E700BF8D
:109FC000382200207022002070B5094D094E00246F
:109FD0002B789C4204D30848BDE8704000F0EEBAEC
:109FE000336813F8340001F027FB0134F0E700BFB9
:109FF0003822002070220020402200201FB50021BE
:10A00000039001AA44F20100CDE9011100F004F827
:10A0100005B05DF804FB000010B572B6FFF772FDE5
:10A02000FFF7CCFB0028FBD1104B114C1149E41A6F
:10A03000E408240444F00100FFF72AFD0E4B1B68DE
:10A04000DB0700D500BE0D4944F00200FFF720FDFC
:10A05000BFF34F8F0A490B4BCA6802F4E062134307
:10A06000CB60BFF34F8F00BFFDE700BF20D80100DA
:10A0700048D80100C0D90100F0ED00E0CCD90100C2
:10A0800000ED00E00400FA05094A537891780133A5
:10A09000DBB2994208BF0023117899421FBF0370B9
:10A0A0005078182303FB002014BF043000207047B1
:10A0B0007422002073B5054600240DF107000E46FA
:10A0C0008DF8074000F08AFA0DF10600FFF7DCFF7B
:10A0D00090B10670094B9DF8062045605A709DF8B6
:10A0E000070000F09FFA24B9054B4FF48012C3F823
:10A0F0000021204602B070BD0424F0E77422002045
:10A1000000E100E0024B4FF43C6043F001031847CC
:10A11000E0D9010038B50C4B0C4C4FF40032C3F8B9
:10A12000802001254FF48033C4F84833C4F8083345
:10A130006560FFF7E7FF064BA56000241C60FFF792
:10A14000E1FF044B1C7038BD00E100E0001001404D
:10A150009023002081230020F8B51F4B1F491B6866
:10A160000025C1F84051C1F84451C1F84851C1F827
:10A170004C51C1F80051C1F804514BB3D1F804451A
:10A1800017490968641A24F07F442F461A68A242CE
:10A1900009D8A41A15441A7CDE691AB11F74D3E9D0
:10A1A00005209047AEB90F4A0F4B11781B788B42B0
:10A1B00005D10133DBB2022B08BF002313701278E4
:10A1C0000A4B43F822500A4B4FF48012C3F8002187
:10A1D000F8BD3346DAE700BF9423002000100140A9
:10A1E000902300208D2300208C2300208423002036
:10A1F00000E100E02DE9F04FA14AA2491378097867
:10A20000A14D994285B03CD00133DBB2022B08BF8F
:10A21000002313709D4912789D4B0F6853F822005C
:10A220003B1823F07F4300220B602B681646144630
:10A23000944613B942B12B6006E0196881420ED9E9
:10A2400002B12B60091A196001272B68DFF848A2B8
:10A2500001934FF00008BEB9DFF844B266E0401A3F
:10A260000C44D968C3F800C0D3F81CE031B13A19E6
:10A2700022F07F42C3E90121DE611E4601227346BE
:10A28000D7E700263746E0E73446F6697F4A636839
:10A290001268DFF810C2A068991A21F07F41614569
:10A2A00000F2A68001442160012222742A68002362
:10A2B000C4E90133E361002A40F0A3802C60CAE7BF
:10A2C0005A1C9BF80210D2B291428BF8002004BFB6
:10A2D00000228BF80020182202FB03B31A799C6835
:10A2E000022A1CD0032A12D0012A1FD1207CE8B9EF
:10A2F000D3E90312A2605A69E2609A69654BA261D0
:10A300001B78002B0CBF0B4603466360BEE70022A0
:10A310002B681146002B67D142B12B6006E02968FB
:10A320000A468946002A5AD1002323749BF800303C
:10A330009BF801209A42C3D12B68B8F1000F04D1D9
:10A34000019A9A4201D1002F43D0002B73D0D3F849
:10A3500000A0514D4D4BD5F804751C68DFF84881BD
:10A360003E1B98F8003026F07F4603369BB94FF429
:10A370008033C5F84433C5F80433484B4FF40032FA
:10A380004FF00109C3F880211A60C5F80090FFF76B
:10A39000B9FE88F80090B2452CBF5444A41924F0AB
:10A3A0007F44C5F84045D5F80435DB1B23F07F43D7
:10A3B000E41B033324F07F44A3420AD9D5F80435C3
:10A3C000C5F84035FFF79EFE344B4FF40032C3F81A
:10A3D0000021304B00221A7005B0BDE8F08F944286
:10A3E0002CD09146D2699DE719740122DB6991E76F
:10A3F000D31A23F07F43834234BFC31A0023236060
:10A4000052E721681368994213D8591A1160E26122
:10A4100054E7091AD8691A4638B1034618688842C1
:10A42000F7D3401A1860184613462160E061DC61DA
:10A4300011E71346F2E7FFF76DFECAE74C4511D16D
:10A44000CB692B6073B9DFF844E00120CDE902123B
:10A45000CAF80800CEF800300E4B1870FFF752FE15
:10A46000DDE902121368D269C9F81C2012B1106824
:10A47000034413602B68994218BF4FF0010853E75B
:10A480008C2300208D230020942300209023002083
:10A4900084230020802300200010014000E100E020
:10A4A00074220020FEFF7F008123002008B5FFF703
:10A4B00031FE104B00200B2218809A700E4B186052
:10A4C0000E4B18700E4B18700E4B4FF48012C021BB
:10A4D000C3F8802183F814131A6002F18042A2F5B8
:10A4E0006F22C2F8080583F81113074BD2F8042530
:10A4F0001A6008BD74220020942300208C230020C1
:10A500008D23002000E100E090230020074B9B7882
:10A510004BB132B128B10368187C20B959745A6123
:10A520007047072070470820704700BF7422002042
:10A530002DE9F7431E4FBB7805460E469046A3B360
:10A5400098B304292FD943697BB3437C0024012BA2
:10A550000DF107000CBF8946A1468DF8074000F0B9
:10A560003DF80DF10600FFF78FFDD0B10123037018
:10A57000104B4560D3F80435C0E90498C0E90236B1
:10A580009DF806307B709DF8070000F04BF824B969
:10A59000094B4FF48012C3F80021204603B0BDE8F8
:10A5A000F0830424EFE70724F7E70824F5E700BF6A
:10A5B000742200200010014000E100E0064A927879
:10A5C0003AB130B1426922B1002202740221FFF790
:10A5D00071BD0820704700BF7422002070B5EFF3F2
:10A5E000108672B60C4A946801239CB993600B4B99
:10A5F0000B4DD3F8801029401160C3F88050D3F878
:10A60000841051604FF0FF32C3F88420047006B903
:10A6100062B670BD0370FAE79823002000E100E005
:10A62000FC06FFBD084B9A6810B55AB150B9EFF35C
:10A63000108172B6054A1C6814605C6854609860AA
:10A6400001B962B610BD00BF9823002000E100E010
:10A6500001F01F024B090121914000EB830000F043
:10A660001DB801F01F0301229A404B0900EB830043
:10A67000D14300F029B84B0901F01F0150F8230025
:10A68000C84000F00100704750E8002F0B4640E83A
:10A69000003C9CF0000FF7D11046704750E8003F97
:10A6A00043EA010240E8002C9CF0000FF6D110466E
:10A6B000704750E8002F02EA010340E8003C9CF09C
:10A6C000000FF6D11046704750E8003F03EA010240
:10A6D00040E8002C9CF0000FF6D11046704750E87F
:10A6E000003F03EB010240E8002C9CF0000FF6D184
:10A6F0001046704750E8003FA3EB010240E8002CF1
:10A700009CF0000FF6D1104670470121FFF7C6BF3D
:10A710000021FFF7CEBF10B590B1D0E90123016849
:10A720009B1ADBB20A60013BDBB2FF2B026802D14D
:10A730000020107110BD11684C1C14600B70F2E702
:10A740000E20F7E737B5054600240DF107008DF818
:10A750000740FFF743FF2A686B68116899420ED9DA
:10A76000481E106011F8014CEB68298A01FB043483
:10A77000AB6811791B1ADBB2994238BF13719DF88F
:10A780000700FFF74FFF204603B030BD37B5054641
:10A7900000230DF107000C468DF80730FFF71EFF70
:10A7A0002A681368591C1160E968641A298AB4FB85
:10A7B000F1F41C709DF80700FFF734FF03B030BDC3
:10A7C000826810B504462AB1436901680069984758
:10A7D0000023A36010BD0EB403B5039921B104ABEF
:10A7E00001AA019300F074F802B05DF804EB03B025
:10A7F00070470A2938B504460D4602D10D21FFF7EE
:10A80000F8FFA3682268591CA160D554D4E901322D
:10A810009A4204D32046BDE83840FFF7D1BF38BD87
:10A820002DE9F84F9946DDE90A43174682468846E6
:10A830000A460126BA420FD24E4538BF4E4613F0A3
:10A84000010B01D164B900240125B9F1010F1AD916
:10A8500009F1FF397D43F8E7B2FBF7F20136E9E78A
:10A860009B070ED5B9F1000F0CBF30252025A6425D
:10A87000EAD2013C29465046FFF7BBFF002CF6D137
:10A88000E1E72025F3E7B8FBF5F39F42E2D9DFF8D3
:10A890003C90B8FBF5F3504619F8031005FB1388FC
:10A8A000FFF7A7FFB5FBF7F3BD4207D2BBF1000FDF
:10A8B00002D00CB1A64203D3BDE8F88F1D46E8E7ED
:10A8C00020215046013CFFF794FFF2E7E6D9010052
:10A8D0002DE9F74F054617468846002900F03081DC
:10A8E00018F8011B49B92B7B002B00F02981284661
:10A8F00003B0BDE8F04FFFF763BF252940F0C080EB
:10A90000002698F800302D2B424608F1010823D08C
:10A91000302B24D02B2B25D000242A2B02F101012F
:10A9200023D13B681A1D1B683A601C440A46137801
:10A930002E2B26D101324FF00009104610F8011BD2
:10A94000A1F1300CBCF1090F1DD80A2303FB091338
:10A95000A3F130090246F0E746F00106D1E746F0E0
:10A960000206CEE746F00406CBE711F8013CA3F15E
:10A9700030000928DBD80A2202FB0434303C0A46A6
:10A98000CBE74FF0000912F8011B01F0FB0068282B
:10A990009046F8D069290ED04AD8582964D006D8F4
:10A9A00025296DD098F80030002B99D19BE76329B9
:10A9B00062D06429F6D13A68D2F800A0111D8AEA63
:10A9C000EA723960A2EBEA724FF0010B092A5BDCF4
:10A9D000CB4538BFCB462CB1BAF1000F01DB720773
:10A9E00000D5013CB30702D5B9F1000F04D0F00740
:10A9F00002D4002C4ED10024BAF1000F52DACAF171
:10AA0000000A2D212846FFF7F4FE06F00302022A71
:10AA100005D1B9F1000F02D1002C47D10024CDE9B6
:10AA200000464B460A2251462846FFF7F9FEB9E791
:10AA300073294CD014D87029B4D13B681A1D3A60E0
:10AA4000302128461C68FFF7D4FE78212846FFF7FE
:10AA5000D0FE00220823CDE9003221461022E3E790
:10AA600075292BD078299DD139680A1D3A60CDE926
:10AA700000464B46102228E03B681A1D19783A60C0
:10AA80002846FFF7B6FE8DE70A230BF1010BB2FB58
:10AA9000F3F29BE7A345AFD220212846013CFFF704
:10AAA000A8FEA6E77107B0D52B21ABE7A345B6D228
:10AAB00030212846013CFFF79CFEADE73968CDE91F
:10AAC00000460A1D3A604B460A220968ACE73B681B
:10AAD0001A1D3A6016F00106D3F800A020D1BAF191
:10AAE000000F03D0504602F038FE0646B44200D9AB
:10AAF000C4B90AF1FF3A1EE028460136FFF779FE95
:10AB00001AF806100029F7D1A642BFF44BAF002C6B
:10AB10003FF448AF20212846013CFFF76AFEF3E7E7
:10AB20000026EDE720212846013CFFF762FEDDE725
:10AB30002846FFF75EFE1AF8011F0029F8D131E719
:10AB400003B0BDE8F08F2DE9F047B0F806904479E6
:10AB5000D2F800A09DF8208009FB04F4043C0646CE
:10AB60000AEB0300A0420F4688BFA4EB030A191D9D
:10AB7000C2F800A0B1FBF9F509FB15114DB9A9EB1D
:10AB80000104544528BF5446BAF1000F04D1BDE872
:10AB9000F0873668013DF1E704317B1970182246D1
:10ABA000B8F1000F0ED001461846AAEB040A02F0D5
:10ABB00078FDD145254436684C464FF0000128BF4A
:10ABC0005446E1E71946F0E7FFF7A5BDF8B5467929
:10ABD0000146721E0546002393422D6803D30024CC
:10ABE000A64202D8F8BD0133F6E70F682846FFF702
:10ABF000CDFD01343946F3E72DE9F843068ACD1C33
:10AC00000746FFF79FFD043E35440446B5FBF6F5C5
:10AC1000F0B14FF48073EDB28380C680013D0760D0
:10AC200081464FF00008A84512D23846FFF78AFD4A
:10AC3000064648B163790133637108F10108C9F828
:10AC4000000007608146EEE72046FFF7BFFF34466D
:10AC50002046BDE8F88301210430FFF740BD10B560
:10AC6000012104460430FFF745FD10F0FF0F04D129
:10AC70002046BDE81040FFF7A9BF10BD1FB50392E5
:10AC80000022009203AAFFF75EFF05B05DF804FB07
:10AC90001FB503920122009203AAFFF754FF05B0EB
:10ACA0005DF804FB41DF7047064B10B500241C70B3
:10ACB000054B1C60BFF35F8F0449054800F01FF887
:10ACC000204610BDAC230020B0230020F8D901009D
:10ACD000A423002008B502F023FB18B1BDE808400A
:10ACE000FFF7E0BF20BF40BF20BF08BD8368002240
:10ACF0005A609A60C3E90422DA601A6070470B68F0
:10AD00004A684360934208BF0023016008BF436064
:10AD10007047436843B10268916852680B4493429C
:10AD2000436004BF002343607047000010B50D4925
:10AD3000A1F59472914201D800200FE08B1ADB102C
:10AD400003EBD3735B1002EBC30452F8333083423E
:10AD500005D802D204F10802ECE7606810BD214674
:10AD6000E8E700BF48DB010008B5FFF7DFFF024B53
:10AD7000002808BF184608BD0DDA0100094B1B78F2
:10AD8000062B0CD1084B1B681A0708D1074B186813
:10AD900000F0F000A0F13003584258417047002005
:10ADA000704700BFE00F00F0E40F00F0E80F00F084
:10ADB0000F4B1B680A2B03D10E4B1B68012B14D9B8
:10ADC0000D4B1B78062B10D10C4B1B681A070CD1AE
:10ADD0000B4B186800F0F003302B06D000F0E000B9
:10ADE000A0F140035842584170470120704700BF0E
:10ADF0003001001034010010E00F00F0E40F00F00B
:10AE0000E80F00F00C4B1B78062B10D10B4B1B6886
:10AE10001A070CD10A4B186800F0F003302B08D049
:10AE200000F0E000A0F14003584258417047002074
:10AE300070470120704700BFE00F00F0E40F00F002
:10AE4000E80F00F008B5FFF7DDFF28B1814B824A1B
:10AE50001B68C3F304231360FFF790FF10B17F4B0F
:10AE60007F4A1A60FFF7A4FF28B17E4B7E4A1B6819
:10AE7000C3F342331360FFF781FF20B17B4AD368ED
:10AE800023F08073D360FFF793FF40B14FF080430E
:10AE90000022C3F80C21C3F81021C3F83825FFF7AE
:10AEA0006DFF10B1724B03221A60FFF767FF40B1CC
:10AEB000704B05221A6001229A6700229A603F2295
:10AEC0005A606D4B1B680A2B03D16C4B1B68012B1E
:10AED0000DD96B4B1B78062B09D16A4B1B681907E0
:10AEE00005D1694B1B6803F0F003502B46D14FF09E
:10AEF0008052664BD2F80414C3F82015D2F8081417
:10AF0000C3F82415D2F80C14C3F82815D2F810147D
:10AF1000C3F82C15D2F81414C3F83015D2F818144D
:10AF2000C3F83415D2F81C14C3F84015D2F8201415
:10AF3000C3F84415D2F82414C3F84815D2F82814DD
:10AF4000C3F84C15D2F82C14C3F85015D2F83014AD
:10AF5000C3F85415D2F83414C3F86015D2F8381475
:10AF6000C3F86415D2F83C14C3F86815D2F840143D
:10AF7000C3F86C15D2F84424C3F870253E4B1B6807
:10AF80000A2B06D13D4B1B681BB9414BFB22C3F872
:10AF90001825FFF737FF28B13E4B3F4A1B6803F0E7
:10AFA0004F031360FFF704FF48B14FF08043D3F81D
:10AFB0000024D20744BF6FF00102C3F800242E4BD7
:10AFC0001B68062B08D12D4B1B68062B01BF334A8B
:10AFD000136843F4806313604FF01023D3F800220A
:10AFE000002A03DBD3F80432002B2FDA2C4B01228A
:10AFF000C3F80425D3F80024002AFBD04FF0102218
:10B000001521C2F80012D3F80024002AFBD04FF01B
:10B0100010231522C3F80422214B1A46D3F800143A
:10B020000029FBD00021C3F80415D2F80034002B0E
:10B03000FBD0BFF34F8F1B491B4BCA6802F4E06281
:10B040001343CB60BFF34F8F00BFFDE7174B184A88
:10B050001A6008BD240300104035014074C0074049
:10B060000DF0ADBA440200103C050040F0ED00E0E8
:10B07000A0050040105600403001001034010010BF
:10B08000E00F00F0E40F00F0E80F00F000C0004017
:10B0900000F0004058020010E40E00403C17004051
:10B0A00000E0014000ED00E00400FA05341C00203F
:10B0B0000090D003044B1A5C012393404FF0A04250
:10B0C000C2F80C35704700BF02DF0100044B1A5C68
:10B0D000012393404FF0A042C2F80835704700BFEB
:10B0E00002DF010008B50020FFF7F0FF0120FFF7A5
:10B0F000EDFF0220FFF7EAFF0320BDE80840FFF75D
:10B10000E5BFC20708B501460CD54FF0A0430322A6
:10B11000C3F84427C3F84827C3F84C27C3F850277F
:10B12000FFF7E0FF8B070AD54FF0A0430C22C3F8CE
:10B130003427C3F83827C3F83C27C3F8402708BD95
:10B1400038B5074C051E04F1080318BF1C462368D8
:10B150002BB11A6822605B6828469847F7E738BD2C
:10B16000BC23002020B9054B01225A70FFF7E8BF2D
:10B17000012802D1014A9070F8E77047B4230020FB
:10B1800020B9034B01225A70FFF7DABF704700BFA6
:10B19000B423002038B50B4C237883B90A48636088
:10B1A000A3602361E36000F0C7F8054602F0B8F839
:10B1B00008B900F0CDF801232370284638BD852555
:10B1C000FBE700BFB423002065B1010037B50B4C8D
:10B1D00000230DF107008DF80730FFF7FFF9E36852
:10B1E000013BE360E56815B900F0C4F8A5709DF86F
:10B1F0000700FFF717FA03B030BD00BFB4230020EB
:10B20000012813B509D018B103281CD002B010BD15
:10B210000F4B0122C3F88020F8E70E4C00230DF1FC
:10B2200007008DF80730FFF7D9F923780BB9FFF73E
:10B23000B1FFE3689DF807000133E3600123A370C9
:10B24000FFF7F0F9E2E700F083F8FFF7BFFFDDE773
:10B2500000E100E0B42300201FB503788DF8003032
:10B260004368019383688DF80830C3680393054AE7
:10B27000054B684653F8213052F82110984705B025
:10B280005DF804FBC8230020CC2300201FB5037801
:10B290008DF800304368019383688DF80830C368E7
:10B2A0000393054A054B684653F8213052F82110A4
:10B2B000984705B05DF804FBC8230020CC2300208C
:10B2C000F0B5184B077891F81DE043F82720164B8E
:10B2D00016460A6943F82720144B03F807E00C468A
:10B2E00084460FCC89B06D460FC594E80F0085E801
:10B2F0000F000497BEF1000F0AD0002E0C4A6946D9
:10B3000008BF32460CF1040000F086FD09B0F0BD24
:10B31000002E084A694608BF32460CF10C0000F0C6
:10B3200089FBF3E7CC230020C8230020D023002092
:10B3300059B201008DB20100044A137923B90121E9
:10B34000106091801846704785207047D4230020F4
:10B35000074B1A68D2075FBFC02283F8002301227F
:10B360001A604FF080430122C3F81825704700BFD0
:10B3700000E100E0044B01221A604FF08042D2F855
:10B380001834DB03FBD470470C000040154B07B5A5
:10B390001A687AB100221A601B680093009B4FF074
:10B3A00080430122C3F808230F4B587910B95A7112
:10B3B0001B6898470D4B1A6882B100221A601B68FF
:10B3C0000193019B4FF080430222C3F80823064BF0
:10B3D0001B68012003B05DF804EB184703B05DF86B
:10B3E00004FB00BF00010040D42300200401004002
:10B3F00000F1804000F5C040002382B00360036884
:10B400000193019B02B07047800000F1A040D0F88A
:10B41000003723F44033C0F80037D0F8003743EA50
:10B420000141C0F800177047054B4FF0FF32072865
:10B4300043F8202084BF1B1883F84820704700BFC2
:10B44000DC23002010B5174C94F8583043BB04F1AE
:10B4500030032021FF22013911F0FF0103F8012BF5
:10B46000F9D1C8B2FFF7E0FF01310C29F9D104226C
:10B4700000210D4802F03EF90C4BC02283F8062350
:10B4800040221A604FF4BE70FFF7B2FF084B4FF036
:10B490000042C3F80423012384F85830002010BD73
:10B4A0000820FCE7DC2300203024002000E100E03D
:10B4B00000600040034B93F85800003018BF012093
:10B4C000704700BFDC230020F0B5374B1C1894F9FF
:10B4D0003040002C1C4664DA8D78C5F34005002D01
:10B4E0000BBF082300230C260826B34201D10420F9
:10B4F000F0BD54F8237001373FD1261844F82320BB
:10B5000086F8303015B9E21882F848008A78550775
:10B5100013D4D60733D5820002F1A042D2F80057E7
:10B5200025F00205C2F80057204EC50800F00707B5
:10B530000122BA40775D3A4372558A780D7812F04D
:10B54000020225D09B0003F1804303F5C0430202B1
:10B55000D3F8101521F4473121F44071C3F81015C8
:10B560002D04D3F8101502F4F85205F440352A439F
:10B570000A43C3F810250020BAE70133B5E74D7838
:10B5800000F5E0724FF0A046AD0046F82250CBE740
:10B59000083B234493F8501041EA851583F8505036
:10B5A000E9E70820A4E700BFDC23002030240020C6
:10B5B00038B51F4C251895F93020072A17DD22448D
:10B5C00092F84810890903290CD14FF0A043D3F811
:10B5D0001035C34013F0010F08BF0221BDE8384009
:10B5E000FFF712BF012914BF03210221F6E7D3B2EE
:10B5F000072B1CD8930003F1804303F5C043D3F815
:10B60000100540F00100C3F8100502F14000800071
:10B6100080B2FFF7EDFE51B195F9303054F8233088
:10B620002BB1012303FA02F2024BC3F8042338BD05
:10B63000DC230020006000400E4B034493F93020CF
:10B64000072A02DD0021FFF7DFBED3B2072B10D897
:10B65000930003F1804303F5C043D3F8101521F0A4
:10B660000101C3F81015012303FA02F2024BC3F8DB
:10B6700008237047DC230020006000404FF0A04307
:10B68000D3F8103523FA00F000F0010070470000F5
:10B690002DE9F04F85B000245A4D01944FF480728B
:10B6A000012102F1804303F5C04390B21B68012BD6
:10B6B00006D1D5F804330B4202D0FFF799FE0C43B4
:10B6C0000432B2F5907F4FEA4101EAD14E4B1B683C
:10B6D000012B0AD14FF4BE70FFF78AFE4FF0A04352
:10B6E00044F00044D3F81035019314F0FF0F1AD042
:10B6F000464F00250126344210D0AB0003F18043B1
:10B7000003F5C043D3F81005D3F8101557F82530CA
:10B7100023B1C1F30141C0F3042098470135082D3E
:10B720004FEA4606E7D1002C64DA00224FF0FF33DF
:10B73000CDE90223354D01274FF0000A344E54461F
:10B740004FF0A04816F9012B531C46D0D2B222F07C
:10B75000C0094FEAD90104A8084402F0070310F811
:10B7600004CC07FA03F31CEA030F36D005EB090CEF
:10B7700092099CF930C055F82CB0BBF1000F0AD1EA
:10B78000032A2AD10DF1080E1EF801C04CEA030C61
:10B790000EF801C001E0032AF4D009F5E07110F8B9
:10B7A0000C0C58F821101842C1F3014105D00229B0
:10B7B00013D1032A0BD1114604E003290DD1032A2A
:10B7C00005D102214846FFF71FFE0134E4B2BBF168
:10B7D000000F02D011464846D8470AF1010ABAF1D3
:10B7E000040FAFD134B14FF0A043019AD3F8103514
:10B7F000934202D105B0BDE8F08F0193029B039301
:10B800009AE700BF006000407C610040DC2300201C
:10B810002C240020014B1B68184700BF382400204F
:10B820000E4B984237B50D4602D0002003B030BD14
:10B8300000230DF107008DF80730FEF7CFFE084B0F
:10B840001C7914B901221D601A719DF80700FEF7DA
:10B85000E9FE002CE9D01120E8E700BF00200040FD
:10B8600038240020034B984201BF034B00221A608A
:10B870001A717047002000403824002000234350F4
:10B8800082B043580193019B02B070470A4610B53D
:10B890004FF48E71FFF7F2FF136A9168C95C136A67
:10B8A00001331362C0F81C1510BD8B690A4610B530
:10B8B0004FF4847123B9FFF7E1FFD0F8183510BDBC
:10B8C000FFF7DCFF536AD168D0F81805C854536AF3
:10B8D00001335362F3E700001FB501238DF80030F8
:10B8E000044BCDE90110D3E900126846904705B03A
:10B8F0005DF804FB4024002030B54C4AD2F80433F4
:10B9000013F4007F85B015464FD0D2F82431002BB8
:10B910004BD04FF492711046FFF7B0FF4FF4017314
:10B92000C2F80833424B93F8291009B9012151603C
:10B930003E4902228DF80020D1F88024C1F88024ED
:10B9400003929A690292DA6801920022C3E9062200
:10B950006846D3E9001290473448D0F81C315BB1F7
:10B9600033490A6A4B699A420A464BD291F8283009
:10B97000002B47D1FFF78AFF2C4AD2F8443193B10C
:10B980004FF4A2711046FFF779FF294B93F8291065
:10B9900009B1012111609A692AB100229A61586A9D
:10B9A000D968FFF799FF05B030BDD5F804335B07C0
:10B9B000D2D5D5F80831002BCED01D4C1B482146DE
:10B9C000FFF773FF636AA2699A422346C4D1E26912
:10B9D000E1684AB12369E3600023606AA261E36120
:10B9E0006362FFF779FFB7E794F829200AB90122CB
:10B9F0006A600E4A4FF40170C2F8080300229A618F
:10BA0000586AEEE74FF48E710848FFF737FF516927
:10BA10000029B1D00023029191688DF80030019186
:10BA200053616846D2E900139847A5E7002000401B
:10BA3000402400202DE9F843564F047991462C22EA
:10BA400002FB0472064692F82A200D46002A40F0B6
:10BA50009A8051490068FFF7E3FE8046002840F0D5
:10BA6000958029683368481C0BD04FF0A040012214
:10BA70008A40C0F8082501F5E0724FF0030C40F849
:10BA800022C06868421C1FBF00F5E0724FF0A04C56
:10BA90004FF0000E4CF822E0AA6995F814C0C3F8E4
:10BAA00024256A7DBCF1010F4CEA0202C3F86C2523
:10BAB000C3F81405C3F80C151DD1AA68511C1FBF8B
:10BAC00002F5E0714FF0A0404FF0000C40F821C0AB
:10BAD000E968481C0BD04FF0A04C01208840CCF8FE
:10BAE000080501F5E0704FF0030E4CF820E0C3F8B4
:10BAF0000815C3F810252C236343FA18C2F80490E4
:10BB00002A69FA50B9F1000F2AD04FF48E713068CB
:10BB10002D7FFFF7B3FE30684FF4A271FFF7AEFE42
:10BB200032681E4BC2F80433120B51B20029A8BF71
:10BB300001F160404FEA4513BABF194802F00F0502
:10BB400000F56140DBB2B4BF435580F8003302F02A
:10BB50001F02012303FA02F24909124B43F8212084
:10BB600033680422C3F800252C2303FB047300224E
:10BB7000C3E9062283F829205A61012283F82A208A
:10BB80004046BDE8F8834FF00808F9E74FF0110888
:10BB9000F6E700BF40240020F9B801008000020051
:10BBA00014ED00E000E100E0F8B5047900682D4DE7
:10BBB0000023C0F800352C2303FB04535B6873B1EA
:10BBC000294BC0F80833020B53B201215B0902F084
:10BBD0001F0201FA02F22033244941F82320D0F851
:10BBE0000C65D0F81415D0F80835D0F810254FF0B2
:10BBF000FF37BE42C0F8147518BF06F5E076C0F8EE
:10BC00000C75C0F80875C0F810751EBF4FF0A0473E
:10BC10004FF0020C47F826C04E1C1FBF4FF0A04645
:10BC200001F5E071022746F82170511C1FBF4FF04B
:10BC3000A04102F5E072022641F822605A1C1FBFA3
:10BC400003F5E0734FF0A042022142F82310FFF702
:10BC500009FE2C2303FB0454002384F82A3063607C
:10BC6000F8BD00BF402400208402020000E100E093
:10BC70002DE9F047214F06794FF02C0909FB067496
:10BC800080466569002D37D16261A16025624FF45D
:10BC90008E71006884F82850FFF7F0FDD8F8000096
:10BCA000012383602146FFF7F1FD6368A14693B944
:10BCB000D8F800A0226A63699A4212D3D8F80030FB
:10BCC000D3F81C21002AFBD00122DA602C2303FBCD
:10BCD0000676002373612846BDE8F08794F8283083
:10BCE00043B9DAF81C31002BF8D049465046FFF72B
:10BCF000CDFDDFE70F25E9E71125ECE74024002023
:10BD00000023435082B043580193019B02B0704717
:10BD10001FB501238DF80030044BCDE90110D3E9A4
:10BD200000126846904705B05DF804FB6C240020C3
:10BD30007FB5374AD2F82461002E48D010464FF420
:10BD40009271FFF7DDFF02238DF80030D2F88034C6
:10BD5000C2F880340393D2F83C3502932D4BDA6855
:10BD600001920022C3E906226846D3E900129047F7
:10BD7000274AD2F844317BB14FF4A2711046FFF745
:10BD8000BFFF244B996939B10021C3E90611D96875
:10BD9000D2F83C05FFF7BCFF1D4AD2F82031A3B111
:10BDA0004FF490711046FFF7ABFF1A4B596961B120
:10BDB000D2F84C150291002299688DF8002001916B
:10BDC0005A616846D3E90012904704B070BDD2F8BA
:10BDD0001031002BCCD04FF488711046FFF790FF44
:10BDE0000C4BD2F83C0599698842C1D1DC69D9680D
:10BDF00064B1D2F8005225F02005C2F800521A6949
:10BE00009C61DA60DE61FFF783FFB1E79C61FAE7CE
:10BE1000002000406C2400202DE9F8435A4F067999
:10BE20009146242202FB0672044692F820200D4619
:10BE3000002A40F0A28055490068FFF7F1FC8046D7
:10BE4000002840F09D8029682368481C0BD04FF0E3
:10BE5000A04001228A40C0F8082501F5E0724FF0A9
:10BE6000030C40F822C06868421C1FBF00F5E07256
:10BE70004FF0A04C4FF0000E4CF822E0AA6995F864
:10BE800014C0C3F824256A7DBCF1010F4CEA0202FC
:10BE9000C3F86C25C3F80C15C3F814051DD1AA68A6
:10BEA000511C1FBF02F5E0714FF0A0404FF0000C95
:10BEB00040F821C0E968481C0BD04FF0A04C01208D
:10BEC0008840CCF8080501F5E0704FF0030E4CF8FF
:10BED00020E0C3F80815C3F8102524237343FA188B
:10BEE000C2F804902A69FA50B9F1000F34D04FF427
:10BEF000887120682D7FFFF703FF4FF49071206851
:10BF0000FFF7FEFE4FF492712068FFF7F9FE2068FC
:10BF10004FF4A271FFF7F4FE22681D4BC2F8043300
:10BF2000120B51B20029A8BF01F160404FEA45133E
:10BF3000BABF184802F00F0500F56140DBB2B4BF8C
:10BF4000435580F8003302F01F02012303FA02F286
:10BF50004909114B43F8212023680822C3F8002522
:10BF6000242303FB06730022C3E906225A6101223F
:10BF700083F820204046BDE8F8834FF00808F9E731
:10BF80004FF01108F6E700BF6C24002031BD01001E
:10BF90001003020014ED00E000E100E0F8B50479C0
:10BFA00000682D4D0023C0F80035242303FB045303
:10BFB0005B6873B1294BC0F80833020B53B20121FF
:10BFC0005B0902F01F0201FA02F22033244941F812
:10BFD0002320D0F80C65D0F81415D0F80835D0F827
:10BFE00010254FF0FF37BE42C0F80C7518BF06F59C
:10BFF000E076C0F81475C0F80875C0F810751EBF5B
:10C000004FF0A0474FF0020C47F826C04E1C1FBF50
:10C010004FF0A04601F5E071022746F82170511C4F
:10C020001FBF4FF0A04102F5E072022641F82260E6
:10C030005A1C1FBF03F5E0734FF0A042022142F8E3
:10C040002310FFF70FFC242303FB0454002384F880
:10C0500020306360F8BD00BF6C2400201003020094
:10C0600000E100E001F06043B3F1005F2DE9F04131
:10C07000074632D11B4B0679242505FB0635984629
:10C080006C6964BB6A61A96000684FF49071FFF746
:10C0900037FE4FF4AC713868FFF732FE3B686A69CF
:10C0A000A968C3F84415C3F8482501229A606A6854
:10C0B00062B9D3F82021D3F8584152B9002CF8D0F6
:10C0C0000F24242303FB0686002373612046BDE86A
:10C0D000F081002C18BF0F24F3E71024F6E7112499
:10C0E000F4E700BF6C24002072DF704773DF7047F5
:10C0F00076DF70477ADF70477CDF70477FDF7047FD
:10C100008FDF7047B1DF7047FDF778BF08B5064B8A
:10C1100001211878FFF7EAFF08B1FDF76FFF002053
:10C12000BDE80840FEF7C6BF501C00200388212B45
:10C1300013B5044652D024D8112B2DD0132B45D043
:10C14000102B41D12D4B2E482E49C01AC008000497
:10C1500040F00300FDF79CFC0120FEF7ABFF002040
:10C16000FEF7B4FF284BA1882848198000F04EFF45
:10C1700008B1FDF743FFFDF711FF28B3FDF73EFFC0
:10C1800022E0522B32D0562B01D03B2B1CD1132155
:10C19000A088FFF7ADFFF0E7184B19481C49C01AFB
:10C1A000C008000440F00300FDF772FC0120FEF718
:10C1B0008DFF154B4FF6FF721A80FDF705FF08B192
:10C1C000FDF71CFFFFF7A2FF02B010BD0E480023D1
:10C1D0001A4685210088FFF791FFCEE7002301A9C9
:10C1E0008088ADF80430FFF78BFFC6E706480023D0
:10C1F0001A4619460088FFF785FFBEE720D80100E0
:10C2000048D8010028DF0100521C0020F82400203B
:10C2100032DF010008B503784BB9054B3B21188884
:10C22000FFF766FF18B1BDE80840FDF7E7BE08BD9F
:10C23000521C00200D2810B50C461AD10F4B104887
:10C240001049C01AC008000440F00300FDF720FCAC
:10C250000D4B0E491888224600F0BAFF30F0080254
:10C260000BD043F20202904207D043F201429042C7
:10C2700003D0BDE81040FDF7C1BE10BD20D80100BD
:10C2800048D801003FDF0100521C0020E0240020BC
:10C2900010B50A4B0A4CE41AE408240444F00304E1
:10C2A00002203AB1FEF706FF06492046BDE81040DD
:10C2B000FDF7EEBBFEF70AFF0349F6E720D80100C1
:10C2C00048D8010059DF01006ADF0100FDF796BE82
:10C2D00000B54FF40041A7B00020FDF715FA08B1F2
:10C2E000FDF78CFEFDF746F90120FEF70AFFFEF789
:10C2F000DDF808B1FDF782FE40F26662012169486F
:10C30000FDF7F8FD08B1FDF779FEFEF7CDFC08B1A9
:10C31000FDF774FE00F0C6FF08B1FDF76FFE0023C5
:10C3200017A90120179301F045F808B1FDF766FE43
:10C3300017A801F0EFF808B1FDF760FE11235A4885
:10C340008DF8203001F009FA574982B208A8FFF7AA
:10C35000D3FE08B1FDF752FE0822002117A801F014
:10C36000C9F9524A4FF0C87317A8CDE91723FFF750
:10C37000C1FE08B1FDF742FE00214D4800F071FDFD
:10C3800008B1FDF73BFE0023089317A9494B4A4823
:10C39000179300F029FE08B1FDF730FE474B4848DF
:10C3A000089308A900F0A6FE08B1FDF727FE41F2A8
:10C3B0002353ADF80430424B424C9B7C8DF8063041
:10C3C0003C22002108A801F095F902238DF82030C5
:10C3D0003C2240F20163002117A8ADF8223001F0A1
:10C3E00089F922460123ADF86C3052F8041B01ABE9
:10C3F00008A81C9300F0F0F808B1FDF7FFFD324AE1
:10C40000A16817A800F0E8F808B1FDF7F7FD1822B9
:10C41000002102A801F06EF900230122ADF81430CA
:10C4200003934FF480738DF80820ADF81C3002AAF6
:10C430004023244925480493FFF756FE08B1FDF731
:10C44000DDFD1C22002117A801F054F900234FF450
:10C450002022CDE91732ADF86A304FF420328DF842
:10C460006C301B4B19921C9303221A4B8DF86820D9
:10C4700017A81D9300F078FB08B1FDF7BFFD164B20
:10C4800016481749C01AC008000440F00300FDF721
:10C49000FFFAFFF73BFEFDF791F90028FBD1FEF70D
:10C4A00019FCF8E7381C00207CDF01005000A000D8
:10C4B000D024002009C10100F824002091C201000D
:10C4C000E0240020401C00204C1C0020501C0020B8
:10C4D00015C20100CDC2010020D8010048D80100DA
:10C4E0008ADF01006DDF704779DF70477DDF7047BD
:10C4F00064DF70472DE9F04F85B000250E9CBDF834
:10C500003CB027880191804691469A462E46B8F85D
:10C510000020B2420CDC3DB12288013AD21B92B21B
:10C52000FF2A3BD80AF80720002005B0BDE8F08FAD
:10C53000D8F8042052F82600039000220DF10B01D8
:10C5400003A8FFF7D5FF0028EFD19DF80B204A453F
:10C5500022D12288002D14BF0020022002EB090105
:10C56000014459451ADC45B9013292B2019B22803F
:10C570000AF8023022880132228022880DF10B0154
:10C58000524403A8FFF7B4FF0028CED121889DF8BC
:10C590000B200A44228001250136B8E70C20C4E7AD
:10C5A0002DE9F341089CBDF824501746CDE900451C
:10C5B000022206469846FFF79DFF50B943461022D7
:10C5C00039463046CDE9084502B0BDE8F041FFF7F5
:10C5D00091BF02B0BDE8F0812DE9F04F002316882D
:10C5E000138090F82D3085B007460D46144653B39E
:10C5F000082E01D80C2027E102A8FFF773FF0028BE
:10C6000040F0228123880822EA54238801339BB218
:10C610001B222380EA542088013080B22080062229
:10C620000DF10901284401F03CF823889DF8082009
:10C6300006339BB212F0FE0218BF01222380EA5497
:10C64000238801332380BB78FBB123880433B342B2
:10C65000D0D802A8FFF748FF002840F0F5802388D3
:10C660000322EA54238801339BB219222380EA541F
:10C670002388BDF8082001339BB2E9182380EA54CF
:10C68000120A4A70238802332380FA789AB12388E9
:10C69000D91CB142AED80221E954238801339BB2A0
:10C6A00001212380E95423880B449BB22380EA5460
:10C6B00023880B4423807A68AAB12388D91CB1420D
:10C6C00098D8022192F90020E954238801339BB2C3
:10C6D0000A212380E954238801339BB22380EA5442
:10C6E0002388013323803B89002B40F0A1803B8AC3
:10C6F0005BB1CDE900462B460722032107F110006C
:10C70000FFF74EFF002840F09F803B8B5BB1CDE9E7
:10C7100000462B461522142107F11800FFF740FFB1
:10C72000002840F091803A6A002A40F09080D7F8C3
:10C730002480B8F1000F30D0B8F804302188981C5C
:10C740008A1C0244B2423FF655AFFE283FF652AF74
:10C7500003336B54238801339BB2FF222380EA54B6
:10C76000238801339BB22380B8F80020EA54E918EB
:10C77000120A4A702088023080B22080B8F8042063
:10C780005AB1D8F8081000296BD0284400F089FF6E
:10C790002388B8F804201344238097F82C30002B0A
:10C7A00040F09A80387800284ED03B88012B58D032
:10C7B000228802F1020CB4453FF61CAF012805D1D6
:10C7C0007B78023313449E42FFF414AF023EB61A44
:10C7D000B6B202A905EB0C00ADF80860FFF786FEC3
:10C7E00090BB3978BDF80820022900F0BA807B7828
:10C7F000934202D3B24240F2B280012940F0B380AA
:10C800009BB29E42C0F0AF80ADF808300821BDF861
:10C810000830FE2B3FF6EEAE22880133AB5422885F
:10C82000013292B22280A9542288134423800BE063
:10C83000CDE900462B460622022107F10800FFF74A
:10C84000AFFE00283FF453AF05B0BDE8F08FB4F859
:10C8500000C00CF10603B3423FF6CCAE11880529A7
:10C8600001D80720F0E76FF4486E01EB0E039BB28E
:10C870004FF27D3E7345F4D95388052BF1D96FF4FF
:10C880004860181880B27045EBD94FF6FF708142AE
:10C8900003D0834201D09942E3D8052305F80C3038
:10C8A000238801339BB212212380E954238801336A
:10C8B0009BB223801188E954E818090A4170238843
:10C8C00002339BB223805288EA54E918120A4A7054
:10C8D0002388023323802AE7BB6A002BC1D04FF0A4
:10C8E00000094FF00C0A4FF0160B97F82C305FFA46
:10C8F00089F293427FF656AFB96A0AFB02F201EB66
:10C900000208B8F80430981CFE283FF673AE208861
:10C9100003332B54238801339BB2238005F803B0E3
:10C92000238801339BB223808A5AEA54E918120AF9
:10C930004A702088023080B22080B8F804205AB1B2
:10C94000D8F8081000298CD0284400F0AAFE2388CB
:10C95000B8F804201344238009F10109C5E709212F
:10C9600055E7B242FBD9ADF808604FE775DF704775
:10C9700076DF70477ADF70477BDF7047034B1A889A
:10C9800082420CBF18460020704700BF20250020BF
:10C99000024B9B6903B11847704700BF0425002074
:10C9A00073B586B23046FFF7E9FF044670B1164D05
:10C9B000027A2B7B9A420BD200F10A013046FFF734
:10C9C000D5FFE8B1112801D0FFF7E2FF02B070BD3A
:10C9D000002303722B7C43B13B213046FFF7C8FF95
:10C9E00030F0080301D0FFF7D3FF6B69002BEDD0C7
:10C9F00000228DF80420ADF8066001A89847E5E70D
:10CA0000237A01332372E1E70425002013B50B4696
:10CA1000497A0F4C024669B9D4E901101C7A002CFE
:10CA200018BF01465868FDF783FD08B1FFF7B0FF56
:10CA300002B010BD002119726369002BF8D00121EA
:10CA4000ADF806008DF8041001A89847F0E700BF84
:10CA5000042500204B8802889A4213D842889A42C3
:10CA600010D380888A8840F2F313984294BF031A47
:10CA7000C31A934206D800F2F310904234BF00204C
:10CA800001207047002070470388112B70B50146C4
:10CA900048D002D8102B1ED070BD122B52D0502B74
:10CAA000FAD12F4BC288DB899A42F5D1038A022B37
:10CAB000F2D186883046FFF761FF05460028EBD0AB
:10CAC00001F1120000F021F930BB6868FDF776FD36
:10CAD0000028E1D009E0C37B012BDDD14FF6FF70C8
:10CAE000FFF74CFF054620B90420BDE87040FFF772
:10CAF0004FBF1C4A8E880680002303721368C5F856
:10CB00000A300A30536843601031FFF7A3FF144B1B
:10CB10006872DB89002BBFD129463046BDE87040E2
:10CB2000FFF774BF8088FFF729FF04460028B3D0C1
:10CB30004068FDF743FD08B1FFF72AFF4FF6FF738A
:10CB40002380A9E786883046FFF718FF05460028AE
:10CB5000A2D008310A30FFF77DFF6872DCE700BF22
:10CB60000425002034250020F8B5064648B30546C4
:10CB70000FCD154F3C460FC495E8070084E8070029
:10CB80003068124C3C60B0B1FFF7F4FEC0B93268B7
:10CB900013682360536863600D480E4A4FF6FF73B5
:10CBA00003800D4B40F8043F0021FDF7AFFC002847
:10CBB00018BF032004E02046FFF7DEFE0028EBD07C
:10CBC000F8BD0E20FCE700BF04250020342500201E
:10CBD00020250020A1C901003C25002073B501914A
:10CBE000019C06466CB100252C46294601A8FDF79C
:10CBF00042FD18B106EB440301349D800135142D2C
:10CC0000F3D13046346002B070BD00002DE9F0472A
:10CC100003888488112B8CB006463CD01A2B3FD059
:10CC2000102B17D1274DAB68DB430093696868462A
:10CC3000FDF74AFD009901A8FFF7D0FF0DF10809A3
:10CC40004FF00008019B984507D3132C13D90420FB
:10CC5000FDF7D4F90CB0BDE8F08739F802AB002736
:10CC60000137514605EB8700FDF7FBFC1D2FF7D17F
:10CC700008F10108E6E721461348FDF7E9FC2146E3
:10CC80001248FDF7E5FCF37B012BE3D01048214669
:10CC9000FDF7DEFCDEE70C482146FDF7E2FCD9E7B4
:10CCA000057A0C482D09012D214606D9FDF7D0FC47
:10CCB000022D21460848F0D0EAE7FDF7D2FC2146D4
:10CCC0000548EAE75C250020642500206025002057
:10CCD000682500206C25002070250020AADF704701
:10CCE000002301380B70042806D8DFE800F00306A3
:10CCF000080A0C0011230B7070472123FBE7312336
:10CD0000F9E71223F7E72223F5E7007800F00100A6
:10CD10007047F0B58B7891B0002B0C4608BF01230B
:10CD20008DF80E3005460B88ADF80C300021164604
:10CD30006846032200F0DEFC6946607CFFF7D0FF06
:10CD40000DF10101A07CFFF7CBFF9DF80230E27BE3
:10CD500062F3C303227C62F30413227B62F30003B9
:10CD6000227D002A14BF0222012262F34203002125
:10CD70001C2209A88DF8023000F0BCFC637B13F084
:10CD8000300F15D002AF03220021384600F0B2FC6C
:10CD90000DF10901E07CFFF7A3FF11238DF80830A6
:10CDA0009DF80A300E97012262F342038DF80A3093
:10CDB000637B8DF824301422A37B8DF8253000216D
:10CDC00004A800F097FC03AB0493A388ADF81C30D3
:10CDD000A368CDF814D01BB1E288ADF818200893F1
:10CDE000A369002B2ED001AF03220021384600F0AA
:10CDF00081FCA3691A88ADF82C205A88187BADF8FD
:10CE00002E2039465A680A920D97FFF769FFA369E9
:10CE10000DF10501587BFFF763FFA2699DF806300D
:10CE2000917A61F3C303D17A61F30413117A927B8F
:10CE3000002A61F3000314BF0222012262F34203BD
:10CE40008DF80630E36903B10C93334604AA09A9AF
:10CE50002846FFF743FF11B0F0BDA5DF7047B5DFEF
:10CE6000704750B14FF0171303601B230371172352
:10CE7000C160C3808360002070470E2070470000AF
:10CE800013B5034680880C4680B91A88112A60D0F1
:10CE90000ED8102A3AD0A37A43B1E1880020FFF7D8
:10CEA000DCFF002871D14FF48073638102B010BDA4
:10CEB0003A2A52D0552AEED1DB88C988A072172BA6
:10CEC00038BF17238B4228BF0B462381FFF7C7FFCC
:10CED00060B1FDF749FF354A354B36499B1ADB08EF
:10CEE0001B04024643F00100FCF7D6FDE37A002B59
:10CEF000D1D1E368002BCED040F677220092228970
:10CF0000ADF80420694620469847C4E7DB7B012B37
:10CF100004BF0B88CB80C98823898B42BBD20020F9
:10CF2000FFF79BFF10B90123E372B4E7112802D188
:10CF30000123A372AFE7FDF717FF1C4A1C4B1E49E4
:10CF40009B1ADB081B04024643F00100FCF7A4FD1A
:10CF5000A1E71723CB808B609DE75B89CA8893424A
:10CF600028BF1346172BCA6838BF17230B814AB155
:10CF7000C97A39B140F677210091ADF8043069469D
:10CF8000204690470023638185E711288ED0FDF766
:10CF9000EBFE064A064B08499B1ADB081B040246B7
:10CFA00043F00100FCF778FD80E700BF20D80100C6
:10CFB00058D80100D3DF0100A2DF0100B0DF7047C5
:10CFC00066DF704710B5002104464088FFF7F8FF80
:10CFD000034608B9237210BD112801D10123F9E7D6
:10CFE0006368BDE81040184760B159B10378DE2B83
:10CFF0000AD00B684360DE2303704FF6FF73438053
:10D00000002070470E2070470820704728B1037831
:10D01000DE2B04D14180002070470E20704708208D
:10D020007047F0B5054685B00C46F1B1E8B10B7814
:10D03000DE2B1AD182884B889A4204D10B7A13B125
:10D040000846FFF7BFFF2B88112B32D0512B0ED093
:10D05000012B0AD12B7A012B07D1A9886288914232
:10D0600003D123722046FFF7ADFF05B0F0BDAE88B7
:10D070006388B342F9D1AF79022FF6D1AD7B2B1F74
:10D08000022BF2D800211022684600F033FB052D58
:10D0900014BF4FF4C0730023694630468DF800700A
:10D0A000ADF80430FFF78AFF0028DED063689847A8
:10D0B000DBE76388AA889A4204BF4FF6FF73638058
:10D0C000D3E7A8DF7047AEDF704762DF70470288A2
:10D0D000502A10B40CD1C4884A88944208D1028ADC
:10D0E000012A05D14B691BB1827C10BC808818478E
:10D0F00010BC7047F0B50B6843618FB0334B02AA88
:10D10000044603F11007164618685968154603C50A
:10D110000833BB422A46F7D104F112013046FFF72B
:10D12000D4FF00284FD1A37C8DF80630224641F26F
:10D13000235301A90120ADF80430FFF7C2FF0028F6
:10D1400041D10146202206A800F0D4FA41F224532E
:10D15000ADF81830A37C8DF81A309DF825302246A2
:10D1600023F0120301254FF0011643F0120332F8A9
:10D170000A0B079606A98DF825308DF829508DF8F1
:10D180002B50FFF7C6FDF0B90146202206A800F09B
:10D19000B1FA41F22553ADF81830A37C8DF81A305E
:10D1A0009DF825300796224623F00A0343F00A0330
:10D1B00032F8020B8DF8253006A98DF829508DF82C
:10D1C0002A50FFF7A6FD0FB0F0BD00BF0FE0010031
:10D1D00070B588B00E468DF8072010220546012450
:10D1E0000DEB02000021ADF80E4000F083FA7389C8
:10D1F000ADF810300DF10703079304A90DF10E03EC
:10D2000028468DF812400693FFF75DFF08B070BD09
:10D2100010DF704713B5044609496846FDF76FFDF6
:10D22000019808B902B010BDD0E9003120469847F6
:10D2300018B16846FDF76DFDF2E71120F2E700BF77
:10D2400024E0010013B5044607496846FDF757FD81
:10D25000019B0BB902B010BD2046D3E900219047D5
:10D260006846FDF756FDF3E73CE001000B4991F8F5
:10D2700016335A09EC231341DB0706D5084B9A688D
:10D280003AB94FF480030B60704742F20200FCF79A
:10D29000B5BE1A6842F480021A60704700E100E0EF
:10D2A00098230020F7B5194F3C7864BB184E012530
:10D2B00020463570FFF7AEFF112821D02046FFF73A
:10D2C000C1FF144B8DF80340186801900DF1030065
:10D2D000FDF784F9104901A8FFF79AFF0446B0FA58
:10D2E00080F0400938709DF80300FDF79BF93CB9C8
:10D2F0000A4B34701C70FFF7B9FF2846FFF7A2FFF6
:10D30000204603B0F0BD0824FAE700BFD525002071
:10D31000D42500201FE0010019A00100D62500201F
:10D32000014B1878704700BFD525002007B5084984
:10D330006846FDF7E4FC019B13B903B05DF804FBFC
:10D34000D3E9002090476846FDF7E3FCF3E700BF10
:10D3500030E00100FFF7EABF60DF704769DF704728
:10D3600061DF704730B5114B1B7891B0E3B1104DC0
:10D3700034240DF1020103A8ADF80240FFF7F0FFDD
:10D3800070B9294601A8FDF7BAFC029B002BF0D02A
:10D3900003A8D3E90021904701A8FDF7BAFCF4E700
:10D3A000052801D0FCF72AFE11B030BDD72500209A
:10D3B0007CE2010030B5054685B00C46002900F03E
:10D3C00096804C4B0B600C22002101A800F092F9D2
:10D3D00001238DF8063022688DF80450062301A938
:10D3E0002020ADF80830FFF7B9FF60B1FDF7BCFCB5
:10D3F000414A424B42499B1ADB081B04024643F058
:10D400000100FCF749FB0C22002101A800F072F991
:10D41000012322688DF8053001A94020FFF79EFF07
:10D4200060B1FDF7A1FC344A344B36499B1ADB0846
:10D430001B04024643F00100FCF72EFB0C220021E6
:10D4400001A800F057F90A2322688DF8043001A9D9
:10D450000120FFF783FF60B1FDF786FC264A274BCA
:10D4600029499B1ADB081B04024643F00100FCF724
:10D4700013FB0C22002101A800F03CF94FF4B0632B
:10D480002268019301A9A120FFF768FF60B1FDF7B1
:10D490006BFC194A194B1D499B1ADB081B040246F9
:10D4A00043F00100FCF7F8FA0C22002101A800F07B
:10D4B00021F99DF8043022686FF3000301A9A02030
:10D4C0008DF80430FFF74AFF034668B1FDF74CFCC6
:10D4D000094A0A4B0E499B1ADB081B04024643F01B
:10D4E0000100FCF7D9FA0023184605B030BD0E2321
:10D4F000FAE700BF181C002020D8010068D80100FE
:10D5000050E0010096E00100E2E001002EE10100A0
:10D510007FE10100F8B506460768FFF71DFF336895
:10D52000BB4205461DD9194B194C1A49E41AE408A7
:10D53000240444F002042046FCF7AAFA3368164992
:10D540003A462046FCF7B1FA4FF080533268D3F8E0
:10D550000C3112499B0203F100539A1A2046FCF742
:10D560009BFA25B90E4B01221A702846F8BD2846B1
:10D57000FDF7FAFB054A064B0A499B1ADB081B0418
:10D58000024643F00100FCF787FAEEE720D80100DD
:10D5900068D80100D2E1010001E2010032E201009D
:10D5A000D72500205CE201004BDF70471FB50D4C12
:10D5B00001A8FFF7F9FF70B9214602A8FDF79FFB0C
:10D5C000039B002BF4D00198D3E90021904702A8D7
:10D5D000FDF79FFBF4E7052801D0FCF70FFD04B031
:10D5E00010BD00BF94E201007F2805D8034B185CF2
:10D5F000034B5B5C1840704700207047ACE20100B1
:10D600002CE30100A0F16103192B98BF203870476B
:10D61000A0F14103192B98BF203070477F2805D80F
:10D62000034B185C034B5B5C18407047002070474D
:10D63000ACE201002CE30100A0F16103192B98BFBB
:10D6400020387047A0F14103192B98BF2030704754
:10D650007F299ABF017001206FF02E0070475AB1E8
:10D660000A787F2A0AD800B1026000211960596047
:10D67000501A18BF01207047002070476FF02E002D
:10D680007047000008B5034B5B689B681B689847B0
:10D6900008BD00BF541C002008B50921FFF7F2FFA8
:10D6A00008BD844640EA010313F0030F18D18446F5
:10D6B000202A0BD32DE9F007B1E8F807A0E8F80716
:10D6C000A2F12002202AF7D2BDE8F007042A07D3EE
:10D6D00051F8043B40F8043BA2F10402042AF7D2BB
:10D6E000002A05D011F8013B00F8013B013AF9D1BD
:10D6F000604670478446002A2DD010F0030F04D0F6
:10D7000000F8011B013A26D0F7E7C9B241EA01212E
:10D7100041EA0141202A12D3A2F120022DE9F003AF
:10D720000B460C460D460E460F4688468946A0E835
:10D73000FA03203AFBD2BDE8F00320320BD0042AD2
:10D7400005D340F8041B043A05D0042AF9D200F8A6
:10D75000011B013AFBD16046704700F1010110F056
:10D76000030F11D010F8012B002A23D010F0030F63
:10D770000AD010F8012B002A1CD010F0030F03D0A0
:10D7800010F8012B002A15D02DE970004FF001325E
:10D790004FF0803350F8044BA4EB020525EA040552
:10D7A0001D4000D1F6E7A0F1040070BC10F8012B79
:0AD7B000002AFBD1A0EB0100704736
:08D7BC0081B101000000000032
:10D7C4000DCC01000000000081CE0100D024002017
:10D7D40089CA01000000000023D00100F8240020C1
:10D7E400CFD00100E02400202DC101000000000082
:08D7F40001B201000000000079
:10D7FC0065D3010000000000ADD501000000000061
:10D80C00AC1C0020741D00207C1D0020B41C0020CA
:04D81C0018000000F0
:10D820000CDF01000000000012DF0100000000001A
:10D8300019DF0100000000001DDF010000000000F2
:10D8400022DF010000000000EDD80100000003030A
:10D8500006DF01000000000002E0010000000303F9
:10D8600048E001000000030388E201000000030318
:10D87000A0E201000000030304DA01000000000040
:10D88000B0D8010000000000BCD801002C1C002012
:10D89000FFFFFFFFFFFFFFFFFFFFFFFFFFFFFFFF98
:10D8A00000000000000000000000D601060100009A
:10D8B000DD940100419501008D9401007561727441
:10D8C0005F6C6F675F6261636B656E640000000090
:10D8D000A02100207F000000202200204261636B15
:10D8E000656E647320666C75736865640061707042
:10D8F0000000000027D9010070D901002FD90100D4
:10D9000078D9010080D9010088D9010090D901009F
:10D9100098D90100A0D901002025303278002020BC
:10D9200020007C002563001B5B306D002573001B0D
:10D930005B313B33316D0025734C6F67732064722C
:10D940006F70706564202825642925730D0A003CDA
:10D9500025733E2025733A200000000000000000DF
:10D96000C6D90100A8D90100B0D90100B5D901007C
:10D970001B5B313B33306D001B5B313B33326D0041
:10D980001B5B313B33336D001B5B313B33346D002C
:10D990001B5B313B33356D001B5B313B33366D0018
:10D9A0001B5B313B33376D007761726E696E6700C8
:10D9B000696E666F00646562756700004022002032
:10D9C000466174616C206572726F72005379737472
:10D9D000656D207265736574000000000000000032
:10D9E0000338FDD870473031323334353637383963
:10D9F0004142434445460000C4D70100C4D701005A
:10DA0000040000007077725F6D676D7400556E6B77
:10DA10006E6F776E206572726F7220636F6465003F
:10DA20000000000048DB01000100000054DB0100A1
:10DA30000200000072DB01000300000093DB010024
:10DA400004000000A6DB010005000000B7DB0100B8
:10DA500006000000CBDB010007000000E3DB010053
:10DA600008000000FBDB01000900000013DC0100DE
:10DA70000A0000002CDC01000B00000044DC010067
:10DA80000C0000005BDC01000D0000006FDC0100F9
:10DA90000E00000081DC01000F00000090DC01009E
:10DAA00010000000A4DC010011000000BBDC01003C
:10DAB00012000000CADC010013000000DFDC0100DE
:10DAC00080000000F3DC01008100000014DD010093
:10DAD0008200000030DD0100830000004CDD010009
:10DAE000840000006ADD0100850000008BDD01007C
:10DAF00086000000B0DD010090000000C7DD0100DD
:10DB000091000000E5DD01009200000003DE01004D
:10DB10000082000018DE01000182000036DE0100F4
:10DB20000282000052DE0100008400006EDE01006F
:10DB30000184000092DE010002840000BCDE0100CE
:10DB400003840000E1DE01004E52465F535543431B
:10DB5000455353004E52465F4552524F525F535603
:10DB6000435F48414E444C45525F4D495353494EE3
:10DB700047004E52465F4552524F525F534F4654F4
:10DB80004445564943455F4E4F545F454E41424CD4
:10DB90004544004E52465F4552524F525F494E54E3
:10DBA00045524E414C004E52465F4552524F525FD5
:10DBB0004E4F5F4D454D004E52465F4552524F52BB
:10DBC0005F4E4F545F464F554E44004E52465F45A0
:10DBD00052524F525F4E4F545F535550504F525414
:10DBE0004544004E52465F4552524F525F494E5691
:10DBF000414C49445F504152414D004E52465F45B1
:10DC000052524F525F494E56414C49445F53544122
:10DC10005445004E52465F4552524F525F494E5650
:10DC2000414C49445F4C454E475448004E52465F74
:10DC30004552524F525F494E56414C49445F464C03
:10DC4000414753004E52465F4552524F525F494E34
:10DC500056414C49445F44415441004E52465F4551
:10DC600052524F525F444154415F53495A45004E0E
:10DC700052465F4552524F525F54494D454F55549D
:10DC8000004E52465F4552524F525F4E554C4C002B
:10DC90004E52465F4552524F525F464F52424944A0
:10DCA00044454E004E52465F4552524F525F494ED8
:10DCB00056414C49445F41444452004E52465F45F0
:10DCC00052524F525F42555359004E52465F455291
:10DCD000524F525F434F4E4E5F434F554E54004E8E
:10DCE00052465F4552524F525F5245534F55524331
:10DCF0004553004E52465F4552524F525F4D4F447E
:10DD0000554C455F4E4F545F494E495449414C492B
:10DD10005A4544004E52465F4552524F525F4D5550
:10DD20005445585F494E49545F4641494C4544006B
:10DD30004E52465F4552524F525F4D555445585FC3
:10DD40004C4F434B5F4641494C4544004E52465F61
:10DD50004552524F525F4D555445585F554E4C4FAA
:10DD6000434B5F4641494C4544004E52465F455245
:10DD7000524F525F4D555445585F434F4E445F4993
:10DD80004E49545F4641494C4544004E52465F451A
:10DD900052524F525F4D4F44554C455F414C524596
:10DDA0004144595F494E495449414C495A45440000
:10DDB0004E52465F4552524F525F53544F52414765
:10DDC000455F46554C4C004E52465F4552524F52AD
:10DDD0005F4150495F4E4F545F494D504C454D4552
:10DDE0004E544544004E52465F4552524F525F4694
:10DDF0004541545552455F4E4F545F454E41424C4C
:10DE00004544004E52465F4552524F525F494F5F64
:10DE100050454E44494E47004E52465F4552524F80
:10DE2000525F4452565F5457495F4552525F4F56B6
:10DE3000455252554E004E52465F4552524F525F28
:10DE40004452565F5457495F4552525F414E4143D9
:10DE50004B004E52465F4552524F525F4452565FFE
:10DE60005457495F4552525F444E41434B004E5216
:10DE7000465F4552524F525F424C455F49505350A6
:10DE80005F52585F504B545F5452554E4341544576
:10DE900044004E52465F4552524F525F424C455FDE
:10DEA000495053505F4348414E4E454C5F414C52A0
:10DEB000454144595F455849535453004E52465FBB
:10DEC0004552524F525F424C455F495053505F4C50
:10DED000494E4B5F444953434F4E4E45435445448E
:10DEE000004E52465F4552524F525F424C455F4989
:10DEF0005053505F504545525F52454A4543544543
:10DF0000440011121314636C6F636B00434C4F4356
:10DF10004B004750494F5445005052530055415211
:10DF20005400554152544500436F6E6E65637465ED
:10DF30006400446973636F6E6E6563746564005357
:10DF4000656E6420627574746F6E2073746174659D
:10DF5000206368616E67652E00526563656976654A
:10DF600064204C4544204F4E21005265636569761C
:10DF70006564204C4544204F464621004E6F726434
:10DF800069635F426C696E6B7900426C696E6B7994
:10DF9000206578616D706C6520737461727465645E
:10DFA0002E0073645F626C655F67617474635F65A4
:10DFB000786368616E67655F6D74755F72657175B2
:10DFC00065737428292072657475726E65642025E6
:10DFD000732E0073645F626C655F67617474735F56
:10DFE00065786368616E67655F6D74755F72657093
:10DFF0006C7928292072657475726E6564202573AA
:10E000002E006E72665F626C655F676174740023D8
:10E01000D1BCEA5F782315DEEF1212000000000188
:10E0200000000700F4D70100F4D701000800000049
:10E03000FCD701000CD8010008000000F4D7010053
:10E04000FCD70100080000006E72665F7364680010
:10E0500073645F626C655F6366675F7365742829CC
:10E060002072657475726E6564202573207768650B
:10E070006E20617474656D7074696E6720746F20B2
:10E0800073657420424C455F434F4E4E5F43464795
:10E090005F4741502E0073645F626C655F63666723
:10E0A0005F73657428292072657475726E656420CB
:10E0B0002573207768656E20617474656D7074696E
:10E0C0006E6720746F2073657420424C455F474132
:10E0D000505F4346475F524F4C455F434F554E5448
:10E0E0002E0073645F626C655F6366675F7365745F
:10E0F00028292072657475726E65642025732077F7
:10E1000068656E20617474656D7074696E672074E3
:10E110006F2073657420424C455F434F4D4D4F4E09
:10E120005F4346475F56535F555549442E0073641D
:10E130005F626C655F6366675F7365742829207230
:10E14000657475726E6564202573207768656E202E
:10E15000617474656D7074696E6720746F20736587
:10E160007420424C455F47415454535F4346475FD8
:10E17000415454525F5441425F53495A452E0073F3
:10E18000645F626C655F6366675F736574282920EE
:10E1900072657475726E6564202573207768656E8C
:10E1A00020617474656D7074696E6720746F20737C
:10E1B000657420424C455F47415454535F43464782
:10E1C0005F534552564943455F4348414E47454496
:10E1D0002E00496E73756666696369656E742052B8
:10E1E000414D20616C6C6F636174656420666F7271
:10E1F0002074686520536F66744465766963652E84
:10E20000004368616E6765207468652052414D2047
:10E210007374617274206C6F636174696F6E2066D1
:10E22000726F6D203078257820746F2030782578D3
:10E230002E004D6178696D756D2052414D207369D6
:10E240007A6520666F72206170706C6963617469B1
:10E250006F6E20697320307825782E0073645F62BA
:10E260006C655F656E61626C6528292072657475E6
:10E27000726E65642025732E00000000C4D7010073
:10E28000F4D70100080000006E72665F7364685F77
:10E29000626C6500BCD70100C4D701000800000013
:10E2A0006E72665F7364685F736F63002020202066
:10E2B00020202020206828282828202020202020F6
:10E2C0002020202020202020202020204810101056
:10E2D000101010101010101010101010848484846E
:10E2E0008484848484841010101010101081818123
:10E2F000818181010101010101010101010101018E
:10E300000101010101010110101010101082828220
:10E31000828282020202020202020202020202025D
:10E320000202020202020210101010200007032055
:10E33000041702010857104080000000E0E40100CB
:10E34000A4E30100B8E4010053756E004D6F6E0048
:10E35000547565005765640054687500467269001D
:10E3600053617400000000004A616E00466562005F
:10E370004D617200417072004D6179004A756E0006
:10E380004A756C0041756700536570004F637400F7
:10E390004E6F76004465630000000000414D005060
:10E3A0004D000000DCE40100D8E40100D8E40100E5
:10E3B000D8E40100D8E40100D8E40100D8E4010069
:10E3C000D8E40100D8E40100D8E40100FFFFFFFF1A
:10E3D000FFFFFFFFFFFFFFFFFFFF000018E401004A
:10E3E00048E3010054E4010068E301009CE30100FC
:10E3F000FCE30100ACE4010008E40100256D2F25D9
:10E40000642F257900000000256120256220256504
:10E41000202554202559000053756E646179004D04
:10E420006F6E646179005475657364617900576536
:10E43000646E6573646179005468757273646179A0
:10E440000046726964617900536174757264617920
:10E45000000000004A616E75617279004665627263
:10E4600075617279004D6172636800417072696C08
:10E47000004D6179004A756E65004A756C790041FE
:10E4800075677573740053657074656D62657200AD
:10E490004F63746F626572004E6F76656D62657270
:10E4A00000446563656D62657200000025483A2589
:10E4B0004D3A255300000000E9D5010005D60100C2
:10E4C00011D601001DD6010039D6010045D6010044
:10E4D00051D601005FD60100000000002E000000B0
:0CE4E00043000000504F5349580000005A
:10E4EC000000000000200040000000000020004060
:10E4FC000000000000000000FF0000000090D003AE
:10E50C000D00030035C20100902400201F00000004
:10E51C00AF2400201F000000FF00FFFF3CE30100C0
:10E52C003CE301003CE301003CE301003CE301005F
:0400000310009375E1
:00000001FF
