:020000022000DC
:1060000000000120756302005D6302005F6302000F
:106010006163020063630200656302000000000028
:1060200000000000000000000000000067630200A4
:1060300069630200000000006B6302006D630200F0
:10604000F58502006F630200398A02006F63020067
:106050006F6302006F630200B58802006F63020085
:106060006F6302006F6302006F6302006F630200E0
:106070006F6302006F6302006F6302006F630200D0
:106080006F630200217102006F6302006F63020000
:10609000BD7102006F630200FDB402006F63020075
:1060A0006F6302006F6302006F6302006F630200A0
:1060B0006F6302006F630200000000000000000038
:1060C0006F6302006F6302006F6302006F63020080
:1060D0006F6302006F6302006F6302000000000044
:1060E00000000000000000000000000000000000B0
:1060F00000000000000000000000000000000000A0
:10610000000000000000000000000000000000008F
:10611000000000000000000000000000000000007F
:10612000000000000000000000000000000000006F
:10613000000000000000000000000000000000005F
:10614000000000000000000000000000000000004F
:10615000000000000000000000000000000000003F
:10616000000000000000000000000000000000002F
:10617000000000000000000000000000000000001F
:10618000000000000000000000000000000000000F
:1061900000000000000000000000000000000000FF
:1061A00000000000000000000000000000000000EF
:1061B00000000000000000000000000000000000DF
:1061C00000000000000000000000000000000000CF
:1061D00000000000000000000000000000000000BF
:1061E00000000000000000000000000000000000AF
:1061F000000000000000000000000000000000009F
:10620000354936480A1A02D0072291438D4634494F
:1062100034480A1A06D00722914381F309880222E2
:1062200082F3148830483149314A00F044F831484B
:106230003149324A00F03FF831483249324A00F0E1
:106240003AF832483249334A00F035F83248334997
:10625000334A00F030F833483349344A00F02BF821
:1062600033483449344A00F026F83448344900228F
:1062700000F02CF833483449002200F027F8334866
:106280003349091A082902DB002202604160314AC1
:1062900090471F481F49884205D00268043003B464
:1062A000904703BCF7E700208646EC46002000211B
:1062B000294A9047FEE7884207D0521A05D0037852
:1062C00001300B700131013AF9D17047884202D098
:1062D00002700130FAE770470000012000E0002062
:1062E000000001200000012004D20200982A0020B2
:1062F000F82A0020D4630200D4630200DCC202004A
:1063000004D20200982A0020982A0020D0C302005C
:10631000D0C30200D0C30200D0C30200D0C3020029
:10632000D0C30200D0C30200D0C3020004D20200D6
:1063300064D20200F82A0020F82A0020F82A00205F
:10634000AC3C0020AC3C0020AC3C0020AC3C00202D
:10635000AC5C00209D630200E59B0200FEE7FEE7C7
:10636000FEE7FEE7FEE7FEE7FEE7FEE7FEE7FEE705
:10637000704700BF1048804710484FF0070188431E
:1063800085460F4880470F48016841F4700101605D
:10639000BFF34F8FBFF36F8FFFF732BF0A480B4930
:1063A0000B4A884207D0521A05D0037801300B708F
:1063B0000131013AF9D170477163020000000120F8
:1063C0001580020088ED00E0D0C30200982A00206A
:0463D000982A0020E7
:1063D4007047000007B5044B0093044A402300F0C3
:1063E40032F803B05DF804FBF5630200F92A0020DB
:1063F4002DE9F84389461446B2B10F4B0F4E0325DD
:10640400002743F00108224609EB0701002003F0AE
:1064140079FD0744241A48B933782BB14FF47A40F4
:10642400C047013D02D13570BDE8F88301233370C4
:10643400002CE8D1F8E700BFD0C30200F82A0020FE
:10644400704703F093BDF0B595B01C461646084658
:106454000D4601F0EEFC1A9B0D93CDE9086400246F
:106464002346082205A928460A948DF82C400C944A
:1064740001F0FCFC079B0293069B03939DF81430E8
:106484008DF8114003F00302012A1DD1BDF8144018
:10649400059EC3F3C203C4F383148DF81030A20025
:1064A40008230EA9284601F0E1FCC6F3952608ABA3
:1064B4000093224602AB0EA9304600F05DFB28464D
:1064C40001F0BBFC15B0F0BD022AF8D1BDF81640AE
:1064D400C3F3C203A4098DF810300827082C2646FC
:1064E40028BF08263B4632460EA9284601F0BEFCCA
:1064F400A41B08AB02AA31460EA8374400F0A0FB47
:10650400002CEBD1DBE7000008B5FFF79AFF04216C
:10651400034800F09FFA034B01225A7108BD00BFE3
:10652400C0C30200982A0020037813F0040216D096
:1065340003F00303012B03D0022B09D00120704781
:106544000A6800880232C0F3831002440A60F5E747
:106554000B684288023303EB92130B60EEE710469C
:10656400704700002DE9F04F87B000230446851CD6
:106574000DF107000F4690468DF8073001F01CF925
:10658400454806683E60D0E90132134401339B1B41
:10659400824600F21C4600F5836900F21447AB42C0
:1065A4001BD30022B8F1000F70D0052363F3070258
:1065B40064F38912DAF80010DAF808309DF807005D
:1065C4000B4003330D444AF82320CAF8005001F06D
:1065D40017F9012007B0BDE8F08F0121304601F022
:1065E4006CF9484601F07FF9384601F07CF9DAF895
:1065F4000400DAF808B0029000EA0B0003300AEB5A
:10660400800002A9FFF790FF029B50BB0BEA030234
:106614000AEB820203F1020CD2680392013303EA0B
:106624000B0B0AEB8B0B02F00302012ACDF808C016
:10663400DBF80C1022D0022A16D08346384601F02B
:1066440055F910B1029BCAF804305946304601F09E
:1066540034F9DAE901231344DAF8002001339B1AF0
:106664009DE70BEA0300C9E7BDF80E309B0903332D
:106674004FEA114B0CEB93030293DFE7BDF80C30A8
:10668400C3F383134FEA114B6344F5E7062363F323
:10669400070264F39F528DE70C2C00200B4B0C482F
:1066A400FF2210B59A600022C3F81824C3E900221F
:1066B400C3F8142483F8202401F074FB044610B9B1
:1066C400044801F01BFC204610BD00BF0C2C002028
:1066D40044C30200F4C3020030B50A4C71B10A4A43
:1066E4000A49121BD20800239A4201D1002030BD6E
:1066F40031F82350854202D00133F5E7034654F8BC
:106704003300F4E758C30200C0C30200982A0020F3
:10671400094B013903EBC000032909D8DFE801F074
:106724000A020406042070470079704740797047D4
:10673400002070470220704758C30200034BD3E97E
:106744000030C31A58425841704700BF0C2C002037
:106754002DE9F04387B0FFF7F1FF0646002840F02B
:10676400FB807E4DC5F81804BFF34F8F6868AC6892
:1067740002902040033005EB800002A9FFF7D4FE0D
:10678400029B18B1D5F81824002A5FD004EA03024A
:10679400991C013305EB8202234005EB8303D26885
:1067A400DB68049302F00303022B0392029162D18B
:1067B400BDF80E306A484FEA9318B8F1500FC1463D
:1067C40028BF4FF0500969F38F1309F10801ADF8A0
:1067D4000E3001F0FFFA0746002800F0A88001F00F
:1067E40028FB03A900230822384601F035FB02994F
:1067F40024EA01060136B600B14535D95FFA89F9B4
:106804007EB3F6B2A9EB0609214003315FFA89F49D
:10681400B146544E05EB810108234A46384601F03F
:106824001BFB36B109F1080322463146384601F014
:1068340013FB029B08F1030803EB98030293D5F8BA
:106844001834002B4BD1D5F810445BE02A689A42E7
:1068540004D86A60304607B0BDE8F08304EA030058
:1068640088E740493446D7E72140033108234A46A4
:1068740005EB8101DAE7012B59D1BDF80C3038481A
:10688400C3F38311062928BF062161F3891302315A
:106894008900ADF80C3001F09DFA0746002846D077
:1068A40001F0C7FA0023082203A9384601F0D4FAFC
:1068B4000026BDF80C20C2F38312B300964203F104
:1068C4000803BCD202994A1C21400331029205EB11
:1068D40081010422384601F0BFFA0136E9E738465F
:1068E40001F0ABFAFFF72AFF80F00100C6B2B1E76E
:1068F400E3685B7923B1236839461B6820469847CF
:10690400E3681C68002CF3D1384601F096FA0DF1C7
:1069140007008DF8074000F04FFFD5F818340BB985
:10692400029B6B609DF8070000F06AFFDAE7D5F878
:10693400104454B90C4B0D480D49C01AC00800044A
:1069440040F0020000F06EF8CCE7236820469B6814
:106954009847E3681C68ECE700267BE70C2C0020D2
:1069640044C30200182C002058C3020080C3020054
:1069740000C402002DE9F74F284C80460F4692468A
:1069840001A9012218469B46D4F80890FFF7EAFDB6
:1069940080B3019D0026A91C5E4506EB010233D19C
:1069A40000211F4800F05EFF80F310006A1C02EA19
:1069B400090204EB8202000405EA0903033340EAF6
:1069C4001840D06014F8232068F3C50204F823208B
:1069D40034F8232066F3891224F8232054F8232062
:1069E40067F39F2244F8232002F0F80242F00102E8
:1069F40004F8232094F820341BB1FFF7A9FE0028E3
:106A0400FBD103B0BDE8F08F09EA020204EB820275
:106A14005AF82630D3600136BEE700BF0C2C0020A4
:106A24002830002000231A46FFF7A4BF07B501232E
:106A3400019201AAFFF79EFF03B05DF804FB07B5BE
:106A4400CDE9002302236A46FFF794FF03B05DF803
:106A540004FB000030B50F49D1F81024002314467C
:106A64003CB9C468237152B9C1F8100422601846B5
:106A740030BDE46825799D4206D02468F0E7D268E9
:106A8400116821601060F2E701330A2BE7D14FF05F
:106A9400FF33ECE70C2C0020094A38B50123D2F867
:106AA400104482F820341D4604B938BDE3685D7192
:106AB400236820465B689847E3681C68F4E700BFD6
:106AC4000C2C0020037A052B10B50C460FD0437A0A
:106AD40023B1084A0849204600F06BFF07492046C5
:106AE40000F067FF2046BDE8104000F057BF002AC1
:106AF400F8D0F3E74BC4020050C40200FACA020003
:106B0400C38873B504460D4633B1144A0092144940
:106B1400144A284600F04DFF217A05291CD0637AD7
:106B24004BB1A088FFF7F4FD0F4B104953F8202018
:106B3400284600F03EFF227A0D4BA08853F82260CD
:106B44000021FFF7C9FD0B4903463246284602B02F
:106B5400BDE8704000F02DBF02B070BD4BC4020010
:106B64005BC4020053C4020018C4020050C40200F3
:106B740080C4020073C402002DE9F04385B01F46AF
:106B84000C9D002306460C46904695F80C902B73FA
:106B940029463846FFF7B4FFB8F1060F09D8DFE8F5
:106BA40008F00412181F283340003146284600F02C
:106BB40000FF002229463846FFF784FF85F80C9031
:106BC40005B0BDE8F08322683146284600F0F1FEA6
:106BD400EFE7D4E900233146284600F0EAFEE8E76F
:106BE400A36800933146D4E90023284600F0E1FE6F
:106BF400DFE7E3680193A36800933146D4E90023F7
:106C0400284600F0D6FED4E723690293E368019393
:106C1400A36800933146D4E90023284600F0C9FE56
:106C2400C7E76369039323690293E3680193A36845
:106C340000933146D4E90023284600F0BAFEB8E7B1
:106C440008292DE9F84F80460E4617461C463AD8C7
:106C5400002593F80C901D7319461046FFF750FF5A
:106C6400DFF884A0DFF884B0AE422ED918F80520EE
:106C74005946204600F09DFE0135082DF4D11849EF
:106C8400DFF86CB0204600F094FE4FF0000A564541
:106C940020D918F80A507E2D03D8284604F092FE15
:106CA40000B92E252A465946204600F082FE0AF1F4
:106CB400010ABAF1080FEAD1012221463846FFF74A
:106CC40001FF84F80C90BDE8F88F5146204600F08F
:106CD40070FED1E70349204600F06BFEE7E700BFF2
:106CE40046C4020044C4020042C402003CC4020080
:106CF40048C402002DE9F04F394E87B04FF0000927
:106D0400384B1B785FFA89F5AB4202D807B0BDE86F
:106D1400F08F354BD3F800A01AF835000124D6E9DA
:106D2400001EA0F12002C0F1200304FA02F224FAAA
:106D340003F3134304FA00FC009301EA0C030293E7
:106D4400009B0EEA03030393DDE9022313430AEBDA
:106D5400C50B41D0009B21EA0C012EEA0303C6E9CE
:106D6400001301F09BFD1AF835502049A5F12002CB
:106D7400C5F1200304FA02F224FA03F31343D1E920
:106D840000C2AC40134004EA0C0105930024C3B2D2
:106D9400CDE90034009A0491C5F12003A5F1200146
:106DA40022FA03F302FA01F848EA03081346AB4057
:106DB4001F46DDE90434444508BFBB420CD1DBF86F
:106DC40004304BB19BF801104A1E51425141081A3C
:106DD400414241412846984709F1010990E700BF23
:106DE400F8300020C830002000310020F0300020AE
:106DF4002DE9F0418046204800F0C2FBD0BB0125BC
:106E0400A8F12004C8F1200325FA03F305FA04F4D9
:106E14001C431A4BD3E9001205FA08F501EA0506EA
:106E240002EA040756EA07001E461DD1404601F057
:106E340035FD134BD3E9001288B129432243C3E93A
:106E44000012D6E900231C430E4B0B481968154366
:106E5400C6E900540022BDE8F04100F04BBB21EA32
:106E6400050122EA0402EAE721EA050522EA04040C
:106E7400C3E90054BDE8F081D0300020F830002090
:106E8400F0300020CC300020042A2DE9F3410546DF
:106E94000C4616463AD901F03FFCD8B11C4B1D49AB
:106EA4001D601D4BDFF884801C701C4B00221E608B
:106EB4000023C1E900231A49C1E90023013CE4B2DB
:106EC40000260327FF2C0CD1164A1748002100F096
:106ED400FFFA03E001F0E8FB0028DFD002B0BDE8D0
:106EE400F08123B205EBC30201A992788DF8052045
:106EF40015F833008DF8066042468DF8047001F0F1
:106F040015FC013CE4B20028DCD0E7E70720E5E704
:106F140000310020F0300020C8300020CC300020A8
:106F2400F8300020F96C0200E0C40200F56D0200A4
:106F340070B5084D084E00242B789C4201D30020E4
:106F440070BD3368012113F8340001F063FC01348F
:106F5400F2E700BFC8300020003100201FB5002137
:106F6400039001AA44F20100CDE9011100F004F8F4
:106F740005B05DF804FB000010B572B6FFF78CFD98
:106F8400FFF7E6FB0028FBD1104B114C1149E41A22
:106F9400E408240444F00100FFF744FD0E4B1B6891
:106FA400DB0700D500BE0D4944F00200FFF73AFDAF
:106FB400BFF34F8F0A490B4BCA6802F4E0621343D4
:106FC400CB60BFF34F8F00BFFDE700BF58C3020083
:106FD40080C30200E4C40200F0ED00E0F0C402004B
:106FE40000ED00E00400FA0549B152B1531E1A4005
:106FF40007D1826001608380C260104670470E2012
:1070040070470920704710B58468C2688388121BD2
:10701400934208D3C26813400268D154C368013351
:10702400C360002010BD0420FCE78268C3689A4254
:107034000AD08268838813400268D35C0B7083682B
:10704400013383600020704705207047094A537854
:1070540091780133DBB2994208BF00231178994239
:107064001FBF03705078182303FB002014BF0430A3
:10707400002070470431002073B5054600240DF14B
:1070840007000E468DF8074000F096FB0DF1060050
:10709400FFF7DCFF90B10670094B9DF806204560B0
:1070A4005A709DF8070000F0ABFB24B9054B4FF470
:1070B4008012C3F80021204602B070BD0424F0E71A
:1070C4000431002000E100E0024B4FF43C6043F047
:1070D4000103184700C5020038B50C4B0C4C4FF4A3
:1070E4000032C3F8802001254FF48033C4F84833BC
:1070F400C4F808336560FFF7E7FF064BA56000247A
:107104001C60FFF7E1FF044B1C7038BD00E100E098
:10711400001001402032002011320020F8B51F4B2E
:107124001F491B680025C1F84051C1F84451C1F8FA
:107134004851C1F84C51C1F80051C1F804514BB346
:10714400D1F8044517490968641A24F07F442F468E
:107154001A68A24209D8A41A15441A7CDE691AB125
:107164001F74D3E905209047AEB90F4A0F4B11782D
:107174001B788B4205D10133DBB2022B08BF0023FD
:10718400137012780A4B43F822500A4B4FF48012C2
:10719400C3F80021F8BD3346DAE700BF24320020EB
:1071A40000100140203200201D3200201C3200203B
:1071B4001432002000E100E02DE9F04FA14AA24979
:1071C40013780978A14D994285B03CD00133DBB2E4
:1071D400022B08BF002313709D4912789D4B0F6842
:1071E40053F822003B1823F07F4300220B602B68E6
:1071F40016461446944613B942B12B6006E019684A
:1072040081420ED902B12B60091A196001272B683B
:10721400DFF848A201934FF00008BEB9DFF844B28A
:1072240066E0401A0C44D968C3F800C0D3F81CE0E7
:1072340031B13A1922F07F42C3E90121DE611E46D1
:1072440001227346D7E700263746E0E73446F6695D
:107254007F4A63681268DFF810C2A068991A21F0A7
:107264007F41614500F2A68001442160012222741D
:107274002A680023C4E90133E361002A40F0A380B3
:107284002C60CAE75A1C9BF80210D2B291428BF8C8
:10729400002004BF00228BF80020182202FB03B355
:1072A4001A799C68022A1CD0032A12D0012A1FD101
:1072B400207CE8B9D3E90312A2605A69E2609A69B2
:1072C400654BA2611B78002B0CBF0B460346636021
:1072D400BEE700222B681146002B67D142B12B6018
:1072E40006E029680A468946002A5AD100232374F5
:1072F4009BF800309BF801209A42C3D12B68B8F167
:10730400000F04D1019A9A4201D1002F43D0002BDF
:1073140073D0D3F800A0514D4D4BD5F804751C68BB
:10732400DFF848813E1B98F8003026F07F4603368C
:107334009BB94FF48033C5F84433C5F80433484B44
:107344004FF400324FF00109C3F880211A60C5F8E8
:107354000090FFF7B9FE88F80090B2452CBF544462
:10736400A41924F07F44C5F84045D5F80435DB1B47
:1073740023F07F43E41B033324F07F44A3420AD960
:10738400D5F80435C5F84035FFF79EFE344B4FF46D
:107394000032C3F80021304B00221A7005B0BDE85A
:1073A400F08F94422CD09146D2699DE71974012242
:1073B400DB6991E7D31A23F07F43834234BFC31AB6
:1073C4000023236052E721681368994213D8591A9D
:1073D4001160E26154E7091AD8691A4638B10346C4
:1073E40018688842F7D3401A18601846134621607B
:1073F400E061DC6111E71346F2E7FFF76DFECAE7CF
:107404004C4511D1CB692B6073B9DFF844E00120FE
:10741400CDE90212CAF80800CEF800300E4B1870FD
:10742400FFF752FEDDE902121368D269C9F81C2085
:1074340012B11068034413602B68994218BF4FF0CF
:10744400010853E71C3200201D32002024320020A2
:10745400203200201432002010320020001001409D
:1074640000E100E004310020FEFF7F001132002023
:1074740008B5FFF731FE104B00200B2218809A70DC
:107484000E4B18600E4B18700E4B18700E4B4FF4C9
:107494008012C021C3F8802183F814131A6002F10A
:1074A4008042A2F56F22C2F8080583F81113074B36
:1074B400D2F804251A6008BD0431002024320020CB
:1074C4001C3200201D32002000E100E020320020A8
:1074D400074B9B784BB132B128B10368187C20B9B3
:1074E40059745A617047072070470820704700BFDD
:1074F400043100202DE9F7431E4FBB7805460E46A4
:107504009046A3B398B304292FD943697BB3437C32
:107514000024012B0DF107000CBF8946A1468DF80C
:10752400074000F049F90DF10600FFF78FFDD0B1D7
:1075340001230370104B4560D3F80435C0E9049867
:10754400C0E902369DF806307B709DF8070000F014
:1075540057F924B9094B4FF48012C3F8002120468F
:1075640003B0BDE8F0830424EFE70724F7E7082419
:10757400F5E700BF043100200010014000E100E005
:10758400064A92783AB130B1426922B100220274BB
:107594000221FFF771BD0820704700BF04310020AD
:1075A4000648074A03780749D35C012213B1043023
:1075B40001F076BE0C3001F05FBC00BFA02A0020B1
:1075C4008C320020503200200648074A03780749CD
:1075D400D35C012213B1043001F014BE0C3001F06D
:1075E400F7BB00BFA02A00208C32002051320020BB
:1075F40037B50578012D05D0002D30D0022D23D0CC
:1076040003B030BD43681C4C19782046FFF7FBFCDF
:1076140078B18DF800500190184B68461B68984764
:10762400A168E368A2885B1A9A4209D3FFF7B8FFFE
:10763400E6E7A268E3689A42F2D08DF80000EBE72F
:107644000F4B01221A70DBE7C3688DF800500193D9
:10765400FFF7A6FF094B68461B689847D0E709491E
:107664000948FFF7E2FC10B9FFF7AEFFC8E70323B0
:107674008DF80030EEE700BF2C32002028320020C5
:107684003C3200205132002040320020F0B51F4629
:10769400234B89B006461A600C4600293DD08A88DF
:1076A40020480968FFF7A0FC002834D1A289A1680A
:1076B4001D48FFF799FC00282DD11C4D0FCD6C46B9
:1076C4000FC495E80F0084E80F0073690693337CB8
:1076D400174A18488DF81C70003318BF01238DF821
:1076E4001430737C002B14BF0E2300238DF8153047
:1076F400F3680293B368039333680193694673682C
:10770400009300F00FFF30B90B4B1870336801334E
:1077140001D0FFF745FF09B0F0BD0720FBE700BF2C
:10772400283200202C3200204032002008C50200FC
:10773400F5750200A02A00203C32002070B5084CE8
:10774400014608482678FFF770FC054636B1002349
:107754002370FFF725FF08B1FFF700FC284670BD32
:107764003C3200202C32002010B501460E48FFF7B1
:107774004AFC0446A8B90D480D4A0378D35C63B1AA
:10778400043001F081FD60B90A490748FFF74DFC58
:1077940038B9BDE81040FFF717BF0C3001F060FBAB
:1077A400F1E7204610BD00BF40320020A02A00208F
:1077B4008C3200205132002070B5EFF3108672B67F
:1077C4000C4A946801239CB993600B4B0B4DD3F87E
:1077D400801029401160C3F88050D3F884105160A0
:1077E4004FF0FF32C3F88420047006B962B670BD4E
:1077F4000370FAE75432002000E100E0FC06FFBD0C
:10780400084B9A6810B55AB150B9EFF3108172B6AB
:10781400054A1C6814605C685460986001B962B6DB
:1078240010BD00BF5432002000E100E001F01F024F
:107834004B090121914000EB830000F01DB801F0D9
:107844001F0301229A404B0900EB8300D14300F04F
:1078540029B84B0901F01F0150F82300C84000F07B
:107864000100704750E8002F0B4640E8003C9CF0B4
:10787400000FF7D11046704750E8003F43EA010279
:1078840040E8002C9CF0000FF6D11046704750E8F9
:10789400002F02EA010340E8003C9CF0000FF6D1FF
:1078A4001046704750E8003F03EA010240E8002C0C
:1078B4009CF0000FF6D11046704750E8003F03EBF0
:1078C400010240E8002C9CF0000FF6D110467047EE
:1078D40050E8003FA3EB010240E8002C9CF0000FAD
:1078E400F6D1104670470121FFF7C6BF0021FFF70C
:1078F400CEBF10B590B1D0E9012301689B1ADBB269
:107904000A60013BDBB2FF2B026802D10020107138
:1079140010BD11684C1C14600B70F2E70E20F7E7E1
:1079240037B5054600240DF107008DF80740FFF731
:1079340043FF2A686B68116899420ED9481E10608B
:1079440011F8014CEB68298A01FB0434AB68117906
:107954001B1ADBB2994238BF13719DF80700FFF779
:107964004FFF204603B030BD37B5054600230DF167
:1079740007000C468DF80730FFF71EFF2A681368CE
:10798400591C1160E968641A298AB4FBF1F41C706B
:107994009DF80700FFF734FF03B030BD826810B5CF
:1079A40004462AB143690168006998470023A3602B
:1079B40010BD0EB403B5039921B104AB01AA019320
:1079C40000F074F802B05DF804EB03B070470A29C4
:1079D40038B504460D4602D10D21FFF7F8FFA36820
:1079E4002268591CA160D554D4E901329A4204D3C7
:1079F4002046BDE83840FFF7D1BF38BD2DE9F84F28
:107A04009946DDE90A431746824688460A46012616
:107A1400BA420FD24E4538BF4E4613F0010B01D186
:107A240064B900240125B9F1010F1AD909F1FF390C
:107A34007D43F8E7B2FBF7F20136E9E79B070ED581
:107A4400B9F1000F0CBF30252025A642EAD2013C33
:107A540029465046FFF7BBFF002CF6D1E1E720256D
:107A6400F3E7B8FBF5F39F42E2D9DFF83C90B8FBAB
:107A7400F5F3504619F8031005FB1388FFF7A7FF29
:107A8400B5FBF7F3BD4207D2BBF1000F02D00CB136
:107A9400A64203D3BDE8F88F1D46E8E720215046EF
:107AA400013CFFF794FFF2E728C502002DE9F74FE8
:107AB400054617468846002900F0308118F8011B56
:107AC40049B92B7B002B00F02981284603B0BDE87F
:107AD400F04FFFF763BF252940F0C080002698F8D7
:107AE40000302D2B424608F1010823D0302B24D03E
:107AF4002B2B25D000242A2B02F1010123D13B6832
:107B04001A1D1B683A601C440A4613782E2B26D192
:107B140001324FF00009104610F8011BA1F1300C9E
:107B2400BCF1090F1DD80A2303FB0913A3F1300983
:107B34000246F0E746F00106D1E746F00206CEE73A
:107B440046F00406CBE711F8013CA3F13000092804
:107B5400DBD80A2202FB0434303C0A46CBE74FF060
:107B6400000912F8011B01F0FB0068289046F8D0C8
:107B740069290ED04AD8582964D006D825296DD051
:107B840098F80030002B99D19BE7632962D06429CF
:107B9400F6D13A68D2F800A0111D8AEAEA72396077
:107BA400A2EBEA724FF0010B092A5BDCCB4538BF2C
:107BB400CB462CB1BAF1000F01DB720700D5013CB2
:107BC400B30702D5B9F1000F04D0F00702D4002C9A
:107BD4004ED10024BAF1000F52DACAF1000A2D2165
:107BE4002846FFF7F4FE06F00302022A05D1B9F194
:107BF400000F02D1002C47D10024CDE900464B46AA
:107C04000A2251462846FFF7F9FEB9E773294CD0FA
:107C140014D87029B4D13B681A1D3A603021284623
:107C24001C68FFF7D4FE78212846FFF7D0FE002217
:107C34000823CDE9003221461022E3E775292BD031
:107C440078299DD139680A1D3A60CDE900464B4632
:107C5400102228E03B681A1D19783A602846FFF77D
:107C6400B6FE8DE70A230BF1010BB2FBF3F29BE79F
:107C7400A345AFD220212846013CFFF7A8FEA6E782
:107C84007107B0D52B21ABE7A345B6D230212846E6
:107C9400013CFFF79CFEADE73968CDE900460A1DBB
:107CA4003A604B460A220968ACE73B681A1D3A6001
:107CB40016F00106D3F800A020D1BAF1000F03D0CA
:107CC400504603F034FF0646B44200D9C4B90AF161
:107CD400FF3A1EE028460136FFF779FE1AF806102F
:107CE4000029F7D1A642BFF44BAF002C3FF448AFB4
:107CF40020212846013CFFF76AFEF3E70026EDE762
:107D040020212846013CFFF762FEDDE72846FFF705
:107D14005EFE1AF8011F0029F8D131E703B0BDE86F
:107D2400F08F2DE9F047B0F806904479D2F800A01E
:107D34009DF8208009FB04F4043C06460AEB03008A
:107D4400A0420F4688BFA4EB030A191DC2F800A085
:107D5400B1FBF9F509FB15114DB9A9EB0104544523
:107D640028BF5446BAF1000F04D1BDE8F087366845
:107D7400013DF1E704317B1970182246B8F1000F78
:107D84000ED001461846AAEB040A03F052FED14570
:107D9400254436684C464FF0000128BF5446E1E7BD
:107DA4001946F0E7FFF7A5BDF8B546790146721EFE
:107DB4000546002393422D6803D30024A64202D82B
:107DC400F8BD0133F6E70F682846FFF7CDFD01340F
:107DD4003946F3E72DE9F843068ACD1C0746FFF739
:107DE4009FFD043E35440446B5FBF6F5F0B14FF46F
:107DF4008073EDB28380C680013D076081464FF0F9
:107E04000008A84512D23846FFF78AFD064648B155
:107E140063790133637108F10108C9F80000076050
:107E24008146EEE72046FFF7BFFF34462046BDE813
:107E3400F88301210430FFF740BD10B50121044649
:107E44000430FFF745FD10F0FF0F04D12046BDE8D4
:107E54001040FFF7A9BF10BD1FB503920022009286
:107E640003AAFFF75EFF05B05DF804FB1FB503929C
:107E74000122009203AAFFF754FF05B05DF804FB4A
:107E840041DF7047064B10B500241C70054B1C6085
:107E9400BFF35F8F0449054800F039F8204610BD50
:107EA400683200206C32002038C5020060320020A5
:107EB40007B500230DF107008DF80730FFF77CFCB0
:107EC400F1EE103A23F09F03E1EE103ABFF35F8F17
:107ED400094B4022C3F884219DF80700FFF790FC6A
:107EE40003F0F0FA20B1FFF7CBFF03B05DF804FB19
:107EF40020BF40BF20BFF8E700E100E08368002214
:107F04005A609A60C3E90422DA601A6070470B6809
:107F14004A684360934208BF0023016008BF43607E
:107F24007047436843B10268916852680B449342B6
:107F3400436004BF002343607047000010B50D493F
:107F4400A1F59472914201D800200FE08B1ADB1046
:107F540003EBD3735B1002EBC30452F83330834258
:107F640005D802D204F10802ECE7606810BD21468E
:107F7400E8E700BF88C6020008B5FFF7DFFF024B41
:107F8400002808BF184608BD4DC5020010B50446B8
:107F9400C0B2FFF7E9FB204610BD00000C4B1B7874
:107FA400062B10D10B4B1B681A070CD10A4B18680F
:107FB40000F0F003302B08D000F0E000A0F1400303
:107FC400584258417047002070470120704700BF55
:107FD400E00F00F0E40F00F0E80F00F0094B1B780D
:107FE400062B0CD1084B1B681A0708D1074B1868DD
:107FF40000F0F000A0F130035842584170470020CF
:10800400704700BFE00F00F0E40F00F0E80F00F04D
:1080140008B5FFF7C3FF28B17D4B7E4A1B68C3F345
:1080240004231360FFF7DAFF10B17B4B7B4A1A601D
:10803400FFF7B4FF28B17A4B7A4A1B68C3F3423383
:108044001360FFF7CBFF20B1774AD36823F0807326
:10805400D360FFF7A3FF40B14FF080430022C3F881
:108064000C21C3F81021C3F83825FFF7B7FF10B16E
:108074006E4B03221A60FFF7B1FF40B16C4B05222F
:108084001A6001229A6700229A603F225A60694B63
:108094001B78062B50D1684B1B6819074CD1674BD2
:1080A4001B6803F0F003502B46D14FF08052644B11
:1080B400D2F80414C3F82015D2F80814C3F8241510
:1080C400D2F80C14C3F82815D2F81014C3F82C15E0
:1080D400D2F81414C3F83015D2F81814C3F83415B0
:1080E400D2F81C14C3F84015D2F82014C3F8441570
:1080F400D2F82414C3F84815D2F82814C3F84C1540
:10810400D2F82C14C3F85015D2F83014C3F854150F
:10811400D2F83414C3F86015D2F83814C3F86415CF
:10812400D2F83C14C3F86815D2F84014C3F86C159F
:10813400D2F84424C3F87025FFF730FF28B1414B2F
:10814400414A1B6803F04F031360FFF727FF48B150
:108154004FF08043D3F80024D20744BF6FF00102EC
:10816400C3F80024394B1B68062B08D1384B1B6815
:10817400062B01BF374A136843F480631360364A01
:10818400D2F8883043F47003C2F88830BFF34F8FBD
:10819400BFF36F8F4FF01023D3F80022002A03DBC4
:1081A400D3F80432002B2FDA2C4B0122C3F8042518
:1081B400D3F80024002AFBD04FF010221521C2F876
:1081C4000012D3F80024002AFBD04FF0102315220C
:1081D400C3F80422214B1A46D3F800140029FBD01B
:1081E4000021C3F80415D2F80034002BFBD0BFF3F0
:1081F4004F8F19491A4BCA6802F4E0621343CB60EB
:10820400BFF34F8F00BFFDE7164B174A1A6008BD36
:10821400240300104035014074C007400DF0ADBA8E
:10822400440200103C050040F0ED00E0A0050040D1
:1082340010560040E00F00F0E40F00F0E80F00F0EB
:1082440000C0004058020010E40E0040300100104D
:10825400340100103C17004000ED00E000E0014054
:108264000400FA05B42A00200090D003054A4FF018
:10827400A043105CD3F8043523FA00F0C04300F0A7
:108284000100704746CA0200044B1A5C0123934064
:108294004FF0A042C2F80C35704700BF46CA020036
:1082A400044B1A5C012393404FF0A042C2F80835F6
:1082B400704700BF46CA020008B50020FFF7F0FF70
:1082C4000120FFF7EDFF0220FFF7EAFF0320BDE8DE
:1082D4000840FFF7E5BF08B50020FFF7D5FF0120F0
:1082E400FFF7D2FF0220FFF7CFFF0320BDE80840CD
:1082F400FFF7CABF074A4FF0A041105CD1F804351C
:108304000122824022EA03001340C1F80805C1F8A3
:108314000C35704746CA0200054A4FF0A043105C72
:10832400D3F8103523FA00F0C04300F00100704781
:1083340042CA02000D2809D00E2809D00F2809D0FE
:1083440010280CBF03204FF0FF3070470020704707
:108354000120704702207047014B185C704700BF32
:1083640042CA0200C20708B501460CD54FF0A0432B
:108374000322C3F84427C3F84827C3F84C27C3F89B
:108384005027FFF799FF8B070AD54FF0A0430C2223
:10839400C3F83427C3F83827C3F83C27C3F8402769
:1083A40008BD000038B5074C051E04F1080318BFCA
:1083B4001C4623682BB11A6822605B6828469847DC
:1083C400F7E738BD7832002020B9054B01225A70F6
:1083D400FFF7E8BF012802D1014A9070F8E770471F
:1083E4007032002020B9034B01225A70FFF7DABF24
:1083F400704700BF7032002038B50B4C237883B926
:108404000A486360A3602361E36000F0C7F805468F
:1084140003F058F808B900F0CDF80123237028467A
:1084240038BD8525FBE700BF70320020CD830200F4
:1084340037B50B4C00230DF107008DF80730FFF71B
:10844400BBF9E368013BE360E56815B900F0C4F8E3
:10845400A5709DF80700FFF7D3F903B030BD00BF46
:1084640070320020012813B509D018B103281CD09C
:1084740002B010BD0F4B0122C3F88020F8E70E4C68
:1084840000230DF107008DF80730FFF795F92378E5
:108494000BB9FFF7B1FFE3689DF807000133E36010
:1084A4000123A370FFF7ACF9E2E700F083F8FFF7CC
:1084B400BFFFDDE700E100E0703200201FB5037864
:1084C4008DF800304368019383688DF80830C368E1
:1084D4000393054A054B684653F8213052F821109E
:1084E400984705B05DF804FB8432002088320020F0
:1084F4001FB503788DF800304368019383688DF8C5
:108504000830C3680393054A054B684653F8213085
:1085140052F82110984705B05DF804FB843200201E
:1085240088320020F0B5184B077891F81DE043F825
:108534002720164B16460A6943F82720144B03F8E4
:1085440007E00C4684460FCC89B06D460FC594E80D
:108554000F0085E80F000497BEF1000F0AD0002E2B
:108564000C4A694608BF32460CF1040000F088FD4D
:1085740009B0F0BD002E084A694608BF32460CF126
:108584000C0000F06BFBF3E78832002084320020FB
:108594008C320020C1840200F5840200044A13795D
:1085A40023B90121106091801846704785207047D7
:1085B40090320020074B1A68D2075FBFC02283F8AD
:1085C400002301221A604FF080430122C3F81825CA
:1085D400704700BF00E100E0044B01221A604FF035
:1085E4008042D2F81834DB03FBD470470C000040FF
:1085F400154B07B51A687AB100221A601B680093FC
:10860400009B4FF080430122C3F808230F4B587995
:1086140010B95A711B6898470D4B1A6882B1002231
:108624001A601B680193019B4FF080430222C3F838
:108634000823064B1B68012003B05DF804EB1847C0
:1086440003B05DF804FB00BF00010040903200203D
:108654000401004000F1804000F5C040002382B0D6
:10866400036003680193019B02B07047800000F12E
:10867400A040D0F8003723F44033C0F80037D0F8D6
:10868400003743EA0141C0F800177047054B4FF02B
:10869400FF32072843F8202084BF1B1883F84820A2
:1086A400704700BF9832002010B5174C94F858302A
:1086B40043BB04F130032021FF22013911F0FF01F3
:1086C40003F8012BF9D1C8B2FFF7E0FF01310C29FF
:1086D400F9D1042200210D4803F0D4F90C4BC02237
:1086E40083F8062340221A604FF4BE70FFF7B2FFEE
:1086F400084B4FF00042C3F80423012384F8583098
:10870400002010BD0820FCE798320020EC32002045
:1087140000E100E000600040034B93F85800003093
:1087240018BF0120704700BF98320020F0B5374BC6
:108734001C1894F93040002C1C4664DA8D78C5F37B
:108744004005002D0BBF082300230C260826B34246
:1087540001D10420F0BD54F8237001373FD126180D
:1087640044F8232086F8303015B9E21882F848001E
:108774008A78550713D4D60733D5820002F1A04274
:10878400D2F8005725F00205C2F80057204EC5085C
:1087940000F007070122BA40775D3A4372558A78A0
:1087A4000D7812F0020225D09B0003F1804303F5FB
:1087B400C0430202D3F8101521F4473121F440716B
:1087C400C3F810152D04D3F8101502F4F85205F46B
:1087D40040352A430A43C3F810250020BAE7013381
:1087E400B5E74D7800F5E0724FF0A046AD0046F8CD
:1087F4002250CBE7083B234493F8501041EA8515F7
:1088040083F85050E9E70820A4E700BF983200201D
:10881400EC32002038B51F4C251895F93020072A72
:1088240017DD224492F84810890903290CD14FF02E
:10883400A043D3F81035C34013F0010F08BF022141
:10884400BDE83840FFF712BF012914BF03210221FC
:10885400F6E7D3B2072B1CD8930003F1804303F54A
:10886400C043D3F8100540F00100C3F8100502F12D
:108874004000800080B2FFF7EDFE51B195F9303031
:1088840054F823302BB1012303FA02F2024BC3F84C
:10889400042338BD98320020006000404FF0A0430C
:1088A400D3F8103523FA00F000F0010070470000FF
:1088B4002DE9F04F85B000245A4D01944FF4807295
:1088C400012102F1804303F5C04390B21B68012BE0
:1088D40006D1D5F804330B4202D0FFF7BBFE0C439C
:1088E4000432B2F5907F4FEA4101EAD14E4B1B6846
:1088F400012B0AD14FF4BE70FFF7ACFE4FF0A0433A
:1089040044F00044D3F81035019314F0FF0F1AD04B
:10891400464F00250126344210D0AB0003F18043BA
:1089240003F5C043D3F81005D3F8101557F82530D4
:1089340023B1C1F30141C0F3042098470135082D48
:108944004FEA4606E7D1002C64DA00224FF0FF33E9
:10895400CDE90223354D01274FF0000A344E544629
:108964004FF0A04816F9012B531C46D0D2B222F086
:10897400C0094FEAD90104A8084402F0070310F81B
:1089840004CC07FA03F31CEA030F36D005EB090CF9
:1089940092099CF930C055F82CB0BBF1000F0AD1F4
:1089A400032A2AD10DF1080E1EF801C04CEA030C6B
:1089B4000EF801C001E0032AF4D009F5E07110F8C3
:1089C4000C0C58F821101842C1F3014105D00229BA
:1089D40013D1032A0BD1114604E003290DD1032A34
:1089E40005D102214846FFF741FE0134E4B2BBF150
:1089F400000F02D011464846D8470AF1010ABAF1DD
:108A0400040FAFD134B14FF0A043019AD3F810351D
:108A1400934202D105B0BDE8F08F0193029B03930A
:108A24009AE700BF006000407C610040983200205B
:108A3400E8320020014B1B68184700BFF4320020C5
:108A44000E4B984237B50D4602D0002003B030BD1E
:108A540000230DF107008DF80730FEF7ADFE084B3B
:108A64001C7914B901221D601A719DF80700FEF7E4
:108A7400C7FE002CE9D01120E8E700BF0020004029
:108A8400F43200200023435082B043580193019BE9
:108A940002B070470A4610B54FF48E71FFF7F2FF2B
:108AA400136A9168C95C136A01331362C0F81C1518
:108AB40010BD024608B54FF492710068FFF7E2FF5B
:108AC4004FF484711068FFF7DDFF136801221A6008
:108AD40008BD8B690A4610B54FF4847123B9FFF7BA
:108AE400D1FFD0F8183510BDFFF7CCFF536AD16819
:108AF400D0F81805C854536A01335362F3E70000F1
:108B04001FB501238DF80030044BCDE90110D3E9E2
:108B140000126846904705B05DF804FBFC32002063
:108B240030B54C4AD2F8043313F4007F85B01546AF
:108B34004FD0D2F82431002B4BD04FF49271104611
:108B4400FFF7A0FF4FF40173C2F80833424B93F8C8
:108B5400291009B9012151603E4902228DF80020F3
:108B6400D1F88024C1F8802403929A690292DA68C9
:108B740001920022C3E906226846D3E90012904715
:108B84003448D0F81C315BB133490A6A4B699A42C4
:108B94000A464BD291F82830002B47D1FFF77AFFD1
:108BA4002C4AD2F8443193B14FF4A2711046FFF726
:108BB40069FF294B93F8291009B1012111609A69C1
:108BC4002AB100229A61586AD968FFF799FF05B063
:108BD40030BDD5F804335B07D2D5D5F80831002B66
:108BE400CED01D4C1B482146FFF773FF636AA26970
:108BF4009A422346C4D1E269E1684AB12369E36039
:108C04000023606AA261E3616362FFF779FFB7E75B
:108C140094F829200AB901226A600E4A4FF40170BF
:108C2400C2F8080300229A61586AEEE74FF48E7185
:108C34000848FFF727FF51690029B1D000230291AA
:108C440091688DF80030019153616846D2E90013B0
:108C54009847A5E700200040FC3200202DE9F843A6
:108C6400564F047991462C2202FB0472064692F870
:108C74002A200D46002A40F09A8051490068FFF7E7
:108C8400DFFE8046002840F0958029683368481C40
:108C94000BD04FF0A04001228A40C0F8082501F50E
:108CA400E0724FF0030C40F822C06868421C1FBFFA
:108CB40000F5E0724FF0A04C4FF0000E4CF822E0AB
:108CC400AA6995F814C0C3F824256A7DBCF1010F84
:108CD4004CEA0202C3F86C25C3F81405C3F80C155A
:108CE4001DD1AA68511C1FBF02F5E0714FF0A040CE
:108CF4004FF0000C40F821C0E968481C0BD04FF03D
:108D0400A04C01208840CCF8080501F5E0704FF034
:108D1400030E4CF820E0C3F80815C3F810252C23E3
:108D24006343FA18C2F804902A69FA50B9F1000FA3
:108D34002AD04FF48E7130682D7FFFF7A3FE306880
:108D44004FF4A271FFF79EFE32681E4BC2F8043343
:108D5400120B51B20029A8BF01F160404FEA45133C
:108D6400BABF194802F00F0500F56140DBB2B4BF89
:108D7400435580F8003302F01F02012303FA02F284
:108D84004909124B43F8212033680422C3F8002513
:108D94002C2303FB04730022C3E9062283F8292051
:108DA4005A61012283F82A204046BDE8F8834FF037
:108DB4000808F9E74FF01108F6E700BFFC3200207D
:108DC400258B02008000020014ED00E000E100E0C9
:108DD4002DE9F047214F06794FF02C0909FB067461
:108DE40080466569002D37D16261A16025624FF428
:108DF4008E71006884F82850FFF744FED8F800000C
:108E0400012383602146FFF745FE6368A14693B9B9
:108E1400D8F800A0226A63699A4212D3D8F80030C5
:108E2400D3F81C21002AFBD00122DA602C2303FB97
:108E34000676002373612846BDE8F08794F828304D
:108E440043B9DAF81C31002BF8D049465046FFF7F5
:108E540021FEDFE70F25E9E71125ECE7FC320020CE
:108E64000379044A2C2101FB03235869003018BFFD
:108E740001207047FC3200202DE9F843394E057972
:108E84002C2303FB056307465C6824B103684FF495
:108E94000170C3F808032C2303FB0563986950B1E0
:108EA400D86900283ED024B13B684FF40172C3F85E
:108EB4000423112433E09A61D9605862D8612C23C9
:108EC40003FB056393F829301BB910B93846FFF743
:108ED400F0FD4FF02C0909FB05683868D8F8043018
:108EE400002B34D14FF4A271FFF7CCFDC146386892
:108EF400D0F82431D0F80821D0F84441B2B90CB9E3
:108F0400002BF4D02C2202FB05650022AA6123BBAE
:108F14002CBB95F829103B680122B1B11A60204698
:108F2400BDE8F8831961DA610120C8E7002BE9D1B3
:108F3400002CE7D14946FFF7CCFDD8F82430D8F807
:108F440018209A42D3D82346DCE75A60E7E74FF467
:108F54000173C0F804330024E1E70324DFE70F249E
:108F6400DDE700BFFC3200200023435082B04358A9
:108F74000193019B02B070471FB501238DF80030A7
:108F8400044BCDE90110D3E900126846904705B0BF
:108F94005DF804FB283300207FB5374AD2F82461FA
:108FA400002E48D010464FF49271FFF7DDFF0223E4
:108FB4008DF80030D2F88034C2F880340393D2F8AC
:108FC4003C3502932D4BDA6801920022C3E9062254
:108FD4006846D3E900129047274AD2F844317BB15E
:108FE4004FF4A2711046FFF7BFFF244B996939B1C2
:108FF4000021C3E90611D968D2F83C05FFF7BCFF8C
:109004001D4AD2F82031A3B14FF490711046FFF7F6
:10901400ABFF1A4B596961B1D2F84C150291002289
:1090240099688DF8002001915A616846D3E90012CD
:10903400904704B070BDD2F81031002BCCD04FF45F
:1090440088711046FFF790FF0C4BD2F83C059969E4
:109054008842C1D1DC69D96864B1D2F8005225F0E4
:109064002005C2F800521A699C61DA60DE61FFF7DC
:1090740083FFB1E79C61FAE7002000402833002019
:109084002DE9F8435A4F06799146242202FB0672D1
:10909400044692F820200D46002A40F0A28055494B
:1090A4000068FFF7CDFC8046002840F09D802968C9
:1090B4002368481C0BD04FF0A04001228A40C0F81E
:1090C400082501F5E0724FF0030C40F822C06868EF
:1090D400421C1FBF00F5E0724FF0A04C4FF0000E91
:1090E4004CF822E0AA6995F814C0C3F824256A7DD7
:1090F400BCF1010F4CEA0202C3F86C25C3F80C154D
:10910400C3F814051DD1AA68511C1FBF02F5E071F4
:109114004FF0A0404FF0000C40F821C0E968481C13
:109124000BD04FF0A04C01208840CCF8080501F585
:10913400E0704FF0030E4CF820E0C3F80815C3F8B4
:10914400102524237343FA18C2F804902A69FA50AC
:10915400B9F1000F34D04FF4887120682D7FFFF7E8
:1091640003FF4FF490712068FFF7FEFE4FF49271F5
:109174002068FFF7F9FE20684FF4A271FFF7F4FEB0
:1091840022681D4BC2F80433120B51B20029A8BF48
:1091940001F160404FEA4513BABF184802F00F05C9
:1091A40000F56140DBB2B4BF435580F8003302F0F0
:1091B4001F02012303FA02F24909114B43F821204B
:1091C40023680822C3F80025242303FB0673002226
:1091D400C3E906225A61012283F820204046BDE8F3
:1091E400F8834FF00808F9E74FF01108F6E700BFDD
:1091F400283300209D8F02001003020014ED00E0CC
:1092040000E100E001F06043B3F1005F2DE9F041BB
:10921400074632D11B4B0679242505FB06359846B3
:109224006C6964BB6A61A96000684FF49071FFF7D0
:109234009BFE4FF4AC713868FFF796FE3B686A6991
:10924400A968C3F84415C3F8482501229A606A68DE
:1092540062B9D3F82021D3F8584152B9002CF8D080
:109264000F24242303FB0686002373612046BDE8F4
:10927400F081002C18BF0F24F3E71024F6E7112423
:10928400F4E700BF283300200379044A242101FBBA
:1092940003235869003018BF012070472833002089
:1092A400F8B501F06043B3F1005F04460F465ED1A8
:1092B4000379304D242101FB0351486820B1216812
:1092C4004FF40476C1F80863242101FB03539E691B
:1092D40056B1D969002939D020B123684FF40472FA
:1092E400C3F80423112030E09A61DF60DE614FF49B
:1092F40088712068FFF738FE4FF4A2712068FFF7E9
:1093040033FE2368C3F83475C3F8382516BB01222D
:109314001A602179242202FB015252680ABBD3F855
:109324001041D3F84421D3F82401144302D1002876
:10933400F5D02246242303FB01550023984218BF8D
:1093440003209A42AB6118BF0F20F8BD1F61DA6198
:109354000126CCE7D3F8002242F02002C3F8002211
:10936400D7E74FF40472C3F804230020EDE710207C
:10937400EBE700BF283300200220FEF7BBBF00004C
:109384002DE9F04781460D46FEF7D4FF0328044635
:1093940004D8012D04D025B3022D2FD0BDE8F087C9
:1093A400194D47003A18A918AE5C4A7852B1DFF853
:1093B4006880164842464FF40041FEF79BF808B90E
:1093C40088F800903B192B449A78114B1A55002EBB
:1093D400E4D0104B1B68002BE0D03046BDE8F047CA
:1093E40018470A48FEF7CCF8074B04EB4402134431
:1093F4009E78074B1B5DB342D0D1E8E7024B00EBEC
:1094040040041C446678E2E7B03300207033002047
:10941400C9330020C43300204C33002002210078DB
:10942400FFF7AEBF08B5094B1B7853B10020FEF718
:1094340037FF0120FEF734FF0320BDE80840FEF7A4
:109444002FBFBDE80840FEF737BF00BF4D330020F3
:10945400F8B57B4C237805461BB100232370FFF736
:10946400E1FF172D00F28880DFE805F00C171743A1
:1094740054657680888D888D959A9A9A9A9AC4C9EB
:10948400D1D9E4E4FFF7CEFF6E48FEF779F86E4BCE
:10949400002204461A702046F8BD0020FEF7E6FEBE
:1094A400F8B10020FEF7FCFE022D0CBF4FF4E16181
:1094B4004FF47A61644B1D704FF400404FF4FA741A
:1094C4000025E0FB01454FF47A720023204629462B
:1094D40002F082F9002201465A48BDE8F840FEF73E
:1094E40009B8FEF7D1FE022D0CBFC8214FF4C87194
:1094F400E0E70020FEF7BAFE40B10020FEF7D0FE00
:109504004FF44871504B03221A70D5E7FEF7BCFEA6
:10951400C821F7E70020FEF7A9FE38B10020FEF7C6
:10952400BFFE4FF47A61484B0422EDE7FEF7ACFE30
:109534004FF4C871F7E70020FEF798FE48B1002009
:10954400FEF7AEFE404B05221A7041F69A11002236
:10955400C2E7FEF799FEF5E70020FEF7CBFE3A4B93
:1095640006221A70002240F6CD41B5E70020FEF72E
:109574008BFE354B07221A7000248CE701202070E3
:10958400FEF7B8FEEEE701202070FEF7B3FE0022DE
:109594004FF48041A0E7FEF79EFE2B4B0C22EAE736
:1095A4002A482B4EFDF7ECFFD5F1110504461CD0DB
:1095B400D8B9012D13D0C8235D434FF400474FF4AD
:1095C400FA7000214FF47A720023C7FB050102F000
:1095D40003F9224601461D48FDF78CFF044602208C
:1095E400FEF752FE0123337055E70220FEF758FEC2
:1095F4000023F8E7FFF716FF134B1222BBE7FFF730
:1096040011FF0020FEF740FE0F4B1322B3E7FFF7D4
:1096140009FF0120FEF738FE0B4B1422ABE7FFF7DE
:1096240001FF0020FEF730FE0120FEF72DFE064B61
:109634001522A0E7FEF74FFE034B1D709CE700BF09
:10964400C033002090330020C83300205033002062
:109654004D330020044B1B68DB0703D5034B1878FC
:10966400FFF7F6BE704700BFBC330020C8330020AC
:10967400032801D8FEF750BE00207047044B1B6836
:1096840013F0010301D0FFF7E3BE1846704700BF93
:10969400BC33002038B51C4B18601C4B10F002047E
:1096A400054619601AD01A4B1A480E221A700F2256
:1096B400DA7010229A7111225A72042140F2666201
:1096C400FDF7E2FB044648B9FDF732FC044628B92D
:1096D4000146114A1148FDF7FBFE0446EB0711D57C
:1096E4000120FEF73FFE6CB921460D4A0D48FDF7F7
:1096F400EFFE044630B90C4A0C480121BDE838405D
:10970400FDF7E6BE204638BDBC330020C43300203C
:10971400B033002068CA0200219402008CCA0200FF
:109724005996020090CA02007D93020088CA020082
:10973400032813D8012A0BD1012908D100F10E0204
:10974400D2B200EB40000C4B1A54002070470022A8
:109754000129F6D04BB24BB1022901D00720704742
:10976400054B00EB400018444270EEE7024900EB61
:10977400400008448270E8E7B0330020032808B5AD
:1097840012D8FEF7E9FD800000F1A040D0F80037C0
:1097940023F44033C0F80037D0F8003743F44033A3
:1097A400C0F80037002008BD0620FCE708B50122F8
:1097B40002210020FFF7BCFF08B1072810D10722BF
:1097C40002210120FFF7B4FF08B1072808D10021C6
:1097D4000A220846FFF7ACFF10B1072808BF002093
:1097E40008BD00000388102B10B502D0112B1ED029
:1097F40010BD1A4C2168B1B901220846FFF798FF41
:1098040008B1072824D1072202210120FFF790FF85
:1098140008B107281CD1042202210020FFF788FF89
:1098240008B1072814D1236801332360E0E70B4A09
:109834001368013B1360002BDAD1FFF7B7FF002850
:10984400D6D0074B1B68002BD2D0BDE81040184778
:10985400034B1B68002BE6D09847E4E7D433002081
:10986400D033002008B50020FFF788FF08B1062890
:1098740006D10120FFF782FF10B1062808BF00209F
:1098840008BD00000D4B10B518600C4629B101202D
:10989400FFF7EEFE40B102232370094B1B6853B956
:1098A400BDE81040FFF782BFFFF7E2FE08B10B23CB
:1098B400F2E72070F1E7002010BD00BFD033002094
:1098C400D433002076DF70477ADF70477CDF70473F
:1098D4007FDF70478FDF7047B1DF704733DF70473A
:1098E400FDF73CBB08B50020FFF7C8FE08B1FDF743
:1098F40035FBFFF7B7FF08B1FDF730FBFFF7EEFFCD
:1099040018B1BDE80840FDF729BB08BD0388212B29
:1099140013B504463BD01FD8112B28D0132B3ED0AF
:10992400102B32D1264B27482749C01AC0080004FF
:1099340040F00300FDF776F80720FFF79FFE08B11B
:10994400FDF70CFB214BA1882148198001F08CFB09
:10995400D8B1FDF703FB18E0522B28D0562B01D0C9
:109964003B2B12D11321A088FFF7ACFFF0E7144B77
:1099740014481849C01AC008000440F00300FDF759
:1099840051F8124B4FF6FF721A8002B010BD00233B
:1099940001A98088ADF80430FFF79CFFD8E70B4895
:1099A40000231A4685210088FFF792FFD0E7074875
:1099B40000231A4619460088FFF78EFFC8E700BF48
:1099C40058C3020080C30200ACCA0200BE2A0020B1
:1099D40040370020B6CA02000D4B4A881B889A42C1
:1099E40014D10A8840F677239A420FD18B88094A0A
:1099F40009480A49033B9BB21380094A801AC008EC
:109A040000041A4640F00300FDF719B8704700BF80
:109A1400BE2A0020BC2A002080C30200C3CA020060
:109A240058C3020008B503784BB9054B3B2118888D
:109A3400FFF748FF18B1BDE80840FDF78FBA08BD2D
:109A4400BE2A0020072808B513D00A280DD0042800
:109A540019D10D4B13211888FFF734FF30F0080398
:109A640011D0BDE80840FDF779BABDE80840FFF71A
:109A740039BF054B1A884FF6FF739A4203D1034846
:109A840000F0C7FEEAE708BDBE2A0020D03400205B
:109A940008B548B103280BD10220FFF7EFFD38B118
:109AA400BDE80840FDF75ABABDE80840FFF71ABF01
:109AB40008BD00000378012BF7B534D01BB1022B8D
:109AC40031D003B0F0BD1A4C1A4D20782844FDF76C
:109AD40035FE23780133DBB21D44237015F8012CC5
:109AE4000A2A05D00D2A03D0134A12889A42E8D8CC
:109AF400012B15D9114D0F4E114F2378ADF80630B7
:109B04000DF106022B883146384601F01FFC082867
:109B140006D01328F1D0052802D008B1FDF71EFAAB
:109B240000232370CDE74068FDF718FAC9E700BFAA
:109B3400CC340020D8330020BC2A0020BE2A0020C8
:109B4400C02A00202DE9F0410578064645BB154C96
:109B5400154BDFF85880E41AE408240444F00104A7
:109B6400B28A95420AD33369134413F8013C0D2B8E
:109B740016D10A20FDF7F8FD1128F9E73369585D7D
:109B8400FDF7F2FD074648B11128F7D002464146D9
:109B94002046FCF74BFF3846FDF7E0F90135DFE7D7
:109BA400BDE8F08180C3020058C3020026CB020046
:109BB400FDF7D4B908B50849084801F041F908B1DE
:109BC400FDF7CCF9F721054801F04EF918B1BDE8CD
:109BD4000840FDF7C3B908BDDD990200283700200D
:109BE40000B5734D0FCDB1B005AC0FC495E80300BB
:109BF400704B714A01934FF4807384E80300CDE9FC
:109C0400032302936D4A072301A905A8FDF73EFD2E
:109C140008B1FDF7A3F94FF400410020FCF73EFD25
:109C240008B1FDF79BF9FCF76FFCFDF721FC08B1C7
:109C3400FDF794F962490320FFF72CFD08B1FDF705
:109C44008DF905A90020FFF71DFE08B1FDF786F97F
:109C5400FEF718F908B1FDF781F901F0F5FB08B139
:109C6400FDF77CF9002305A90120059301F07AFC96
:109C740008B1FDF773F905A801F044FD08B1FDF73B
:109C84006DF911234F488DF8043001F050FF4D4910
:109C940082B201A8FFF71AFE08B1FDF75FF90021AF
:109CA400082205A801F0EEFE47494FF0C87305A845
:109CB400CDE90513FFF708FE08B1FDF74FF9FFF7EB
:109CC40079FF424B4248059305A901F0BBF908B15D
:109CD400FDF744F9042200210DEB020001F0D2FE4D
:109CE4003C4B3D48019301A901F0BAFA08B1FDF7D4
:109CF40035F9AC22002105A801F0C4FE02238DF839
:109D040014304FF4A063354AADF816300123ADF892
:109D1400603019928DF89030402244F25063CDE9BE
:109D2400272305A92E4B2F482E9300F0B0FB08B132
:109D3400FDF714F901212B4800F0A6FB1C22002199
:109D440005A801F09FFE00234FF42032CDE905322F
:109D5400ADF822304FF470228DF82430224B079254
:109D64000A930322214B8DF8202005A80B9300F0C1
:109D74006DFE08B1FDF7F2F81D4801F029FE1D4BF8
:109D84001D481E49C01AC008000440F00300FCF737
:109D940049FE0321134800F0F9FB08B1FDF7DEF892
:109DA400FCF7D6FC0028FBD1FEF782F8F8E700BFE9
:109DB40094CA02004C3700204C380020B99A0200A3
:109DC400499A0200DFCA020010003C00E598020034
:109DD40040370020499B0200C02A0020B82A0020F6
:109DE400959A0200D0340020299A0200B59B020003
:109DF400EBCA020058C3020080C30200FDCA02007D
:109E04000369C1688B429DBF8268D21802F1FF3298
:109E140003F1FF3394BF501A581A70472DE9F041EB
:109E2400D0E9027405463E1B4068964220448846A9
:109E3400144404D901F0FDFDEC60BDE8F081324624
:109E4400E41B01F0F6FD224608EB06016868F1E721
:109E54002DE9F843C5680646894617464FF00008C1
:109E64003469B3687068A54228BFE418013C621BDA
:109E74005C1BBC4228BF3C46944228BF144649465A
:109E84002844224601F0D5FDB3682544AB4208BFFF
:109E940000253F1BA044A144F560E1D14046BDE844
:109EA400F883000010B5114C114AA2610223C4E9E1
:109EB4000433104BE361A2644FF400730E4A23622F
:109EC400E264002310220D49A362E01D6362E36291
:109ED400A3656365E365226501F007FE0849204632
:109EE40001F003FE2023A37110BD00BF4C390020F4
:109EF40051CB0200D4390020C43900205ACB0200CF
:109F04005ECB0200F8B5184C182300FB033503FBA5
:109F140000402544C46A012C0F46164611D024B1D2
:109F2400022C1BD000242046F8BD2846FFF768FF0A
:109F3400B042F8D3324639462846FFF76FFF34461D
:109F4400F1E72846FFF75CFF8642344628BF044603
:109F5400224639462846FFF761FFE4E72846BDE874
:109F6400F840FFF775BF00BF4C390020FFF79ABFD8
:109F74006DDF704779DF70477DDF704764DF7047BE
:109F84002DE9F04F85B000250E9CBDF83CB0278824
:109F94000191804691469A462E46B8F80020B24276
:109FA4000CDC3DB12288013AD21B92B2FF2A3BD885
:109FB4000AF80720002005B0BDE8F08FD8F8042087
:109FC40052F82600039000220DF10B0103A8FFF7BD
:109FD400D5FF0028EFD19DF80B204A4522D12288D5
:109FE400002D14BF0020022002EB09010144594551
:109FF4001ADC45B9013292B2019B22800AF8023080
:10A0040022880132228022880DF10B01524403A8D8
:10A01400FFF7B4FF0028CED121889DF80B200A4415
:10A02400228001250136B8E70C20C4E72DE9F3416D
:10A03400089CBDF824501746CDE900450222064687
:10A044009846FFF79DFF50B94346102239463046E3
:10A05400CDE9084502B0BDE8F041FFF791BF02B079
:10A06400BDE8F0812DE9F04F00231688138090F8A5
:10A074002D3085B007460D46144653B3082E01D83B
:10A084000C2027E102A8FFF773FF002840F022818B
:10A0940023880822EA54238801339BB21B2223809D
:10A0A400EA542088013080B2208006220DF1090193
:10A0B400284401F0BEFC23889DF8082006339BB297
:10A0C40012F0FE0218BF01222380EA5423880133D0
:10A0D4002380BB78FBB123880433B342D0D802A8D1
:10A0E400FFF748FF002840F0F58023880322EA5454
:10A0F400238801339BB219222380EA542388BDF8B4
:10A10400082001339BB2E9182380EA54120A4A70EA
:10A11400238802332380FA789AB12388D91CB14268
:10A12400AED80221E954238801339BB20121238054
:10A13400E95423880B449BB22380EA5423880B44BC
:10A1440023807A68AAB12388D91CB14298D8022105
:10A1540092F90020E954238801339BB20A21238019
:10A16400E954238801339BB22380EA5423880133C2
:10A1740023803B89002B40F0A1803B8A5BB1CDE971
:10A1840000462B460722032107F11000FFF74EFF7C
:10A19400002840F09F803B8B5BB1CDE900462B4605
:10A1A4001522142107F11800FFF740FF002840F0A2
:10A1B40091803A6A002A40F09080D7F82480B8F160
:10A1C400000F30D0B8F804302188981C8A1C02444F
:10A1D400B2423FF655AFFE283FF652AF03336B54FD
:10A1E400238801339BB2FF222380EA54238801335E
:10A1F4009BB22380B8F80020EA54E918120A4A7086
:10A204002088023080B22080B8F804205AB1D8F8EF
:10A21400081000296BD0284401F00BFC2388B8F8FF
:10A2240004201344238097F82C30002B40F09A80AC
:10A23400387800284ED03B88012B58D0228802F170
:10A24400020CB4453FF61CAF012805D17B780233DC
:10A2540013449E42FFF414AF023EB61AB6B202A9EA
:10A2640005EB0C00ADF80860FFF786FE90BB39786B
:10A27400BDF80820022900F0BA807B78934202D30B
:10A28400B24240F2B280012940F0B3809BB29E42B8
:10A29400C0F0AF80ADF808300821BDF80830FE2BBF
:10A2A4003FF6EEAE22880133AB542288013292B2DB
:10A2B4002280A9542288134423800BE0CDE9004670
:10A2C4002B460622022107F10800FFF7AFFE002803
:10A2D4003FF453AF05B0BDE8F08FB4F800C00CF103
:10A2E4000603B3423FF6CCAE1188052901D80720F6
:10A2F400F0E76FF4486E01EB0E039BB24FF27D3E24
:10A304007345F4D95388052BF1D96FF448601818B4
:10A3140080B27045EBD94FF6FF70814203D083427F
:10A3240001D09942E3D8052305F80C302388013382
:10A334009BB212212380E954238801339BB22380EA
:10A344001188E954E818090A4170238802339BB242
:10A3540023805288EA54E918120A4A702388023387
:10A3640023802AE7BB6A002BC1D04FF000094FF0CD
:10A374000C0A4FF0160B97F82C305FFA89F29342CF
:10A384007FF656AFB96A0AFB02F201EB0208B8F88D
:10A394000430981CFE283FF673AE208803332B54F8
:10A3A400238801339BB2238005F803B0238801334B
:10A3B4009BB223808A5AEA54E918120A4A70208808
:10A3C400023080B22080B8F804205AB1D8F80810BE
:10A3D40000298CD0284401F02CFB2388B8F80420F1
:10A3E4001344238009F10109C5E7092155E7B24265
:10A3F400FBD9ADF808604FE770B5C0B14AB1168813
:10A404000024B44203D305196D789D4208D0A142BB
:10A4140001D800200BE0055D01352C44A4B2F0E71F
:10A42400A142F6D9A31C1380005D013880B270BD2F
:10A4340013B50023ADF8063013460DF106020446A9
:10A44400FFF7DAFF10B1BDF80600204402B010BDDA
:10A4540072DF704773DF704774DF704738B50122CD
:10A4640004460D46B0F83812D0F83402FFF7E0FF86
:10A4740000B1057004F13C0204F50D7104F15400BF
:10A48400BDE83840FFF7E4BF80F830107047F8B5F6
:10A4940004460F46002975D0002873D091F87A300D
:10A4A4001BB191F89830002B6ED1D7F8A030042B53
:10A4B4006AD0D7F89C30042B66D007F178060FCE0B
:10A4C4004FF0000C251D84F802C00FC50FCE0FC538
:10A4D40096E8070085E8070084F830C0D7F8A43070
:10A4E4006363D7F8A830A3634FF6FF7504F50D73C3
:10A4F400C4F84432A4F848520722614604F24A20C0
:10A5040001F0C0FA23780BB984F8545094F824303D
:10A51400002B14BFEE231F2304F15501C4F8341299
:10A52400A4F8383204F50E723846FFF79BFD40BBA1
:10A5340094F82430002B14BFEE231F2304F243119C
:10A54400C4F83C12A4F8403204F5107207F13C0040
:10A55400FFF788FDA8B9A369A4F848304FF48073C5
:10A564000125A4F8503063692064014684F83C5006
:10A57400636404F13C0204F15400FFF769FF00B97D
:10A584002570F8BD0E20FCE70720FAE7F8B5077838
:10A5940004460D46002F00F0048100F24A26A17003
:10A5A40007220021304601F06DFAE38813B1A37845
:10A5B400012B04D0E3794BB1A378022B06D1636B52
:10A5C400A3B1012284F8512208209847334604F5A8
:10A5D400147113F8012F12B98B42FAD117466B1E6E
:10A5E400032B52D8DFE803F0050B0F1284F8513225
:10A5F400ECE7A3791BB194F8243003B95FB9E3798C
:10A604000BB1002F43D1237A002B42D1637A002B64
:10A614000CBF00250425636BA570002B3BD0033DC4
:10A62400012D38D86279002A35D094F8522292BB91
:10A6340084F85422012284F853220720984704F115
:10A644003C0518220021284601F01CFAE36A94F81C
:10A654002420581E0121022828BF0B4684F83C10F0
:10A6640084F8513032B1884296BFA36A84F85210FC
:10A6740084F85230A178002384F8503004291BD880
:10A68400DFE801F0770D223559000025C3E70225E4
:10A69400C1E70325BFE7002384F85332CFE7C4F8AA
:10A6A4004432C4E910630223012284F83C3080233D
:10A6B40084F83120A4F84830A378002B5CD1636B74
:10A6C400002B6AD1002067E00223002A84F831308D
:10A6D40014BF0723032384F83C302369A4F84830CB
:10A6E4000023C4F84432E36826646364E4E76369DE
:10A6F4006364A369A4F8483012B1062384F83C309B
:10A704006379B3B194F852329BB994F8543283B15B
:10A71400022384F8503004212046FFF79FFE0028CE
:10A72400CAD1052384F8313004F50D73C4F84432DA
:10A73400C2E70323F6E7E3696364236AA4F84830B5
:10A7440012B1062384F83C30637983B194F8523211
:10A754006BB994F8543253B1022384F85030042175
:10A764002046FFF77BFE0028A6D10623DAE7042360
:10A77400D8E784F831309FE72A46D4F8441204F12C
:10A784005400FFF765FE38B994F8301094F854007B
:10A79400FFF760FE002892D0F8BD94F83100984786
:10A7A40090E70820F8E70388112B10B50C460AD06F
:10A7B400262B1FD0102B05D1C37B012B02D18388FC
:10A7C400A1F8483210BD0022838881F85222B1F8E2
:10A7D40048229A42F6D10B79002BF3D1012120466D
:10A7E400FFF7D4FE0028EDD0A36B002BEAD0BDE820
:10A7F40010401847037A013B012BE3D889780523DD
:10A804000131B1FBF3F303EB8303C91AC9B2E6E7E1
:10A81400704738B5044690F85400FFF71DFE012335
:10A8240084F85232002384F8543284F850300621DC
:10A834002046FFF713FE054638B9A1782046FFF7F6
:10A84400A5FE10B1A36B03B19847284638BD75DF48
:10A85400704776DF70477ADF70477BDF7047000010
:10A86400034B1A8882420CBF18460020704700BF71
:10A87400F03B0020024B9B6903B11847704700BFAF
:10A88400D43B002073B586B23046FFF7E9FF044697
:10A8940070B1164D027A2B7B9A420BD200F10A0159
:10A8A4003046FFF7D4FFE8B1112801D0FFF7E2FFEB
:10A8B40002B070BD002303722B7C43B13B213046B0
:10A8C400FFF7C7FF30F0080301D0FFF7D3FF6B6930
:10A8D400002BEDD000228DF80420ADF8066001A80D
:10A8E4009847E5E7237A01332372E1E7D43B00205C
:10A8F40013B50B46497A0F4C024669B9D4E90110E5
:10A904001C7A002C18BF01465868FCF7F3FD08B107
:10A91400FFF7B0FF02B010BD002119726369002B6C
:10A92400F8D00121ADF806008DF8041001A898476D
:10A93400F0E700BFD43B00204B8802889A4213D82A
:10A9440042889A4210D380888A8840F2F31398424E
:10A9540094BF031AC31A934206D800F2F31090422C
:10A9640034BF002001207047002070470388112B5A
:10A9740070B5014648D002D8102B1ED070BD122BE2
:10A9840052D0502BFAD12F4BC288DB899A42F5D191
:10A99400038A022BF2D186883046FFF761FF054611
:10A9A4000028EBD001F1120000F05BF930BB6868BD
:10A9B400FCF7E6FD0028E1D009E0C37B012BDDD1E3
:10A9C4004FF6FF70FFF74CFF054620B90420BDE8A1
:10A9D4007040FFF74FBF1C4A8E8806800023037225
:10A9E4001368C5F80A300A30536843601031FFF722
:10A9F400A3FF144B6872DB89002BBFD12946304674
:10AA0400BDE87040FFF774BF8088FFF729FF044654
:10AA14000028B3D04068FCF7B3FD08B1FFF72AFF64
:10AA24004FF6FF732380A9E786883046FFF718FFA7
:10AA340005460028A2D008310A30FFF77DFF68726E
:10AA4400DCE700BFD43B0020043C0020F8B50646F8
:10AA540048B305460FCD154F3C460FC495E8070093
:10AA640084E807003068124C3C60B0B1FFF7F3FE95
:10AA7400C0B9326813682360536863600D480E4A96
:10AA84004FF6FF7303800D4B40F8043F0021FCF7A1
:10AA94001FFD002818BF032004E02046FFF7DDFE59
:10AAA4000028EBD0F8BD0E20FCE700BFD43B00200B
:10AAB400043C0020F03B002089A802000C3C00204C
:10AAC40073B50191019C06466CB100252C462946BC
:10AAD40001A8FCF7BEFE18B106EB440301349D80C7
:10AAE4000135142DF3D13046346002B070BD00003E
:10AAF4002DE9F04703888488112B8CB006463CD09E
:10AB04001A2B3FD0102B17D1274DAB68DB43009392
:10AB140069686846FCF7C6FE009901A8FFF7D0FFF4
:10AB24000DF108094FF00008019B984507D3132C39
:10AB340013D90420FCF712FA0CB0BDE8F08739F8F9
:10AB440002AB00270137514605EB8700FCF777FE7F
:10AB54001D2FF7D108F10108E6E721461348FCF759
:10AB640065FE21461248FCF761FEF37B012BE3D01E
:10AB740010482146FCF75AFEDEE70C482146FCF754
:10AB84005EFED9E7057A0C482D09012D214606D928
:10AB9400FCF74CFE022D21460848F0D0EAE7FCF70A
:10ABA4004EFE21460548EAE72C3C0020343C0020B8
:10ABB400303C0020383C00203C3C0020403C00203D
:10ABC4001328014602D80248FCF743BE0020704710
:10ABD400303C002010B50446FFF7F2FF002814BFF4
:10ABE4002046142010BD70B5054616460AB90E203D
:10ABF40070BD002313600028F9D00368002BF6D041
:10AC0400C38813F003040FD10846FFF7E3FFC0B273
:10AC140014280BD02B7983420AD9EB882A6800FBCD
:10AC2400032333602046E3E70720E1E70520DFE75D
:10AC34000420DDE7AADF7047002301380B700428E5
:10AC440006D8DFE800F00306080A0C0011230B7095
:10AC540070472123FBE73123F9E71223F7E7222387
:10AC6400F5E7007800F001007047F0B58B7891B0FB
:10AC7400002B0C4608BF01238DF80E3005460B88C7
:10AC8400ADF80C30002116466846032200F0FAFEA7
:10AC94006946607CFFF7D0FF0DF10101A07CFFF74E
:10ACA400CBFF9DF80230E27B62F3C303227C62F3A4
:10ACB4000413227B62F30003227D002A14BF0222C4
:10ACC400012262F3420300211C2209A88DF80230FC
:10ACD40000F0D8FE637B13F0300F15D002AF0322CF
:10ACE4000021384600F0CEFE0DF10901E07CFFF7AB
:10ACF400A3FF11238DF808309DF80A300E97012226
:10AD040062F342038DF80A30637B8DF824301422F9
:10AD1400A37B8DF82530002104A800F0B3FE03AB1B
:10AD24000493A388ADF81C30A368CDF814D01BB1EC
:10AD3400E288ADF818200893A369002B2ED001AF48
:10AD440003220021384600F09DFEA3691A88ADF85D
:10AD54002C205A88187BADF82E2039465A680A925E
:10AD64000D97FFF769FFA3690DF10501587BFFF704
:10AD740063FFA2699DF80630917A61F3C303D17A27
:10AD840061F30413117A927B002A61F3000314BF68
:10AD94000222012262F342038DF80630E36903B113
:10ADA4000C93334604AA09A92846FFF743FF11B0C0
:10ADB400F0BD90DF7047A5DF7047B5DF7047000036
:10ADC4007FB50023ADF80810ADF80A106A4602A951
:10ADD400064603930093ADF80430FFF7EAFF0546F7
:10ADE40000B3124B124CE41AE408FDF7C5F824042E
:10ADF40044F00104034632460E492046FBF71FFE89
:10AE0400BDF80020BDF8023052EA030103D00A491C
:10AE14002046FBF714FEBDF804201AB1074920466A
:10AE2400FBF704FE284604B070BD00BF58C30200FF
:10AE340098C3020065CB0200AFCB0200EECB020048
:10AE440080B14FF0F7130360FB230371F723C38032
:10AE54001723038141F6FB32002301614381828180
:10AE6400184670470E20704730B1A1F11703E02B4C
:10AE740004D80180002070470E20704707207047D7
:10AE840013B5034680880C46A0B91A88232A00F01B
:10AE9400A48011D8102A22D0112A51D0A37A4BB100
:10AEA400E1880020FFF787FF002840F09C804FF4E2
:10AEB4008073638102B010BD3A2A4AD0552A60D00B
:10AEC400242AEBD11A7A0B694A73002BE6D04DF68B
:10AED4007A21ADF8040000918DF8042079E0DB7B41
:10AEE4000A790A73012B13D0022B14D0E188238929
:10AEF4008B4205D20020FFF75EFF70B90123E37295
:10AF0400217B637B8B42C9D20020FFF759FFC5E741
:10AF14000B88E380EAE74B88FBE7112802D1012381
:10AF2400A372EDE7FDF728F8374A384B38499B1AE6
:10AF3400DB081B04024643F00100FBF777FDDFE763
:10AF4400F723CB8017230B8141F6FB3348818B8198
:10AF5400A4E75B89CA88934228BF1346172B0A6962
:10AF640038BF17230B814AB1C97A39B140F677212A
:10AF74000091ADF804306946204690470023638170
:10AF84008CE7DB88C988A072172B38BF17238B4244
:10AF940028BF0B462381FFF710FF60B1FCF7ECFFDD
:10AFA400194A1A4B1B499B1ADB081B04024643F03F
:10AFB4000100FBF73BFDE37A002B7FF46FAF2369BD
:10AFC400002B3FF46BAF40F6772200922289ADF854
:10AFD400042069462046984760E7197A237B994202
:10AFE40028BF194691E711283FF464AFFCF7C4FF6A
:10AFF400054A064B06499B1ADB081B04024643F02C
:10B004000100FBF713FD55E758C3020098C3020083
:10B0140044CC020075CC0200B0DF704766DF704795
:10B0240010B5002104464088FFF7F8FF034608B92D
:10B03400237210BD112801D10123F9E76368BDE82B
:10B044001040184760B159B10378DE2B0AD00B6861
:10B054004360DE2303704FF6FF7343800020704784
:10B064000E2070470820704728B10378DE2B04D1E6
:10B074004180002070470E20704708207047F0B5CB
:10B08400054685B00C46F1B1E8B10B78DE2B1AD138
:10B0940082884B889A4204D10B7A13B10846FFF791
:10B0A400BFFF2B88112B32D0512B0ED0012B0AD18C
:10B0B4002B7A012B07D1A9886288914203D123728C
:10B0C4002046FFF7ADFF05B0F0BDAE886388B342FC
:10B0D400F9D1AF79022FF6D1AD7B2B1F022BF2D819
:10B0E40000211022684600F0CDFC052D14BF4FF45A
:10B0F400C0730023694630468DF80070ADF8043003
:10B10400FFF78AFF0028DED063689847DBE763888F
:10B11400AA889A4204BF4FF6FF736380D3E7A8DF7F
:10B124007047ADDF7047AEDF704762DF704770B5C0
:10B1340005468AB00C46002962D0002860D00388F6
:10B14400502B37D0572B72D0102B59D1818860697E
:10B15400002601AA0196FFF746FD082231460DEBB1
:10B16400020000F08FFC022302AA218AA888CDF8ED
:10B174000CD00293FFF7D5FF002841D1A369002B1F
:10B184003ED00398FFF76DFD002839D0019B0BB129
:10B1940001221A701822002104A800F073FC022373
:10B1A4008DF81030AB88ADF81830019B05940793E7
:10B1B400A36923E08188606902AAFFF714FD1822BD
:10B1C400002104A800F05EFCAB88ADF8183021899A
:10B1D400EB88029A05949942079218D12E8A022E7E
:10B1E40015D16AB105F11200FFF73BFD029B48B18E
:10B1F40001221A708DF81060A3690BB104A8984756
:10B204000AB070BD187003238DF81030F4E7A289DA
:10B214009A42F5D1A369002BF2D000228DF81020B8
:10B2240005F1120208922A8AADF82420E6E7818803
:10B23400606902AAFFF7D7FC01460028E0D1029B0F
:10B244001B78002BDCD0182204A800F01BFC01237F
:10B254008DF81030AB88ADF818300594029BA6E742
:10B26400F0B5384B8FB002AA04460E4603F1100C19
:10B27400174618685968154603C5083363452A46B6
:10B28400F7D1002C5BD0002E59D03368A36121463E
:10B294003846FFF74AFF00284FD12246012512F80D
:10B2A400023B8DF8063001A92846ADF80450FFF79B
:10B2B40036FF002841D10146202206A800F0E2FB17
:10B2C40022460223ADF8183012F80C3B8DF81A30E0
:10B2D400BDF824301C4E6088079603F4734343F48E
:10B2E40040632B4306A9ADF824308DF829508DF81E
:10B2F4002A50FFF7BAFC00BB0146202206A800F042
:10B30400C1FB22460323ADF8183012F8043B8DF834
:10B314001A30BDF824306088079603F46F4343F471
:10B3240080532B43ADF8243006A940F201138DF865
:10B334002950ADF82A30FFF798FC0FB0F0BD0E206D
:10B34400FBE700BFB1CC0200F4000100F0B50F46EA
:10B3540087B016461C46054618B301AA194640692B
:10B36400FFF741FCD8B94FF6FF739C421BD0019BF9
:10B37400CBB11B78CBB13388F42B18D801461022FB
:10B3840002A800F07FFBAB88ADF8083002A90123C6
:10B394002046CDE904678DF80A30FFF7C4FE07B0F4
:10B3A400F0BD0E20FBE70520F9E70820F7E70720AA
:10B3B400F5E710DF7047000013B5044609496846F5
:10B3C400FCF7A5FD019808B902B010BDD0E9003121
:10B3D4002046984718B16846FCF7A3FDF2E7112010
:10B3E400F2E700BFD0CC020013B504460749684613
:10B3F400FCF78DFD019B0BB902B010BD2046D3E9CB
:10B40400002190476846FCF78CFDF3E7E8CC020086
:10B414000B4991F816335A09EC231341DB0706D57F
:10B42400084B9A683AB94FF480030B60704742F2B4
:10B434000200FBF793BD1A6842F480021A60704759
:10B4440000E100E054320020F7B5194F3C7864BBAA
:10B45400184E012520463570FFF7AEFF112821D084
:10B464002046FFF7C1FF144B8DF803401868019084
:10B474000DF10300FCF7A0F9104901A8FFF799FFAB
:10B484000446B0FA80F0400938709DF80300FCF7D8
:10B49400B7F93CB90A4B34701C70FFF7B9FF284662
:10B4A400FFF7A2FF204603B0F0BD0824FAE700BF6F
:10B4B400A53C0020A43C0020C9CC02007D6F020002
:10B4C400A63C0020014B1878704700BFA53C002023
:10B4D40007B508496846FCF71AFD019B13B903B088
:10B4E4005DF804FBD3E9002090476846FCF719FD9A
:10B4F400F3E700BFDCCC0200FFF7EABF60DF704770
:10B5040069DF704761DF704730B5114DADF5017DDE
:10B514004FF4FA740DF1020103A8ADF80240FFF7ED
:10B52400F1FF70B9294601A8FCF7F1FC029B002B3E
:10B53400F0D003A8D3E90021904701A8FCF7F1FC5F
:10B54400F4E7052801D0FBF709FD0DF5017D30BDB9
:10B554006CCF0200024B1B780BB1FFF7D5BF7047CD
:10B56400A73C002030B5054685B00C46002900F004
:10B57400B5805B4B0B600C22002101A800F082FA1D
:10B5840001238DF8063022688DF80450062301A9A2
:10B594002020ADF80830FFF7B3FF60B1FCF7ECFCF6
:10B5A400504A514B51499B1ADB081B04024643F095
:10B5B4000100FBF73BFA0C22002101A800F062FA1B
:10B5C40001238DF805302268002301A94020ADF83D
:10B5D4000630FFF795FF60B1FCF7CEFC414A424BC1
:10B5E40043499B1ADB081B04024643F00100FBF7A6
:10B5F4001DFA0C22002101A800F044FAF723226866
:10B604008DF8045001A92320ADF80630FFF778FF28
:10B6140060B1FCF7B1FC334A334B36499B1ADB0863
:10B624001B04024643F00100FBF700FA0C22002140
:10B6340001A800F027FA012022688DF8040001A96E
:10B64400FFF75EFF60B1FCF797FC264A264B2A49B8
:10B654009B1ADB081B04024643F00100FBF7E6F9E2
:10B664000C22002101A800F00DFA4FF4B063226807
:10B67400019301A9A120FFF743FF60B1FCF77CFC13
:10B68400184A194B1D499B1ADB081B04024643F058
:10B694000100FBF7CBF90C22002101A800F0F2F91C
:10B6A4009DF8043022686FF3000301A9A0208DF8EF
:10B6B4000430FFF725FF034668B1FCF75DFC094A37
:10B6C400094B0F499B1ADB081B04024643F0010097
:10B6D400FBF7ACF90023184605B030BD0E23FAE79A
:10B6E400982A002058C30200A8C30200FCCC020020
:10B6F40042CD02008ECD0200D5CD020021CE020043
:10B7040072CE0200F8B506460768FFF7F7FE336805
:10B71400BB4205461DD9194B194C1A49E41AE408D1
:10B72400240444F002042046FBF77CF933681649EC
:10B734003A462046FBF783F94FF080533268D3F83A
:10B744000C3112499B0203F100539A1A2046FBF76D
:10B754006DF925B90E4B01221A702846F8BD28460A
:10B76400FCF70AFC054A064B0A499B1ADB081B0432
:10B77400024643F00100FBF759F9EEE758C3020013
:10B78400A8C30200C5CE0200F4CE020025CF0200F9
:10B79400A73C00204FCF02004BDF70471FB50D4C74
:10B7A40001A8FFF7F9FF70B9214602A8FCF7AFFB27
:10B7B400039B002BF4D00198D3E90021904702A801
:10B7C400FCF7AFFBF4E7052801D0FBF7C7FB04B097
:10B7D40010BD00BF84CF020053EA020C61D02DE9F2
:10B7E400F04BB3FA83F51E0007BFB2FA82F502FAF2
:10B7F40005F403FA05F41646C5F120051EBF22FA26
:10B8040005F73C43203556EA044C4FEA144418BF6C
:10B814000134A3464FF00009C846904271EB030C73
:10B8240039D3094207BFB0FA80F700FA07F6B1FA34
:10B8340081F701FA07F6C7F120071EBF20FA07FCBB
:10B8440046EA0C062037B6FBFBFC7F1B103F07F0D3
:10B854001F04C4F120060CFA04F42CFA06F644BFC3
:10B8640034460026202FA4BF2646002454EA060CA2
:10B8740008BF012418EB040849EB0609A4FB027C69
:10B88400C01B06FB02CC04FB03CC71EB0C01904201
:10B8940071EB030CC5D20B46024649464046BDE84F
:10B8A400F08BB2FBF3F200007F2805D8034B185C41
:10B8B400034B5B5C18407047002070479CCF02002C
:10B8C4001CD00200A0F16103192B98BF20387047E7
:10B8D400A0F14103192B98BF203070477F2805D869
:10B8E400034B185C034B5B5C1840704700207047A7
:10B8F4009CCF02001CD00200A0F16103192B98BF59
:10B9040020387047A0F14103192B98BF20307047AD
:10B914007F299ABF017001206FF02E0070475AB141
:10B924000A787F2A0AD800B10260002119605960A0
:10B93400501A18BF01207047002070476FF02E0086
:10B94400704738B504460846A26842B12368616866
:10B954005D1C8D4208BF00208B4208D2D054E3689E
:10B964002BB121686268914201D22146984723682D
:10B974000133236038BD70B54C1E09D41646C5B2D8
:10B9840029463046FFF7DDFF013CB4F1FF3FF7D114
:10B9940070BD10F0100F09D108B500F40070002834
:10B9A40014BF30202020FFF7E6FF08BD70470000D9
:10B9B40008B5034B5B689B681B68984708BD00BFCC
:10B9C400E42A002008B50921FFF7F2FF08BD0000B2
:10B9D4000FB410B586B008AB53F8044B059300239D
:10B9E40003936FF000430293084B049300F0CFF8E5
:10B9F400059A214601A800F0CDF8044600F0C8F8E5
:10BA0400204606B0BDE8104004B07047917F0200A4
:10BA1400037853B159B10144034613F8012F12B10D
:10BA24008B42FAD10B46181A70470346FBE70346CC
:10BA3400F9E7844640EA010313F0030F18D1844662
:10BA4400202A0BD32DE9F007B1E8F807A0E8F8079E
:10BA5400A2F12002202AF7D2BDE8F007042A07D376
:10BA640051F8043B40F8043BA2F10402042AF7D243
:10BA7400002A05D011F8013B00F8013B013AF9D145
:10BA8400604670478446002A2DD010F0030F04D07E
:10BA940000F8011B013A26D0F7E7C9B241EA0121B7
:10BAA40041EA0141202A12D3A2F120022DE9F00338
:10BAB4000B460C460D460E460F4688468946A0E8BE
:10BAC400FA03203AFBD2BDE8F00320320BD0042A5B
