:020000022000DC
:1060000000000120756302005D6302005F6302000F
:106010006163020063630200656302000000000028
:1060200000000000000000000000000067630200A4
:1060300069630200000000006B6302006D630200F0
:10604000E19A02006F630200259F02006F63020065
:106050006F6302006F630200A19D02006F63020084
:106060006F6302006F6302006F6302006F630200E0
:106070006F6302006F6302006F6302006F630200D0
:106080006F630200FD7202006F6302006F63020023
:10609000B97302006F630200ED0003006F6302003A
:1060A0006F6302006F6302006F6302006F630200A0
:1060B0006F6302006F630200000000000000000038
:1060C0006F6302006F6302006F6302006F63020080
:1060D0006F6302006F6302006F6302000000000044
:1060E00000000000000000000000000000000000B0
:1060F00000000000000000000000000000000000A0
:10610000000000000000000000000000000000008F
:10611000000000000000000000000000000000007F
:10612000000000000000000000000000000000006F
:10613000000000000000000000000000000000005F
:10614000000000000000000000000000000000004F
:10615000000000000000000000000000000000003F
:10616000000000000000000000000000000000002F
:10617000000000000000000000000000000000001F
:10618000000000000000000000000000000000000F
:1061900000000000000000000000000000000000FF
:1061A00000000000000000000000000000000000EF
:1061B00000000000000000000000000000000000DF
:1061C00000000000000000000000000000000000CF
:1061D00000000000000000000000000000000000BF
:1061E00000000000000000000000000000000000AF
:1061F000000000000000000000000000000000009F
:10620000354936480A1A02D0072291438D4634494F
:1062100034480A1A06D00722914381F309880222E2
:1062200082F3148830483149314A00F044F831484B
:106230003149324A00F03FF831483249324A00F0E1
:106240003AF832483249334A00F035F83248334997
:10625000334A00F030F833483349344A00F02BF821
:1062600033483449344A00F026F83448344900228F
:1062700000F02CF833483449002200F027F8334866
:106280003349091A082902DB002202604160314AC1
:1062900090471F481F49884205D00268043003B464
:1062A000904703BCF7E700208646EC46002000211B
:1062B000294A9047FEE7884207D0521A05D0037852
:1062C00001300B700131013AF9D17047884202D098
:1062D00002700130FAE770470000012000E0002062
:1062E0000000012000000120EC2F03002C220020E0
:1062F0004C250020D4630200D46302009C060300F6
:10630000EC2F03002C2200202C2200202408030064
:1063100024080300240803002408030024080300C1
:10632000240803002408030024080300EC2F0300C2
:106330000C3303004C2500204C2500204C25002068
:10634000943A0020943A0020943A0020943A002095
:10635000945A00209D630200DDB20200FEE7FEE7D2
:10636000FEE7FEE7FEE7FEE7FEE7FEE7FEE7FEE705
:10637000704700BF1048804710484FF0070188431E
:1063800085460F4880470F48016841F4700101605D
:10639000BFF34F8FBFF36F8FFFF732BF0A480B4930
:1063A0000B4A884207D0521A05D0037801300B708F
:1063B0000131013AF9D170477163020000000120F8
:1063C0000195020088ED00E010080300182200206B
:0463D0002C2200205B
:1063D400F0B595B01C46164608460D4602F0A6FFD9
:1063E4001A9B0D93CDE9086400242346082205A9CD
:1063F40028460A948DF82C400C9402F0B4FF079BB5
:106404000293069B03939DF814308DF8114003F01A
:106414000302012A1DD1BDF81440059EC3F3C20333
:10642400C4F383148DF81030A20008230EA9284663
:1064340002F099FFC6F3952608AB0093224602ABFF
:106444000EA9304600F0F0FB284602F073FF15B0A9
:10645400F0BD022AF8D1BDF81640C3F3C203A40963
:106464008DF810300827082C264628BF08263B46FE
:1064740032460EA9284602F076FFA41B08AB02AAF6
:1064840031460EA8374400F033FC002CEBD1DBE797
:10649400014B01221A7070478D25002070470000BF
:1064A40070B50E4D06460FCD88B06C460FC495E806
:1064B4000F00002E84E80F004FF00603084A094835
:1064C400009308BF0022694603F0A2FA08B100F065
:1064D4009DFD054B1E7008B070BD00BF240803006D
:1064E400956402002C2200204C25002007B5044BA3
:1064F4000093044A4023FFF76BFF03B05DF804FBED
:106504000D6502004D25002038B50D4B0D4D0020C2
:1065140018700D4804782D5DD2B21C4665B1043064
:1065240004F026F908B100F071FD084B1A7812B195
:106534002378002BFBD038BD0C3003F01FFFF1E7AC
:106544008D250020A42E00202C2200204C25002084
:1065540008B50848084A0378D35C3BB1043004F01A
:10656400A3F80020BDE80840FFF79ABF0C3003F001
:10657400A1FEF6E72C220020A42E00200120FFF724
:106584008FBF000008B5FFF7F9FF0421034800F0AE
:10659400B9FA034B01225A7108BD00BF0008030079
:1065A40040220020037813F0040216D003F0030302
:1065B400012B03D0022B09D0012070470A68008800
:1065C4000232C0F3831002440A60F5E70B68428884
:1065D400023303EB92130B60EEE7104670470000A2
:1065E4002DE9F04F87B000230446851C0DF1070008
:1065F4000F4690468DF8073001F0D0F845480668FC
:106604003E60D0E90132134401339B1B824600F201
:106614001C4600F5836900F21447AB421BD30022E9
:10662400B8F1000F70D0052363F3070264F38912F5
:10663400DAF80010DAF808309DF807000B4003334D
:106644000D444AF82320CAF8005001F0CBF8012089
:1066540007B0BDE8F08F0121304602F0E8F8484663
:1066640002F0FEF8384602F0FBF8DAF80400DAF833
:1066740008B0029000EA0B0003300AEB800002A984
:10668400FFF790FF029B50BB0BEA03020AEB820266
:1066940003F1020CD2680392013303EA0B0B0AEBF9
:1066A4008B0B02F00302012ACDF808C0DBF80C10B2
:1066B40022D0022A16D08346384602F0D4F810B10C
:1066C400029BCAF804305946304602F0B0F8DAE9C1
:1066D40001231344DAF8002001339B1A9DE70BEAE7
:1066E4000300C9E7BDF80E309B0903334FEA114B91
:1066F4000CEB93030293DFE7BDF80C30C3F3831371
:106704004FEA114B6344F5E7062363F3070264F38E
:106714009F528DE7602600200B4B0C48FF2210B5DA
:106724009A600022C3F81824C3E90022C3F8142491
:1067340083F8202402F0B3FD044610B9044802F0A3
:106744005BFE204610BD00BF602600202C0703001E
:106754006408030030B50A4C71B10A4A0A49121B95
:10676400D20800239A4201D1002030BD31F82350D1
:10677400854202D00133F5E7034654F83300F4E7C9
:1067840040070300000803002C220020094B0139B4
:1067940003EBC000032909D8DFE801F00A0204066C
:1067A4000420704700797047407970470020704793
:1067B4000220704740070300034BD3E90030C31A9B
:1067C40058425841704700BF602600202DE9F0432D
:1067D40087B0FFF7F1FF0646002840F0FB807E4DAE
:1067E400C5F81804BFF34F8F6868AC680290204066
:1067F400033005EB800002A9FFF7D4FE029B18B119
:10680400D5F81824002A5FD004EA0302991C013346
:1068140005EB8202234005EB8303D268DB68049313
:1068240002F00303022B0392029162D1BDF80E30F1
:106834006A484FEA9318B8F1500FC14628BF4FF089
:10684400500969F38F1309F10801ADF80E3002F015
:106854003EFD0746002800F0A88002F067FD03A96A
:1068640000230822384602F074FD029924EA010646
:106874000136B600B14535D95FFA89F97EB3F6B26F
:10688400A9EB0609214003315FFA89F4B146544E5D
:1068940005EB810108234A46384602F05AFD36B119
:1068A40009F1080322463146384602F052FD029BA4
:1068B40008F1030803EB98030293D5F81834002B6E
:1068C4004BD1D5F810445BE02A689A4204D86A6038
:1068D400304607B0BDE8F08304EA030088E7404986
:1068E4003446D7E72140033108234A4605EB8101AA
:1068F400DAE7012B59D1BDF80C303848C3F38311C2
:10690400062928BF062161F3891302318900ADF8F5
:106914000C3002F0DCFC0746002846D002F006FDED
:106924000023082203A9384602F013FD0026BDF80F
:106934000C20C2F38312B300964203F10803BCD2C5
:1069440002994A1C21400331029205EB8101042281
:10695400384602F0FEFC0136E9E7384602F0EAFC6C
:10696400FFF72AFF80F00100C6B2B1E7E3685B7964
:1069740023B1236839461B6820469847E3681C689E
:10698400002CF3D1384602F0D5FC0DF107008DF848
:10699400074000F003FFD5F818340BB9029B6B6075
:1069A4009DF8070000F01EFFDAE7D5F8104454B94B
:1069B4000C4B0D480D49C01AC008000440F00200F9
:1069C40000F06EF8CCE7236820469B689847E3689C
:1069D4001C68ECE700267BE7602600202C070300F8
:1069E4006C260020400703006807030070080300BA
:1069F4002DE9F74F284C80460F46924601A9012203
:106A040018469B46D4F80890FFF7EAFD80B3019D31
:106A14000026A91C5E4506EB010233D100211F4864
:106A240001F0C4FE80F310006A1C02EA090204EBC0
:106A34008202000405EA0903033340EA1840D060E7
:106A440014F8232068F3C50204F8232034F8232023
:106A540066F3891224F8232054F8232067F39F2235
:106A640044F8232002F0F80242F0010204F8232043
:106A740094F820341BB1FFF7A9FE0028FBD103B022
:106A8400BDE8F08F09EA020204EB82025AF82630CC
:106A9400D3600136BEE700BF602600207C2A0020B8
:106AA40000231A46FFF7A4BF07B50123019201AAE8
:106AB400FFF79EFF03B05DF804FB07B5CDE90023A3
:106AC40002236A46FFF794FF03B05DF804FB1FB589
:106AD400CDE90123069B039301AA0323FFF788FF53
:106AE40005B05DF804FB1FB5CDE90023069B0293B6
:106AF400079B03936A460423FFF77AFF05B05DF80A
:106B040004FB000030B50F49D1F8102400231446CB
:106B14003CB9C468237152B9C1F810042260184604
:106B240030BDE46825799D4206D02468F0E7D26838
:106B3400116821601060F2E701330A2BE7D14FF0AE
:106B4400FF33ECE760260020094A38B50123D2F868
:106B5400104482F820341D4604B938BDE3685D71E1
:106B6400236820465B689847E3681C68F4E700BF25
:106B740060260020037A052B10B50C460FD0437A0B
:106B840023B1084A0849204601F0D0FE07492046AF
:106B940001F0CCFE2046BDE8104001F0BCBE002A46
:106BA400F8D0F3E7BB080300DB120300DD080300A1
:106BB400C38873B504460D4633B1144A0092144990
:106BC400144A284601F0B2FE217A05291CD0637AC2
:106BD4004BB1A088FFF7DAFD0F4B104953F8202082
:106BE400284601F0A3FE227A0D4BA08853F82260B8
:106BF4000021FFF7AFFD0B4903463246284602B099
:106C0400BDE8704001F092BE02B070BDBB08030045
:106C1400C8080300C008030088080300DB1203004F
:106C2400EC080300E00803002DE9F04385B01F469B
:106C34000C9D002306460C46904695F80C902B7349
:106C440029463846FFF7B4FFB8F1060F09D8DFE844
:106C540008F00412181F283340003146284601F07A
:106C640065FE002229463846FFF784FF85F80C901C
:106C740005B0BDE8F08322683146284601F056FE8F
:106C8400EFE7D4E900233146284601F04FFEE8E758
:106C9400A36800933146D4E90023284601F046FE58
:106CA400DFE7E3680193A36800933146D4E9002346
:106CB400284601F03BFED4E723690293E36801937D
:106CC400A36800933146D4E90023284601F02EFE40
:106CD400C7E76369039323690293E3680193A36895
:106CE40000933146D4E90023284601F01FFEB8E79B
:106CF40008292DE9F84F80460E4617461C463AD817
:106D0400002593F80C901D7319461046FFF750FFA9
:106D1400DFF884A0DFF884B0AE422ED918F805203D
:106D24005946204601F002FE0135082DF4D11849D8
:106D3400DFF86CB0204601F0F9FD4FF0000A56452B
:106D440020D918F80A507E2D03D8284609F0D8FB1C
:106D540000B92E252A465946204601F0E7FD0AF1DE
:106D6400010ABAF1080FEAD1012221463846FFF799
:106D740001FF84F80C90BDE8F88F5146204601F0DD
:106D8400D5FDD1E70349204601F0D0FDE7E700BF78
:106D9400B6080300B4080300B2080300AC080300FB
:106DA400B80803002DE9F04F394E87B04FF00009C1
:106DB400384B1B785FFA89F5AB4202D807B0BDE8BF
:106DC400F08F354BD3F800A01AF835000124D6E92A
:106DD400001EA0F12002C0F1200304FA02F224FAFA
:106DE40003F3134304FA00FC009301EA0C03029337
:106DF400009B0EEA03030393DDE9022313430AEB2A
:106E0400C50B41D0009B21EA0C012EEA0303C6E91D
:106E1400001302F0B9FF1AF835502049A5F12002F9
:106E2400C5F1200304FA02F224FA03F31343D1E96F
:106E340000C2AC40134004EA0C0105930024C3B221
:106E4400CDE90034009A0491C5F12003A5F1200195
:106E540022FA03F302FA01F848EA03081346AB40A6
:106E64001F46DDE90434444508BFBB420CD1DBF8BE
:106E740004304BB19BF801104A1E51425141081A8B
:106E8400414241412846984709F1010990E700BF72
:106E9400502B00201C2B0020582B0020482B0020B6
:106EA4002DE9F0418046204800F068FCD0BB012564
:106EB400A8F12004C8F1200325FA03F305FA04F429
:106EC4001C431A4BD3E9001205FA08F501EA05063A
:106ED40002EA040756EA07001E461DD1404602F0A6
:106EE40053FF134BD3E9001288B129432243C3E96A
:106EF4000012D6E900231C430E4B0B4819681543B6
:106F0400C6E900540022BDE8F04100F0F1BB21EADB
:106F1400050122EA0402EAE721EA050522EA04045B
:106F2400C3E90054BDE8F081242B0020502B00203D
:106F3400482B0020202B0020042A2DE9F34105468C
:106F44000C4616463AD902F05DFED8B11C4B1D49D9
:106F54001D601D4BDFF884801C701C4B00221E60DA
:106F64000023C1E900231A49C1E90023013CE4B22A
:106F740000260327FF2C0CD1164A1748002100F0E5
:106F8400A5FB03E002F006FE0028DFD002B0BDE856
:106F9400F08123B205EBC30201A992788DF8052094
:106FA40015F833008DF8066042468DF8047002F03F
:106FB40033FE013CE4B20028DCD0E7E70720E5E734
:106FC400582B0020482B00201C2B0020202B0020B5
:106FD400502B0020A96D02004C090300A56E02008D
:106FE40070B5084D084E00242B789C4201D3002034
:106FF40070BD3368012113F8340002F081FE0134BE
:10700400F2E700BF1C2B0020582B00201FB50021E5
:10701400039001AA44F20100CDE9011100F004F843
:1070240005B05DF804FB000010B572B6FFF78CFDE7
:10703400FFF7CCFB0028FBD1104B114C1149E41A8B
:10704400E408240444F00100FFF72AFD0E4B1B68FA
:10705400DB0700D500BE0D4944F00200FFF720FD18
:10706400BFF34F8F0A490B4BCA6802F4E062134323
:10707400CB60BFF34F8F00BFFDE700BF40070300A5
:107084006807030050090300F0ED00E05C09030009
:1070940000ED00E00400FA054B1C30B5DB000446AB
:1070A40012F003009BB20DD1074D2A601A44074B1E
:1070B4001A60074B1870074B1870074B1C80074B5E
:1070C400198030BD0720FCE7642B0020602B0020D2
:1070D4005C2B00206C2B0020682B00206A2B0020E6
:1070E4002DE9F3472B4D2B888B4206460C46174659
:1070F4004CD34FF000080DF107008DF8078000F025
:107104004DFB254B254A18781178CBB224490988C0
:107114008B4238BF0133C0B238BF5FFA83F84045B1
:107124002ED092F800801378DBB2994286BF0133E7
:10713400DBB2002313709DF8070000F053FB4FF6F9
:10714400FF73984524D0DFF860A0DAF800304FEAE6
:10715400C80903EB090243F83870A6B19CB1114B7E
:1071640028881B68224608FB0030314609F008FADB
:10717400DAF800304B4400209C8002B0BDE8F08770
:107184004FF6FF78D7E700209080F6E70920F4E770
:107194000420F2E7682B00206C2B00205C2B0020DD
:1071A4006A2B0020602B0020642B0020F8B5124CC1
:1071B400124D264622782B789A4200D1F8BD2378C6
:1071C4000F48104A078812680F48DBB219B202EB65
:1071D400C10C006852F83120BCF8041003FB07000E
:1071E40090470A4A23781288DBB29A4286BF013359
:1071F400DBB200233370DDE76C2B00205C2B002016
:10720400682B0020642B0020602B00206A2B0020B8
:10721400094A537891780133DBB2994208BF0023BD
:10722400117899421FBF03705078182303FB002084
:1072340014BF043000207047702B0020082910B5BB
:10724400044602D00020FFF7E1FED4E90030BDE897
:107254001040184773B5054600240DF107000E468B
:107264008DF8074000F09AFA0DF10600FFF7D0FF01
:1072740090B10670094B9DF8062045605A709DF840
:10728400070000F0AFFA24B9054B4FF48012C3F89D
:107294000021204602B070BD0424F0E7702B0020CA
:1072A40000E100E0024B4FF43C6043F00103184757
:1072B4007009030038B50C4B0C4C4FF40032C3F882
:1072C400802001254FF48033C4F84833C4F80833D0
:1072D4006560FFF7E7FF064BA56000241C60FFF71D
:1072E400E1FF044B1C7038BD00E100E000100140D8
:1072F4008C2C00207D2C0020264B2DE9F3411B68AB
:1073040025490025C1F84051C1F84451C1F84851FC
:10731400C1F84C51C1F80051C1F80451002B34D0CC
:10732400D1F804451D49DFF888800968641A24F0FF
:107334007F442F461A68A24212D8A41A15441A7C14
:10734400DE6962B15A691F7400929B6901934246D7
:1073540008216846FFF7C4FE08B1FFF757FEBEB91F
:107364000F4A104B11781B788B4205D10133DBB2E5
:10737400022B08BF0023137012780B4B43F82250E2
:107384000A4B4FF48012C3F8002102B0BDE8F0812B
:107394003346CFE7902C0020001001408C2C0020B5
:1073A400892C0020882C0020802C002000E100E0A3
:1073B400417202002DE9F04FA14AA24913780978DD
:1073C400A14D994285B03CD00133DBB2022B08BFFA
:1073D400002313709D4912789D4B0F6853F82200C7
:1073E4003B1823F07F4300220B602B68164614469B
:1073F400944613B942B12B6006E0196881420ED954
:1074040002B12B60091A196001272B68DFF848A222
:1074140001934FF00008BEB9DFF844B266E0401AA9
:107424000C44D968C3F800C0D3F81CE031B13A1950
:1074340022F07F42C3E90121DE611E460122734628
:10744400D7E700263746E0E73446F6697F4A6368A3
:107454001268DFF810C2A068991A21F07F416145D3
:1074640000F2A68001442160012222742A680023CC
:10747400C4E90133E361002A40F0A3802C60CAE729
:107484005A1C9BF80210D2B291428BF8002004BF20
:1074940000228BF80020182202FB03B31A799C689F
:1074A400022A1CD0032A12D0012A1FD1207CE8B959
:1074B400D3E90312A2605A69E2609A69654BA2613A
:1074C4001B78002B0CBF0B4603466360BEE700220B
:1074D4002B681146002B67D142B12B6006E0296866
:1074E4000A468946002A5AD1002323749BF80030A7
:1074F4009BF801209A42C3D12B68B8F1000F04D144
:10750400019A9A4201D1002F43D0002B73D0D3F8B3
:1075140000A0514D4D4BD5F804751C68DFF8488127
:107524003E1B98F8003026F07F4603369BB94FF493
:107534008033C5F84433C5F80433484B4FF4003264
:107544004FF00109C3F880211A60C5F80090FFF7D5
:10755400A9FE88F80090B2452CBF5444A41924F025
:107564007F44C5F84045D5F80435DB1B23F07F4341
:10757400E41B033324F07F44A3420AD9D5F804352D
:10758400C5F84035FFF78EFE344B4FF40032C3F894
:107594000021304B00221A7005B0BDE8F08F9442F0
:1075A4002CD09146D2699DE719740122DB6991E7D9
:1075B400D31A23F07F43834234BFC31A00232360CA
:1075C40052E721681368994213D8591A1160E2618D
:1075D40054E7091AD8691A4638B10346186888422C
:1075E400F7D3401A1860184613462160E061DC6145
:1075F40011E71346F2E7FFF75DFECAE74C4511D1E8
:10760400CB692B6073B9DFF844E00120CDE90212A5
:10761400CAF80800CEF800300E4B1870FFF742FE8F
:10762400DDE902121368D269C9F81C2012B110688E
:10763400034413602B68994218BF4FF0010853E7C5
:10764400882C0020892C0020902C00208C2C0020D9
:10765400802C00207C2C00200010014000E100E080
:10766400702B0020FEFF7F007D2C002008B5FFF763
:1076740021FE104B00200B2218809A700E4B1860CC
:107684000E4B18700E4B18700E4B4FF48012C02125
:10769400C3F8802183F814131A6002F18042A2F522
:1076A4006F22C2F8080583F81113074BD2F804259A
:1076B4001A6008BD702B0020902C0020882C00201C
:1076C400892C002000E100E08C2C0020074B9B78E3
:1076D4004BB132B128B10368187C20B959745A618E
:1076E4007047072070470820704700BF702B0020A8
:1076F4002DE9F7431E4FBB7805460E469046A3B3CB
:1077040098B304292FD943697BB3437C0024012B0C
:107714000DF107000CBF8946A1468DF8074000F023
:107724003DF80DF10600FFF773FDD0B1012303709E
:10773400104B4560D3F80435C0E90498C0E902361B
:107744009DF806307B709DF8070000F04BF824B9D3
:10775400094B4FF48012C3F80021204603B0BDE862
:10776400F0830424EFE70724F7E70824F5E700BFD4
:10777400702B00200010014000E100E0064A9278DE
:107784003AB130B1426922B1002202740221FFF7FA
:1077940061BD0820704700BF702B002070B5EFF367
:1077A400108672B60C4A946801239CB993600B4B03
:1077B4000B4DD3F8801029401160C3F88050D3F8E2
:1077C400841051604FF0FF32C3F88420047006B96E
:1077D40062B670BD0370FAE7942C002000E100E06B
:1077E400FC06FFBD084B9A6810B55AB150B9EFF3C7
:1077F400108172B6054A1C6814605C685460986015
:1078040001B962B610BD00BF942C002000E100E075
:1078140070B5064D0646002455F8043B0BB13046BE
:1078240098470134042CF7D170BD00BFAC2C002064
:10783400033080B240F2FD33984230B51FD8124B6A
:107844001A783AB91C895D892C440444A4B2B4F56D
:10785400806F0AD31A7DA2B99A8BDC8B224402442E
:1078640092B2B2F5806F0CD201220A80144614221F
:1078740002FB04335A8910445881002030BD09208A
:10788400FCE70720FAE700BFE02C00200B4A0C4B72
:107894005188142000FB0131CB6833B904204968B6
:1078A40010700122074801F0C5BA05230649137078
:1078B40002238B80012200230968F3E7C42C0020F3
:1078C400E02C002018220020A82D002007B500235A
:1078D40005490093054A09680548082301F014FA8C
:1078E40003B05DF804FB00BFA82D00208409030049
:1078F4001822002007B50023009301460823034AF9
:10790400034801F001FA03B05DF804FB7C090300AD
:107914001822002013B500230C46009301460423CB
:10792400074A084801F0F0F938B9074B142202FB62
:1079340004340123237402B010BD0E20FBE700BF02
:107944007809030018220020E02C002037B50A48EB
:107954000A4B42689C8819685388032503330570D1
:107964009BB2002000909B0001EB8401044801F0CD
:10797400CBF903B030BD00BFC42C0020A82D0020DB
:107984001822002010B50146044800F043FE1C22D2
:107994000446002108F01DFE204610BD942D002051
:1079A40068B10268084B9A4209D14068074B984273
:1079B40007D0013398420CBF0120032070470320F5
:1079C40070470020704700BFDEC0ADDEFE011EF12F
:1079D4004388033300EB8303994209D382884FF62B
:1079E400FF739A4206D00088B0FA80F040097047CD
:1079F40002207047012070472DE9F8430223DFF885
:107A040060800B800D46174600F5805600F108048F
:107A14004FF00109B4420FD2236801330CD0314630
:107A24002046FFF7D5FF48B10FB187F80090022830
:107A34000BD14FF480632B80BDE8F883A368D8F89A
:107A44000020934201D9C8F800302B8862880333A0
:107A540013442B806388033304EB8304DAE700BF09
:107A6400D82C0020154A142303FB002070B50B68A2
:107A740044680D4604F58056ABB15C88033403EBCF
:107A84008404B4420DD2236801330AD0314620461F
:107A9400FFF79EFF01280BD010F0FF0F05D002283E
:107AA400EFD1002003E00834EBE72C60012070BD27
:107AB4006388033304EB8304E3E700BFE02C002076
:107AC400436873B504460D4663B3234AD1688B42B9
:107AD40028D31269934225D813F0030022D11F4AF8
:107AE4002189128991421DD121689A68914219D144
:107AF4001B4A51688B4203D901F580518B420DD347
:107B0400926993420CD902F58052934208D2012320
:107B14002B80B0FA80F0400902B070BD0346F7E74D
:107B24000A20F6E700232B801E46019601A9288827
:107B3400FFF798FF30B92B8801339BB2012B2B80C0
:107B4400F3D9E9E7019B226899689142EED1636019
:107B5400024B1B892381DFE718220020C42C00205C
:107B6400E02C00202DE9F8431C461C4B1B780646EC
:107B74000F4615466BB372B36CB3DFF868804FF0F1
:107B84001409A388012B01D90A2020E009FB03F37F
:107B940018F803302BB92146A088FFF763FF20B9FA
:107BA4002060A3880133A380EBE723681EB1998882
:107BB40032889142EFD11FB119883A889142EAD1B3
:107BC4009A68C5E90023064B1B892B810020BDE878
:107BD400F8830220FBE70520F9E700BFBC2C002056
:107BE400C42C0020E02C002008B5074B191D588830
:107BF400FFF738FF18B1BDE80840FFF7A7BEBDE89E
:107C04000840FFF743BE00BFC42C00202DE9F04F0D
:107C1400A04FDFF8A49289B00646B8463B6823B962
:107C240049469D4800F030FD3860D8F80050297866
:107C34004B1E052B00F2FA80DFE813F006005E000D
:107C44005E00EE00EE005C0126B1944B00225A6007
:107C54000124ECE02B79032B1DD8DFE803F0150297
:107C64002A358F490B78022B084619D00B7D022B3D
:107C74004FF0010316D114225343C2180020C854F4
:107C84005068FFF737FE03E001232B71FFF71EFE58
:107C9400002800F0BC80814B00225A600E24C6E00C
:107CA4000023E8E77D4A13700023536041F61D5416
:107CB400BDE07C497C48002302222B718A8001228A
:107CC400096801F0B7F8E3E7764C00262E712068C6
:107CD400734DFFF70FFE754BD4F800C05A88142378
:107CE4005343EA18EE5451682160A188C2F804C0D5
:107CF40011810222A280CBE7B5F814A0AA7DDFF897
:107D0400A0B1AEB1022AEB8806D9142101FB0AB155
:107D1400DA1C088902440A81142202FB0ABAC3F558
:107D24007F43BAF80A20FD331344AAF80A308FE7D8
:107D3400142303FB0AB318895C6804EB8004062A45
:107D440068D8DFE802F0274D35431D59040041F699
:107D54001D54AA7DEB88022A06D9142101FB0AB11D
:107D6400DA1C088902440A81142202FB0ABAC3F508
:107D74007F43BAF80A20FD331344AAF80A3056E0C8
:107D84004B484C4900234360AB690360FFF798FEFE
:107D9400002871D00223AB75002300930423EA1852
:107DA4002146414800F0B0FF002830D00E24D0E72F
:107DB4002B69002B14BF03230123AB75002300930D
:107DC40005F10C02042304F10801EAE70123AB7571
:107DD4000022EB8800929B002A6904F10C01E0E781
:107DE40003290CBF05230623AB750023009304234A
:107DF40005F10802E118D4E70623AB752D4B198869
:107E04002B4B5868FFF786FD04460028A1D109B022
:107E1400BDE8F08F0F249CE7002E7FF419AF2B7977
:107E2400012B4BD0E3B1022B3FF440AF0F241422BB
:107E3400002103A808F0CDFB41F61D539C4208BF66
:107E44000024D8F8003004941A78023A042A00F284
:107E54000581DFE812F0E600F20015011D0124019E
:107E640002232B710DF10A01EB68039303A8CDE9FA
:107E74000466FFF725FE08B90A24D8E70498BDF87C
:107E84000A108388EB8003882B81FFF743FD0446A7
:107E940027E000BFDC2C0020942D0020BC2C002007
:107EA400E02C0020A82D002018220020C42C002043
:107EB400A02C0020B42D0020D42C0020DFF8FCA13D
:107EC40003AA53463146A81DFFF74CFE044658B991
:107ED400BAF804100498FFF71DFD04460A2C3FF479
:107EE400E5AE002CA3D192E708223146504608F0B3
:107EF40070FBF3E7002E7FF4ABAE6B4B1A7BAAB199
:107F04001E731A78013A062A90D801A151F822F07A
:107F1400BB7F0200E17F0200FF7F020005800200B8
:107F2400317E02000B8002001D8002001A78072AAD
:107F3400E7D801A151F822F05D7F0200077F02001B
:107F4400077F0200837F0200977F0200B77F020051
:107F5400B77F02007F7F02001A89544901321A81D7
:107F640000225A801A730A78B2FA82F252099A727B
:107F74000A7DB2FA82F25209DA72012207E04C4910
:107F840058688A884088033202448A8002221A7020
:107F9400B7E7464C5A884649142505FB024208684F
:107FA400546850608888108102228A800C600622FE
:107FB400EDE70722EBE79A7A32B9DA7A8AB9002236
:107FC4001A705A805A6071E6384900229A72CA6857
:107FD400002AF2D1097C0029EFD05A80FFF704FE71
:107FE40055E70022DA72314A116A0029E7D192F882
:107FF4002420002AE3D00122EFE7FFF7A7FC46E79D
:10800400FFF744FC43E7294A5B88142101FB03235F
:108014005868FFF76FFC3AE700225A60FFF756FCF6
:1080240035E701228DF80C201A89ADF818209A88BA
:10803400DB68ADF81A20059310E002228DF80C20BD
:108044001A89ADF818209A88ADF81A20DA689B7D51
:1080540005929A1F534253418DF81C3003A8FFF731
:10806400D7FB002649461348C8F8006000F037FBE8
:108074000121114800F0E6FB00287FF4CFADC6E6ED
:1080840003228DF80C20DA88ADF818201A89CFE77E
:108094000422DB888DF80C20ADF81830DEE70523C8
:1080A4008DF80C30DAE700BFC42C0020E02C00204F
:1080B400A82D0020942D0020A42D0020B82D0020F0
:1080C4004068FFF7A3BD000008B50121044800F093
:1080D400A3FB18B9BDE80840FFF798BD08BD00BF71
:1080E400A42D00202DE9F3419846354B1B78064614
:1080F4000D46002B5BD000295BD009884FF6FF7337
:10810400994258D06B88002B55D06B689B0754D18B
:108114004AB92F890DF102013846FFF789FB30B1C6
:1081240002B0BDE8F08113885788ADF8023001A889
:10813400FFF728FC044658B9BDF80230214A14213F
:1081440001FB032358890338C01B58810820E7E743
:1081540000238375BDF8023083826B68036180F865
:1081640000800121184800F062FB2B882381B8F1BC
:10817400030F6B88A38004BF0423A3754FF000058D
:1081840008BF3368E06008BFA361E780658101A987
:108194000E4800F069FA36B1E36833600C4B756041
:1081A4001B89B5723381FFF78FFF0020B8E70220E7
:1081B400B6E70520B4E70420B2E70320B0E700BF28
:1081C400BC2C0020E02C0020D82C0020942D002072
:1081D400C42C002008B5084B1A68042A09D0196871
:1081E400064A42F821000121184600F020FB002035
:1081F40008BD0C20FCE700BFB02D0020AC2C0020F3
:108204002DE9F04F14228BB000210DEB020008F091
:10821400E0F9764A137803F0FF01CDE901123BB18E
:1082240005A8FFF7F5FA002738460BB0BDE8F08F34
:10823400029B181D00F011FB0028F4D140F6F873DE
:108244004FF080521B685C1C08BF694B694C08BF27
:108254001B6811695269581C08BF02FB01F32361B2
:108264000022A3F540536449E360204600F018FD62
:10827400039407460028D7D11C238C225F49604809
:10828400DFF88891DFF8888100F08FF9BA463D461F
:108294004FF0030B3C46039BDE68564430463146A0
:1082A400FFF77EFB01284DD042B2002A36D00328C6
:1082B40022D106F580520868013040F08A800431EA
:1082C4009142F8D1D9F800203AB902220123C9F821
:1082D4000060A9F8042001930CE0142262430220F8
:1082E40008EB020108F80200464A4E60548001344B
:1082F4000881A4B245F001050AF5805ABAF5405F39
:10830400C9D1BBF1010F98BF0025EDB2022D03D0F6
:10831400062D35D0002D3CD10B2785E71421614370
:1083240008EB010008F8012001F110020831466051
:10833400424441443046FFF75FFB45F002050134F7
:10834400A4B2D9E7019B63B11422624308EB020192
:10835400022008F802000134D9F800204A6008819C
:10836400A4B200222849C9F800603046FFF744FB54
:10837400B9F80420022A0CBF042208221543BBE7E3
:10838400029A0123137005A800235360FFF740FAF3
:108394004AE704A8FFF7F6FAC8B10123013D0370C8
:1083A4000A2D09D8DFE805F00608060807080708BB
:1083B4000F110F000023037104A9114800F054F9B0
:1083C400FFF782FE30E70323F5E70223F3E70827EC
:1083D4002AE70BF1FF321FFA82FB1422624308EBF7
:1083E40002014E60032108F80210A8E7BC2C00200B
:1083F4001410001018220020780B0300082D002010
:10840400942D0020C42C0020AC2D0020A82D002089
:10841400E02C002073B50D460446C8B1C1B10DF17E
:108424000601FFF74DFBA8B10B4BBDF806006668CB
:10843400142202FB003001210C3000F0F8F96368CB
:108444002E600C336B600123A372002002B070BD58
:108454000520FBE70A20F9E7E02C002013B50446C9
:10846400A8B10DF10601FFF72BFB90B10B4ABDF843
:108474000630142101FB0323DA6862B1A27A52B1F7
:10848400DA680020013ADA60A07202B010BD05205B
:10849400FBE70A20F9E70620F7E700BFE02C0020FD
:1084A40002230022FFF71EBE18B103230022FFF7A8
:1084B40019BE052070470000104B1B7813B5044605
:1084C400ABB14FF6FF73984213D001A8FFF75AFAE5
:1084D40088B10523037001230371C48001A90848EE
:1084E40000F0C2F8FFF7F0FD002002B010BD02203A
:1084F400FBE70420F9E70820F7E700BFBC2C0020C5
:10850400942D00200E4B1B7807B5A3B101A8FFF7EB
:1085140039FA90B10623037001A90A4800F0A4F8BF
:10852400094B1A780AB101221A73FFF7CDFD002016
:1085340003B05DF804FB0220FAE70820F8E700BF67
:10854400BC2C0020942D0020C42C002007B5ADF8CD
:108554000600ADF804100DF1060001A9FFF702FBB7
:1085640003B05DF804FB07B51346ADF806000A46F0
:1085740000200DF10601FFF7F5FA03B05DF804FBE6
:1085840007B51346ADF806000A460DF106000021B2
:10859400FFF7E8FA03B05DF804FB20B119B10368F2
:1085A4000B60002070470520704710B561B1B2FB25
:1085B400F3F403FB1424A4B244B9C0E900148460A6
:1085C4008281C381204610BD0E20FCE70920FAE712
:1085D40082B050E8022FC188B2EB324F4FF0000353
:1085E40017BF92B241EA014142EA014104E0426804
:1085F400B2EB324F08BF012340E80212002AE8D14F
:108604008DF807309DF80730002B0CBF1120002097
:1086140002B0704737B550E8013F9DB2C489254484
:108624008489A54228BF2D1B0489A54202BFBFF33C
:108634002F8F002207E0C5EA030540E80154002C0F
:10864400E9D14FF001028DF803200193019B9DF8BD
:1086540003200B6002F0FF0322B10B88006818446A
:1086640003B030BD1846FBE70A884B889A4209D10B
:1086740050E8012FC2EA024240E80123002BF7D15F
:10868400012070470020704737B550E8023F1FFAB9
:10869400A3F5C488A54202BFBFF32F8F00220DE0CB
:1086A400C48925448489A54228BF2D1BC3EA0545F6
:1086B40040E80254002CE8D14FF001028DF8032069
:1086C4000193019B9DF803200B6002F0FF0322B18C
:1086D4004B880068184403B030BD1846FBE70A888D
:1086E4004B889A4209D150E8022FC2EA224240E85C
:1086F4000223002BF7D1012070470020704701F0BE
:108704001F024B090121914000EB830000F063B884
:108714004B0910B501F01F040121A14000EB8300B7
:1087240000F04EF8E04000F0010010BD01F01F031E
:1087340001229A404B0900EB8300D14300F061B859
:108744004B0901F01F0150F82300C84000F001005C
:1087540070472DE9F0474E1E760980460F460136D4
:10876400002558F8254008EB8509E44394FAA4F45D
:10877400B4FA84F44FEA451A202C06D10135AE42EE
:10878400EFD83C462046BDE8F0875444A742F5D9CB
:1087940021464046FFF7BCFF0028F3D0D9F800403B
:1087A400E44394FAA4F4B4FA84F4E5E750E8002F1F
:1087B4000B4640E8003C9CF0000FF7D11046704790
:1087C40050E8002F42EA010340E8003C9CF0000F0F
:1087D400F6D11046704750E8003F43EA010240E8F2
:1087E400002C9CF0000FF6D11046704750E8002F83
:1087F40002EA010340E8003C9CF0000FF6D1104669
:10880400704750E8003F03EA010240E8002C9CF066
:10881400000FF6D11046704750E8002F02EB010319
:1088240040E8003C9CF0000FF6D11046704750E839
:10883400003F03EB010240E8002C9CF0000FF6D14E
:108844001046704750E8003FA3EB010240E8002CBB
:108854009CF0000FF6D1104670470121FFF7B0BF1E
:108864000121FFF7B8BF0021FFF7C0BF10B590B1D9
:10887400D0E9012301689B1ADBB20A60013BDBB239
:10888400FF2B026802D10020107110BD11684C1C2E
:1088940014600B70F2E70E20F7E737B505460024A5
:1088A4000DF107008DF80740FEF778FF2A686B6822
:1088B400116899420ED9481E106011F8014CEB68FA
:1088C400298A01FB0434AB6811791B1ADBB2994283
:1088D40038BF13719DF80700FEF784FF204603B0EC
:1088E40030BD37B5054600230DF107000C468DF861
:1088F4000730FEF753FF2A681368591C1160E968B2
:10890400641A298AB4FBF1F41C709DF80700FEF781
:1089140069FF03B030BD826810B504462AB14369CB
:108924000168006998470023A36010BD0EB403B525
:10893400039921B104AB01AA019300F075F802B0C8
:108944005DF804EB03B070470A2938B504460D46B8
:1089540002D10D21FFF7F8FFA3682268591CA1601A
:10896400D554D4E901329A4204D32046BDE83840B4
:10897400FFF7D1BF38BD00002DE9F84F9946DDE976
:108984000A431746824688460A460126BA420FD24F
:108994004E4538BF4E4613F0010B01D164B9002493
:1089A4000125B9F1010F1AD909F1FF397D43F8E71F
:1089B400B2FBF7F20136E9E79B070ED5B9F1000FD8
:1089C4000CBF30252025A642EAD2013C2946504658
:1089D400FFF7BAFF002CF6D1E1E72025F3E7B8FB57
:1089E400F5F39F42E2D9DFF83C90B8FBF5F350462B
:1089F40019F8031005FB1388FFF7A6FFB5FBF7F37F
:108A0400BD4207D2BBF1000F02D00CB1A64203D382
:108A1400BDE8F88F1D46E8E720215046013CFFF7EA
:108A240093FFF2E78C0903002DE9F74F054617463B
:108A34008846002900F0308118F8011B49B92B7BC6
:108A4400002B00F02981284603B0BDE8F04FFFF762
:108A540062BF252940F0C080002698F800302D2BF5
:108A6400424608F1010823D0302B24D02B2B25D0EB
:108A740000242A2B02F1010123D13B681A1D1B6833
:108A84003A601C440A4613782E2B26D101324FF04B
:108A94000009104610F8011BA1F1300CBCF1090FBC
:108AA4001DD80A2303FB0913A3F130090246F0E79A
:108AB40046F00106D1E746F00206CEE746F004068A
:108AC400CBE711F8013CA3F130000928DBD80A22D6
:108AD40002FB0434303C0A46CBE74FF0000912F89D
:108AE400011B01F0FB0068289046F8D069290ED0DC
:108AF4004AD8582964D006D825296DD098F8003072
:108B0400002B99D19BE7632962D06429F6D13A6896
:108B1400D2F800A0111D8AEAEA723960A2EBEA7267
:108B24004FF0010B092A5BDCCB4538BFCB462CB197
:108B3400BAF1000F01DB720700D5013CB30702D57F
:108B4400B9F1000F04D0F00702D4002C4ED1002458
:108B5400BAF1000F52DACAF1000A2D212846FFF7B4
:108B6400F3FE06F00302022A05D1B9F1000F02D187
:108B7400002C47D10024CDE900464B460A22514639
:108B84002846FFF7F9FEB9E773294CD014D87029A9
:108B9400B4D13B681A1D3A60302128461C68FFF79F
:108BA400D3FE78212846FFF7CFFE00220823CDE923
:108BB400003221461022E3E775292BD078299DD174
:108BC40039680A1D3A60CDE900464B46102228E078
:108BD4003B681A1D19783A602846FFF7B5FE8DE701
:108BE4000A230BF1010BB2FBF3F29BE7A345AFD2CF
:108BF40020212846013CFFF7A7FEA6E77107B0D560
:108C04002B21ABE7A345B6D230212846013CFFF720
:108C14009BFEADE73968CDE900460A1D3A604B4634
:108C24000A220968ACE73B681A1D3A6016F001068F
:108C3400D3F800A020D1BAF1000F03D0504607F0BA
:108C4400FBFC0646B44200D9C4B90AF1FF3A1EE05F
:108C540028460136FFF778FE1AF806100029F7D1E6
:108C6400A642BFF44BAF002C3FF448AF2021284666
:108C7400013CFFF769FEF3E70026EDE720212846D3
:108C8400013CFFF761FEDDE72846FFF75DFE1AF8B9
:108C9400011F0029F8D131E703B0BDE8F08F0000CF
:108CA40007B50B4688B9124B1248134AC01A0E2353
:108CB400C0080093114B0004114940F00100FDF776
:108CC40006FF0E2003B05DF804FB4BB9084B0948BE
:108CD4000C4AC01AC0080E2300930004074BEBE7AC
:108CE40003601B68114603B05DF804EB184700BF2E
:108CF4004007030090070300490A03009C0903008E
:108D04004E0A0300C50A03002DE9F34188B93D4B1F
:108D14003D483E4AC01AC0080E243D4B009400044E
:108D24003C4940F00100FDF7D2FE204602B0BDE808
:108D3400F0814AB9334B3448374AC01AC0080E246C
:108D440000040094324BEBE7D0F800C0BCF1000FF4
:108D540009D12C4B2C48314AC01AC00808240004FD
:108D640000942B4BDCE74BB9264B27482C4AC01AFE
:108D7400C008092400040094254BD1E74768D7F8BC
:108D84000480B3FBF8F708FB17374FB11D4B1E489F
:108D9400244AC01AC0080924000400941C4BBFE7ED
:108DA4008F0709D0174B18481F4AC01AC00810244F
:108DB40000040094164BB3E712F0030F09D0114BD3
:108DC40011481A4AC01AC008102400040094104B19
:108DD400A6E7C768B9420BD34C1E05691C44AC42D4
:108DE40006D8DCF80C40A44602B0BDE8F041604768
:108DF400044B05480E4AC01AC0081024000400940D
:108E0400034B8DE74007030090070300490A030062
:108E1400AE0903004E0A0300CB0A0300BF0A030095
:108E24007E0A0300D10A0300FB0A0300130B0300AC
:108E3400360B0300F7B580B92A4B2B482B4AC01ACE
:108E4400C0080E242A4B009400042A4940F0010073
:108E5400FDF73DFE204603B0F0BDD0F800C0BCF1E4
:108E6400000F09D11F4B2048234AC01AC008082408
:108E7400000400941E4BE8E74AB91A4B1A481F4AEB
:108E8400C01AC008092400040094194BDDE74768A0
:108E9400D7F800E00EF1FF370F4209D0114B12480A
:108EA400174AC01AC008102400040094104BCCE7E1
:108EB400C768B9420CD34C1E05690EFB0244AC4290
:108EC40006D8DCF81040A44603B0BDE8F040604783
:108ED400044B05480B4AC01AC0081024000400942F
:108EE400034BB2E74007030090070300490A03005D
:108EF400C10903004E0A0300BF0A03007E0A0300EF
:108F0400D4090300FA09030029DF704728DF7047FA
:108F140070B503689D6886B004460E466DB1142290
:108F24000021684607F055FBA36805932379019651
:108F34002BB1012B0DD06846A84706B070BD0123A4
:108F44008DF8003023690293E36803936369049303
:108F5400F1E702238DF80030E3681B030293F5E781
:108F64000846704700207047024B187A003018BF3B
:108F7400012070475C2E0020034B187A0122B0FABE
:108F840080F05A74400970475C2E002008B51046E2
:108F94001A4607F0F5FA002008BD000008B51422AF
:108FA4000021044807F015FB0348FFF711FB0020DC
:108FB40008BD00BF5C2E00204C2E002010B5094CCB
:108FC400094B43602046FFF748FC40B907F072F8AC
:108FD4001C2320748C2205490548FFF7E6FA00207B
:108FE40010BD00BF5C2E00206C0B0300C02D0020C0
:108FF4004C2E002070B5244C244E237A25463BB9D0
:1090040023492448FFF740FB306008B9606070BD15
:10901400346802232B72237973B1012B24D02046A8
:109024000321FFF775FF00232B726B601849194861
:10903400BDE87040FFF753BBD4E90523D21AB2F55B
:10904400805F28BF4FF48052D4E903109208012AAC
:1090540038BF012219441844FFF756FF50B11128B4
:10906400DDD101232B72D2E7D4E903031844FFF7BF
:109074004DFFF3E72B7C002BC9D10146BDE87040BE
:10908400022000F009B800BF5C2E0020742E0020DE
:10909400702E00204C2E002038B5831E012B45D89D
:1090A400234C237A002B41D0022B09D1032830D042
:1090B400204B1B680022E2601A793AB1012A22D0BF
:1090C400637C7BBBBDE83840FFF794BFD3E905124E
:1090D4008D1AB5F5805F94BF521902F580529A61DA
:1090E4009142EDD102284FF0000308BF19462372C4
:1090F400104B18BF0D211868FFF70AFF0E490F48DF
:10910400FFF7EDFADCE71A6901321A615B699A42EA
:10911400E7E7E3680133082B01D8E360D0E70023D5
:10912400E360DFE7BDE8384006F0B4BF38BD00BFF8
:109134005C2E0020742E0020702E00204C2E002067
:1091440000F0FD03012B08D1044B00225A74421E87
:10915400504250411874FFF74DBF70475C2E0020F9
:1091640010B5064C201DFFF778FB28B9637C1BB9AA
:10917400BDE81040FFF73EBF10BD00BF5C2E0020CD
:109184002DE9F34180460D460F4801A916461F46B6
:10919400FFF740FA0446A8B11C22002107F019FA8F
:1091A4002D0B0123237101A9C4F80080A760E56099
:1091B40066610548FFF758FAFFF7D2FF002002B0B6
:1091C400BDE8F0810420FAE74C2E00202DE9F74396
:1091D40081468846104801A917461E46FFF71AFA29
:1091E4000446B0B11C22002107F0F3F900250A9BC4
:1091F400A36001A92571C4F80090C4E903786661ED
:109204000548FFF731FAFFF7ABFF284603B0BDE886
:10921400F0830420FAE700BF4C2E00202DE9F0472C
:10922400B0F806904479D2F800A09DF8208009FB9C
:1092340004F4043C06460AEB0300A0420F4688BF30
:10924400A4EB030A191DC2F800A0B1FBF9F509FB50
:1092540015114DB9A9EB0104544528BF5446BAF180
:10926400000F04D1BDE8F0873668013DF1E7043111
:109274007B1970182246B8F1000F0ED0014618462B
:10928400AAEB040A07F07CF9D145254436684C461C
:109294004FF0000128BF5446E1E71946F0E7FFF715
:1092A400E5BAF8B546790146721E05460023934295
:1092B4002D6803D30024A64202D8F8BD0133F6E793
:1092C4000F682846FFF70DFB01343946F3E72DE913
:1092D400F843068ACD1C0746FFF7DFFA043E3544FF
:1092E4000446B5FBF6F5F0B14FF48073EDB283801C
:1092F400C680013D076081464FF00008A84512D2A0
:109304003846FFF7CAFA064648B1637901336371F8
:1093140008F10108C9F8000007608146EEE720461D
:10932400FFF7BFFF34462046BDE8F883012104302F
:10933400FFF77DBA10B5012104460430FFF782FA25
:1093440010F0FF0F04D12046BDE81040FFF7A9BF7D
:1093540010BD1FB503920022009203AAFFF75EFF1F
:1093640005B05DF804FB1FB503920122009203AA25
:10937400FFF754FF05B05DF804FB41DF70470000C0
:10938400064B10B500241C70054B1C60BFF35F8FA7
:109394000449054800F039F8204610BD802E00200D
:1093A400842E0020980B0300782E002007B500239C
:1093B4000DF107008DF80730FEF7F0F9F1EE103AE1
:1093C40023F09F03E1EE103ABFF35F8F094B402275
:1093D400C3F884219DF80700FEF704FA06F06AFE3C
:1093E40020B1FFF7CAFF03B05DF804FB20BF40BF04
:1093F40020BFF8E700E100E0836800225A609A6029
:10940400C3E90422DA601A6070470B684A68436053
:10941400934208BF0023016008BF4360704743685C
:1094240043B10268916852680B449342436004BF9D
:10943400002343607047000010B50D49A1F59472F4
:10944400914201D800200FE08B1ADB1003EBD37399
:109454005B1002EBC30452F83330834205D802D2C6
:1094640004F10802ECE7606810BD2146E8E700BF9C
:10947400E80C030008B5FFF7DFFF024B002808BF24
:10948400184608BDAD0B03000C4B1B78062B10D1FE
:109494000B4B1B681A070CD10A4B186800F0F00339
:1094A400302B08D000F0E000A0F1400358425841AE
:1094B4007047002070470120704700BFE00F00F0A4
:1094C400E40F00F0E80F00F0094B1B78062B0CD1D9
:1094D400084B1B681A0708D1074B186800F0F00006
:1094E400A0F130035842584170470020704700BF34
:1094F400E00F00F0E40F00F0E80F00F008B5FFF70C
:10950400C3FF28B17D4B7E4A1B68C3F30423136059
:10951400FFF7DAFF10B17B4B7B4A1A60FFF7B4FF09
:1095240028B17A4B7A4A1B68C3F342331360FFF7BE
:10953400CBFF20B1774AD36823F08073D360FFF761
:10954400A3FF40B14FF080430022C3F80C21C3F8BD
:109554001021C3F83825FFF7B7FF10B16E4B032273
:109564001A60FFF7B1FF40B16C4B05221A6001226B
:109574009A6700229A603F225A60694B1B78062B37
:1095840050D1684B1B6819074CD1674B1B6803F01B
:10959400F003502B46D14FF08052644BD2F80414A0
:1095A400C3F82015D2F80814C3F82415D2F80C1403
:1095B400C3F82815D2F81014C3F82C15D2F81414D3
:1095C400C3F83015D2F81814C3F83415D2F81C14A3
:1095D400C3F84015D2F82014C3F84415D2F8241463
:1095E400C3F84815D2F82814C3F84C15D2F82C1433
:1095F400C3F85015D2F83014C3F85415D2F8341403
:10960400C3F86015D2F83814C3F86415D2F83C14C2
:10961400C3F86815D2F84014C3F86C15D2F8442482
:10962400C3F87025FFF730FF28B1414B414A1B684E
:1096340003F04F031360FFF727FF48B14FF0804357
:10964400D3F80024D20744BF6FF00102C3F800240A
:10965400394B1B68062B08D1384B1B68062B01BFFE
:10966400374A136843F480631360364AD2F888306B
:1096740043F47003C2F88830BFF34F8FBFF36F8F8A
:109684004FF01023D3F80022002A03DBD3F804326E
:10969400002B2FDA2C4B0122C3F80425D3F8002425
:1096A400002AFBD04FF010221521C2F80012D3F883
:1096B4000024002AFBD04FF010231522C3F8042203
:1096C400214B1A46D3F800140029FBD00021C3F81B
:1096D4000415D2F80034002BFBD0BFF34F8F194987
:1096E4001A4BCA6802F4E0621343CB60BFF34F8F96
:1096F40000BFFDE7164B174A1A6008BD240300108B
:109704004035014074C007400DF0ADBA440200106A
:109714003C050040F0ED00E0A0050040105600407C
:10972400E00F00F0E40F00F0E80F00F000C000408C
:1097340058020010E40E0040300100103401001003
:109744003C17004000ED00E000E001400400FA0591
:10975400482200200090D003054A4FF0A043105C3B
:10976400D3F8043523FA00F0C04300F00100704739
:10977400A6100300044B1A5C012393404FF0A0424F
:10978400C2F80C35704700BFA6100300044B1A5CE6
:10979400012393404FF0A042C2F80835704700BF40
:1097A400A610030008B50020FFF7F0FF0120FFF723
:1097B400EDFF0220FFF7EAFF0320BDE80840FFF7B2
:1097C400E5BF08B50020FFF7D5FF0120FFF7D2FF62
:1097D4000220FFF7CFFF0320BDE80840FFF7CABF10
:1097E400074A4FF0A041105CD1F8043501228240B1
:1097F40022EA03001340C1F80805C1F80C3570478C
:10980400A6100300054A4FF0A043105CD3F81035AE
:1098140023FA00F0C04300F001007047A2100300D7
:109824000D2809D00E2809D00F2809D010280CBF04
:1098340003204FF0FF30704700207047012070472D
:1098440002207047014B185C704700BFA210030050
:10985400C20708B501460CD54FF0A0430322C3F854
:109864004427C3F84827C3F84C27C3F85027FFF709
:1098740099FF8B070AD54FF0A0430C22C3F8342775
:10988400C3F83827C3F83C27C3F8402708BD0000B5
:1098940038B5074C051E04F1080318BF1C4623689D
:1098A4002BB11A6822605B6828469847F7E738BDF1
:1098B400902E002020B9054B01225A70FFF7E8BF13
:1098C400012802D1014A9070F8E77047882E0020E1
:1098D40020B9034B01225A70FFF7DABF704700BF6B
:1098E400882E002038B50B4C237883B90A4863606E
:1098F400A3602361E36000F0C7F8054606F0DAFBD5
:1099040008B900F0CDF801232370284638BD852519
:10991400FBE700BF882E0020B998020037B50B4C36
:1099240000230DF107008DF80730FDF737FFE368DA
:10993400013BE360E56815B900F0C4F8A5709DF833
:109944000700FDF74FFF03B030BD00BF882E002095
:10995400012813B509D018B103281CD002B010BDDA
:109964000F4B0122C3F88020F8E70E4C00230DF1C1
:1099740007008DF80730FDF711FF23780BB9FFF7C7
:10998400B1FFE3689DF807000133E3600123A3708E
:10999400FDF728FFE2E700F083F8FFF7BFFFDDE7FC
:1099A40000E100E0882E00201FB503788DF8003018
:1099B4004368019383688DF80830C3680393054AAC
:1099C400054B684653F8213052F82110984705B0EA
:1099D4005DF804FB9C2E0020A02E00201FB5037808
:1099E4008DF800304368019383688DF80830C368AC
:1099F4000393054A054B684653F8213052F8211069
:109A0400984705B05DF804FB9C2E0020A02E002092
:109A1400F0B5184B077891F81DE043F82720164B52
:109A240016460A6943F82720144B03F807E00C464E
:109A340084460FCC89B06D460FC594E80F0085E8C5
:109A44000F000497BEF1000F0AD0002E0C4A69469D
:109A540008BF32460CF1040000F064FD09B0F0BD0B
:109A6400002E084A694608BF32460CF10C0000F08B
:109A740067FBF3E7A02E00209C2E0020A42E0020DC
:109A8400AD990200E1990200044A137923B9012136
:109A9400106091801846704785207047A82E0020DA
:109AA400074B1A68D2075FBFC02283F80023012244
:109AB4001A604FF080430122C3F81825704700BF95
:109AC40000E100E0044B01221A604FF08042D2F81A
:109AD4001834DB03FBD470470C000040154B07B56A
:109AE4001A687AB100221A601B680093009B4FF039
:109AF40080430122C3F808230F4B587910B95A71D7
:109B04001B6898470D4B1A6882B100221A601B68C3
:109B14000193019B4FF080430222C3F80823064BB4
:109B24001B68012003B05DF804EB184703B05DF82F
:109B340004FB00BF00010040A82E002004010040E7
:109B440000F1804000F5C040002382B00360036848
:109B54000193019B02B07047800000F1A040D0F84F
:109B6400003723F44033C0F80037D0F8003743EA15
:109B74000141C0F800177047054B4FF0FF3207282A
:109B840043F8202084BF1B1883F84820704700BF87
:109B9400B02E002010B5174C94F8583043BB04F194
:109BA40030032021FF22013911F0FF0103F8012BBA
:109BB400F9D1C8B2FFF7E0FF01310C29F9D1042231
:109BC40000210D4806F005FD0C4BC02283F8062346
:109BD40040221A604FF4BE70FFF7B2FF084B4FF0FB
:109BE4000042C3F80423012384F85830002010BD38
:109BF4000820FCE7B02E0020042F002000E100E044
:109C040000600040034B93F85800003018BF012057
:109C1400704700BFB02E0020F0B5374B1C1894F9E4
:109C24003040002C1C4664DA8D78C5F34005002DC5
:109C34000BBF082300230C260826B34201D10420BD
:109C4400F0BD54F8237001373FD1261844F823207F
:109C540086F8303015B9E21882F848008A7855073A
:109C640013D4D60733D5820002F1A042D2F80057AC
:109C740025F00205C2F80057204EC50800F007077A
:109C84000122BA40775D3A4372558A780D7812F012
:109C9400020225D09B0003F1804303F5C043020276
:109CA400D3F8101521F4473121F44071C3F810158D
:109CB4002D04D3F8101502F4F85205F440352A4364
:109CC4000A43C3F810250020BAE70133B5E74D78FD
:109CD40000F5E0724FF0A046AD0046F82250CBE705
:109CE400083B234493F8501041EA851583F85050FB
:109CF400E9E70820A4E700BFB02E0020042F0020CD
:109D040038B51F4C251895F93020072A17DD224451
:109D140092F84810890903290CD14FF0A043D3F8D5
:109D24001035C34013F0010F08BF0221BDE83840CD
:109D3400FFF712BF012914BF03210221F6E7D3B2B2
:109D4400072B1CD8930003F1804303F5C043D3F8D9
:109D5400100540F00100C3F8100502F14000800036
:109D640080B2FFF7EDFE51B195F9303054F823304D
:109D74002BB1012303FA02F2024BC3F8042338BDCA
:109D8400B02E0020006000404FF0A043D3F81035FF
:109D940023FA00F000F00100704700002DE9F04FB5
:109DA40085B000245A4D01944FF48072012102F1D0
:109DB400804303F5C04390B21B68012B06D1D5F84C
:109DC40004330B4202D0FFF7BBFE0C430432B2F55E
:109DD400907F4FEA4101EAD14E4B1B68012B0AD117
:109DE4004FF4BE70FFF7ACFE4FF0A04344F00044C4
:109DF400D3F81035019314F0FF0F1AD0464F002505
:109E04000126344210D0AB0003F1804303F5C04374
:109E1400D3F81005D3F8101557F8253023B1C1F342
:109E24000141C0F3042098470135082D4FEA460646
:109E3400E7D1002C64DA00224FF0FF33CDE902238E
:109E4400354D01274FF0000A344E54464FF0A048D8
:109E540016F9012B531C46D0D2B222F0C0094FEAA6
:109E6400D90104A8084402F0070310F804CC07FA47
:109E740003F31CEA030F36D005EB090C92099CF995
:109E840030C055F82CB0BBF1000F0AD1032A2AD1F7
:109E94000DF1080E1EF801C04CEA030C0EF801C0C7
:109EA40001E0032AF4D009F5E07110F80C0C58F81D
:109EB40021101842C1F3014105D0022913D1032A0C
:109EC4000BD1114604E003290DD1032A05D1022147
:109ED4004846FFF741FE0134E4B2BBF1000F02D063
:109EE40011464846D8470AF1010ABAF1040FAFD126
:109EF40034B14FF0A043019AD3F81035934202D104
:109F040005B0BDE8F08F0193029B03939AE700BF6D
:109F1400006000407C610040B02E0020002F002033
:109F2400014B1B68184700BF0C2F00200E4B9842B2
:109F340037B50D4602D0002003B030BD00230DF12B
:109F440007008DF80730FDF729FC084B1C7914B97C
:109F540001221D601A719DF80700FDF743FC002CD7
:109F6400E9D01120E8E700BF002000400C2F0020BA
:109F7400034B984201BF034B00221A601A717047C9
:109F8400002000400C2F00200023435082B043588F
:109F94000193019B02B070470A4610B54FF48E71CD
:109FA400FFF7F2FF136A9168C95C136A0133136205
:109FB400C0F81C1510BD8B690A4610B54FF48471A6
:109FC40023B9FFF7E1FFD0F8183510BDFFF7DCFF28
:109FD400536AD168D0F81805C854536A01335362E0
:109FE400F3E700001FB501238DF80030044BCDE9E1
:109FF4000110D3E900126846904705B05DF804FBF0
:10A00400142F002030B54C4AD2F8043313F4007FE7
:10A0140085B015464FD0D2F82431002B4BD04FF4E5
:10A0240092711046FFF7B0FF4FF40173C2F8083382
:10A03400424B93F8291009B9012151603E4902228B
:10A044008DF80020D1F88024C1F8802403929A6905
:10A054000292DA6801920022C3E906226846D3E933
:10A06400001290473448D0F81C315BB133490A6A76
:10A074004B699A420A464BD291F82830002B47D1BB
:10A08400FFF78AFF2C4AD2F8443193B14FF4A271FE
:10A094001046FFF779FF294B93F8291009B10121E4
:10A0A40011609A692AB100229A61586AD968FFF747
:10A0B40099FF05B030BDD5F804335B07D2D5D5F888
:10A0C4000831002BCED01D4C1B482146FFF773FFEF
:10A0D400636AA2699A422346C4D1E269E1684AB13B
:10A0E4002369E3600023606AA261E3616362FFF7AE
:10A0F40079FFB7E794F829200AB901226A600E4A69
:10A104004FF40170C2F8080300229A61586AEEE71E
:10A114004FF48E710848FFF737FF51690029B1D019
:10A124000023029191688DF80030019153616846D3
:10A13400D2E900139847A5E700200040142F00201F
:10A144002DE9F843564F047991462C2202FB047200
:10A15400064692F82A200D46002A40F09A8051497A
:10A164000068FFF7E3FE8046002840F095802968E8
:10A174003368481C0BD04FF0A04001228A40C0F83D
:10A18400082501F5E0724FF0030C40F822C068681E
:10A19400421C1FBF00F5E0724FF0A04C4FF0000EC0
:10A1A4004CF822E0AA6995F814C0C3F824256A7D06
:10A1B400BCF1010F4CEA0202C3F86C25C3F8140584
:10A1C400C3F80C151DD1AA68511C1FBF02F5E0711C
:10A1D4004FF0A0404FF0000C40F821C0E968481C43
:10A1E4000BD04FF0A04C01208840CCF8080501F5B5
:10A1F400E0704FF0030E4CF820E0C3F80815C3F8E4
:10A2040010252C236343FA18C2F804902A69FA50E3
:10A21400B9F1000F2AD04FF48E7130682D7FFFF70B
:10A22400B3FE30684FF4A271FFF7AEFE32681E4BE6
:10A23400C2F80433120B51B20029A8BF01F16040E7
:10A244004FEA4513BABF194802F00F0500F5614003
:10A25400DBB2B4BF435580F8003302F01F02012380
:10A2640003FA02F24909124B43F82120336804220D
:10A27400C3F800252C2303FB04730022C3E9062240
:10A2840083F829205A61012283F82A204046BDE838
:10A29400F8834FF00808F9E74FF01108F6E700BF1C
:10A2A400142F002009A002008000020014ED00E039
:10A2B40000E100E0F8B5047900682D4D0023C0F8F2
:10A2C40000352C2303FB04535B6873B1294BC0F89E
:10A2D4000833020B53B201215B0902F01F0201FA99
:10A2E40002F22033244941F82320D0F80C65D0F839
:10A2F4001415D0F80835D0F810254FF0FF37BE42BA
:10A30400C0F8147518BF06F5E076C0F80C75C0F8EF
:10A314000875C0F810751EBF4FF0A0474FF0020C2F
:10A3240047F826C04E1C1FBF4FF0A04601F5E07150
:10A33400022746F82170511C1FBF4FF0A04102F5BF
:10A34400E072022641F822605A1C1FBF03F5E07335
:10A354004FF0A042022142F82310FFF709FE2C23FC
:10A3640003FB0454002384F82A306360F8BD00BF63
:10A37400142F00208402020000E100E02DE9F047E0
:10A38400214F06794FF02C0909FB06748046656954
:10A39400002D37D16261A16025624FF48E7100688F
:10A3A40084F82850FFF7F0FDD8F8000001238360FB
:10A3B4002146FFF7F1FD6368A14693B9D8F800A0E0
:10A3C400226A63699A4212D3D8F80030D3F81C2168
:10A3D400002AFBD00122DA602C2303FB067600233B
:10A3E40073612846BDE8F08794F8283043B9DAF859
:10A3F4001C31002BF8D049465046FFF7CDFDDFE76E
:10A404000F25E9E71125ECE7142F00200023435022
:10A4140082B043580193019B02B070471FB50123DA
:10A424008DF80030044BCDE90110D3E900126846E1
:10A43400904705B05DF804FB402F00207FB5374AF4
:10A44400D2F82461002E48D010464FF49271FFF7E1
:10A45400DDFF02238DF80030D2F88034C2F8803456
:10A464000393D2F83C3502932D4BDA680192002213
:10A47400C3E906226846D3E900129047274AD2F876
:10A4840044317BB14FF4A2711046FFF7BFFF244B58
:10A49400996939B10021C3E90611D968D2F83C059C
:10A4A400FFF7BCFF1D4AD2F82031A3B14FF49071DD
:10A4B4001046FFF7ABFF1A4B596961B1D2F84C153E
:10A4C4000291002299688DF8002001915A61684632
:10A4D400D3E90012904704B070BDD2F81031002BBC
:10A4E400CCD04FF488711046FFF790FF0C4BD2F894
:10A4F4003C0599698842C1D1DC69D96864B1D2F854
:10A50400005225F02005C2F800521A699C61DA60F5
:10A51400DE61FFF783FFB1E79C61FAE700200040AA
:10A52400402F00202DE9F8435A4F06799146242202
:10A5340002FB0672044692F820200D46002A40F0E1
:10A54400A28055490068FFF7F1FC8046002840F0DE
:10A554009D8029682368481C0BD04FF0A04001223D
:10A564008A40C0F8082501F5E0724FF0030C40F86A
:10A5740022C06868421C1FBF00F5E0724FF0A04C77
:10A584004FF0000E4CF822E0AA6995F814C0C3F805
:10A5940024256A7DBCF1010F4CEA0202C3F86C2544
:10A5A400C3F80C15C3F814051DD1AA68511C1FBFAC
:10A5B40002F5E0714FF0A0404FF0000C40F821C0CC
:10A5C400E968481C0BD04FF0A04C01208840CCF81F
:10A5D400080501F5E0704FF0030E4CF820E0C3F8D5
:10A5E4000815C3F8102524237343FA18C2F80490FD
:10A5F4002A69FA50B9F1000F34D04FF488712068F9
:10A604002D7FFFF703FF4FF490712068FFF7FEFEE4
:10A614004FF492712068FFF7F9FE20684FF4A2719D
:10A62400FFF7F4FE22681D4BC2F80433120B51B23B
:10A634000029A8BF01F160404FEA4513BABF18488A
:10A6440002F00F0500F56140DBB2B4BF435580F85A
:10A65400003302F01F02012303FA02F24909114BED
:10A6640043F8212023680822C3F80025242303FB90
:10A6740006730022C3E906225A61012283F82020CE
:10A684004046BDE8F8834FF00808F9E74FF0110899
:10A69400F6E700BF402F002041A40200100302008F
:10A6A40014ED00E000E100E0F8B5047900682D4DF8
:10A6B4000023C0F80035242303FB04535B6873B103
:10A6C400294BC0F80833020B53B201215B0902F095
:10A6D4001F0201FA02F22033244941F82320D0F862
:10A6E4000C65D0F81415D0F80835D0F810254FF0C3
:10A6F400FF37BE42C0F80C7518BF06F5E076C0F807
:10A704001475C0F80875C0F810751EBF4FF0A04747
:10A714004FF0020C47F826C04E1C1FBF4FF0A04656
:10A7240001F5E071022746F82170511C1FBF4FF05C
:10A73400A04102F5E072022641F822605A1C1FBFB4
:10A7440003F5E0734FF0A042022142F82310FFF713
:10A754000FFC242303FB0454002384F8203063609B
:10A76400F8BD00BF402F00201003020000E100E00C
:10A7740001F06043B3F1005F2DE9F041074632D1A7
:10A784001B4B0679242505FB063598466C6964BB8A
:10A794006A61A96000684FF49071FFF737FE4FF4C7
:10A7A400AC713868FFF732FE3B686A69A968C3F880
:10A7B4004415C3F8482501229A606A6862B9D3F83F
:10A7C4002021D3F8584152B9002CF8D00F24242367
:10A7D40003FB0686002373612046BDE8F081002C4C
:10A7E40018BF0F24F3E71024F6E71124F4E700BFA1
:10A7F400402F00200220FEF7F3BF00002DE9F047B0
:10A8040081460D46FFF70CF80328044604D8012DB1
:10A8140004D025B3022D2FD0BDE8F087194D470091
:10A824003A18A918AE5C4A7852B1DFF86880164825
:10A8340042464FF40041FCF75BFF08B988F80090EA
:10A844003B192B449A78114B1A55002EE4D0104B27
:10A854001B68002BE0D03046BDE8F04718470A4893
:10A86400FCF78CFF074B04EB440213449E78074B20
:10A874001B5DB342D0D1E8E7024B00EB40041C441B
:10A884006678E2E7C82F0020882F0020E12F0020FF
:10A89400DC2F0020642F002002210078FFF7AEBFD8
:10A8A40008B5094B1B7853B10020FEF76FFF012058
:10A8B400FEF76CFF0320BDE80840FEF767BFBDE864
:10A8C4000840FEF76FBF00BF652F0020F8B57B4C32
:10A8D400237805461BB100232370FFF7E1FF172DF2
:10A8E40000F28880DFE805F00C1717435465768082
:10A8F400888D888D959A9A9A9A9AC4C9D1D9E4E494
:10A90400FFF7CEFF6E48FCF739FF6E4B002204467A
:10A914001A702046F8BD0020FEF71EFFF8B1002093
:10A92400FEF734FF022D0CBF4FF4E1614FF47A615E
:10A93400644B1D704FF400404FF4FA740025E0FBA3
:10A9440001454FF47A7200232046294605F018FD8C
:10A95400002201465A48BDE8F840FCF7C9BEFEF79C
:10A9640009FF022D0CBFC8214FF4C871E0E7002095
:10A97400FEF7F2FE40B10020FEF708FF4FF44871E5
:10A98400504B03221A70D5E7FEF7F4FEC821F7E70F
:10A994000020FEF7E1FE38B10020FEF7F7FE4FF489
:10A9A4007A61484B0422EDE7FEF7E4FE4FF4C871E8
:10A9B400F7E70020FEF7D0FE48B10020FEF7E6FEE0
:10A9C400404B05221A7041F69A110022C2E7FEF7A5
:10A9D400D1FEF5E70020FEF703FF3A4B06221A707A
:10A9E400002240F6CD41B5E70020FEF7C3FE354B0B
:10A9F40007221A7000248CE701202070FEF7F0FE75
:10AA0400EEE701202070FEF7EBFE00224FF48041B8
:10AA1400A0E7FEF7D6FE2B4B0C22EAE72A482B4E82
:10AA2400FCF7ACFED5F1110504461CD0D8B9012DB4
:10AA340013D0C8235D434FF400474FF4FA7000214C
:10AA44004FF47A720023C7FB050105F099FC2246F6
:10AA540001461D48FCF74CFE04460220FEF78AFE20
:10AA64000123337055E70220FEF790FE0023F8E738
:10AA7400FFF716FF134B1222BBE7FFF711FF00206D
:10AA8400FEF778FE0F4B1322B3E7FFF709FF01200F
:10AA9400FEF770FE0B4B1422ABE7FFF701FF00201B
:10AAA400FEF768FE0120FEF765FE064B1522A0E7BF
:10AAB400FEF787FE034B1D709CE700BFD82F0020D4
:10AAC400A82F0020E02F0020682F0020652F0020F1
:10AAD400044B1B68DB0703D5034B1878FFF7F6BE5E
:10AAE400704700BFD42F0020E02F0020032801D896
:10AAF400FEF788BE00207047044B1B6813F0010367
:10AB040001D0FFF7E3BE1846704700BFD42F0020E2
:10AB140038B51C4B18601C4B10F002040546196034
:10AB24001AD01A4B1A480E221A700F22DA70102209
:10AB34009A7111225A72042140F26662FCF7FCF900
:10AB4400044648B9FCF74CFA044628B90146114AB0
:10AB54001148FCF7BBFD0446EB0711D50120FEF7B5
:10AB640077FE6CB921460D4A0D48FCF7AFFD04464B
:10AB740030B90C4A0C480121BDE83840FCF7A6BDA9
:10AB8400204638BDD42F0020DC2F0020C82F002001
:10AB9400CC1003009DA80200F0100300D5AA020007
:10ABA400F4100300F9A70200EC100300032813D8E3
:10ABB400012A0BD1012908D100F10E02D2B200EB17
:10ABC40040000C4B1A540020704700220129F6D093
:10ABD4004BB24BB1022901D007207047054B00EB63
:10ABE400400018444270EEE7024900EB400008447C
:10ABF4008270E8E7C82F0020032808B512D8FEF7B2
:10AC040021FE800000F1A040D0F8003723F4403347
:10AC1400C0F80037D0F8003743F44033C0F80037A9
:10AC2400002008BD0620FCE708B50122022100200F
:10AC3400FFF7BCFF08B1072810D107220221012029
:10AC4400FFF7B4FF08B1072808D100210A220846FB
:10AC5400FFF7ACFF10B1072808BF002008BD0000B3
:10AC64000388102B10B502D0112B1ED010BD1A4C26
:10AC74002168B1B901220846FFF798FF08B10728F7
:10AC840024D1072202210120FFF790FF08B10728F1
:10AC94001CD1042202210020FFF788FF08B10728F5
:10ACA40014D1236801332360E0E70B4A1368013BA6
:10ACB4001360002BDAD1FFF7B7FF0028D6D0074B7B
:10ACC4001B68002BD2D0BDE810401847034B1B680B
:10ACD400002BE6D09847E4E7EC2F0020E82F002073
:10ACE40008B50020FFF788FF08B1062806D1012027
:10ACF400FFF782FF10B1062808BF002008BD00003E
:10AD04000D4B10B518600C4629B10120FFF7EEFE7B
:10AD140040B102232370094B1B6853B9BDE81040AE
:10AD2400FFF782BFFFF7E2FE08B10B23F2E72070C2
:10AD3400F1E7002010BD00BFE82F0020EC2F002019
:10AD440076DF70477ADF70477CDF70478FDF7047AC
:10AD540033DF7047FCF75AB908B50020FFF7CCFE83
:10AD640008B1FCF753F9FFF7BBFF08B1FCF74EF944
:10AD7400FFF7EEFF18B1BDE80840FCF747B908BD7E
:10AD840013B5044604F05EF92388212B3FD005D87F
:10AD9400102B0CD0112B25D002B010BD3B2B01D0B1
:10ADA400562BF9D11321A088FFF7CAFF15E01C4BDD
:10ADB4001C481D49C01AC008000440F00300FBF7FA
:10ADC4006FFE0720FFF798FE08B1FCF71FF9174B39
:10ADD400A1881748198002F0A1FD0028DCD0FCF7F7
:10ADE40015F9D9E70E4B0F481249C01AC0080004E0
:10ADF40040F00300FBF754FE0C4BA0884FF6FF72A3
:10AE04001A800D4B99898842C6D19A81C4E70023E0
:10AE140001A9A088ADF80430FFF798FFDDE700BF73
:10AE24004007030068070300F81003001C250020F6
:10AE34002033002003110300F832002001460148AA
:10AE440004F06EBFF832002000B5B3B0072844D830
:10AE5400DFE800F04143430415212D462B4B2C48D9
:10AE64002C49C01AC008000440F00300FBF718FE88
:10AE74000220FFF741FE80B3FCF7C8F82DE0234B16
:10AE840023482549C01AC008000440F00300FBF71A
:10AE940007FE0420EDE71D4B1D482049C01AC008D9
:10AEA400000440F00300FBF7FBFD0320E1E7174B30
:10AEB40017481B49C01AC008000440F00300FBF700
:10AEC400EFFD0320FFF718FE08B1FCF79FF81548C3
:10AED40000F0A8FFCFE7FFF73FFF33B05DF804FBB6
:10AEE4000823CDE9023312AA03AB02A904A803F094
:10AEF4009DFB08B1FCF78AF8039B0093029A09486A
:10AF040012AB04A900F07DFFB5E700BF40070300C2
:10AF140068070300D0110300E1110300F2110300DC
:10AF240012120300A030002038B50B780D46042B14
:10AF340000F2B780DFE803F003192D39AE00594B56
:10AF440059485A49C01AC008000440F00300FBF7EE
:10AF5400A7FD2A1D6988564804F0C5FF002800F0A3
:10AF6400A080BDE83840FCF751B84E4B4E485149DB
:10AF7400C01AC008000440F00300FBF791FD688884
:10AF84004FF6FF73984200F08C801321FFF7D8FE30
:10AF9400E4E74548434B4849C01AC008000440F060
:10AFA4000300BDE83840FBF77BBD3E4B3E4C4349B4
:10AFB400E41AE408240444F003042046FBF770FD7B
:10AFC4003F492046FBF76CFD3E492046FBF768FDF0
:10AFD4002A7B3D4B3D4953F822202046FBF764FD74
:10AFE400EA79002A4CD13A492046FBF759FDAA795F
:10AFF400384B394953F822202046FBF755FDAA88DF
:10B00400002A42D135492046FBF74AFD20463449FF
:10B01400FBF746FD2A7A33492046FBF745FD6A7A59
:10B0240031492046FBF740FDAA7A30492046FBF718
:10B034003BFDAA7B2E492046FBF736FD20462D49D1
:10B04400FBF72EFD2A7C2C492046C2F3C002FBF7F5
:10B054002BFD2A7C29492046C2F38002FBF724FDFC
:10B064002A7C27492046C2F34002FBF71DFD2A7CB7
:10B074002449204602F00102BDE83840FBF714BD24
:10B0840021492046FBF710FDB1E720492046FBF794
:10B094000BFDBBE70448034B1D49C01AC00800045C
:10B0A4007DE738BD40070300680703003212030040
:10B0B400F83200205D120300881203009D12030081
:10B0C400B4120300C41203003C110300CC120300A9
:10B0D400DE1203009C11030007130300191303007D
:10B0E400421303004A1303005813030066130300BA
:10B0F4007413030092130300A4130300B913030091
:10B10400CE130300E3130300F5120300301303000E
:10B11400F813030008B503784BB9054B3B21188895
:10B12400FFF70EFE18B1BDE80840FBF76FBF08BD7E
:10B134001C250020043808B50A2837D8DFE800F0B9
:10B144000A3636163636063636362000BDE808404E
:10B15400FFF702BE164B13211888FFF7F1FD30F0FC
:10B16400080323D0BDE80840FBF750BF114B9A8970
:10B174004FF6FF739A4219D10F4800F053FEEEE7E1
:10B184000C4882894FF6FF739A420FD004F0A3FE55
:10B1940005280BD1094B0A480A49C01AC008000403
:10B1A40040F00300BDE80840FBF77ABC08BD00BFCF
:10B1B4001C250020F8320020A030002040070300A6
:10B1C4006807030011110300F8B510224FF6FF7150
:10B1D4001A4C1B481A4F05F0FCF908234FF6FF7070
:10B1E400236003F07BFA0023236009254FF6FF76E2
:10B1F400B042216801D0013D17D1114803F00CFA87
:10B2040008B1FBF703FF21680D4803F027FA06286D
:10B2140002D008B1FBF7FAFE03210A4800F0AEFCA5
:10B2240050B1BDE8F840FBF7F1BE4B1C236027F892
:10B23400110003F053FADBE7F8BD00BF2C33002004
:10B2440030330020A030002010B5044603F0D6FEB1
:10B25400204603F0F9FC2378082B13D00C2B0DD0D7
:10B26400022B2CD1164BA288618816481A8001F053
:10B2740013FA20B3BDE81040FBF7C8BEBDE8104088
:10B28400FFF7A2BF237CDB0719D5237A072B16D13E
:10B294000D4C2368072B12D8094A0C48128820F851
:10B2A4001320591C216003F0D9F9062802D008B1F3
:10B2B400FBF7ACFE2168054803F0AEF9D9E710BDF1
:10B2C4001C330020502200202C3300203033002077
:10B2D400FBF79CBEFBF79ABE00B54FF40041ADB03E
:10B2E4000020FBF719FA08B1FBF790FEFBF74AF9C7
:10B2F400FCF7BCF908B1FBF789FE83490320FFF78B
:10B3040007FC08B1FBF782FE01A90020FFF7F8FC57
:10B3140008B1FBF77BFE7D4A9DF804500A21082002
:10B32400FBF7BAFE08B1FBF771FEFEF729F808B186
:10B33400FBF76CFE04F040FE08B1FBF767FE002348
:10B3440001A90120019304F0FFFE08B1FBF75EFEA2
:10B3540001A804F0ABFF08B1FBF758FE11236C48B9
:10B364008DF8003005F068F9694982B26846FFF744
:10B37400EBFC08B1FBF74AFE0822002101A805F006
:10B3840028F964484FF0C873CDE9010301A8FFF719
:10B39400D9FC08B1FBF73AFE00215F4802F0B6F988
:10B3A40008B1FBF733FE5D4801F03CF908B1FBF747
:10B3B4002DFEAC22002101A805F00BF902238DF823
:10B3C400043040F20153564AADF806300123ADF87B
:10B3D4001C3008928DF87D30282240F6B833CDE930
:10B3E400232340F201134FF44861ADF8803044F256
:10B3F4005063CDE925134B484B4B2A9301A900F028
:10B404003EFB08B1FBF702FE0121464800F034FB85
:10B4140003F050F808B1FBF7F9FD0522002101A85B
:10B4240005F0D7F8019B03F07C42404B1343019392
:10B434009DF8083023F0030343F0030301A88DF8BB
:10B44400083003F0D1F808B1FBF7E0FD384803F009
:10B45400B3F808B1FBF7DAFD0023CDE901336946FF
:10B46400344B3548009302F047FA08B1FBF7CEFDA0
:10B47400324B019301A9324B3248029304F092FCFF
:10B4840008B1FBF7C3FD1C22002101A805F0A1F8B7
:10B4940000234FF42032CDE90132ADF812304FF4DD
:10B4A40070228DF81430284B039206930322274B05
:10B4B4008DF8102001A8079300F0D0FD08B1FBF728
:10B4C400A5FD234B234C2449E41AE408240444F046
:10B4D40003042046FBF7E4FA022D11D11F4920464C
:10B4E400FBF7DEFA03F018F908B1FBF78FFDFBF761
:10B4F4005DFEFBF76BF90028F9D1FDF757FFF6E77E
:10B50400FFF762FEF3E700BF39B10200F02F00201D
:10B514005C110300900120030833002041AE0200B7
:10B524004C220020A03000204DAE02003107100351
:10B534004DB20200D9B20200203300202DAF020028
:10B5440059AD0200F832002019B10200D5B2020050
:10B554004007030068070300671103008C11030010
:10B564006DDF704779DF70477DDF704764DF7047B8
:10B574002DE9F04F85B000250E9CBDF83CB027881E
:10B584000191804691469A462E46B8F80020B24270
:10B594000CDC3DB12288013AD21B92B2FF2A3BD87F
:10B5A4000AF80720002005B0BDE8F08FD8F8042081
:10B5B40052F82600039000220DF10B0103A8FFF7B7
:10B5C400D5FF0028EFD19DF80B204A4522D12288CF
:10B5D400002D14BF0020022002EB0901014459454B
:10B5E4001ADC45B9013292B2019B22800AF802307A
:10B5F40022880132228022880DF10B01524403A8D3
:10B60400FFF7B4FF0028CED121889DF80B200A440F
:10B61400228001250136B8E70C20C4E72DE9F34167
:10B62400089CBDF824501746CDE900450222064681
:10B634009846FFF79DFF50B94346102239463046DD
:10B64400CDE9084502B0BDE8F041FFF791BF02B073
:10B65400BDE8F0812DE9F04F00231688138090F89F
:10B664002D3085B007460D46144653B3082E01D835
:10B674000C2027E102A8FFF773FF002840F0228185
:10B6840023880822EA54238801339BB21B22238097
:10B69400EA542088013080B2208006220DF109018D
:10B6A400284404F06DFF23889DF8082006339BB2DC
:10B6B40012F0FE0218BF01222380EA5423880133CA
:10B6C4002380BB78FBB123880433B342D0D802A8CB
:10B6D400FFF748FF002840F0F58023880322EA544E
:10B6E400238801339BB219222380EA542388BDF8AE
:10B6F400082001339BB2E9182380EA54120A4A70E5
:10B70400238802332380FA789AB12388D91CB14262
:10B71400AED80221E954238801339BB2012123804E
:10B72400E95423880B449BB22380EA5423880B44B6
:10B7340023807A68AAB12388D91CB14298D80221FF
:10B7440092F90020E954238801339BB20A21238013
:10B75400E954238801339BB22380EA5423880133BC
:10B7640023803B89002B40F0A1803B8A5BB1CDE96B
:10B7740000462B460722032107F11000FFF74EFF76
:10B78400002840F09F803B8B5BB1CDE900462B46FF
:10B794001522142107F11800FFF740FF002840F09C
:10B7A40091803A6A002A40F09080D7F82480B8F15A
:10B7B400000F30D0B8F804302188981C8A1C024449
:10B7C400B2423FF655AFFE283FF652AF03336B54F7
:10B7D400238801339BB2FF222380EA542388013358
:10B7E4009BB22380B8F80020EA54E918120A4A7080
:10B7F4002088023080B22080B8F804205AB1D8F8EA
:10B80400081000296BD0284404F0BAFE2388B8F845
:10B8140004201344238097F82C30002B40F09A80A6
:10B82400387800284ED03B88012B58D0228802F16A
:10B83400020CB4453FF61CAF012805D17B780233D6
:10B8440013449E42FFF414AF023EB61AB6B202A9E4
:10B8540005EB0C00ADF80860FFF786FE90BB397865
:10B86400BDF80820022900F0BA807B78934202D305
:10B87400B24240F2B280012940F0B3809BB29E42B2
:10B88400C0F0AF80ADF808300821BDF80830FE2BB9
:10B894003FF6EEAE22880133AB542288013292B2D5
:10B8A4002280A9542288134423800BE0CDE900466A
:10B8B4002B460622022107F10800FFF7AFFE0028FD
:10B8C4003FF453AF05B0BDE8F08FB4F800C00CF1FD
:10B8D4000603B3423FF6CCAE1188052901D80720F0
:10B8E400F0E76FF4486E01EB0E039BB24FF27D3E1E
:10B8F4007345F4D95388052BF1D96FF448601818AF
:10B9040080B27045EBD94FF6FF70814203D0834279
:10B9140001D09942E3D8052305F80C30238801337C
:10B924009BB212212380E954238801339BB22380E4
:10B934001188E954E818090A4170238802339BB23C
:10B9440023805288EA54E918120A4A702388023381
:10B9540023802AE7BB6A002BC1D04FF000094FF0C7
:10B964000C0A4FF0160B97F82C305FFA89F29342C9
:10B974007FF656AFB96A0AFB02F201EB0208B8F887
:10B984000430981CFE283FF673AE208803332B54F2
:10B99400238801339BB2238005F803B02388013345
:10B9A4009BB223808A5AEA54E918120A4A70208802
:10B9B400023080B22080B8F804205AB1D8F80810B8
:10B9C40000298CD0284404F0DBFD2388B8F8042037
:10B9D4001344238009F10109C5E7092155E7B2425F
:10B9E400FBD9ADF808604FE770B5C0B14AB116880D
:10B9F4000024B44203D305196D789D4208D0A142B6
:10BA040001D800200BE0055D01352C44A4B2F0E719
:10BA1400A142F6D9A31C1380005D013880B270BD29
:10BA240013B50023ADF8063013460DF106020446A3
:10BA3400FFF7DAFF10B1BDF80600204402B010BDD4
:10BA440072DF704773DF704774DF704738B50122C7
:10BA540004460D46B0F83812D0F83402FFF7E0FF80
:10BA640000B1057004F13C0204F50D7104F15400B9
:10BA7400BDE83840FFF7E4BF80F830107047F8B5F0
:10BA840004460F46002975D0002873D091F87A3007
:10BA94001BB191F89830002B6ED1D7F8A030042B4D
:10BAA4006AD0D7F89C30042B66D007F178060FCE05
:10BAB4004FF0000C251D84F802C00FC50FCE0FC532
:10BAC40096E8070085E8070084F830C0D7F8A4306A
