:1000000000000420750300005D030000852F000040
:1000100061030000630300006503000000000000AE
:100020000000000000000000000000006703000066
:1000300069030000000000006B0300006D03000076
:10004000553E00006F030000653E00006F03000096
:100050006F0300006F030000713B00006F0300009E
:100060006F0300006F0300006F0300006F030000C8
:100070006F0300006F0300006F0300006F030000B8
:100080006F030000D50F00006F0300006F03000036
:10009000711000006F0300006F0300006F03000089
:1000A0006F0300006F0300006F0300006F03000088
:1000B0006F0300006F03000000000000000000005C
:1000C0006F0300006F0300006F0300006F03000068
:1000D0006F0300006F0300006F030000A1560000D3
:1000E0006F0300006F0300006F03000000000000BA
:1000F000000000006F030000000000006F0300001C
:1001000000000000000000000000000000000000EF
:1001100000000000000000000000000000000000DF
:1001200000000000000000000000000000000000CF
:1001300000000000000000000000000000000000BF
:1001400000000000000000000000000000000000AF
:10015000000000000000000000000000000000009F
:10016000000000000000000000000000000000008F
:10017000000000000000000000000000000000007F
:10018000000000000000000000000000000000006F
:10019000000000000000000000000000000000005F
:1001A000000000000000000000000000000000004F
:1001B000000000000000000000000000000000003F
:1001C000000000000000000000000000000000002F
:1001D000000000000000000000000000000000001F
:1001E000000000000000000000000000000000000F
:1001F00000000000000000000000000000000000FF
:10020000354936480A1A02D0072291438D463449AF
:1002100034480A1A06D00722914381F30988022242
:1002200082F3148830483149314A00F044F83148AB
:100230003149324A00F03FF831483249324A00F041
:100240003AF832483249334A00F035F832483349F7
:10025000334A00F030F833483349344A00F02BF881
:1002600033483449344A00F026F8344834490022EF
:1002700000F02CF833483449002200F027F83348C6
:100280003349091A082902DB002202604160314A21
:1002900090471F481F49884205D00268043003B4C4
:1002A000904703BCF7E700208646EC46002000217B
:1002B000294A9047FEE7884207D0521A05D00378B2
:1002C00001300B700131013AF9D17047884202D0F8
:1002D00002700130FAE770470000042000E00320BC
:1002E00000000420000004203870000000000020FE
:1002F00044000020D4030000D4030000EE6100009D
:100300003870000000000020000000207C62000027
:100310007C6200007C6200007C6200007C62000065
:100320007C6200007C6200007C620000387000008B
:100330007C700000440000204400002044000020A5
:10034000BC100020BC100020BC100020BC100020FD
:10035000BC3000209D030000E55B0000FEE7FEE7E7
:10036000FEE7FEE7FEE7FEE7FEE7FEE7FEE7FEE765
:10037000704700BF1048804710484FF0070188437E
:1003800085460F4880470F48016841F470010160BD
:10039000BFF34F8FBFF36F8FFFF732BF0A480B4990
:1003A0000B4A884207D0521A05D0037801300B70EF
:1003B0000131013AF9D170477103000000000420B7
:1003C000215E000088ED00E07C620000000000205B
:0403D0000000002009
:1003D4007047000007B5044B0093044A402300F023
:1003E40032F803B05DF804FBF5030000450000207B
:1003F4002DE9F84389461446B2B10F4B0F4E03253D
:10040400002743F00108224609EB0701002005F00C
:10041400BFFC0744241A48B933782BB14FF47A400F
:10042400C047013D02D13570BDE8F8830123337024
:10043400002CE8D1F8E700BF8062000044000020EF
:10044400704705F0D9BCF0B595B01C461646084671
:100454000D4603F098F91A9B0D93CDE90864002426
:100464002346082205A928460A948DF82C400C94AA
:1004740003F0A6F9079B0293069B03939DF814309F
:100484008DF8114003F00302012A1DD1BDF8144078
:10049400059EC3F3C203C4F383148DF81030A20085
:1004A40008230EA9284603F08BF9C6F3952608AB5A
:1004B4000093224602AB0EA9304600F0EBFB28461F
:1004C40003F065F915B0F0BD022AF8D1BDF8164065
:1004D400C3F3C203A4098DF810300827082C26465C
:1004E40028BF08263B4632460EA9284603F068F981
:1004F400A41B08AB02AA31460EA8374400F02EFC18
:10050400002CEBD1DBE70000014B01221A7070478D
:10051400C60000207047000070B50E4D06460FCD92
:1005240088B06C460FC495E80F00002E84E80F00D5
:100534004FF00603084A0948009308BF00226946A1
:1005440003F022FA08B100F0D4FC054B1E7008B089
:1005540070BD00BF946200000D0500000000002083
:100564008500002007B5044B0093044A4023FFF79D
:100574006AFF03B05DF804FB8505000086000020D7
:1005840038B50D4B0D4D002018700D4804782D5DC5
:10059400D2B21C4665B1043004F0D4F808B100F0BE
:1005A400A8FC084B1A7812B12378002BFBD038BD75
:1005B4000C3003F0B1FEF1E7C600002080090020F2
:1005C400000000208500002008B50848084A037888
:1005D400D35C3BB1043004F05FF80020BDE8084070
:1005E400FFF79ABF0C3003F041FEF6E7000000204D
:1005F400800900200120FFF78FBF000038B50A4DA5
:10060400FFF71FFF0421284600F0B2FA074B01242C
:100614005C71FFF7EFFF042105F1100000F0A8FA68
:10062400034B5C7138BD00BF486200001400002019
:100634001C000020037813F0040216D003F0030317
:10064400012B03D0022B09D0012070470A680088CF
:100654000232C0F3831002440A60F5E70B68428853
:10066400023303EB92130B60EEE710467047000071
:100674002DE9F04F044685B0851C00200F469046B6
:1006840002F07AFC454806683E60D0E90132134422
:1006940001339B1B824600F21C4600F5836900F27D
:1006A4001447AB421AD30022B8F1000F6FD00523D0
:1006B40063F3070264F38912DAF80010DAF80830F9
:1006C4000B4003330D444AF823200020CAF800509D
:1006D40002F054FC012005B0BDE8F08F0121304642
:1006E40002F09EFD484602F0B1FD384602F0AEFD30
:1006F400DAF80400DAF808B0009000EA0B000330DE
:100704000AEB80006946FFF795FF009B50BB0BEA9C
:1007140003020AEB820203F1020CD2680192013354
:1007240003EA0B0B0AEB8B0B02F00302012ACDF850
:1007340000C0DBF80C1022D0022A16D083463846BB
:1007440002F087FD10B1009BCAF8043059463046C8
:1007540002F066FDDAE901231344DAF800200133DC
:100764009B1A9EE70BEA0300C9E7BDF806309B0914
:1007740003334FEA114B0CEB93030093DFE7BDF80F
:100784000430C3F383134FEA114B6344F5E70623A4
:1007940063F3070264F39F528EE700BF98010020C1
:1007A4000B4B0C48FF2210B59A600022C3F81824A2
:1007B400C3E90022C3F8142483F8202402F09CFF28
:1007C400044610B9044803F005F8204610BD00BFE4
:1007D4009801002068620000E462000030B50A4C11
:1007E40071B10A4A0A49121BD20800239A4201D164
:1007F400002030BD31F82350854202D00133F5E7A3
:10080400034654F83300F4E7F06100004862000046
:1008140000000020094B013903EBC000032909D86B
:10082400DFE801F00A0204060420704700797047EB
:10083400407970470020704702207047F061000043
:10084400034BD3E90030C31A58425841704700BFE4
:10085400980100202DE9F04385B0FFF7F1FF06462B
:10086400002840F0F7807C4DC5F81804BFF34F8F83
:100874006868AC6800902040033005EB800069464E
:10088400FFF7D8FE009B18B1D5F81824002A5FD0D2
:1008940004EA0302991C013305EB8202234005EBB1
:1008A4008303D268DB68029302F00303022B0192F4
:1008B400009162D1BDF8063068484FEA9318B8F148
:1008C400500FC14628BF4FF0500969F38F1309F147
:1008D4000801ADF8063002F027FF0746002800F0B3
:1008E400A48002F050FF01A900230822384602F038
:1008F4005DFF009924EA01060136B600B14535D9F9
:100904005FFA89F97EB3F6B2A9EB060921400331F7
:100914005FFA89F4B146524E05EB810108234A4639
:10092400384602F043FF36B109F108032246314646
:10093400384602F03BFF009B08F1030803EB9803E1
:100944000093D5F81834002B4BD1D5F810445BE054
:100954002A689A4204D86A60304605B0BDE8F0833C
:1009640004EA030088E73E493446D7E721400331CF
:1009740008234A4605EB8101DAE7012B55D1BDF87E
:1009840004303648C3F38311062928BF062161F3D6
:10099400891302318900ADF8043002F0C5FE074620
:1009A400002842D002F0EFFE0023082201A93846B5
:1009B40002F0FCFE0026BDF80420C2F38312B3004B
:1009C400964203F10803BCD200994A1C214003312A
:1009D400009205EB81010422384602F0E7FE01365D
:1009E400E9E7384602F0D3FEFFF72AFF80F0010062
:1009F400C6B2B1E7E3685B7923B1236839461B6863
:100A040020469847E3681C68002CF3D1384602F06E
:100A1400BEFE204602F0B0FAD5F818340BB9009B9C
:100A24006B60002002F0AAFADEE7D5F8104454B94E
:100A34000C4B0D480D49C01AC008000440F00200D8
:100A440000F06EF8D0E7236820469B689847E36877
:100A54001C68ECE700267FE798010020686200002C
:100A6400A4010020F061000020620000F062000098
:100A74002DE9F74F284C80460F46924601A90122E2
:100A840018469B46D4F80890FFF7F2FD80B3019D09
:100A94000026A91C5E4506EB010233D100211F4844
:100AA40002F09EFB80F310006A1C02EA090204EBC8
:100AB4008202000405EA0903033340EA1840D060C7
:100AC40014F8232068F3C50204F8232034F8232003
:100AD40066F3891224F8232054F8232067F39F2215
:100AE40044F8232002F0F80242F0010204F8232023
:100AF40094F820341BB1FFF7ADFE0028FBD103B0FE
:100B0400BDE8F08F09EA020204EB82025AF82630AB
:100B1400D3600136BEE700BF98010020B405002071
:100B240000231A46FFF7A4BF07B50123019201AAC7
:100B3400FFF79EFF03B05DF804FB1FB5CDE9012369
:100B4400069B039301AA0323FFF792FF05B05DF808
:100B540004FB1FB5CDE90023069B0293079B039377
:100B64006A460423FFF784FF05B05DF804FB000028
:100B740030B50F49D1F81024002314463CB9C46899
:100B8400237152B9C1F810042260184630BDE468DC
:100B940025799D4206D02468F0E7D2681168216067
:100BA4001060F2E701330A2BE7D14FF0FF33ECE793
:100BB40098010020094A38B50123D2F8104482F87C
:100BC40020341D4604B938BDE3685D7123682046AE
:100BD4005B689847E3681C68F4E700BF980100204D
:100BE400037A052B10B50C460FD0437A23B1084A7B
:100BF4000849204602F087FB0749204602F083FBA0
:100C04002046BDE8104002F073BB002AF8D0F3E799
:100C14003B63000040630000686C0000C38873B548
:100C240004460D4633B1144A00921449144A284626
:100C340002F069FB217A05291CD0637A4BB1A088A4
:100C4400FFF7E8FD0F4B104953F82020284602F027
:100C54005AFB227A0D4BA08853F822600021FFF73B
:100C6400BDFD0B4903463246284602B0BDE870403C
:100C740002F049BB02B070BD3B6300004B6300004F
:100C840043630000086300004063000070630000D9
:100C9400636300002DE9F04385B01F460C9D0023DB
:100CA40006460C46904695F80C902B732946384618
:100CB400FFF7B4FFB8F1060F09D8DFE808F0041213
:100CC400181F283340003146284602F01CFB00223E
:100CD40029463846FFF784FF85F80C9005B0BDE837
:100CE400F08322683146284602F00DFBEFE7D4E991
:100CF40000233146284602F006FBE8E7A368009388
:100D04003146D4E90023284602F0FDFADFE7E36820
:100D14000193A36800933146D4E90023284602F0E6
:100D2400F2FAD4E723690293E3680193A36800937A
:100D34003146D4E90023284602F0E5FAC7E763699F
:100D4400039323690293E3680193A36800933146F4
:100D5400D4E90023284602F0D6FAB8E708292DE999
:100D6400F84F80460E4617461C463AD8002593F89D
:100D74000C901D7319461046FFF750FFDFF884A04E
:100D8400DFF884B0AE422ED918F805205946204623
:100D940002F0B9FA0135082DF4D11849DFF86CB026
:100DA400204602F0B0FA4FF0000A564520D918F850
:100DB4000A507E2D03D8284605F064F900B92E2583
:100DC4002A465946204602F09EFA0AF1010ABAF16F
:100DD400080FEAD1012221463846FFF701FF84F8C3
:100DE4000C90BDE8F88F5146204602F08CFAD1E70A
:100DF4000349204602F087FAE7E700BF36630000A4
:100E040034630000326300002C6300003863000088
:100E1400074B1B5C1F2B86BF03F01F0305494FF0D4
:100E2400A041012202FA03F3C1F80C35704700BF58
:100E3400CF63000000030050074B1B5C1F2B86BFD1
:100E440003F01F0305494FF0A041012202FA03F306
:100E5400C1F80835704700BFCF630000000300509D
:100E640008B50020FFF7E8FF0120FFF7E5FF0220A7
:100E7400FFF7E2FF0320BDE80840FFF7DDBF0000F5
:100E84000A4B185C1F288ABF094B4FF0A04300F09F
:100E94001F00D3F804250121814021EA02000A4001
:100EA400C3F80805C3F80C25704700BFCF630000E2
:100EB40000030050C20710B504460CD54FF0A04300
:100EC4000322C3F83427C3F83827C3F83C27C3F8F0
:100ED4004027FFF7C5FFA3070AD54FF0A0430C2214
:100EE400C3F82C27C3F83027C3F86027C3F8642756
:100EF40010BD1FB50021039001AA44F20100CDE901
:100F0400011100F003F805B05DF804FB10B572B6EA
:100F1400FFF750FEFFF79EFC0028FBD1104B114C4D
:100F24001149E41AE408240444F00100FFF7F8FD31
:100F34000E4B1B68DB0700D500BE0D4944F00200D0
:100F4400FFF7EEFDBFF34F8F0A490B4BCA6802F45B
:100F5400E0621343CB60BFF34F8F00BFFDE700BFD8
:100F6400F061000020620000D3630000F0ED00E0B7
:100F7400DF63000000ED00E00400FA05024B4FF4CB
:100F84003C6043F001031847F063000038B50C4B94
:100F94000C4C4FF40032C3F8802001254FF4803309
:100FA400C4F84833C4F808336560FFF7E7FF064B1D
:100FB400A56000241C60FFF7E1FF044B1C7038BDE2
:100FC40000E100E0001001407007002061070020EC
:100FD400F8B51F4B1F491B680025C1F84051C1F8E3
:100FE4004451C1F84851C1F84C51C1F80051C1F8FD
:100FF40004514BB3D1F8044517490968641A24F025
:101004007F442F461A68A24209D8A41A15441A7CB0
:10101400DE691AB11F74D3E905209047AEB90F4AAF
:101024000F4B11781B788B4205D10133DBB2022BB5
:1010340008BF0023137012780A4B43F822500A4B5E
:101044004FF48012C3F80021F8BD3346DAE700BF3D
:101054007407002000100140700700206D07002075
:101064006C0700206407002000E100E02DE9F04F48
:10107400A14AA24913780978A14D994285B03CD080
:101084000133DBB2022B08BF002313709D49127891
:101094009D4B0F6853F822003B1823F07F43002236
:1010A4000B602B6816461446944613B942B12B6064
:1010B40006E0196881420ED902B12B60091A196041
:1010C40001272B68DFF848A201934FF00008BEB94E
:1010D400DFF844B266E0401A0C44D968C3F800C093
:1010E400D3F81CE031B13A1922F07F42C3E901215F
:1010F400DE611E4601227346D7E700263746E0E745
:101104003446F6697F4A63681268DFF810C2A06843
:10111400991A21F07F41614500F2A68001442160C3
:10112400012222742A680023C4E90133E361002AFE
:1011340040F0A3802C60CAE75A1C9BF80210D2B27C
:1011440091428BF8002004BF00228BF80020182263
:1011540002FB03B31A799C68022A1CD0032A12D01A
:10116400012A1FD1207CE8B9D3E90312A2605A698D
:10117400E2609A69654BA2611B78002B0CBF0B4699
:1011840003466360BEE700222B681146002B67D13B
:1011940042B12B6006E029680A468946002A5AD1E2
:1011A400002323749BF800309BF801209A42C3D19A
:1011B4002B68B8F1000F04D1019A9A4201D1002F93
:1011C40043D0002B73D0D3F800A0514D4D4BD5F82C
:1011D40004751C68DFF848813E1B98F8003026F03F
:1011E4007F4603369BB94FF48033C5F84433C5F8C2
:1011F4000433484B4FF400324FF00109C3F8802107
:101204001A60C5F80090FFF7B9FE88F80090B2455F
:101214002CBF5444A41924F07F44C5F84045D5F8A4
:101224000435DB1B23F07F43E41B033324F07F44AA
:10123400A3420AD9D5F80435C5F84035FFF79EFE18
:10124400344B4FF40032C3F80021304B00221A70A3
:1012540005B0BDE8F08F94422CD09146D2699DE749
:1012640019740122DB6991E7D31A23F07F43834287
:1012740034BFC31A0023236052E7216813689942DC
:1012840013D8591A1160E26154E7091AD8691A4649
:1012940038B1034618688842F7D3401A18601846D4
:1012A40013462160E061DC6111E71346F2E7FFF7C2
:1012B4006DFECAE74C4511D1CB692B6073B9DFF8D9
:1012C40044E00120CDE90212CAF80800CEF800304B
:1012D4000E4B1870FFF752FEDDE902121368D26953
:1012E400C9F81C2012B11068034413602B6899429A
:1012F40018BF4FF0010853E76C0700206D0700206A
:101304007407002070070020640700206007002095
:101314000010014000E100E054060020FEFF7F00C1
:101324006107002043681B6818470000024B5B6894
:1013340003B11847704700BF7C070020020600F085
:101344000F034CBF02480348DB001844704700BF3A
:1013540088070020D007002008B5FFF7EFFF0160E1
:1013640009B14B681968416008BD0000024B014691
:101374005A681868104700BFD007002038B5831E8C
:10138400DBB2062B98BF1A4A1A4C98BFD25C23785A
:10139400A3F10203DBB288BF0022062B9ABF1449D3
:1013A400CB5C00239342054603D0B2B1124802F04D
:1013B40053FA022D14D0A5F1080042424241237889
:1013C400022B0FD0A3F108014B424B41934202D0B0
:1013D40052B103F0AFFE257038BD02F067FAE8E7BA
:1013E4000122ECE70123F1E703F09AFEF3E700BFE3
:1013F400F6630000B9080020240000202DE9F04F16
:1014040087B00026054689469246984602966B6840
:1014140000225C682946012302A8A04740B98DF840
:101424000600049004460746BE4203D805202AE07D
:101434000136ECE76B680DF10602D3F804B02946D7
:10144400012304A8D8476B680DF10702D3F804B050
:101454002946012304A8D8479DF807304B459DF839
:10146400063015D1544511D1109A136088F8003014
:1014740088F801906A68023B5468294608F1020220
:1014840004A8A047002007B0BDE8F08F0134E4B2FF
:101494006A68023BD2F804B02946002204A8D8475F
:1014A4009DF806301F44BFE72DE9F74304230546A2
:1014B40084222F492F4801F00BFE002856D12E48D4
:1014C40003F04EFE0446002835D12C4B18702C4BEB
:1014D40018602C4B0146186048222B4804F000FE8B
:1014E40048222146294804F0FBFD294B3DBBC3E9B2
:1014F40000551D72002002F0EDF918B1852801D0C5
:10150400FFF7F7FC234E96F80890002506F109082A
:10151400ECB2A14504D904EB440414EB080423D130
:101524000B2301A91B488DF80430FFF7FBFE04468A
:1015340008B103F0E3FC204603B0BDE8F08395E86E
:10154400070083E80700D5E73146E05CFFF704FFB6
:101554006378FAB2934205D9A3781344DC4207F1C5
:101564000107F1D10135D3E70027F1E70324E2E7CE
:10157400180800209C080020851B0000B9080020E2
:10158400AC080020B008002088070020D007002005
:101594007C0700203864000010B503F083FD10B907
:1015A4000823184610BD03F085FD04460028F7D132
:1015B400044802F0AAF903460028F2D0FFF799FC88
:1015C4002346EEE70064000003F0A2BC04F064B913
:1015D4002DE9F74300F1090490F808900646002528
:1015E4002746EBB24B4532D224B394F80180002154
:1015F40006E0E05CFFF7A2FE03680131002B37D15F
:10160400CBB2984503D9A3780B44DC42F1D1013520
:101614000334E6E73146E85CFFF79EFE6B785FFA39
:1016240088F2934205D9AB781344DD4208F10108EE
:10163400F0D10134337AE5B2AB4203D905EB450569
:101644007D1901D10B4B05E04FF00008E6E70024BB
:10165400F0E713681A68002AFBD11E6001A90B2366
:1016640030468DF80430FFF75DFE03B0BDE8F0832B
:101674001120FAE7AC08002003689960074B1B6847
:101684002BB9074B1A682AB91860104670471B68B3
:101694000433F4E713680433F4E700BFB008002010
:1016A400B4080020074B1A680AB905207047824223
:1016B40005D10268002051681960506070471368B2
:1016C4000433F0E7B4080020024B1878003018BF48
:1016D40001207047B8080020030710B5044604D45D
:1016E40003F074FE204604F097F92046BDE810404C
:1016F40004F044B904F010B9014B1868704700BFF6
:10170400AC080020F0B50A4B1B687BB11D7A00229F
:101714009E1DD4B2A54201D81B68F5E7013202EB45
:101724004207F75D8742F4D101B10C701846F0BD51
:10173400AC0800201146FFF7F5BD08B500F00F0313
:10174400082B07D8FFF7FAFD006818B1BDE8084078
:10175400FFF7E8BD102008BD38B5054B05461C68E9
:1017640004B938BD29462046FFF7DCFD2368F6E7B7
:10177400AC08002038B5074B05461C680CB9062098
:1017840038BD29462046FFF7CDFD0628F8D1236849
:10179400F3E700BFAC08002038B504460D4603F05B
:1017A40022FD48B1054B1B78022B05D12946204662
:1017B400BDE8384003F01ABD082038BDB908002040
:1017C40038B504460D4603F00EFD48B1054B1B78B1
:1017D400022B05D129462046BDE8384003F07ABDE6
:1017E400082038BDB9080020F8B543689B68054651
:1017F4000C46164613B92EB1072002E09847062876
:10180400F9D0F8BD2B7AA34213D9093504EB44046B
:101814002C446778F3B29F4201D80020F1E7627844
:101824009A4208D9A219A378D05CFFF755FF013674
:10183400F0E77378FFDE00231B78FBE74368DB687F
:1018440070B505460C4603B198472B7AA34213D9C9
:10185400093504EB44042C4400256678EBB29E421F
:1018640000D870BD62789A4209D96219A378D05C15
:1018740004F052F80135F1E700235B78FFDE002322
:101884001B78FBE743681B6903B118471846704788
:1018940070B5084B1C6804B970BD267A0025E9B2FE
:1018A4008E4201D82368F5E700222046FFF79CFF0B
:1018B4000135F4E7AC08002070B5084B1C6804B986
:1018C40070BD267A0025E9B28E4201D82368F5E777
:1018D4002046FFF7B3FF0135F5E700BFAC08002051
:1018E40038B50478092C054620D023D8032C00F001
:1018F400BC8012D8012C00F0A68040F28D80032019
:10190400FFF73CFD0220FFF711FD2846FFF724FFF7
:101914002846BDE83840FFF729BD052CF8D0C0F0B3
:10192400B380062C00F0BF80082C13D12046FFF7AB
:10193400FDFC95E0812C0ED005D80F2CF6D0802C20
:1019440044D00A2CF1E7832C4CD021D3842C53D0DF
:10195400852CDDD038BD5E48FFF708FD5C48FFF7F5
:10196400FBFE0D20FFF7E2FCFFF7A6FF01F037F8BE
:10197400584B1B6853B9584B187A00F0010003F018
:1019840067FB0120BDE83840FFF7F8BC0120F4E70D
:10199400FFF792FF03F062FF0020FFF7EFFC4F48D0
:1019A400FFF7DAFE4D48FFF7E1FC0E20FFF7BEFC1F
:1019B4004B4B1B78023BDBB2062BCBD8494AD35C9A
:1019C400002BC7D0BDE8384001F070BF444B1B78F2
:1019D400062B05D0072B01D0052BBBD10220D1E764
:1019E4000820CFE73E4B1B78032BB3D103F06EFFE7
:1019F4000028AFD00420C5E7394B1B78032B05D151
:101A040003F064FF10B10420FFF7B8FC03F05CFBA3
:101A140000289FD00620B5E7314B1B78032B01D05B
:101A2400082B02D13048FFF75BFF0020FFF77EFC54
:101A3400284B1C68002C8DD020462946FFF772FCE9
:101A440023685C68F6E7FFF737FF00F0BFFF02206A
:101A5400FFF794FC2046FFF769FC2846FFF786FC55
:101A64002846BDE83840FFF777BE1D4B1B78082B8E
:101A740006D10220FFF782FC03F066FB0320EAE7AD
:101A84000520FFF77BFCF9E70320FFF74FFC17481D
:101A9400FFF76CFC1548FFF75FFE114B1B78062B14
:101AA4009CD107206EE78078FFF748FC29464368FD
:101AB4000068984700283FF44DAFA87802073FF428
:101AC40049AF03073FF546AFBDE8384003F058BCC3
:101AD40016640000B00800207C0700201764000092
:101AE400B9080020F66300001864000019640000BF
:101AF4000378052B37B504460CD11C4AD2F884343C
:101B0400D2F8802412F0FF0F04D1194ADBB2052B5E
:101B140008BF14462378A3B9164B1D6855B9164B54
:101B24001B6813B12946204698472046FFF7D8FE84
:101B340003B030BD2B6860889B6898472B685D684C
:101B4400ECE701A90D4801F0D6FA0028F0D023688B
:101B5400036001A9094801F0F8FA074B1B68014624
:101B6400002BE5D020469847E2E700BF0070024012
:101B740010640000B40800207C0700209C080020AA
:101B8400FFF7B6BF012806D010B1022805D0704770
:101B94000348FFF7ADBF0348FBE70348F9E700BF7D
:101BA40004640000086400000C6400004FF08043EB
:101BB400D3F83824920702D50348FFF799BFD3F826
:101BC4003824D107F4D470471564000007B5822384
:101BD40001A88DF80430FFF78BFF03B05DF804FB18
:101BE4000148FFF785BF00BF1464000010B50A4C1C
:101BF400236823B909490A4801F0B7FA206020682C
:101C040040B1FFF76DFE0549054801F0D9FA0023FC
:101C14002360012010BD00BFBC080020780700200D
:101C24009C080020836A03B11847704708B50B4627
:101C3400014610B91846FFF7F5FF002008BD000063
:101C4400F0B50B78013B89B006460D460D2B12D832
:101C5400DFE803F094949411078C1111111196A1EB
:101C640094944B78DA094FEA53114BD011F00301E5
:101C740003D0012920D006241BE003F01F03012B0D
:101C8400F9D1AC78062CF6D105A8039101F020F91E
:101C940003AB009307460346EA7829793046FFF7F9
:101CA400ADFB052805D0039A3946681C00F0B2FE46
:101CB4000446204609B0F0BDAA78832A20D8812A98
:101CC40001D2042AD7D1346862732A79A273EA78DC
:101CD400E273AA7922746A796274297AEA7903F040
:101CE4001F03022B42EA012218BF00236282002153
:101CF40023733046FFF796FF628A04F11401D4E798
:101D0400852ADFE70129B6D1A878421E042AB2D871
:101D14003268507328799073E878D073A879107476
:101D24006879507403F01F03B5F807005082022B42
:101D34000ABF03231173137384B21432CDE905244B
:101D440000242046079401F017F9204605A9FFF75F
:101D540023FD044630B9144B03A9CDE9033600F042
:101D640047FE0446002001F009F9A2E791F9023088
:101D7400002BB4BF02210121FFF754FF002498E790
:101D84000368996D71B1FFF777FC0446002890D081
:101D9400FFF7AFF88DE703689C6D002C89D0FFF73F
:101DA40081FCF2E70C4684E7311C0000F8B5037AA5
:101DB4008B42164625D900F1090401EB41010C447C
:101DC4006778D7B1012A1AD8036802F0010283F8B0
:101DD40054200025EBB29F4201D80020F8BD627860
:101DE4009A4211D9A3786219D05C1EB1FFF774FC32
:101DF4000135EFE7FFF77EFCFAE70620EEE7072060
:101E0400ECE700235B78FFDE00231B78FBE7037A13
:101E14008B4209D901EB410101448B7A13B1036868
:101E240093F854301846704700235B78FFDE037A3A
:101E34008B4209D901EB410101448B7A3BB1036820
:101E4400002283F85420704700235B78FFDE70473C
:101E5400F0B5046840F2E925AC4200F09C8300F23E
:101E6400268140F2BA25AC4200F0D38279D840F200
:101E7400AB25AC4200F07882B4F52B7F33D240F22C
:101E8400A725AC4200F04D82B4F52A7F14D240F26B
:101E9400A125AC4200F0258240F2A225AC4200F01C
:101EA4002A829CBB09240471002B40F01A8240F260
:101EB400A12303600125C6E240F2A925AC424FF0FC
:101EC400000500F03B8200F244820AB104795455C3
:101ED400AB4C24680135647804719D42C0F02E82B5
:101EE40040F2A923E5E740F2B125AC4200F06C8250
:101EF4000FD840F2AD25AC4200F04E82B4F52B7FF2
:101F040040F23E82B4F52C7F00F052820025056039
:101F140099E240F2B325AC4200F06E82C0F06082D8
:101F2400B4F52D7FF2D100250AB1047954556C1C07
:101F3400CD6905B12D68AEB24D6905B12D688F69C3
:101F44000936ADB2B6B207B13F6835443D448D4E53
:101F5400ADB29C4235800571C0F05C8240F2BA2378
:101F6400A7E740F2DF25AC4200F0C682B4F5387F23
:101F740065D240F2C625AC4200F08C8248D8B4F554
:101F84002F7F00F06282C0F0528240F2BD25AC4245
:101F9400BCD100240AB1057915554D69013405B148
:101FA4002D68794E3560794D00262E60774D764E3A
:101FB4002F683668B7422E46C0F05A82CD6905B103
:101FC4002D68734F3D6000253560704D704E2F684D
:101FD4003668B7422E46C0F067828D6905B12D6818
:101FE4006C4F3D6000253560684D6A4E2D6836683B
:101FF400B542C0F06382624E356803353560A34252
:102004004FF00905057100F26C8240F2DE2350E7BF
:10201400B4F5367F00F05B8240F2DE25AC4200F07E
:102024005F8240F2CF25AC427FF470AF00240AB146
:1020340005791555554E356801340135C4E740F22C
:10204400E325AC4200F08182B4F5397F14D240F22A
:10205400E125AC424FF0000400F0618200F26A8294
:102064000AB105791555013400259C420571C0F06B
:10207400568240F2E1231CE740F2E525AC4200F031
:102084007D82B4F5397F40F26D8240F2E625AC42A0
:102094007FF43CAF00240AB10579155501340925B4
:1020A4009C420571C0F0788240F2E92301E740F2D6
:1020B4000235AC4200F0178300F2978040F2F1251C
:1020C400AC4200F0B2823AD840F2ED25AC4200F0C6
:1020D40088821CD840F2EB25AC4200F06982B4F54A
:1020E4003B7F4FF0000480F06F820AB105791555EB
:1020F4000D7A0134002D00F0A8834D7A9C4205F13D
:1021040001050571C0F0558240F2EB23D1E640F29F
:10211400EF25AC4200F07282B4F53C7F4FF000042E
:1021240080F078820AB105791555013491F826506A
:1021340005719C42C0F0638240F2EF23B9E640F29D
:10214400F725AC4200F09C82B4F53E7F24D240F2E5
:10215400F525AC4200F0768200F28082B4F53D7F32
:102164007FF4D4AE00240AB1057915550134242531
:102174009C420571C0F0678240F2F52399E600BFE6
:10218400D8080020CC080020D0080020C008002077
:10219400C4080020D408002040F2F925AC4200F025
:1021A4008982B4F53E7F40F2788240F2FA25AC424F
:1021B4007FF4ACAE00240AB1057915550D690134DC
:1021C40005B12D68AF4E3560AF4D00262E60AE4D83
:1021D400AC4E2D683668B542C0F07B820725A34219
:1021E40005711FD840F2063363E640F20F35AC4266
:1021F40000F0C982B4F5447F38D240F20935AC42CC
:1022040000F094821AD840F20735AC4200F075828F
:10221400B4F5427F80F07D8240F20635AC427FF413
:1022240075AE00240AB105791555013425259C4263
:102234000571C0F0638240F207333AE640F20B3591
:10224400AC4200F09282C0F08382B4F5437F7FF405
:102254005DAE00240AB105791555013409259C4267
:102264000571C0F0918240F20F3322E640F2163538
:10227400AC4200F0B1821DD8B4F5457F00F09182E4
:1022840000F29D82B4F5447F7FF440AE00240AB18D
:10229400057915557D4D2D686E780134002E00F0BA
:1022A400D682AE789C42AD5D0571C0F07B824FF45E
:1022B4004573FEE5B4F5467F00F0A982C0F09A822A
:1022C40040F219318C4200F0AF8240F21A339C4242
:1022D4007FF41CAE00240AB1037913554FF44773FD
:1022E400E7E50AB1047914700424012B047116D8AB
:1022F40040F2A223DDE500250AB1047954550C7A95
:10230400624E0135002C00F09D8201F10904346015
:102314009D424C7A047105D340F2A723C9E50125F7
:10232400EAE700250AB104795455013500249D4299
:102334000471FFF4CAAD4FF42A73BAE50AB1047903
:102344005455013501249D42047102D340F2AA235D
:10235400AFE50AB104795455013501249D42047155
:1023640003D340F2AB23A4E500250AB10479545504
:10237400013500249D42047103D34FF42B7398E577
:1023840000250AB104795455013500249D42047195
:1023940003D340F2AD238CE500250AB104795455EA
:1023A400013509249D42047103D34FF42C7380E555
:1023B40000250AB104795455013524249D42047141
:1023C40003D340F2B12374E500250AB104795455CE
:1023D400013501249D42047103D340F2B22368E520
:1023E40000250AB104795455013500249D42047135
:1023F40003D340F2B3235CE500250AB104795455B4
:10240400013501249D420471FFF48EAD4FF42D7308
:102414004FE500240AB1057915551D4D2D88013469
:102424002D0A9C42057103D340F2BB2341E50024ED
:102434000AB105791555013401259C42057105D36E
:102444004FF42F7303602846F0BD00240AB10579C8
:1024540015550D7A0134002D00F0F7814D7A9C4218
:1024640005F101050571FFF495AD40F2BD2320E5AA
:102474004D69AD689C42ED5D05710CD340F2C623F5
:1024840017E500BFC8080020C0080020D8080020B5
:10249400CC08002000240AB105791555AA4E3568E8
:1024A40001350134356081E5CD69AD68A342ED5D48
:1024B40005713FF6BCAD40F2CF23FAE48E69B668ED
:1024C400A342755D057103D84FF43673F1E400241B
:1024D4000AB1057915559C4E35680134013582E5FC
:1024E40000240AB105791555013404259C4205716F
:1024F40003D340F2DF23DCE400240AB10579155547
:102504000D7A0134002D00F0A0814D7A9C4205F132
:1025140001050571FFF4A4AD4FF43873C9E40AB1A1
:1025240005791555013400259C42057102D340F20A
:10253400E223BEE40AB105791555013401259C4214
:10254400057103D340F2E3237CE700240AB1057943
:102554001555013491F8265005719C4203D34FF46C
:102564003973A6E400240AB1057915550134002510
:102574009C42057103D340F2E5239AE400240AB196
:1025840005791555013400259C420571FFF483AD8E
:1025940040F2E6238DE400240AB10579155501348F
:1025A40004259C420571FFF4A0AD40F2EA2380E4C7
:1025B40000240AB105791555013401259C420571A1
:1025C40002D34FF43B733DE70AB1057915555F4DCE
:1025D4002D6801346D7805719C4203D340F2ED23DC
:1025E40067E400240AB105791555013401259C429C
:1025F4000571FFF497AD40F2EE2323E700240AB1FE
:1026040005791555013400259C42057102D34FF418
:102614003C734EE40AB105791555013400259C42FA
:10262400057103D340F2F12343E400240AB1057990
:102634001555013407259C420571FFF494AD4FF400
:102644003D7336E400240AB105791555013401259A
:102654009C42057103D340F2F623F3E600240AB149
:10266400057915550D7A0134002D00F0EE804D7A70
:102674009C4205F10105057103D340F2F72318E4E8
:1026840000240AB105791555013491F820500571DB
:102694009C4203D34FF43E730BE400240AB1057942
:1026A400155501344D8C05719C4204D340F2F92335
:1026B400FFF7FFBB00240AB1057915554D8C013491
:1026C4002D0A9C420571FFF476AD40F2FA23FFF720
:1026D400F0BB0E69B668A342755D057104D840F27B
:1026E4000233FFF7E6BB00240AB105791555164EEF
:1026F400356801350134356069E500240AB105798E
:102704001555013401259C42057103D34FF44273DE
:1027140098E600240AB105791555013400259C4238
:10272400057104D340F20933FFF7C3BB00240AB197
:1027340005791555013400259C42057109D340F2F1
:102744000A33FFF7B6BB00BFC0080020D80800203A
:1027540000240AB105791555013400259C42057100
:1027640004D340F20B33FFF7A4BB00240AB105796C
:102774001555013400259C420571FFF46BAD4FF4EF
:102784004373FFF796BB00240AB10579155501344C
:1027940005259C420571FFF47AAD4FF44473FFF7AD
:1027A40088BB00240AB105791555651C9D424FF07C
:1027B4000104047104D340F21533FFF77ABB0025FA
:1027C4000AB1047954556C1C9C428D8C057104D358
:1027D40040F21633FFF76DBB00240AB10579155595
:1027E400898C0134090A9C42017104D340F21733E5
:1027F400FFF75FBB00240AB10179115501340121AF
:102804009C42017104D34FF44673FFF752BB00247A
:102814000AB101791155013400219C42017104D39C
:1028240040F21933FFF745BB00240AB10179115571
:10283400013400219C420171FFF44DAD40F21A3382
:10284400FFF737BB34602378FFDE2B78FCE733785F
:10285400FAE700BF037A012B07D9437B00F10C028E
:1028640033B1837BD05C02F077BD00235B78FFDE5D
:102874001B78FCE71FB5037A012B0ED9437B00F1CB
:102884000C046BB1837BCDE90112E05C002201A949
:102894000392FEF781FF04B010BD00235B78FFDED6
:1028A4001B78FCE7FFF7E6BF0368002099657047D3
:1028B400002070472DE9F04F4B6885B082460C46E6
:1028C40000925BB90B681B681B683BB98D682DB916
:1028D400C0E90055284605B0BDE8F08F02F038FD88
:1028E400009BE7689F4228BF1F464FF0000904F190
:1028F400100383464E46012501934FB3A3686168D4
:10290400BB42984628BFB84629B342460BEB0600A3
:1029140003F0BDFB00236360A268E368A2EB080236
:10292400A3EB0803A260E360A7EB0807464402BBDD
:10293400B9F1000F03D02268126812682260D3B183
:102944002368D3B963601EB1009BB34288BF0025DE
:10295400CAE900B6BEE7002BDED0216801984B68B7
:102964000BEB0602D3F804904346C8474FF0010925
:10297400D2E7002BC1D10025BFE7002302932168D1
:102984004B680022D3F8048002A80123C04708B989
:102994002061B2E7A3680133A360F0E7084B1A781B
:1029A40082420CD0052818BF064A187018BF137845
:1029B40005481CBF23F002031370FEF791BF704754
:1029C400E8080020040900204864000008B500203D
:1029D400FEF782FE8020BDE80840FEF77DBE08B504
:1029E4000020FEF787FE8020BDE80840FEF782BE87
:1029F40038B505460C4602F063FDA84205BFD4E98C
:102A04000001034B1020C3E9000108BF002038BDBA
:102A1400080900207FB5C38893421D4628BF154688
:102A240093420E46144620D9802002F0D7FBB4FB13
:102A3400F0F303FB1040B0FA80F04009039000204B
:102A4400CDE9016500F098FA01A98020FEF7A4FE03
:102A5400044620B906498020FFF7CAFF0446002037
:102A640000F08CFA204604B070BD0020E6E700BFF9
:102A74007C6400002DE9F04F0C78062C87B00E46DC
:102A840000F0F88120D8022C3DD003D8012C32D09C
:102A94000624E9E1032C32D0052CF9D10DF10D0007
:102AA400B04D8DF80C4002F0A1FC00232B609DF882
:102AB4000D3003F01F07032F00F28481DFE817F0C5
:102AC4002D001D01790165000D2C00F0C18107D88E
:102AD4000B2C18D00C2CDBD10020FFF75FFF12E089
:102AE4000E2C00F0C581852CD2D19F4B1B78032B73
:102AF400CED1042000E00320FFF750FFC8E79B4835
:102B040000F0A7FB08B90024AEE1994B01221A603A
:102B1400BFF36F8FBFF34F8FF5E7C3F34116A6BB27
:102B2400DB099DF80E1000F0A280062916D00829B2
:102B340000F0908049BB8F4C0222204603F0D0FA6B
:102B4400237843F0010222708B4A1278920744BF23
:102B540043F003032370022286490EE09DF81030EF
:102B6400022B16D0032B65D0012B0ED1BDF81330E8
:102B7400002B00F06A81814912220DF10D00FFF74C
:102B840049FF0446062C40F0258103A8FEF7F2FD18
:102B94000DE1BDF81330002B00F05781092B28BF3D
:102BA40009239846FEF7A8FD4FF0090904465CBBCB
:102BB400704C73494246204603F069FA2771A4F821
:102BC4000290FEF781FD18B1E37943F02003E3712D
:102BD400FEF792FD6B4BC3E90004C3F80880BDF80F
:102BE4001320DA60002000F0C7F967498020FEF75F
:102BF400E7FD044620B965498020FFF7F9FE044645
:102C0400002000F0BBF9BDE701964FF0000A6368AD
:102C14000022D3F804B02146012301A8D84730B9D3
:102C2400237A1F442368D144FFB21C68BFE70AF12A
:102C3400010AECE7BDF81330002B00F00681BDF863
:102C440011109DF80F0000F071F9014600289CD086
:102C5400027892E7444A1278052A03D1454A137050
:102C6400012279E7042A90D1424B1E70F8E7032928
:102C74000FD009292BD0012987D1BDF80F30012BA2
:102C840083D1FEF721FD60B13B4A137823F00203A0
:102C94000FE0BDF80F30012B7FF477AFFEF714FD82
:102CA40018B90F2402F009FCDEE0334A137843F02C
:102CB400020313702B68002B00F0C78002F000FCA5
:102CC400044600287FF41FAF02F0B6FBCCE0264B8D
:102CD4001B78043B012B01D90824E3E79DF80F304E
:102CE4002BB9FEF7E9FD0420FFF758FEE2E7012BBC
:102CF40056D1FEF7CDFD0520F6E701A99DF8110098
:102D0400FEF700FD074608B91024CBE703AA9DF897
:102D14000410FEF70FFD062804465BD19DF80D2034
:102D240012F0600FBED1104B9DF8041018789DF876
:102D34000E30D6092CD073B10A2BB3D10528CBD1D0
:102D44003846FEF79FFD0B49324608700DF10D0021
:102D5400FFF760FE2BE00528BED106490B80022256
:102D6400F4E700BF08090020E8080020100900204B
:102D74005C7002401409002004090020686400000B
:102D840049640000EC080020946400007C640000A6
:102D94000B2B87D105289FD1BDF80F30FF2B01D90C
:102DA40007247FE79DF80F203846FEF71DFD0446F3
:102DB40010E09DF81100070706D19DF80D3013F0BF
:102DC400600F0BD006246DE703A9FEF7B6FC0628B6
:102DD4000446F2D0002C3FF46DAF63E79DF80E205B
:102DE400364B9DF811401B78012A1CD082B1032A6E
:102DF400E8D12007E6D4BDF80F20002AE2D1052B44
:102E040002D021077FF468AF204602F0B9FA51E7F7
:102E1400052B02D026077FF45FAF204602F0BCFAF0
:102E2400274908809BE72207CCD4BDF80F20002A4D
:102E3400C8D1052B02D023077FF44EAF204602F001
:102E4400C5FA204602F0E8FD34E702F033FB5AE607
:102E54004FF08043D3F8384414F0010401D0022029
:102E64003BE60120FFF79AFD204607B0BDE8F08F4E
:102E7400012032E6C8780328F6D0124D2B68DBB166
:102E840000222A6069689847044600287FF40AAF44
:102E94002B6823B1B378002B7FF435AE14E70A4BCB
:102EA4001B68082B7FF42FAE084B1B68002B3FF4E4
:102EB4002AAE02F0FFFAD7E70E24F3E6E808002072
:102EC400140900200809002030010010340100100A
:102ED40008B1402303600148704700BF1409002073
:102EE400014B1878704700BFE808002010B50E4B5E
:102EF40053F8204023780BB9A01C10BD0020FFF725
:102F0400E7FF013C00235A1CA15C39B9DBB2013351
:102F14005B00DBB243F440730380EEE7D3B220F8E6
:102F240013101346EFE700BFF864000008B9FFF779
:102F3400DDBF052807D8054A105C20B1044B53F8BF
:102F44002030002BF3D10020704700BF1065000033
:102F5400F864000072B6024A1368013313607047C4
:102F640054090020034A1368013B136003B962B695
:102F7400704700BF54090020FFF7ECBFFFF7F2BF12
:102F84001EF0040F1CBFEFF309800AE0EFF3088082
:102F94000549064A884201D8904202D88D464FF02E
:102FA4000000034B184700000000042000E0032049
:102FB400DD2F0000BFF34F8F0549064BCA6802F4AA
:102FC400E0621343CB60BFF34F8F00BFFDE700BF48
:102FD40000ED00E00400FA052DE9F3470546FDF78E
:102FE400E9FDFDF737FC0028FBD12D4B2D4C9F6AE2
:102FF4002D4BE41AE408240444F00104002D49D0C4
:10300400AA692A492046FDF78FFDEB680193AB6856
:1030140000932749D5E900232046FDF79AFDEB6983
:1030240000932449D5E904232046FDF786FD1C4B73
:10303400DB6A990703D520492046FDF771FDDFF8C7
:103044008890DFF888A000264FF0010808FA06F3FC
:103054003B4206D059F826201AB151462046FDF7C6
:1030640063FD01361A2EF1D13A0605D50C4B1349EE
:103074005A6B2046FDF758FD3B0405D5084B104913
:103084009A6B2046FDF750FD2846FFF793FF02B0E8
:10309400BDE8F0870B492046FDF742FDC7E700BFB6
:1030A40000ED00E040620000F061000016650000E1
:1030B4002B65000060650000BB6500000A66000027
:1030C4002A6600008865000044660000FF65000071
:1030D40010B561B1B2FBF3F403FB1424A4B244B9F8
:1030E400C0E9001484608281C381204610BD0E2093
:1030F400FCE70920FAE737B550E8013F9DB2C489DF
:1031040025448489A54228BF2D1B0489A54202BFFA
:10311400BFF32F8F002207E0C5EA030540E80154FE
:10312400002CE9D14FF001028DF803200193019B9B
:103134009DF803200B6002F0FF0322B10B880068A6
:10314400184403B030BD1846FBE70A884B889A42FE
:1031540009D150E8012FC2EA024240E80123002BC2
:10316400F7D1012070470020704737B550E8023F7F
:103174001FFAA3F5C488A54202BFBFF32F8F002214
:103184000DE0C48925448489A54228BF2D1BC3EAC8
:10319400054540E80254002CE8D14FF001028DF8B7
:1031A40003200193019B9DF803200B6002F0FF03B1
:1031B40022B14B880068184403B030BD1846FBE7C1
:1031C4000A884B889A4209D150E8022FC2EA224267
:1031D40040E80223002BF7D10120704700207047FC
:1031E40050E8002F0B4640E8003C9CF0000FF7D15C
:1031F4001046704750E8003F43EA010240E8002CC3
:103204009CF0000FF6D11046704750E8002F02EAF8
:10321400010340E8003C9CF0000FF6D110467047D3
:1032240050E8003F03EB010240E8002C9CF0000F43
:10323400F6D11046704750E8003FA3EB010240E886
:10324400002C9CF0000FF6D1104670470121FFF7C7
:10325400D1BF0021FFF7D9BF10B590B1D0E9012348
:1032640001689B1ADBB20A60013BDBB2FF2B0268E8
:1032740002D10020107110BD11684C1C14600B7039
:10328400F2E70E20F7E738B504460020FFF774FE96
:10329400226863681168994213D9481E106011F8B6
:1032A400015CE368218A01FB0535A36811791B1AC7
:1032B400DBB2994200D213710020FFF75FFE28466B
:1032C40038BD0025F8E738B5054600200C46FFF761
:1032D40053FE2A681368591C1160E968641A298A24
:1032E400B4FBF1F41C700020BDE83840FFF746BE83
:1032F400826810B504462AB1436901680069984799
:103304000023A36010BD0EB403B5039921B104AB2F
:1033140001AA019300F074F802B05DF804EB03B065
:1033240070470A2938B504460D4602D10D21FFF72E
:10333400F8FFA3682268591CA160D554D4E901326E
:103344009A4204D32046BDE83840FFF7D1BF38BDC8
:103354002DE9F84F9946DDE90A4317468246884627
:103364000A460126BA420FD24E4538BF4E4613F0E4
:10337400010B01D164B900240125B9F1010F1AD957
:1033840009F1FF397D43F8E7B2FBF7F20136E9E7CB
:103394009B070ED5B9F1000F0CBF30252025A6429E
:1033A400EAD2013C29465046FFF7BBFF002CF6D178
:1033B400E1E72025F3E7B8FBF5F39F42E2D9DFF814
:1033C4003C90B8FBF5F3504619F8031005FB13883D
:1033D400FFF7A7FFB5FBF7F3BD4207D2BBF1000F20
:1033E40002D00CB1A64203D3BDE8F88F1D46E8E72E
:1033F40020215046013CFFF794FFF2E76C6B00007C
:103404002DE9F74F054617468846002900F030811C
:1034140018F8011B49B92B7B002B00F029812846A1
:1034240003B0BDE8F04FFFF763BF252940F0C0802B
:10343400002698F800302D2B424608F1010823D0CD
:10344400302B24D02B2B25D000242A2B02F1010170
:1034540023D13B681A1D1B683A601C440A46137842
:103464002E2B26D101324FF00009104610F8011B13
:10347400A1F1300CBCF1090F1DD80A2303FB091379
:10348400A3F130090246F0E746F00106D1E746F021
:103494000206CEE746F00406CBE711F8013CA3F19F
:1034A40030000928DBD80A2202FB0434303C0A46E7
:1034B400CBE74FF0000912F8011B01F0FB0068286C
:1034C4009046F8D069290ED04AD8582964D006D835
:1034D40025296DD098F80030002B99D19BE76329FA
:1034E40062D06429F6D13A68D2F800A0111D8AEAA4
:1034F400EA723960A2EBEA724FF0010B092A5BDC35
:10350400CB4538BFCB462CB1BAF1000F01DB7207B3
:1035140000D5013CB30702D5B9F1000F04D0F00780
:1035240002D4002C4ED10024BAF1000F52DACAF1B1
:10353400000A2D212846FFF7F4FE06F00302022AB2
:1035440005D1B9F1000F02D1002C47D10024CDE9F7
:1035540000464B460A2251462846FFF7F9FEB9E7D2
:1035640073294CD014D87029B4D13B681A1D3A6021
:10357400302128461C68FFF7D4FE78212846FFF73F
:10358400D0FE00220823CDE9003221461022E3E7D1
:1035940075292BD078299DD139680A1D3A60CDE967
:1035A40000464B46102228E03B681A1D19783A6001
:1035B4002846FFF7B6FE8DE70A230BF1010BB2FB99
:1035C400F3F29BE7A345AFD220212846013CFFF745
:1035D400A8FEA6E77107B0D52B21ABE7A345B6D269
:1035E40030212846013CFFF79CFEADE73968CDE960
:1035F40000460A1D3A604B460A220968ACE73B685C
:103604001A1D3A6016F00106D3F800A020D1BAF1D1
:10361400000F03D0504602F0B8FD0646B44200D96C
:10362400C4B90AF1FF3A1EE028460136FFF779FED5
:103634001AF806100029F7D1A642BFF44BAF002CAC
:103644003FF448AF20212846013CFFF76AFEF3E728
:103654000026EDE720212846013CFFF762FEDDE766
:103664002846FFF75EFE1AF8011F0029F8D131E75A
:1036740003B0BDE8F08F2DE9F047B0F80690447927
:10368400D2F800A09DF8208009FB04F4043C06460F
:103694000AEB0300A0420F4688BFA4EB030A191DDE
:1036A400C2F800A0B1FBF9F509FB15114DB9A9EB5E
:1036B4000104544528BF5446BAF1000F04D1BDE8B3
:1036C400F0873668013DF1E704317B197018224612
:1036D400B8F1000F0ED001461846AAEB040A02F016
:1036E400D6FCD145254436684C464FF0000128BF2E
:1036F4005446E1E71946F0E7FFF7AEBDF8B5467961
:103704000146721E0546002393422D6803D300240C
:10371400A64202D8F8BD0133F6E70F682846FFF742
:10372400D2FD01343946F3E72DE9F843068ACD1C6E
:103734000746FFF7A8FD043E35440446B5FBF6F5FD
:10374400F0B14FF48073EDB28380C680013D076011
:1037540081464FF00008A84512D23846FFF793FD82
:10376400064648B163790133637108F10108C9F869
:10377400000007608146EEE72046FFF7BFFF3446AE
:103784002046BDE8F88301210430FFF749BD10B598
:10379400012104460430FFF74EFD10F0FF0F04D161
:1037A4002046BDE81040FFF7A9BF10BD1FB5039226
:1037B4000022009203AAFFF75EFF05B05DF804FB48
:1037C4001FB503920122009203AAFFF754FF05B02C
:1037D4005DF804FB836800225A609A60C3E90422FE
:1037E400DA601A607047000038B5074C051E04F112
:1037F400080318BF1C4623682BB11A6822605B6853
:1038040028469847F7E738BD6009002020B9054BE2
:1038140001225A70FFF7E8BF012802D1014A9070D3
:10382400F8E770475809002038B5094C23786BB97C
:1038340008486360A3602361E36000F0EDF8054687
:1038440000F0F6F801232370284638BD8525FBE7F0
:10385400580900201138000038B5134C6378054628
:1038640003F0FF0073B115B16B6800209847002086
:10387400FFF782FB6368013363600020BDE83840D2
:10388400FFF77CBBFFF778FB25B1A26813463BB971
:103894002A60A5606368002BECD100F0DFF8E9E74B
:1038A4009D42F7D01B68F2E75809002038B5084C50
:1038B4000020FFF761FB6368013B6360656815B92D
:1038C40000F0DEF865700020BDE83840FFF756BB15
:1038D4005809002010B5074C23784BB9064B002833
:1038E40008BF184600F028FA08B90123237010BD58
:1038F4008520FCE76C090020826B000008B500F00D
:103904004AFABDE8084000F04DBA10B50446FFF786
:10391400F5FF204600F032FA00F036FA002010BD20
:103924001FB503788DF800304368019383688DF8E0
:103934000830C3680393054A054B684653F82130A1
:1039440052F82110984705B05DF804FB7009002077
:10395400780900201FB503788DF80030436801937F
:1039640083688DF80830C3680393054A054B68469D
:1039740053F8213052F82110984705B05DF804FB44
:103984007009002078090020F0B5184B0778DFF89B
:103994006CE043F82720164B16460A6943F82720A3
:1039A4004B7F0EF807300C4684460FCC89B06D4629
:1039B4000FC594E80F0085E80F001EF80730049740
:1039C40053B1002E0B4A694608BF32460CF104007D
:1039D40000F086FD09B0F0BD002E074A694608BF15
:1039E40032460CF10C0000F06DFBF3E7780900207F
:1039F4007009002025390000593900008009002091
:103A040050E8002F02EA010340E8003C9CF0000F5C
:103A1400F6D1104670470000044A137923B90121F6
:103A240010609180184670478520704784090020F3
:103A3400084B1A68D2075FBFC02283F80023012213
:103A44001A604FF080420123C2F81835024A1370FD
:103A5400704700BF00E100E08C090020074B002202
:103A64001A6082B01B680193019B4FF080430122CE
:103A7400C3F804231A6002B0704700BF000100407D
:103A8400074B01221A604FF08042D2F80C3403F045
:103A94000113B3F1011FF8D0024B00225A71704791
:103AA4000400004084090020154B07B51A687AB158
:103AB40000221A601B680093009B4FF08043012290
:103AC400C3F808230F4B587910B95A711B689847EB
:103AD4000D4B1A6882B100221A601B680193019B86
:103AE4004FF080430222C3F80823064B1B680120D1
:103AF40003B05DF804EB184703B05DF804FB00BFA6
:103B040000010040840900200401004000F18040CD
:103B140000F5C040002382B0036003680193019B59
:103B240002B0704703681F2B83BF03F01F030360B9
:103B340001484FF0A04070470003005007B50190C2
:103B440001A8FFF7EFFF019B00EB8300D0F80027EB
:103B540022F44032C0F80027D0F8003743EA01438A
:103B6400C0F8003703B05DF804FB00002DE9F04F06
:103B7400002489B0CDE90244624D4FF480720121E2
:103B840002F1804303F5C04390B21B68012B06D1B8
:103B9400D5F804330B4202D0FFF7B8FF0C430432CC
:103BA400B2F5907F4FEA4101EAD1574B1B68012BD4
:103BB4000ED14FF4BE70FFF7A9FF4FF0A04344F0BD
:103BC4000044D3F810350293504BD3F810350393C7
:103BD40014F0FF0F1AD04E4F00250126344210D0A6
:103BE400AB0003F1804303F5C043D3F81005D3F8C9
:103BF400101557F8253023B1C1F30141C0F3052056
:103C040098470135082D4FEA4606E7D1002C75DAAE
:103C14000DF1100800230493C8F804304FF0FF336B
:103C2400CDE90633DFF8E8A0DFF8E89000273D4649
:103C340019F9014B631C48D0E4B2012324F0C006F7
:103C440004F0070203FA02F2F00808AB191811F89D
:103C5400083C134239D00AEB0603A40993F9303027
:103C64005AF823B0BBF1000F08D1032C2DD118F85A
:103C740000C04CEA020C08F800C001E0032CF6D0A6
:103C840001A80196FFF74EFF019B11F8181C03F5DC
:103C9400E07C114250F82C00C0F3014005D002280A
:103CA40013D1032C0BD1214604E003280DD1032C9E
:103CB40005D102213046FFF741FF0135EDB2BBF1DA
:103CC400000F02D021463046D8470137042FAFD128
:103CD400A5B14FF0A0430299D3F8102503F5407322
:103CE4009142D3F8103502D10399994206D0029239
:103CF4000393049A059B0692079395E709B0BDE8E0
:103D0400F08F00BF006000407C6100400003005061
:103D140090090020F009002000F1804382B01A6865
:103D2400002A14BF0120002004D000221A601B685E
:103D34000193019B02B070470E4B1A78C2B9027806
:103D44004FF08041C2F34002C1F88025027802F0AE
:103D54000102C1F87825084A1168C9075FBFC0216C
:103D640082F800130121116001221A7000207047AB
:103D740085207047080A002000E100E0014B02683A
:103D84001A607047040A00204FF080434FF46072B9
:103D9400C3F8042370474FF080434FF46072C3F8B4
:103DA40008237047014B00221A607047040A002060
:103DB4004FF0804310B5D3F80443620707D54FF49E
:103DC4008470FFF7A9FF10B11E4B1B689847A30628
:103DD40008D54FF48A70FFF79FFF18B11A4B0020E3
:103DE4001B689847600608D54FF48C70FFF794FF62
:103DF40018B1154B01201B689847210608D54FF4CC
:103E04008E70FFF789FF18B1104B00201B6898478C
:103E1400E20508D54FF49070FFF77EFF18B10B4B05
:103E240001201B689847A3050AD54FF49270FFF749
:103E340073FF28B1054B02201B68BDE810401847EA
:103E440010BD00BFFC090020000A0020040A002065
:103E540008B5FFF7ADFFBDE80840FFF725BE000039
:103E6400014B1B68184700BF0C0A002038B50B4BE8
:103E740098420D4601D0002038BD0020FFF77CF8A1
:103E8400074B1C7914B901221D601A710020FFF739
:103E940075F8002CEFD01120EEE700BF00200040A1
:103EA4000C0A0020034B984201BF034B00221A6006
:103EB4001A717047002000400C0A0020044A9168DF
:103EC4009368CB1A23F07F438342F9D3704700BF32
:103ED40010E000E0034B044A1B68B3FBF2F35843C1
:103EE400FFF7ECBF2C00002040420F00002343509A
:103EF40082B043580193019B02B070470A4610B543
:103F04004FF48E71FFF7F2FF136A9168C95C136A6C
:103F140001331362C0F81C1510BD8B690A4610B535
:103F24004FF4847123B9FFF7E1FFD0F8183510BDC1
:103F3400FFF7DCFF536AD168D0F81805C854536AF8
:103F440001335362F3E700001FB501238DF80030FD
:103F5400044BCDE90110D3E900126846904705B03F
:103F64005DF804FB140A002030B54C4AD2F804333F
:103F740013F4007F85B015464FD0D2F82431002BBE
:103F84004BD04FF492711046FFF7B0FF4FF401731A
:103F9400C2F80833424B93F8291009B90121516042
:103FA4003E4902228DF80020D1F88024C1F88024F3
:103FB40003929A690292DA6801920022C3E9062206
:103FC4006846D3E9001290473448D0F81C315BB1FD
:103FD40033490A6A4B699A420A464BD291F828300F
:103FE400002B47D1FFF78AFF2C4AD2F8443193B112
:103FF4004FF4A2711046FFF779FF294B93F829106B
:1040040009B1012111609A692AB100229A61586AA2
:10401400D968FFF799FF05B030BDD5F804335B07C5
:10402400D2D5D5F80831002BCED01D4C1B482146E3
:10403400FFF773FF636AA2699A422346C4D1E26917
:10404400E1684AB12369E3600023606AA261E36125
:104054006362FFF779FFB7E794F829200AB90122D0
:104064006A600E4A4FF40170C2F8080300229A6194
:10407400586AEEE74FF48E710848FFF737FF51692D
:104084000029B1D00023029191688DF8003001918C
:1040940053616846D2E900139847A5E70020004021
:1040A400140A00201F2886BF00F01F00044B4FF0A5
:1040B400A04300F5E070022243F82020704700BFBF
:1040C400000300502DE9F843624F047991462C22F5
:1040D40002FB0472064692F82A200D46002A40F09C
:1040E400B3805D490068FFF7C1FE8046002840F0B8
:1040F400AE8029684A1C10D01F2987BF01F01F0316
:10410400564A0B464FF0A0420120984003F5E07355
:10411400C2F80805032042F823006868431C0DD048
:104124001F288BBF00F01F0303464C4A4FF0A042E8
:1041340003F5E0734FF0000C42F823C03368AA691A
:1041440095F814C0C3F824256A7DBCF1010F4CEA2C
:104154000202C3F86C25C3F81405C3F80C152BD15F
:10416400A968481C0DD01F298BBF01F01F020A4605
:104174003A484FF0A04002F5E0724FF0000C40F8CE
:1041840022C0E868421C13D01F2887BF00F01F0C10
:10419400324A84464FF0A0424FF0010E0EFA0CFE54
:1041A4000CF5E07CC2F808E54FF0030E42F82CE071
:1041B400C3F80805C3F810152C236343FA18C2F892
:1041C40004902A69FA50B9F1000F2AD04FF48E7185
:1041D40030682D7FFFF78AFE30684FF4A271FFF735
:1041E40085FE32681E4BC2F80433120B51B200290B
:1041F400A8BF01F160404FEA4513BABF194802F065
:104204000F0500F56140DBB2B4BF435580F80033BD
:1042140002F01F02012303FA02F24909124B43F888
:10422400212033680422C3F800252C2303FB0473E4
:104234000022C3E9062283F829205A61012283F867
:104244002A204046BDE8F8834FF00808F9E74FF00C
:104254001108F6E7140A00206D3F00000003005027
:104264008000020014ED00E000E100E02DE9F041DF
:1042740003680479254D0022C3F800252C2202FB93
:1042840004520646526872B1214AC3F80823190B36
:104294004AB20120520901F01F0100FA01F1203253
:1042A4001C4840F82210D3F80C05D3F81485D3F831
:1042B4000815D3F810754FF0FF329042C3F8142557
:1042C400C3F80C25C3F80825C3F8102501D0FFF75F
:1042D400E9FEB8F1FF3F02D04046FFF7E3FE7A1C47
:1042E40002D03846FFF7DEFE4B1C02D00846FFF72B
:1042F400D9FE3068FFF7D6FD2C2303FB04540023BA
:1043040084F82A306360BDE8F08100BF140A0020FD
:104314008402020000E100E02DE9F047214F067914
:104324004FF02C0909FB067480466569002D37D1CE
:104334006261A16025624FF48E71006884F8285090
:10434400FFF7D4FDD8F80000012383602146FFF76E
:10435400D5FD6368A14693B9D8F800A0226A6369C1
:104364009A4212D3D8F80030D3F81C21002AFBD08B
:104374000122DA602C2303FB0676002373612846AE
:10438400BDE8F08794F8283043B9DAF81C31002BE3
:10439400F8D049465046FFF7B1FDDFE70F25E9E7BE
:1043A4001125ECE7140A00200023435082B043583F
:1043B4000193019B02B070471FB501238DF80030B3
:1043C400044BCDE90110D3E900126846904705B0CB
:1043D4005DF804FB400A00207FB5374AD2F8246117
:1043E400002E48D010464FF49271FFF7DDFF0223F0
:1043F4008DF80030D2F88034C2F880340393D2F8B8
:104404003C3502932D4BDA6801920022C3E906225F
:104414006846D3E900129047274AD2F844317BB169
:104424004FF4A2711046FFF7BFFF244B996939B1CD
:104434000021C3E90611D968D2F83C05FFF7BCFF97
:104444001D4AD2F82031A3B14FF490711046FFF702
:10445400ABFF1A4B596961B1D2F84C150291002295
:1044640099688DF8002001915A616846D3E90012D9
:10447400904704B070BDD2F81031002BCCD04FF46B
:1044840088711046FFF790FF0C4BD2F83C059969F0
:104494008842C1D1DC69D96864B1D2F8005225F0F0
:1044A4002005C2F800521A699C61DA60DE61FFF7E8
:1044B40083FFB1E79C61FAE700200040400A002036
:1044C4001F2886BF00F01F00044B4FF0A04300F5E7
:1044D400E070022243F82020704700BF0003005020
:1044E4002DE9F843664F06799146242202FB0672B1
:1044F400044692F820200D46002A40F0BB80614912
:104504000068FFF7B3FC8046002840F0B6802868B6
:10451400421C10D01F2887BF00F01F035A4A0346CD
:104524004FF0A0420121994003F5E073C2F8081549
:10453400032142F8231069684B1C0DD01F298BBF3F
:1045440001F01F030B46504A4FF0A04203F5E073FD
:104554004FF0000C42F823C02368AA6995F814C0F0
:10456400C3F824256A7DBCF1010F4CEA0202C3F8AA
:104574006C25C3F80C05C3F814152BD1A968481C85
:104584000DD01F298BBF01F01F020A463E484FF091
:10459400A04002F5E0724FF0000C40F822C0E86839
:1045A400421C13D01F2887BF00F01F0C364A8446D4
:1045B4004FF0A0424FF0010E0EFA0CFE0CF5E07C19
:1045C400C2F808E54FF0030E42F82CE0C3F80805E2
:1045D400C3F8101524237343FA18C2F804902A6907
:1045E400FA50B9F1000F34D04FF4887120682D7F50
:1045F400FFF7DAFE4FF490712068FFF7D5FE4FF411
:1046040092712068FFF7D0FE20684FF4A271FFF783
:10461400CBFE22681D4BC2F80433120B51B20029A1
:10462400A8BF01F160404FEA4513BABF184802F031
:104634000F0500F56140DBB2B4BF435580F8003389
:1046440002F01F02012303FA02F24909114B43F855
:10465400212023680822C3F80025242303FB0673C2
:104664000022C3E906225A61012283F82020404631
:10467400BDE8F8834FF00808F9E74FF01108F6E7B2
:10468400400A0020DD430000000300501003020034
:1046940014ED00E000E100E02DE9F0410368047945
:1046A400254D0022C3F80025242202FB04520646AD
:1046B400526872B1214AC3F80823190B4AB2012087
:1046C400520901F01F0100FA01F120321C4840F8A0
:1046D4002210D3F80C05D3F81485D3F80815D3F8B1
:1046E40010754FF0FF329042C3F80C25C3F814251F
:1046F400C3F80825C3F8102501D0FFF7E1FEB8F18F
:10470400FF3F02D04046FFF7DBFE7A1C02D038465A
:10471400FFF7D6FE4B1C02D00846FFF7D1FE3068E7
:10472400FFF7C0FB242303FB0454002384F8203048
:104734006360BDE8F08100BF400A0020100302005E
:1047440000E100E001F06043B3F1005F2DE9F041C6
:10475400074632D11B4B0679242505FB06359846BE
:104764006C6964BB6A61A96000684FF49071FFF7DB
:104774001BFE4FF4AC713868FFF716FE3B686A699C
:10478400A968C3F84415C3F8482501229A606A68E9
:1047940062B9D3F82021D3F8584152B9002CF8D08B
:1047A4000F24242303FB0686002373612046BDE8FF
:1047B400F081002C18BF0F24F3E71024F6E711242E
:1047C400F4E700BF400A002000F1804000F51C30EF
:1047D40001230360BFF36F8FBFF34F8F7047000057
:1047E400064A10F0800F00F00F0314BFD2F8100532
:1047F400D2F81405D84000F0010070470070024060
:10480400054B1B68082B05D1044B1868003018BFF2
:10481400012070470020704730010010340100105F
:1048240030B54C680D689C4229BFC0E90053002193
:10483400E41AED1832BFC0E900514C600D60934298
:1048440003D1201C18BF012030BD0020FCE74B68B9
:1048540010B59A420C6828BF1A46C0E90042981A5B
:104864000B684860134400300B6018BF012010BD72
:1048740030B54C680B68A24228BF2246002A14BFF8
:104884001D460025A4EB02041344C0E900524C6009
:104894000B6014BF0120002030BD0000054B10F058
:1048A400800FA3F1900208BF134600F00F0003EB42
:1048B40000107047D80B002010F0800F14BF0023A5
:1048C400102300F00F00184470470000024A002330
:1048D4001360024A137070471C7C0240650A002072
:1048E40007B5084A00231370074A01931370012384
:1048F4008DF80430054B01A81B68984703B05DF898
:1049040004FB00BF640A00206C0C0020680C00202B
:1049140070470000F8B54D680B4F954228BF154607
:104924000C4606462A460968384601F0B0FB606822
:104934002368401BC6E9007560601D440030256093
:1049440018BF0120F8BD00BF740C0020F8B54C68F6
:10495400944228BF144606460D468CB1094F096897
:104964002246384601F093FB37606B6874601B1B6A
:104974006B602B68201C23442B6018BF0120F8BDFA
:104984000460F2E7740C002008B5FFF79FFF084BA2
:1049940093F89E20032A06D16FF001010548BDE873
:1049A4000840FFF72DB8D3F89030002BF4D008BDA1
:1049B400480B0020D40A002007B500238DF80430EA
:1049C4000B4BD3F82025ADF80620D3F8C034094AA0
:1049D400002B13680CBF4FF480714FF001210B437F
:1049E4001360054B01A81B68984703B05DF804FBEE
:1049F40000700240440B0020680C002013B5124CD8
:104A04000122236802FA01F10B4323600F4B1B6858
:104A1400194003060DD551B906238DF804308DF8DD
:104A240006008DF807100A4B01A81B68984702B0CE
:104A340010BD0029FBD106238DF804308DF8060043
:104A44008DF80720EFE700BF440B0020D40A0020B4
:104A5400680C002008B5054B1A781046FFF72CFFA8
:104A6400BDE8084001461046FFF7C8BF6C0C0020A3
:104A740008B50146FFF72AFFFFF710FF837B032BDE
:104A84000AD10846FFF718FF01218140C9430448B1
:104A9400BDE80840FEF7B4BF0368002BF1D008BDA1
:104AA400D40A00208720FFF7E3BF8620FFF7E0BF8A
:104AB4008520FFF7DDBF8420FFF7DABF8320FFF7EF
:104AC400D7BF8220FFF7D4BF8120FFF7D1BF0000FA
:104AD40007B5FFF7FBFE104B93F81E21032A07D1FD
:104AE4006FF480710D48FEF78BFF03B05DF804FB93
:104AF400D3F81031002BF8D16FF480710748FEF71A
:104B04007FFF06238DF804308823ADF80630044B6C
:104B140001A81B689847E8E7480B0020D40A002046
:104B2400680C002007B5FFF7D1FE0D4B93F88E20DB
:104B3400032A11D0D3F8803073B96FF0807109481B
:104B4400FEF75EFF06238DF804300823ADF8063027
:104B5400054B01A81B68984703B05DF804FB00BF30
:104B6400480B0020D40A0020680C0020204B13B509
:104B7400D3F80044C3F80044BFF36F8FBFF34F8FE3
:104B8400BFF36F8FBFF34F8FE1050BD5194B012294
:104B94001A700023019302238DF80430164B01A8E8
:104BA4001B689847A2050AD5124A00230193137083
:104BB40003238DF80430104B01A81B689847630544
:104BC40013D50C4B1A7882B100221A70084B0121BC
:104BD400C3F808155820FFF7F7FD042301928DF858
:104BE4000430054B01A81B68984702B010BD00BFF4
:104BF40000700240640A0020680C00202DE9F04F88
:104C0400764B87B01A780193002A7ED1DFF8F0A1A1
:104C1400DFF8CCB1724BDAF800101D68294074D06B
:104C240011F0012574D095FAA5F5B5FA85F50F2D87
:104C340086BFA5F11004E4B245F080042046FFF7D6
:104C44002DFE4FFA84F904F00803B9F1000F06466B
:104C54000093828961DAD0E9003104A8984700B949
:104C64003060604B82221A60019B059A04980121EE
:104C74001970A940B368DBF80050134425EA010118
:104C8400B9F1000FCBF80010B36004F00F040099E1
:104C9400554B7CDA002972D0C3F8A006C3F8A426C9
:104CA400FFF7AEFDA30024B26500504A5049002826
:104CB4007DD1B9F1000FB2BF042428240A464D4E19
:104CC4004D4F02EB05091C4405463560BFF36F8F59
:104CD400BFF34F8F2046FFF777FD0220FFF7FAF866
:104CE4003368002BF1D01E20FFF7F4F83B689B06D5
:104CF4005BD50120FFF7EEF8B9F8003003F18043EB
:104D040003F51C331B68002BDFD007B0BDE8F08F20
:104D140091FAA1F1B1FA81F589E7009B32493BB3DD
:104D2400D1F8C08418F4803F18BF4FF00008434600
:104D34007168376804A8B847049B002B8FD0059B83
:104D440043458CD201214FF00208A94086F80E8019
:104D5400C9435046FEF754FE06238DF80C30274B0A
:104D64008DF80E408DF80F801B6803A8984751E713
:104D740004F00F0303F5947351F82380D7E714214B
:104D840001FB0433C3F80006C3F8042688E721B105
:104D9400C3F8A007C3F8A42782E7142101FB043356
:104DA400C3F80007C3F804277AE702209CE7B9F1A7
:104DB400000FB4BF042028201844FFF705FD12EAB1
:104DC400290938BF894639F8143003F1804303F5C3
:104DD4001C331A68002AFCD097E700BF650A00203C
:104DE400440B00201C7C024000700240A86B0000B1
:104DF400C46B00000471024074740240680C00200B
:104E0400D40A002038B5174BD3F86C44C3F86C446B
:104E1400BFF36F8FBFF34F8FFFF7F2FC38B9124A1D
:104E2400136823F0011103F001130C4313600125EF
:104E34001CB9BDE83840FFF7E1BE94FAA4F3B3FA15
:104E440083F30F2BD9B2C8BFA1F1100005FA03F305
:104E5400CCBFC0B241F0800024EA0304FFF7CEFDCA
:104E6400E6E700BF00700240700C002037B504462E
:104E7400FFF72CFDFFF712FD837B032B0CD120469B
:104E8400FFF71AFD01218140C9430F48FEF7B8FD21
:104E9400FFF7B4FE03B030BD0568002DF8D12046FD
:104EA400FFF70AFD01218140C9430748FEF7A8FD29
:104EB40006238DF80430054B8DF806408DF8075015
:104EC4001B6801A89847E3E7D40A0020680C002077
:104ED4000720FFF7CBBF0620FFF7C8BF0520FFF769
:104EE400C5BF0420FFF7C2BF0320FFF7BFBF0220E6
:104EF400FFF7BCBF0120FFF7B9BF0000024A00233F
:104F04001360024A13707047680C0020660A002080
:104F140038B5464B4FF40062C3F80024BFF36F8FDB
:104F2400BFF34F8FFFF76CFC414C78B10020FEF7C4
:104F340023F821683F4B032200296CD149F27531D3
:104F440021601A6021600020FEF718F80020FEF7A7
:104F540013F82268384DC023002A5ED149F2753215
:104F640022602B6022600020FEF708F82F4B0122FC
:104F7400C3F80025BFF36F8FBFF34F8FD3F800241E
:104F84001205FBD54FF40062C3F80024BFF36F8F02
:104F9400BFF34F8F0020FDF7EFFF2268002A3ED1B8
:104FA40049F2753323602A6023600020FDF7E6FF91
:104FB400224B40F2E3721A60043340221A60BFF3BA
:104FC4006F8FBFF34F8FA3F6040300258022C3F82D
:104FD4001C25C3F830551A4B40F2FF121A60194BC6
:104FE4001D60FFF773FC184B1D70184B02221A70DA
:104FF400FFF706FCC0B12846FDF7BEFF21680D4B44
:1050040081B949F275322260196022600020BDE83E
:105014003840FDF7B3BF1A6095E72B60A3E7002380
:105024002B60C2E71D60F1E738BD00BF007002408D
:1050340000EC064014ED064014EC064000780240F3
:10504400440B0020D40A00206C0C0020660A0020C7
:1050540008B50F4B00221A70C0B9FFF7D1FB0D4BF6
:105064000D4A00280CBF184610460C4B0C4AC3F8D6
:105074000403C02182F82713802151600122C3F860
:105084000425BFF36F8FBFF34F8F08BD0148ECE7D2
:10509400640A00200714E0010714C00100700240F4
:1050A40000E100E0024B1878003018BF012070477F
:1050B400660A0020034B1878012894BF00200120C1
:1050C400704700BF660A002010B50020FDF754FFAA
:1050D400104B1B7803F0FF049BB10F4AD2F82C3518
:1050E400B3B10023C2F82C350C4B186802F58F229B
:1050F40002F21442C02148B949F2753018601160B7
:1051040018600020FDF73AFF204610BD1160F8E753
:105114001C46F6E7640A00200070024000EC0640DA
:10512400024B034AC3F80823704700BF00700240D3
:1051340004148001024B034AC3F80423704700BFE0
:105144000070024004148001014B00221A70704761
:10515400640A002008B5FFF7A1FB818108BD0000A7
:10516400F8B51C4B1C7894BB1B4A106001221A70C2
:1051740025462646EBB213F0080F43F080070CBF18
:1051840040214FF400713846FFF7E4FF3846FFF73B
:1051940085FB0135092D867306608660EAD14021BE
:1051A40000252046FFF7D6FF2046FFF777FB0134A2
:1051B400E4B2092C85730560856001D10020F8BD37
:1051C40014F0080F14BF4FF400714021E9E70820E0
:1051D400F5E700BF660A0020680C002008B5FFF759
:1051E4005DFB808908BDFFF7FBBA00002DE9F0479D
:1051F400054600208946FDF7BFFE15F00F0803D1D0
:10520400294B1B78AB424BD1284B294A1C681668A2
:105214002846FFF751FBE443A4B2012734438740F7
:105224003C4092463ED12846FFF738FB0C232A0621
:10523400844603FB08F32FD51E4AD9F80010134403
:1052440001F06041D9F80820B1F1005F02F00102D9
:105254001DD1D2B9184ACCF8002099E8070083E898
:105264000700CCF804300023CCF808308CF80E305A
:10527400124B3E438022CAF80060C3F80421002088
:10528400FDF77CFE2046BDE8F0870D4AE3E70AB946
:105294000C4AE0E70C4ADEE70C4A13440C4ADAE70E
:1052A4001024ECE71124EAE76C0C0020440B0020E6
:1052B400D40A0020D80A00205348000000E100E08E
:1052C400754800001949000051490000680A00208F
:1052D400254800002DE9F041804600200E46FDF7E8
:1052E4004BFE18F00F0F03D1154B1B78434522D109
:1052F400144B154F1C683D684046FFF7DDFAE44344
:10530400A4B201212C4381400C4016D14046FFF742
:10531400C5FA33680360736843600C4B84602943A7
:10532400802284733960C3F804210020FDF726FE2F
:105334002046BDE8F0811024F7E71124F5E700BF0B
:105344006C0C0020440B0020D40A002000E100E093
:1053540000487047740C002010F0080F074B06D06B
:10536400D3F8C00410F4803F18BF0020704700F049
:105374000F0000F5947053F820007047007002404D
:10538400044B40F48070C3F81805BFF36F8FBFF36C
:105394004F8F704700700240020713D400F00F03D0
:1053A40010F0800F084A0BBF03F5887303F584736C
:1053B40002EB830352F8230008BF5868431E584287
:1053C400584170470020704700700240064BC3F8F4
:1053D4000C05BFF34F8F40F48070C3F80C05BFF386
:1053E4006F8FBFF34F8F70470070024010B50822D3
:1053F4000021044600F074FE0E4BD3F88024227082
:10540400D3F884246270D3F88824D3F88C1442EA45
:1054140001226280D3F89024D3F8941442EA012242
:10542400A280D3F89824D3F89C3442EA0323E3807F
:1054340010BD00BF0070024008B5FFF7E1F958B98C
:10544400EFF3108272B64C20FFF7BEF94C20FFF741
:10545400BBF982F3108808BD4C20BDE80840FFF773
:10546400B3B9000013B5FFF731FA0F4B9A7B032A47
:1054740006D16FF480310D48FEF7C2FA02B010BDB8
:105484001C6874B96FF480310848FEF7B9FA062332
:105494008DF80430064BADF806401B6801A8984708
:1054A400ECE7FFF7C9FFE9E7480B0020D40A002026
:1054B400680C00205020FFF787B95420FFF784B907
:1054C400014B1878704700BF6C0C0020F8B50446F7
:1054D400FFF796F907462046FFF7EEF901258540C8
:1054E400ED43174EAFB93846FDF746FD04F00F04FF
:1054F4003068144B6400284004F2C57430600433EF
:1055040043F8044C1F601B680020BDE8F840FDF719
:1055140035BD0020FDF730FD306814F0080200EAC4
:1055240005003060F0D104F00F0404F59474064BC8
:1055340043F82420BFF36F8FBFF34F8FE4E700BF1E
:10554400440B00200078024000700240F7B5044686
:105554000020FDF711FD2046FFF7A0F9054620467F
:10556400FFF7AAF9012314F0800F03FA00F0294988
:1055740016D10B6830EA030209D02046FFF7A6FFD4
:105584000323AB730020FDF7F9FC03B0F0BD2A60E0
:10559400C043214A03400B60136803401360EFE7E4
:1055A400230711D4802C1D4E1D4B29D004F00F026B
:1055B40002F2DA32520032601A681E68D2B242F045
:1055C400020232431A601B68134E0A68336862EAA7
:1055D40003070742D6D022EA0002184300230A60D8
:1055E4002B600323AB738DF807300E4B306006221B
:1055F4008DF804208DF806401B6801A89847C1E780
:1056040040F2B47232601A681E68D2B242F00402E8
:10561400D7E700BFD40A0020440B002000780240E2
:1056240004780240680C0020F7B5174B174CD3F8E8
:1056340080542368164EDA43164B37781B6892B2AF
:1056440038461A43FFF738F9012303FA00F01042F1
:1056540002D03846FFF77AFF6FF0011105F080059C
:105664000C483570FEF7CCF9236843F0010323603E
:105674000023019305238DF80430074B01A81B6810
:10568400984703B0F0BD00BF00700240440B0020F7
:105694006C0C0020D40A0020680C0020554B2DE926
:1056A400F041D3F804530022294616460124002968
:1056B4007CD1FFF7A5F8002869D14F4B1B78002B4C
:1056C40065D1960263D54D494C4E40F2A9730B60E7
:1056D4004B4B1C6814F0FF041CBF1868044040F2D4
:1056E400AA700860186810F0FF001CBF1968084011
:1056F40040F2AB713160196811F0FF01B4461CBF70
:105704001E68314040F2AC76CCF800601E6834402C
:105714003C4E08D037682743376040F2A977CCF86D
:1057240000701C601C68354F40F2AD743C601C680E
:10573400204008D0346844EA0044346040F2AA743B
:105744003C60186018682D4840F2AE740460186814
:1057540001400DD0CC0748BF42F40002C8062748D8
:1057640040F2AB74046019601B6848BF42F0010248
:10577400336833F001111CBF05F08070024313F04D
:10578400011F04D06B0544BF316042F480621E4F98
:1057940002F4000622F400044FF00108E4B9FFF714
:1057A4002DFA2EB3BDE8F041FFF73EBF91FAA1F305
:1057B4001648B3FA83F39F00384407683FB1066084
:1057C400BFF36F8FBFF34F8F04FA03F0024304FA61
:1057D40003F321EA03016AE794FAA4F5B5FA85F51F
:1057E40057F8253008FA05F5984724EA0504D5E763
:1057F400BDE8F08100700240650A00200078024094
:1058040004780240700C0020D86B00000071024044
:10581400F8B5104E104A34681268240C240414435A
:1058240001271CB940F2FF133360F8BD94FAA4F5C4
:10583400B5FA85F5E8B20F2DC6BF1038C0B240F0F6
:105844008000030701D4FFF781FE07FA05F524EA77
:105854000504E6E7440B0020D40A002038B50C4CBC
:105864008025C4F8845163681B060FD5FFF7D0FF69
:10587400084B0022C3F80425BFF36F8FBFF34F8F8B
:105884004FF0FF32C4F88450C3F8082338BD00BF7A
:1058940000E100E00070024008B5FFF7DFFF094BAC
:1058A400D3F80423C3F808230022C3F80025BFF368
:1058B4006F8FBFF34F8FFFF709F8034B01221A7064
:1058C40008BD00BF00700240660A002010B5002029
:1058D400FDF752FB0E4B1B7803F0FF042BB9002499
:1058E4000020FDF74BFB204610BDFFF791FF094A4E
:1058F400D2F8003413F40073F1D10121C2F82C154D
:10590400D2F80014890544BFC2F82C351C46E7E7D9
:10591400640A00200070024010B50446FFF716FE2A
:10592400134A04F00F0064B2002C4FF00103B4BF1B
:10593400D2F81015D2F8141503FA00F36FEA030332
:10594400B5BF0B400B40C2F81035C2F81435BFF395
:105954006F8FBFF34F8F074B074A13EA240438BFF6
:1059640014460123225C9340014AC2F8083310BD57
:10597400007002409F6B0000BA6B0000F8B5224A29
:10598400224B234D46B213EA260338BF134600F0D8
:105994000F070121DB5D01FA03F3C5F80433044664
:1059A400FEF71EFF70BB002EB4BFD5F81035D5F836
:1059B400143501FA07F1B5BF19431943C5F8101599
:1059C400C5F81415BFF36F8FBFF34F8FD7B1002EF7
:1059D40018DB14F0080515D12846FDF7CDFA20464A
:1059E400FFF774FD2046FEF767FF0A4A012303FA16
:1059F40000F0136823EA000313602846BDE8F8406A
:105A0400FDF7BCBAF8BD00BFBA6B00009F6B000085
:105A140000700240D40A0020020610B504460AD4DD
:105A2400030708D400F00F029200074B9B58012B88
:105A340001D1FFF74BFD054BC3F81845BFF36F8F3A
:105A4400BFF34F8F10BD00BF44740240007002408A
:105A5400023808B50C2842D8DFE800F010074141AD
:105A6400414114253341410C0E000020BDE808409B
:105A7400FBF7CEB90120F9E7FBF7A8FDBDE8084024
:105A8400FBF7EEB9164B17481749C01AC0080004B3
:105A940040F00300FBF744F8FFF70CFBF8B9BDE84E
:105AA4000840FBF791BD0E4B0E481049C01AC008C0
:105AB400000440F00300FBF733F8BDE80840FCF7AE
:105AC40085B8074B07480A49C01AC008000440F0CB
:105AD4000300FBF725F8BDE80840FCF767B808BDEC
